:100000000C9462000C9436050C940F050C948A0035
:100010000C948A000C948A000C948A000C945D095C
:100020000C948A000C948A000C948A000C948A0028
:100030000C948A000C94B5050C948A000C948A00E8
:100040000C9427120C948A000C9483050C945D0583
:100050000C948A000C948A000C948A000C948A00F8
:100060000C94690F0C948A00000000002400270003
:100070002A0000000000250028002B0000000000DE
:1000800023002600290004040404040404040202DA
:100090000202020203030303030301020408102007
:1000A0004080010204081020010204081020000012
:1000B0000008000201000003040700000000000027
:1000C0000000CF1711241FBECFEFD8E0DEBFCDBF99
:1000D00024E0A2E6B2E001C01D92AB36B207E1F720
:1000E00012E0A0E0B1E0EAEEF9E302C005900D9263
:1000F000A236B107D9F710E0C2E6D0E004C02197DC
:10010000FE010E94D219C136D107C9F70E947112AF
:100110000C94F31C0C9400000895CF92DF92EF92A0
:10012000FF920F931F93CF93DF936C017A018B01A2
:10013000C0E0D0E0CE15DF0581F0D8016D918D01D2
:10014000D601ED91FC910190F081E02DC601099559
:10015000892B11F02196EECF7E01C701DF91CF915F
:100160001F910F91FF90EF90DF90CF900895089529
:1001700080E090E00895FC01118610860895FC014E
:10018000828193810895DC011896ED91FC91199775
:10019000EE0FFF1F14968D919C911597E80FF91F94
:1001A000808191810895DC0118968D919C91199719
:1001B000019619969C938E9318971A962D913C91BF
:1001C0001B978217930724F019961C921E9218977A
:1001D000ED91FC9111970284F385E02DCD010994F6
:1001E000DC0118968D919C911997019719969C9313
:1001F0008E93189797FF09C01A968D919C911B9723
:10020000019719969C938E931897ED91FC911197F5
:100210000284F385E02DCD010994FC018281938154
:100220000895FC018681978108950F931F93CF93C2
:10023000DF93EC010C811D8120E030E040E85FE3BA
:10024000F80160817181828193810E94D819F8013F
:100250006083718382839383E881F9810284F385CB
:10026000E02DCE01DF91CF911F910F9109940F9353
:100270001F93CF93DF93EC010C811D8120E030E0D0
:1002800040E85FE3F80160817181828193810E947F
:10029000D919F8016083718382839383E881F9819E
:1002A0000284F385E02DCE01DF91CF911F910F9154
:1002B0000994FC01828193810895FC0186819781D4
:1002C0000895DC01ED91FC910480F581E02D099405
:1002D000DC011496ED91FC911597308121E02327E4
:1002E0002083ED91FC910284F385E02D0994DC01DB
:1002F0001696ED91FC9117970994FC0182819381E8
:100300000895FC01848195810895109264021092F1
:100310006302EFE6F0E08081816080830895809140
:100320007802909179028A30910554F4E091A60206
:10033000F091A7028E0F9F1FFC01E457FF4F108220
:100340001092620208950E94DE1C6115710579F019
:10035000FB0101900020E9F73197AF01461B570BD5
:10036000DC01ED91FC910280F381E02D099480E0A5
:1003700090E008958F929F92AF92BF92EF92FF927A
:100380000F931F93CF93DF93CDB7DEB7A1970FB62F
:10039000F894DEBF0FBECDBF7C01FA01CB0119A2DC
:1003A000223008F42AE08E010F5D1F4F822E912C1F
:1003B000A12CB12CBF01A50194010E94B019F90133
:1003C000CA01015011096A3014F4605D01C0695C12
:1003D000D8016C93232B242B252B61F7B801C7017F
:1003E0000E94A501A1960FB6F894DEBF0FBECDBF47
:1003F000DF91CF911F910F91FF90EF90BF90AF9041
:100400009F908F9008950C94A50183E193E00E9442
:10041000AA0D21E0892B09F420E0822F08950F9383
:100420001F93CF93DF936A30710574F4EB018C0155
:100430000E941B12CC0FDD1FCC0FDD1FC00FD11F80
:10044000688379838A839B83DF91CF911F910F917A
:10045000089560918002709181028091AC02909128
:10046000AD020C940F022F923F924F925F926F92C7
:100470007F928F929F92AF92BF92CF92DF92EF9234
:10048000FF920F931F93CF93DF93CDB7DEB72A97D9
:100490000FB6F894DEBF0FBECDBF9A8789870E9442
:1004A0001B1269837A838B839C83E985FA8580A1FB
:1004B00091A1A2A1B3A149815A816B817C81481B82
:1004C000590B6A0B7B0B84A595A5A6A5B7A5481764
:1004D00059076A077B0708F4D5C0028CF38DE02D1D
:1004E00080809180A280B380A985BA855E96ED91C7
:1004F000FC915F97A5019401608171818281938154
:100500000E94D8192B013C01E985FA85208931899F
:10051000428953890E94A518A985BA8594962D9180
:100520003D914D915C9197970E94D9196B017C0187
:10053000E985FA8564A375A386A397A314A905A9E1
:1005400036A827A8212F302F432D522D0E94ED1AB7
:1005500018162CF4812F902FA32DB22D18C0A98529
:10056000BA85D0968D919D910D90BC91A02D8D83D3
:100570009E83AF83B8879C01AD01C701B6010E947D
:100580003F1887FF0AC08D819E81AF81B885E985BC
:10059000FA8584A395A3A6A3B7A3A985BA851C96BB
:1005A0002D913D914D915C911F97C301B2010E9425
:1005B000A518E985FA8524A135A146A157A10E9475
:1005C000D9196B017C01A985BA8598962D913D9129
:1005D0004D915C919B97C501B4010E94D819E985A2
:1005E000FA8524893589468957890E94A5189B0177
:1005F000AC01C701B6010E94D8196B017C019B01B7
:10060000AC01612F702F832D922D0E943F1887FD22
:100610001BC0A985BA85D0961C91D097D1960C9114
:10062000D197D2963C90D297D3962C90212F302FF1
:10063000432D522DB601C7010E943F1887FD04C00B
:100640001C2D0D2D3E2C2F2CA985BA855C96ED9185
:10065000FC915D97812F902FA32DB22D80839183E4
:10066000A283B383E985FA8580A691A6A2A6B3A644
:1006700089819A81AB81BC8180A391A3A2A3B3A3FA
:1006800081E001C080E02A960FB6F894DEBF0FBE6D
:10069000CDBFDF91CF911F910F91FF90EF90DF9031
:1006A000CF90BF90AF909F908F907F906F905F9012
:1006B0004F903F902F900895CF93DF93C0916302A6
:1006C000D09164022196D0936402C093630220917A
:1006D00067023091680287ED90E0821B930B8C17C4
:1006E0009D0724F461E0C73DD1050CF060E0E09186
:1006F0007202F091730280810E9451112091650273
:100700003091660287ED90E0821B930B8C179D075A
:1007100024F461E0C73DD1050CF060E0E091700287
:10072000F09171028081DF91CF910C945111609111
:100730007602709177028091A6029091A7020E94A2
:100740000F028091620260910001811102C0662354
:1007500041F081E068276093000180917A020C9457
:1007600051110895CF92DF92EF92FF921F93CF9392
:10077000DF937C0110E0C7E0D0E0CC24C394D12CFF
:1007800060E0F70180810E9451118FE99FE001979D
:10079000F1F700C00000F70181810E942811892B28
:1007A00039F0C6010C2E01C0880F0A94EAF7182B05
:1007B00061E0F70180810E9451118FE99FE001976C
:1007C000F1F700C000002197D8F6812FDF91CF917B
:1007D0001F91FF90EF90DF90CF9008950C948F1BA6
:1007E0000C948F1B0C948F1B0C948F1BCF92DF9259
:1007F000EF92FF92CF936B01C42F642FC6010E942A
:100800006B1969EB71E083E193E00E9403020D2C08
:10081000000CEE08FF08F7FE0EC06DE283E193E0E6
:100820000E94B91044275527BA014C195D096E0979
:100830007F092AE003C02AE0B701A60183E193E023
:100840000E94BA0169EC71E083E193E00E94030227
:100850004C2F50E060E070E02AE083E193E00E94DA
:10086000BA0160ED71E083E193E0CF91FF90EF90EA
:10087000DF90CF900C94A5018F929F92AF92BF9280
:10088000CF92DF92EF92FF920F931F93CF93DF935C
:10089000CDB7DEB762970FB6F894DEBF0FBECDBFFF
:1008A0007C016B014A015901462F60E0FC01808107
:1008B00091810E94E90DC114D10419F066ED71E037
:1008C00002C063ED71E0F701808191810E94030213
:1008D000B401CE0101960E94260E8D8165E0681B51
:1008E0004C2DF701808191810E94E90DBE016F5F5F
:1008F0007F4FF701808191810E94180E4C2D65E099
:10090000F701808191810E94E90D69ED71E0F701A5
:10091000808191810E9403024C2D67E0F701808164
:1009200091810E94E90D6CED71E0F7018081918168
:100930000E940302B501CE0107960E94260E8B8508
:100940006AE0681B4C2DF701808191810E94E90DBE
:10095000BE01695F7F4FF701808191810E94180E6F
:100960004C2D6AE0F701808191810E94E90D60EED3
:1009700071E0F701808191810E9403024C2D6CE0AF
:10098000F701808191810E94E90D6CED71E0F70122
:10099000808191810E940302B801CE010D960E94D0
:1009A000260E89896FE0681B4C2DF70180819181AB
:1009B0000E94E90DBE01635F7F4FF7018081918145
:1009C0000E94180E4C2D6FE0F701808191810E94EA
:1009D000E90D62EE71E0F701808191810E940302CE
:1009E0008D859E850E948F1B8F8198850E948F1B0D
:1009F00089819A810E948F1B62960FB6F894DEBFA0
:100A00000FBECDBFDF91CF911F910F91FF90EF905F
:100A1000DF90CF90BF90AF909F908F9008951F92DE
:100A20000F920FB60F9211242F933F934F935F9322
:100A30006F937F938F939F93AF93BF93EF93FF93A6
:100A4000E0910601F09107010995FF91EF91BF91A7
:100A5000AF919F918F917F916F915F914F913F9156
:100A60002F910F900FBE0F901F9018951F920F920D
:100A70000FB60F9211242F933F934F935F936F9371
:100A80007F938F939F93AF93BF93EF93FF93E091E7
:100A90000401F09105010995FF91EF91BF91AF918C
:100AA0009F918F917F916F915F914F913F912F9186
:100AB0000F900FBE0F901F9018951F920F920FB6B8
:100AC0000F9211242F933F934F935F936F937F93D4
:100AD0008F939F93AF93BF93EF93FF9383E193E043
:100AE0000E949710FF91EF91BF91AF919F918F91CD
:100AF0007F916F915F914F913F912F910F900FBE1A
:100B00000F901F9018951F920F920FB60F921124FD
:100B10002F938F939F93EF93FF93E0912303F09193
:100B200024038081E0912903F0912A0382FD12C001
:100B3000908180912C038F5F8F7320912D038217FA
:100B400051F0E0912C03F0E0ED5EFC4F958F809327
:100B50002C0301C08081FF91EF919F918F912F9184
:100B60000F900FBE0F901F9018951F920F920FB607
:100B70000F9211242F933F934F935F936F937F9323
:100B80008F939F93AF93BF93EF93FF9380916C02EA
:100B900090916D029093850080938400E0916E02A5
:100BA000F0916F020995FF91EF91BF91AF919F91E5
:100BB0008F917F916F915F914F913F912F910F9006
:100BC0000FBE0F901F901895EF92FF920F931F93F7
:100BD000CF93DF938C0106551F4FD801ED91FC9107
:100BE0003A9764F4FC01B896C0E0D0E0A191B191CD
:100BF000AB2B39F02196CA30D105C1F78FEF9FEFAB
:100C000030C021153105D1F37E01EE0CFF1CEE0C36
:100C1000FF1CE80EF91EF70144AF55AF66AF77AF82
:100C2000FE01EE0FFF1FE80FF91F31A720A7EC59B7
:100C3000FF4F118210828C0F9D1FFC01E457FF4F64
:100C400081E080830E941B12D7016D937D938D9369
:100C50009C931397F8018081918101969183808301
:100C6000CE01DF91CF911F910F91FF90EF900895EA
:100C70002F923F924F925F926F927F928F929F92AC
:100C8000AF92BF92CF92DF92EF92FF920F931F939A
:100C9000CF93DF93CDB7DEB728970FB6F894DEBFBA
:100CA0000FBECDBF9E838D830E941B124B015C0142
:100CB000ED81FE81EC59FF4F0D811E8168014CE8EA
:100CC000C40ED11C780158E7E50EF11C16011887F7
:100CD0000F8313AA12AACF01CC97DC018D919C91AE
:100CE000892B09F442C0AF81B8854D905D906D901D
:100CF0007C901397DC964D915D916D917C91DF977F
:100D0000D501C40184199509A609B7098417950767
:100D1000A607B70750F1440D551D661D771DAF811D
:100D2000B8854D935D936D937C931397D1018C910E
:100D30008823D9F0208131812115310519F441E052
:100D400050E011C0848995898217930774F4A1E05B
:100D5000B0E0B3ABA2AB0196958B848B821793075F
:100D600024F042E050E053AB42AB32968F8198853D
:100D7000049698878F839FEF291A390AEE15FF058D
:100D800009F0A7CFAD80BE80A4E1AA0EB11CED8111
:100D9000FE81FA83E9834F01FAEA8F0E911CD70195
:100DA0005E968D919C915F978130910519F0029725
:100DB00041F030C0D8019896ED91FC919997099532
:100DC00029C0D8019896ED91FC9199970995F40165
:100DD000808191810097F1F0D80198962D913C91F6
:100DE0009997232BB9F099961C921E929897F60129
:100DF0001082D7015F961C921E925E97E981FA815C
:100E000014AE15AE16AE17AE1D921C920197D4010A
:100E10008D939C930E5F1F4FBFEFCB1ADB0AE981C6
:100E2000FA813496FA83E983F2E0EF0EF11C0A1599
:100E30001B0509F0B4CF28960FB6F894DEBF0FBE9D
:100E4000CDBFDF91CF911F910F91FF90EF90DF9079
:100E5000CF90BF90AF909F908F907F906F905F905A
:100E60004F903F902F9008958F929F92AF92BF9294
:100E7000CF92DF92EF92FF92CF93DF93EC01EC8D54
:100E8000FD8DC080D180E280F380CCA2DDA2EEA2F5
:100E9000FFA2EA8DFB8D80819181A281B38188A719
:100EA00099A7AAA7BBA78CA89DA8AEA8BFA8A50173
:100EB0009401C701B6010E94ED1A181664F088A8C3
:100EC00099A8AAA8BBA8A5019401C701B6010E94D0
:100ED0003F1887FF04C08CA29DA2AEA2BFA2DF91E3
:100EE000CF91FF90EF90DF90CF90BF90AF909F9009
:100EF0008F900895CF93FC01C48121E02093D70205
:100F0000C0936B021092DB021092DA028385682B89
:100F100087E093E00E944A0D9091DA02913208F046
:100F200045C08091E1028111FCCF82E08093E10213
:100F300081E08093E3028FEF8093E002109205033B
:100F400090930403A7EBB2E0E4EEF2E080E09817A0
:100F500021F02D9121938F5FFACF1092060380919B
:100F60000603CC0FC82BC09306038091E2028130A8
:100F700061F41092E202809106038093BB0080919D
:100F8000BC0083FDF8CF85EC01C085EE8093BC00EA
:100F90008091E1028230E1F38091E0028F3F31F0F5
:100FA0008091E002803211F08091E0021092DB0229
:100FB0001092DA021092D702CF9108950F931F93E7
:100FC000CF938C01C62F0E947A076C2F6460C801F2
:100FD0000E947A076C2F6B7FC8010E947A0783EC0E
:100FE00090E00197F1F7CF911F910F9108950F9322
:100FF0001F93CF93DF938C01C62FD42F607F642B78
:101000000E94DE0780E1C89FB00111246D2BC8014A
:10101000DF91CF911F910F910C94DE0741E00E9468
:10102000F70781E090E0089540E061E00E94F70753
:101030008BE39FE10197F1F70895CF93DF93EC01E4
:101040008E819F810E94140840E060E08E819F8124
:101050000E94E90D6A817B818E819F810E9403023B
:1010600041E060E08E819F810E94E90DE885F9856D
:10107000EE0FFF1F8C819D81E80FF91F8081918108
:10108000DC01ED91FC910484F585E02D0995BC010E
:101090008E819F81DF91CF910C9403028F929F925A
:1010A000AF92BF92CF92DF92EF92FF92CF93DF93F6
:1010B000EC01888599850E94140840E060E08885ED
:1010C00099850E94E90D6A817B81888599850E94B6
:1010D000030241E060E0888599850E94E90DEC817A
:1010E000FD81C080D180E280F3800884D985C02D45
:1010F000A7019601C701B6010E94F21A882319F0D0
:1011000064EE71E01AC046015701E894B7F82FEF7A
:101110003FEF4FE75FE7C501B4010E94F21A81116A
:1011200019C02FEF3FEF4FE75FE7C501B4010E9401
:101130003F1818167CF468EE71E0CE01DF91CF9174
:10114000FF90EF90DF90CF90BF90AF909F908F90E7
:101150000C94A5012FEF3FEF4FE75FE4C701B60105
:101160000E94ED1A181654F02FEF3FEF4FE75FEC97
:10117000C701B6010E943F1887FF03C06CEE71E003
:10118000DCCF20E030E0A901C701B6010E943F1882
:1011900087FF0CC0E881F9810190F081E02D6DE2BC
:1011A000CE010995F7FAF094F7F8F0942AE037EDBC
:1011B00043EA5BE3C701B6010E94D9194B015C0108
:1011C0000E94BE1A6B017C010E9444189B01AC0175
:1011D000C501B4010E94D8194B015C012AE0B70196
:1011E000A601CE010E94BA01E881F9810190F08147
:1011F000E02D6EE2CE01099520E030E040E251E4BE
:10120000C501B4010E94A5184B015C010E94BE1AE1
:101210006B01E12CF12C2AE0B701A601CE010E945E
:10122000BA01C701B6010E9444189B01AC01C50177
:10123000B4010E94D81920E030E040E251E40E945D
:10124000A5180E94BE1AAB0160E070E02AE0CE0152
:10125000DF91CF91FF90EF90DF90CF90BF90AF9054
:101260009F908F900C94BA01CF93DF93EC01888507
:1012700099850E94140840E060E0888599850E9465
:10128000E90D6A817B81888599850E94030241E08E
:1012900060E0888599850E94E90DEC81FD8180815F
:1012A000811103C065EF71E002C060EF71E08885D5
:1012B0009985DF91CF910C9403021F920F920FB684
:1012C0000F9211242F933F938F939F93EF93FF934C
:1012D0008091B0038093F9038091F9039FEF980FF9
:1012E0009093F903882309F469C01092FA03E091FE
:1012F000F903EE0FFF0BE055FC4F0188F289E02D5A
:101300002081E091F9030E2E000CFF0BE055FC4FFD
:1013100091A98091FA03922321E009F420E0822B25
:101320008093FA038091FA03880F990B8093FA0354
:10133000E091F903EE0FFF0BE055FC4F01A0F2A185
:10134000E02D2081E091F9030E2E000CFF0BE055FB
:10135000FC4F91AD8091FA03922321E009F420E043
:10136000822B8093FA03E091F9030E2E000CFF0B01
:10137000EF50FC4F80812091FA03837090E0022EA1
:10138000000C330B8217930709F4A6CFE091F90301
:101390000E2E000CFF0BEF50FC4F8081880F880F42
:1013A00080838091FA03E091F9030E2E000CFF0B6D
:1013B000EF50FC4F9081892B80838ECFFF91EF916E
:1013C0009F918F913F912F910F900FBE0F901F9083
:1013D00018950895089508950895DC018D919C91C4
:1013E000DC01ED91FC910284F385E02D0994CF930B
:1013F000DF93EC0188819981DC01ED91FC910084FF
:10140000F185E02D099599838883CE01DF91CF91F5
:101410000C94ED098091A8029091A9020E94F7090D
:101420008091740290917502DC01ED91FC9106842B
:10143000F785E02D09941F93CF93DF93EB01CB0148
:101440000E946319182FCE0101960E946319982FEC
:10145000812FDF91CF911F9108958F929F92AF922C
:10146000BF92CF92DF92EF92FF920F931F93CF9391
:10147000DF9310920A0181E08093030180930201BF
:101480008091A8029091A9020E94F709E091A80218
:10149000F091A90280819181DC01ED91FC9106849B
:1014A000F785E02D0995C0917C02D0917D0260E026
:1014B00070E0CE010E941B0A6C0162E070E0CE0178
:1014C0000E941B0A8C0164E070E0CE010E941B0A9E
:1014D0007C0165E070E0CE010E941B0AEC01809067
:1014E000920290909302A0909402B0909502B6015F
:1014F000DD0C880B990B0E944618A50194010E94EF
:101500003F18882371F0C501B4010E94B71AD72E85
:1015100080E090E00E946B196D2D81E090E00E94C8
:101520006B198090840290908502A0908602B09002
:101530008702B801110F880B990B0E944618A5016C
:1015400094010E943F18882371F0C501B4010E94E4
:10155000B71A172F82E090E00E946B19612F83E089
:1015600090E00E946B1940910901842F90E0E816E9
:10157000F90641F064E070E080917C0290917D0278
:101580000E94F60340910801842F90E0C817D90704
:1015900041F065E070E080917C0290917D020E94B4
:1015A000F6038091A0029091A102DF91CF911F914B
:1015B0000F91FF90EF90DF90CF90BF90AF909F90F2
:1015C0008F900C94140881E080936A021092690253
:1015D0008093010110929602109297021092980245
:1015E00010929902109288021092890210928A0237
:1015F00010928B020C942D0A10926A0210926902CA
:101600001092010110929602109297021092980285
:1016100010929902109288021092890210928A0206
:1016200010928B020C942D0AA0917802B09179024D
:101630008091A6029091A702AA30B1053CF4FC016A
:10164000EA0FFB1FE457FF4F21E02083FD013F9687
:10165000EE0FFF1FEE0FFF1FE80FF91F40835183AE
:1016600062837383BD010E940F0281E08093620256
:1016700008958F929F92AF92BF92CF92DF92EF9296
:10168000FF920F931F93CF93DF9360917E0270912F
:101690007F028091AC029091AD020E940F02E09116
:1016A000A202F091A3020081118160E0F801828121
:1016B0000E9451118FE99FE00197F1F700C00000EF
:1016C000C8010E94B203C82FD0E0DC2FCC27C8018C
:1016D0000E94B203C82B61E0F80182810E9451117F
:1016E000C2FD11C0BE0183E0769567958A95E1F74A
:1016F00080E090E00E94441820E030E040E85EE3A3
:101700000E94A51804C060E070E080EC9FE7609341
:101710008C0270938D0280938E0290938F021092B0
:101720009A0210929B0210929C0210929D0280914C
:101730006A028823C9F180916902882349F0809167
:10174000900290919102FC0120AD21110E94330280
:1017500080910101882349F0809182029091830257
:10176000FC0120AD21110E9433026091880270912A
:10177000890280918A0290918B020E94B71A6B01B4
:101780007C016091960270919702809198029091ED
:1017900099020E94B71A7093680260936702D09210
:1017A0006602C092650208C0109268021092670239
:1017B000109266021092650280910801882309F454
:1017C00059C080910A018111CBC080916A0288239F
:1017D00009F454C080910201882321F120919202E2
:1017E00030919302409194025091950260919A0237
:1017F00070919B0280919C0290919D020E94ED1A33
:1018000087FD10C080916902882361F048EC50E0A8
:1018100060E070E08091AA029091AB020E94140BEC
:101820001092020180910301882321F1209184020A
:1018300030918502409186025091870260918C021E
:1018400070918D0280918E0290918F020E94ED1A0C
:1018500087FD10C080910101882361F048EC50E0C1
:1018600060E070E08091AA029091AB020E94140B9C
:101870001092030180910A01811172C020E030E0D2
:1018800047E553E460919602709197028091980227
:10189000909199020E94451A20E030E048EC52E411
:1018A0000E94A5180E94B71A4B015C0160919A0230
:1018B00070919B0280919C0290919D020E94B71AA8
:1018C0006B017C016091920270919302809194026D
:1018D000909195020E94B71A84019601AB0160E0D5
:1018E00070E080919E0290919F020E943C0420E053
:1018F00030E047E553E4609188027091890280915D
:101900008A0290918B020E94451A20E030E048EC58
:1019100052E40E94A5180E94B71A4B015C01609125
:101920008C0270918D0280918E0290918F020E94A4
:10193000B71A6B017C0160918402709185028091DD
:101940008602909187020E94B71A84019601AB012A
:1019500061E070E080919E0290919F020E943C04A1
:10196000DF91CF911F910F91FF90EF90DF90CF907B
:10197000BF90AF909F908F90089585ED8093BC00AD
:101980008091BC0084FDFCCF1092E102089540914B
:101990003B04262F30E0240F311D21323105DCF4C9
:1019A0002091E1022430C9F4FC0180E090E0861728
:1019B00058F430913B042191DC01A55EBB4FA30F8D
:1019C000B11D2C930196F3CF80913B04680F609377
:1019D0003B0480E0089581E0089582E00895089531
:1019E00008950895E091D9028091D802E81730F463
:1019F000F0E0E550FC4F808190E008958FEF9FEF7D
:101A000008959091D9028091D802981750F4E92F47
:101A1000F0E0E550FC4F208130E09F5F9093D902C9
:101A200002C02FEF3FEFC90108958091D80290E0E6
:101A30002091D902821B91090895CF92DF92EF92F3
:101A4000FF920F931F93CF93DF937C01CB018A0109
:101A50002091D702222389F0EB016B01C40ED51E21
:101A6000CC15DD0569F06991D701ED91FC910190EC
:101A7000F081E02DC7010995F3CF642F0E94C70CB8
:101A8000C801DF91CF911F910F91FF90EF90DF90F0
:101A9000CF900895CF93DF931F92CDB7DEB76983C0
:101AA0002091D7022223D1F02091DA02203240F097
:101AB00021E030E0FC013383228380E090E015C018
:101AC0008091DB02E82FF0E0E954FD4F998190838B
:101AD0008F5F8093DB028093DA0205C061E0CE0164
:101AE00001960E94C70C81E090E00F90DF91CF91AA
:101AF0000895FC01538D448D252F30E0842F90E014
:101B0000821B930B541710F0CF96089501970895F8
:101B1000FC01918D828D981761F0828DDF01A80FF5
:101B2000B11D5D968C91928D9F5F9F73928F90E017
:101B300008958FEF9FEF0895FC01918D828D981786
:101B400031F0828DE80FF11D858D90E008958FEFC3
:101B50009FEF0895FC01918D228D892F90E0805C8C
:101B60009F4F821B91098F739927089580E090E021
:101B7000892B29F00E94050281110C940000089520
:101B8000833081F028F4813099F08230A1F00895FB
:101B90008730A9F08830B9F08430D1F4809180008A
:101BA0008F7D03C0809180008F778093800008959F
:101BB00084B58F7702C084B58F7D84BD08958091F0
:101BC000B0008F7703C08091B0008F7D8093B0000C
:101BD0000895CF93DF93CDB7DEB728970FB6F8946B
:101BE000DEBF0FBECDBF9C0188E0E1E8F1E0DE0181
:101BF000119601900D928A95E1F7F901818584177C
:101C000010F44FEF480FFE013196E40FF11DE40F81
:101C1000F11D9081690F606840E0C90128960FB6F8
:101C2000F894DEBF0FBECDBFDF91CF910C94F707C4
:101C3000DB0114964D915C9115976D917C91DC01BF
:101C4000ED91FC910280F381E02D0994CF92DF9217
:101C5000EF92FF920F931F93CF93DF93CDB7DEB731
:101C600062970FB6F894DEBF0FBECDBF8C01CB01DB
:101C7000F8011182108213821282158214824AE0C6
:101C80009E012F5F3F4F6901B9010E940A18F601BA
:101C900001900020E9F731977F01EC18FD08F80169
:101CA00080819181009729F0228133812E153F0593
:101CB00008F5B7016F5F7F4F0E94181CF80100976D
:101CC00059F091838083F382E28224813581232B32
:101CD00089F4FC0110820EC080819181009711F07F
:101CE0000E948F1BF80111821082158214821382C8
:101CF000128208C0F801F582E482B60180819181E8
:101D00000E94EC1C62960FB6F894DEBF0FBECDBFEA
:101D1000DF91CF911F910F91FF90EF90DF90CF90C7
:101D200008958F929F92AF92BF92CF92DF92EF92DF
:101D3000FF920F931F93CF93DF93EC016A017B0116
:101D400020E030E0A901C701B6010E943F18181633
:101D50000CF04FC018AA19AA1AAA1BAACCAADDAA6D
:101D6000EEAAFFAA88AD882309F443C00C8D1D8D0F
:101D7000F80180809180A280B380A5019401C70101
:101D8000B6010E943F1887FF06C0F801C082D182C9
:101D9000E282F3820EC020E030E0A901C501B40167
:101DA0000E943F1887FF05C0F8011082118212823D
:101DB00013828CA09DA0AEA0BFA0CCA8DDA8EEA8E9
:101DC000FFA8A7019601C501B4010E94ED1A1816DB
:101DD00064F0C8A8D9A8EAA8FBA8A7019601C50184
:101DE000B4010E943F1887FF04C0CCA2DDA2EEA27E
:101DF000FFA2DF91CF911F910F91FF90EF90DF90A5
:101E0000CF90BF90AF909F908F9008950F931F93A6
:101E1000CF93DF93EC015D8F4C8F7B8F6A8F3F8F69
:101E20002E8F18AE18AA19AA1AAA1BAA80E090E051
:101E3000AFE7B3E48CAB9DABAEABBFAB84E690E059
:101E4000A0E0B0E08CA79DA7AEA7BFA7198E188E03
:101E500080E090E0A0E0B0E488839983AA83BB830C
:101E600040E050E060EA70E44C835D836E837F83E2
:101E700040E050E060E87FE3488759876A877B87C6
:101E80008C879D87AE87BF8780E090E0A0E0BFE3AE
:101E9000888B998BAA8BBB8B80E090E0A0E2B1E4A9
:101EA0008C8B9D8BAE8BBF8B0E941B120CA51DA52E
:101EB0002EA53FA5DC01CB01801B910BA20BB30B20
:101EC00088A399A3AAA3BBA3DF91CF911F910F91E0
:101ED00008951F920F920FB60F9211242F933F93E4
:101EE0004F935F936F937F938F939F93AF93BF9322
:101EF000EF93FF938091B900887F803609F49CC0EE
:101F000068F5883209F45BC090F4803109F454C05C
:101F100038F4882309F4F6C0883009F44DC0F6C0BF
:101F2000883109F44CC0803209F45DC0EFC08034C0
:101F300009F468C048F4803309F455C0883309F0C7
:101F4000E5C08093E002D8C0803509F44FC08835E1
:101F500009F45DC0883409F0D9C0D6C0883909F4C5
:101F6000C7C0A8F4883709F467C038F4883609F484
:101F700063C0803709F460C0C9C0883809F4B8C0AC
:101F8000803909F45FC0803809F0C0C05BC0803B75
:101F900009F486C038F4803A09F466C0883A09F436
:101FA0007FC0B4C0803C09F4A7C0883C09F4A4C039
:101FB000883B09F48AC0AAC08091060310C09091A2
:101FC000050380910403981770F5E091050381E003
:101FD0008E0F80930503F0E0EC51FD4F80818093DC
:101FE000BB0085EC86C08093E0028EC0E0910503C3
:101FF00081E08E0F809305038091BB00F0E0EC51EF
:10200000FD4F808390910503809104036EC0E091A1
:10201000050381E08E0F809305038091BB00F0E003
:10202000EC51FD4F80838091E30281116DC081E00E
:102030008093E20284EA61C083E08093E10210921F
:102040005D04CFCF80915D04803208F051C0E091F3
:102050005D0481E08E0F80935D048091BB00F0E011
:10206000E35CFB4F8083BDCF85EC8093BC00109276
:10207000E10280915D04803230F4E0915D04F0E093
:10208000E35CFB4F108260915D0470E0E091DE0242
:10209000F091DF028DE394E0099510925D0436C063
:1020A00084E08093E10210923C0410923B04E091A2
:1020B000DC02F091DD02099580913B04811105C09D
:1020C00081E080933B0410921B04E0913C0481E08A
:1020D0008E0F80933C04F0E0E55EFB4F808180939F
:1020E000BB0090913C0480913B04981708F479CF91
:1020F00085E88093BC000AC085EC8093BC001092F8
:10210000E10204C01092E0020E94BD0CFF91EF9129
:10211000BF91AF919F918F917F916F915F914F91FF
:102120003F912F910F900FBE0F901F901895FC01BB
:10213000848DDF01A80FB11DA35ABF4F2C91848D50
:1021400090E001968F739927848FA689B7892C9385
:10215000A089B1898C91837080648C93938D848DD8
:10216000981306C00288F389E02D80818F7D8083DB
:102170000895EF92FF920F931F93CF93DF93EC019B
:1021800081E0888F9B8D8C8D981305C0E889F98933
:10219000808185FD26C0F62E0B8D10E00F5F1F4F4E
:1021A0000F731127E02E8C8DE8120CC00FB607FCC0
:1021B000FACFE889F989808185FFF5CFCE010E94A9
:1021C0009710F1CF8B8DFE01E80FF11DE35AFF4F01
:1021D000F0829FB7F8940B8FEA89FB898081806237
:1021E0000AC09FB7F894EE89FF896083E889F9896E
:1021F00080818370806480839FBF81E090E0DF9165
:10220000CF911F910F91FF90EF900895CF93DF939F
:10221000EC01888D8823C9F0EA89FB89808185FDDE
:1022200005C0A889B9898C9186FD0FC00FB607FC3F
:10223000F5CF808185FFF2CFA889B9898C9185FF80
:10224000EDCFCE010E949710E7CFDF91CF91089597
:10225000CF93DF93282F30E0F901E255FF4F8491AF
:10226000F901E656FF4FD491F901EA57FF4FC491A7
:10227000CC2391F081110E94C00DEC2FF0E0EE0F05
:10228000FF1FE458FF4FA591B491EC91ED2381E03D
:1022900090E021F480E002C080E090E0DF91CF91F7
:1022A00008951F93CF93DF93282F30E0F901E25573
:1022B000FF4F8491F901E656FF4FD491F901EA5797
:1022C000FF4FC491CC23C1F0162F81110E94C00D85
:1022D000EC2FF0E0EE0FFF1FEE58FF4FA591B491E9
:1022E0009FB7F894111104C08C91D095D82302C0E7
:1022F000EC91DE2BDC939FBFDF91CF911F9108956E
:10230000CF93DF9390E0FC01E656FF4F2491FC0150
:10231000EA57FF4F8491882361F190E0880F991F5D
:10232000FC01E859FF4FC591D491FC01EE58FF4FD5
:10233000A591B491611109C09FB7F8948881209547
:1023400082238883EC912E230BC0623061F49FB707
:10235000F8948881322F309583238883EC912E2B3B
:102360002C939FBF06C08FB7F894E8812E2B28834B
:102370008FBFDF91CF9108958F929F92AF92BF92BE
:10238000CF92DF92EF92FF926B017C010E94F611D7
:102390004B015C01C114D104E104F104F1F00E948D
:1023A000F611DC01CB0188199909AA09BB09883EFD
:1023B0009340A105B10570F321E0C21AD108E108EC
:1023C000F10888EE880E83E0981EA11CB11CC11490
:1023D000D104E104F10419F7DDCFFF90EF90DF9015
:1023E000CF90BF90AF909F908F9008953FB7F89493
:1023F0008091630490916404A0916504B091660497
:1024000026B5A89B05C02F3F19F00196A11DB11D4F
:102410003FBFBA2FA92F982F8827820F911DA11D8A
:10242000B11DBC01CD0142E0660F771F881F991FC7
:102430004A95D1F708952FB7F89460915F04709191
:10244000600480916104909162042FBF08951F92EF
:102450000F920FB60F9211242F933F938F939F9358
:10246000AF93BF9380915F0490916004A091610449
:10247000B091620430915E0423E0230F2D3720F4E5
:102480000196A11DB11D05C026E8230F0296A11DCE
:10249000B11D20935E0480935F0490936004A09329
:1024A0006104B09362048091630490916404A091EC
:1024B0006504B09166040196A11DB11D809363046B
:1024C00090936404A0936504B0936604BF91AF91A8
:1024D0009F918F913F912F910F900FBE0F901F9062
:1024E0001895789484B5826084BD84B5816084BD7C
:1024F00085B5826085BD85B5816085BD80916E00A2
:10250000816080936E0010928100809181008260D2
:10251000809381008091810081608093810080910F
:1025200080008160809380008091B10084608093FE
:10253000B1008091B00081608093B00080917A00FA
:10254000846080937A0080917A00826080937A0020
:1025500080917A00816080937A0080917A0080680F
:1025600080937A001092C10082E090E00E94F71AF6
:102570007C0184E090E0D7018D939C9361E00E9400
:10258000801160E0F70180810E94511182E090E0AB
:102590000E94F71A8C0183E090E0D8018D939C9300
:1025A00061E00E94801160E0F80180810E94511179
:1025B00081E090E00E94F71AEC01F0927302E09241
:1025C0007202109371020093700260E082E00E9438
:1025D000801185E891E0909305018093040180913A
:1025E0006900836080936900E89A80916F008E7F14
:1025F00080936F008CE593E090936F0280936E025E
:10260000109280001092810001E00093810080EB25
:102610009DEF90936D0280936C0210928500109252
:10262000840080916F00816080936F007894809126
:102630006F008E7F80936F00D093A502C093A40299
:1026400082E090E00E94F71A7C0183E090E00E9413
:10265000F71AEC018BE088838CE08A838AE0898317
:1026600061E08CE00E94801161E088810E9480110D
:1026700060E089810E94801161E08A810E9451118D
:10268000D701CD93DC9364EF71E080E090E00E948D
:10269000BC11F092A302E092A2028CE090E00E94B2
:1026A000F71AEC011B821A8285E191E099838883F5
:1026B00087E28C8380E1888782E089871A8618E028
:1026C0001B87D093A102C093A0021092D90210924E
:1026D000D8021092DB021092DA021092E10200930B
:1026E000E3021092E20261E082E10E94511161E096
:1026F00083E10E9451118091B9008E7F8093B900CF
:102700008091B9008D7F8093B90088E48093B800F0
:1027100085E48093BC008FEE9CE09093DD02809373
:10272000DC0280EF9CE09093DF028093DE021D824A
:102730008985823008F01D839A85992329F081309C
:1027400019F48D8184608D8362E370E080E090E015
:102750000E94BC116B85CE010E947A0768EE73E07F
:1027600080E090E00E94BC1160E3CE010E94DE0791
:102770000BE416E4C8010197F1F760E3CE010E9473
:10278000DE07C8010197F1F760E3CE010E94DE0782
:1027900083E592E00197F1F760E2CE010E94DE0747
:1027A0006D81606240E0CE010E94F70784E08E8375
:1027B00040E06CE0CE010E94F707CE010E941408B1
:1027C00082E08F8340E066E0CE010E94F70740E0A0
:1027D00062E0CE010E94F7078BE39FE10197F1F7DA
:1027E000C091A002D091A102CE010E94140882E003
:1027F00090E00E94F71AFC01D183C08390939F025E
:1028000080939E0281E090E00E94F71AEC0118820A
:102810008091B003883008F04EC08091B003888367
:102820008091B0038F5F8093B003E881F0E0E055C2
:10283000FC4F85E08183E881F0E0E055FC4F86E0C5
:102840008187888190E0EBE8F0E0E491F0E0EE0F22
:10285000FF1FE458FF4F25913491880F991FFC0109
:10286000E055FC4F328B218B888190E0ECE8F0E062
:10287000E491F0E0EE0FFF1FE458FF4F25913491F3
:10288000880F991FFC01E055FC4F32A321A38881DA
:1028900090E0EFE9F0E0E491DC01A055BC4FD19667
:1028A000EC93888190E0E0EAF0E0E491DC01A0554F
:1028B000BC4FD996EC93D093B502C093B4028091EB
:1028C000B0038830E8F4E881F0E0E055FC4F818106
:1028D00060E00E948011E881F0E0E055FC4F8185C6
:1028E00060E00E94801182E08093B00093E09093BA
:1028F000B1009CE79093B3008093700080E88FBF95
:1029000060E087E00E94801189E390E00E94F71A5E
:10291000EC0122E932E046E952E06AE972E00E9405
:10292000060FD0939102C093900240E050E067E51B
:1029300073E4CE010E94910E88AD811103C0CE01D7
:102940000E94340781E088AF89E390E00E94F71A83
:10295000EC0124E832E048E852E06CE872E00E94C2
:10296000060FD0938302C093820240E050E067E5F7
:1029700073E4CE010E94910E88AD811103C0CE0197
:102980000E94340781E088AF8CE090E00E94F71A43
:102990008C019093B3028093B20286E090E00E9493
:1029A000F71A6C019093B1028093B0028CE090E032
:1029B0000E94F71AEC01E090A002F090A10241E21F
:1029C000A42E41E0B42EB982A8828BEF91E09B83C4
:1029D0008A831D830C83FF82EE8286E090E09B87D2
:1029E0008A8719861886D093AF02C093AE028CE016
:1029F00090E00E94F71A4C01DC011196BC92AE9255
:102A00008AE092E013969C938E9312971596DC922F
:102A1000CE9214971796FC92EE92169783E090E070
:102A20001B969C938E931A9719961C921E92189738
:102A300090927502809274028AE090E00E94F71AE8
:102A4000FC0155E3A52E51E0B52EB182A08289E1AB
:102A500092E09383828382E992E095838483D78393
:102A6000C683F186E086D801ED93FC938AE090E07E
:102A70000E94F71AFC01B182A08285E292E0938362
:102A8000828384E892E095838483D783C683F1862A
:102A9000E086D8011396FC93EE93129715969C92BC
:102AA0008E92149788E090E00E94F71AFC016DE581
:102AB000A62E61E0B62EB182A08283E392E09383DA
:102AC0008283D583C48383EE9AE097838683D8017B
:102AD0001796FC93EE93169788E090E00E94F71A01
:102AE000FC01B182A0828BE392E093838283D58341
:102AF000C4838CEF9AE097838683D8011996FC9360
:102B0000EE93189788E090E00E94F71AFC01B182DA
:102B1000A08272E4672E72E0772E73826282D58380
:102B2000C4838DE29AE097838683D8011B96FC9339
:102B3000EE931A978AE090E00E94F71AFC0109E4EC
:102B400011E01183008389E492E09383828389E01A
:102B500091E09583848397828682F186E086D60110
:102B6000ED93FC938AE090E00E94F71AFC01118338
:102B7000008384E592E09383828388E091E09583EB
:102B8000848397828682F186E086D6011396FC9331
:102B9000EE93129788E090E00E94F71AFC01B18250
:102BA000A08273826282D583C4838AE09AE097838D
:102BB0008683D6011596FC93EE93149782E090E0FD
:102BC0000E94F71AFC01D183C0839093A9028093DD
:102BD000A8020E94ED098CEA90E00E94F71AEC012D
:102BE0000E941B128E0104571F4FFE01B8967E01F2
:102BF0009E01245C3F4FD8011D928D0111921192CC
:102C0000D7016D937D938D939D937D01AF01425BC1
:102C10005F4FDA011D921C922E173F0761F7FE01EC
:102C2000E655FF4F11821082D093AD02C093AC02E3
:102C300029E232E040EA56E861E070E0CE010E940D
:102C4000E405909381028093800229E33BE048EE03
:102C500053E060E070E0CE010E94E40590937F02B3
:102C600080937E0281E090E00E94F71A8C0189E057
:102C700090E090937B0280937A028CEA90E00E942D
:102C8000F71A7C010E941B12E701C457DF4F57015E
:102C9000B8E2AB0EB11C6701A701445C5F4FF501C0
:102CA000199211921192D6016D937D938D939D93FC
:102CB0006D019F01225B3F4FD9011D921C92E417C9
:102CC000F50771F76701BAEACB0ED11CF601118244
:102CD0001082F092A702E092A602F501C0E0D0E0D7
:102CE00081919191892B39F02196CA30D105C1F794
:102CF000CFEFDFEF30C04E01880C991C880C991C77
:102D00008E0C9F1CD401DC961D921D921D921C926C
:102D1000DF97FE01EE0FFF1FEE0DFF1D8FE891E024
:102D200091A780A7EC59FF4F11821082F701EC0F99
:102D3000FD1FE457FF4F81E080830E941B12F401C6
:102D40006083718382839383D6018D919C911197C7
:102D500001968D939C93D0937902C0937802F601EB
:102D6000808191810A970CF045C0812C912CD5016E
:102D70008D919D915D01892B41F0BFEF8B1A9B0ACC
:102D8000EAE08E16910499F735C05401AA0CBB1CD9
:102D9000AA0CBB1CAE0CBF1C81E090E0A0E0B0E030
:102DA000F50184AF95AFA6AFB7AFF401EE0FFF1FEB
:102DB000EE0DFF1D87E993E091A780A7EC59FF4F27
:102DC00011821082F701E80DF91DE457FF4F81E0F1
:102DD00080830E941B12D5016D937D938D939C93EC
:102DE0001397F60180819181019691838083982DBC
:102DF000892D02C09FEF8FEF909376028093770228
:102E0000F701EC0FFD1FE457FF4F108261E089E0EE
:102E10000E9480111093AB020093AA0281E090E01F
:102E20000E94F71AEC0190937D0280937C0260E08F
:102E300070E00E941B0ABC01990F880B990B0E943D
:102E40004618609392027093930280939402909339
:102E5000950262E070E0CE010E941B0ABC01990F4E
:102E6000880B990B0E944618609384027093850228
:102E7000809386029093870284E090E00E94631919
:102E800091E0811101C090E09093090185E090E00C
:102E90000E94631991E0811101C090E090930801B4
:102EA000C3E0D1E08091AC029091AD020E9438065F
:102EB0008091A6029091A7020E9438068091B003EB
:102EC0008830E0F4A091B402B091B502EC91F0E04A
:102ED000EF50FC4F8081EC91F0E0EF50FC4F8738D1
:102EE00019F4C0838FEF0BC080818B3439F4EC91DF
:102EF000F0E0EF50FC4FC08381E001C080E0909192
:102F00000A019923F1F08F3F69F4E091A802F09152
:102F1000A90280819181DC01ED91FC910480F58111
:102F2000E02D0EC0813069F4E091A802F091A90271
:102F300080819181DC01ED91FC910680F781E02D8B
:102F4000099587E00E942811892B19F4D093B602C5
:102F500023C08091B6028823F9F01092B602209126
:102F60000A018091A8029091A902222319F00E94DF
:102F7000F70904C0D0930A010E94ED09809109016C
:102F8000882351F042E350E060E070E08091AA02B3
:102F90009091AB020E94140B0E94B60D83CFE7E024
:102FA000F3E01382128288EE93E0A0E0B0E0848325
:102FB0009583A683B7832DE831E031832083E3E155
:102FC000F3E01382128284839583A683B7838BEA0E
:102FD00091E09183808385EC90E09587848784ECF1
:102FE00090E09787868780EC90E0918B808B81ECD6
:102FF00090E0938B828B82EC90E0958B848B86ECB7
:1030000090E0978B868B118E128E138E148E1092F9
:10301000B0030895BB274A3031F4992322F4BDE26E
:10302000909581959F4F0C941618BB27FB0155274F
:10303000AA27880F991FAA1FA41710F0A41B839515
:103040005051B9F7A05DAA3308F0A95DA19300978C
:1030500079F7B111B1931192CB010C942F18DC01C7
:10306000FC01672F71917723E1F7329704C07C91BF
:103070006D9370836291AE17BF07C8F308950E94E5
:10308000811808F481E00895E89409C097FB3EF4A4
:1030900090958095709561957F4F8F4F9F4F9923A5
:1030A000A9F0F92F96E9BB279395F6958795779523
:1030B0006795B795F111F8CFFAF4BB0F11F460FFE3
:1030C0001BC06F5F7F4F8F4F9F4F16C0882311F03B
:1030D00096E911C0772321F09EE8872F762F05C04F
:1030E000662371F096E8862F70E060E02AF09A95EA
:1030F000660F771F881FDAF7880F9695879597F9DF
:103100000895990F0008550FAA0BE0E8FEEF161678
:103110001706E807F907C0F012161306E407F507CB
:1031200098F0621B730B840B950B39F40A2661F03F
:10313000232B242B252B21F408950A2609F4A140E2
:10314000A6958FEF811D811D08950E94B8180C94DB
:1031500029190E941B1938F00E94221920F095238A
:1031600011F00C9412190C94181911240C945D1977
:103170000E943A1970F3959FC1F3950F50E0551FC7
:10318000629FF001729FBB27F00DB11D639FAA27BC
:10319000F00DB11DAA1F649F6627B00DA11D661F0B
:1031A000829F2227B00DA11D621F739FB00DA11D2C
:1031B000621F839FA00D611D221F749F3327A00DE6
:1031C000611D231F849F600D211D822F762F6A2F82
:1031D00011249F5750409AF0F1F088234AF0EE0FE7
:1031E000FF1FBB1F661F771F881F91505040A9F714
:1031F0009E3F510580F00C9412190C945D195F3FAD
:10320000E4F3983ED4F3869577956795B795F7954F
:10321000E7959F5FC1F7FE2B880F911D96958795C7
:1032200097F9089597F99F6780E870E060E0089546
:103230009FEF80EC089500240A94161617061806CE
:103240000906089500240A941216130614060506AA
:103250000895092E0394000C11F4882352F0BB0F3B
:1032600040F4BF2B11F460FF04C06F5F7F4F8F4F9E
:103270009F4F089557FD9058440F551F59F05F3FD9
:1032800071F04795880F97FB991F61F09F3F79F088
:1032900087950895121613061406551FF2CF46950A
:1032A000F1DF08C0161617061806991FF1CF86958C
:1032B0007105610508940895E894BB276627772770
:1032C000CB0197F90895F999FECF92BD81BDF89A87
:1032D000992780B50895262FF999FECF1FBA92BD80
:1032E00081BD20BD0FB6F894FA9AF99A0FBE0196E7
:1032F00008952F923F924F925F926F927F928F929A
:103300009F92AF92BF92CF92DF92EF92FF920F9374
:103310001F93CF93DF93CDB7DEB7CA1BDB0B0FB67E
:10332000F894DEBF0FBECDBF09942A88398848883B
:103330005F846E847D848C849B84AA84B984C884D1
:10334000DF80EE80FD800C811B81AA81B981CE0FC8
:10335000D11D0FB6F894DEBF0FBECDBFED010895AD
:10336000A1E21A2EAA1BBB1BFD010DC0AA1FBB1F89
:10337000EE1FFF1FA217B307E407F50720F0A21BFB
:10338000B30BE40BF50B661F771F881F991F1A9468
:1033900069F760957095809590959B01AC01BD0192
:1033A000CF010895EE0FFF1F0590F491E02D0994D1
:1033B0005058BB27AA270E94F0190C9429190E9483
:1033C0001B1938F00E94221920F039F49F3F19F49C
:1033D00026F40C9418190EF4E095E7FB0C941219DE
:1033E000E92F0E943A1958F3BA1762077307840746
:1033F000950720F079F4A6F50C945C190EF4E0958D
:103400000B2EBA2FA02D0B01B90190010C01CA019E
:10341000A0011124FF27591B99F0593F50F4503E49
:1034200068F11A16F040A22F232F342F4427585F3B
:10343000F3CF469537952795A795F0405395C9F753
:103440007EF41F16BA0B620B730B840BBAF091500B
:10345000A1F0FF0FBB1F661F771F881FC2F70EC0AA
:10346000BA0F621F731F841F48F48795779567957D
:10347000B795F7959E3F08F0B0CF9395880F08F069
:103480009927EE0F9795879508950E94591A0C94E5
:1034900029190E94221958F00E941B1940F029F4A2
:1034A0005F3F29F00C94121951110C945D190C9482
:1034B00018190E943A1968F39923B1F3552391F32F
:1034C000951B550BBB27AA2762177307840738F093
:1034D0009F5F5F4F220F331F441FAA1FA9F335D0F0
:1034E0000E2E3AF0E0E832D091505040E695001CA4
:1034F000CAF72BD0FE2F29D0660F771F881FBB1F5E
:10350000261737074807AB07B0E809F0BB0B802D3B
:10351000BF01FF2793585F4F3AF09E3F510578F067
:103520000C9412190C945D195F3FE4F3983ED4F3A8
:10353000869577956795B795F7959F5FC9F7880F3B
:10354000911D9695879597F90895E1E0660F771F8D
:10355000881FBB1F621773078407BA0720F0621B1E
:10356000730B840BBA0BEE1F88F7E09508950E9449
:10357000BE1A6894B1110C945D1908950E94421905
:1035800088F09F5798F0B92F9927B751B0F0E1F024
:10359000660F771F881F991F1AF0BA95C9F714C0D4
:1035A000B13091F00E945C19B1E008950C945C195F
:1035B000672F782F8827B85F39F0B93FCCF386950D
:1035C00077956795B395D9F73EF49095809570956A
:1035D00061957F4F8F4F9F4F08950E94811808F487
:1035E0008FEF08950E948118880B990B08950F930F
:1035F0001F93CF93DF938230910510F482E090E027
:10360000E0916904F0916A0420E030E0A0E0B0E0CD
:10361000309719F140815181028113814817590770
:10362000C8F08417950769F4109731F012960C933F
:10363000129713961C9327C00093690410936A0491
:1036400022C02115310519F04217530718F49A01C9
:10365000BD01EF01DF01F801DBCF21153105F9F0E4
:10366000281B390B2430310580F48A819B81611538
:10367000710521F0FB019383828304C090936A0457
:1036800080936904FE01329644C0FE01E20FF31FED
:103690008193919322503109398328833AC0209134
:1036A000670430916804232B41F420910D0130917F
:1036B0000E01309368042093670420910B01309130
:1036C0000C012115310541F42DB73EB740910F0192
:1036D00050911001241B350BE0916704F0916804B0
:1036E000E217F307A0F42E1B3F0B2817390778F0D9
:1036F000AC014E5F5F4F2417350748F04E0F5F1F38
:1037000050936804409367048193919302C0E0E072
:10371000F0E0CF01DF91CF911F910F910895CF93EA
:10372000DF93009709F481C0FC0132971382128263
:10373000A0916904B0916A04109781F420813181CD
:10374000820F931F2091670430916804281739076E
:1037500051F5F0936804E093670467C0ED0120E041
:1037600030E0CE17DF0740F44A815B819E014115AE
:103770005105F1F0EA01F5CFD383C2834081518135
:10378000840F951FC817D90759F488819981840F30
:10379000951F0296918380838A819B819383828384
:1037A0002115310529F4F0936A04E09369043DC0C2
:1037B000E901FB83EA8349915991C40FD51FEC17A6
:1037C000FD0761F480819181840F951F0296E901C4
:1037D00099838883828193819B838A83E0E0F0E0F0
:1037E00012968D919C911397009719F0FD01DC01C1
:1037F000F7CF8D919C9111979D012E5F3F4F820FC6
:10380000931F20916704309168042817390769F4E1
:10381000309729F410926A041092690402C013824E
:103820001282B0936804A0936704DF91CF9108954A
:10383000A0E0B0E0EEE1FCE10C947D19EC01009712
:1038400021F4CB010E94F71AB4C0FC01E60FF71F68
:103850009C0122503109E217F30708F4A8C0D901EE
:103860000D911C91119706171707B0F0053011053F
:1038700008F49BC0C80104978617970708F495C001
:1038800002501109061B170B019311936D937C9342
:10389000CF010E948F1B89C05B01A01AB10A4C01A5
:1038A000800E911EA0916904B0916A04612C712C64
:1038B000E12CF12C109709F446C08D919C91119741
:1038C000A815B905B1F56C0142E0C40ED11CCA14AB
:1038D000DB0478F14C018A189B08640142E0C40EB5
:1038E000D11C1296BC9012971396AC91B5E0CB16F2
:1038F000D10440F0B282A38391828082D9016D937A
:103900007C9309C00E5F1F4F800F911FF9019183B7
:103910008083EB2DFA2FE114F10431F0D7011396D7
:10392000FC93EE93129741C0F0936A04E09369040C
:103930003CC06816790608F43C017D0112960D9092
:10394000BC91A02DB7CF8091670490916804881630
:103950009906E1F466167706C8F480910B01909100
:103960000C01009741F48DB79EB740910F01509123
:103970001001841B950BE817F907C8F4F09368044D
:10398000E0936704F901718360830FC0CB010E944B
:10399000F71A7C01009759F0A801BE010E94E31CB0
:1039A000CE010E948F1BC70104C0CE0102C080E07F
:1039B00090E0CDB7DEB7EEE00C94991981E090E08D
:1039C000F8940C94F31CFB01DC0102C001900D92F1
:1039D00041505040D8F70895FB01DC0101900D9251
:0A39E0000020E1F70895F894FFCFEE
:1039EA00010101018C008C0001010100006B04201F
:1039FA0000000000000E088D00B800B700000000AB
:103A0A0000E909F003F000D300C3001D08BF00BBA2
:103A1A000000000000EA09EE033701150111014E0A
:103A2A00080D01F10C00000000EB09F203680161C6
:103A3A00015D0134095901F10C00000000EC09F4A0
:103A4A0003F10CF10C810177017D01F10C000000FA
:103A5A000000000000A301A301A301A301A301A385
:103A6A00010000400014005400000000004A0D1D2F
:103A7A000DB800F10C150D010DF20C00000000A3A9
:103A8A00018D00B800B70000000000B9108D007960
:103A9A000D0611AA0D880D9C0D5772697465206177
:103AAA006464726573733A20002076616C3A200070
:103ABA000D0A00553A00443A004320002020200015
:103ACA00430025006E616E00696E66006F766600BF
:103ADA00545255450046414C534500424F54544FA9
:103AEA004D204845415445523A00534F554E4420C3
:103AFA0053455454494E473A005345542054454D72
:103B0A0050205550005345542054454D5020444FA1
:103B1A00574E003C3C5354415254003C3C53544F82
:103B2A0050003C3C4558495400434C49434B2042C1
:103B3A004545500054454D50205345542042454573
:023B4A00500029
:00000001FF
