:100000000C9463000C94F5160C941C170C948B0044
:100010000C948B000C948B000C948B000C9437097F
:100020000C948B000C948B000C948B000C948B0024
:100030000C948B000C948B000C948B000C948B0014
:100040000C9443170C948B000C948B000C948B0035
:100050000C948B000C948B000C948B000C948B00F4
:100060000C94D4100C948B000000000800020100D6
:100070000003040700000000000000000102040863
:100080001020408001020408102001020408102002
:10009000040404040404040402020202020203032E
:1000A00003030303000000002300260029000000D2
:1000B0000000250028002B0000000000240027007D
:1000C0002A00C309C31211241FBECFEFD8E0DEBF40
:1000D000CDBF11E0A0E0B1E0E6EBF9E302C005908E
:1000E0000D92A63DB107D9F723E0A6EDB1E001C01E
:1000F0001D92AB31B207E1F710E0C3E6D0E004C0D7
:100100002197FE010E94401AC136D107C9F70E940B
:1001100030150C94D91C0C940000CF93DF93EC01A4
:1001200088859985019699878887EE81FF8160810E
:1001300071816817790724F48A819B810E943901B3
:10014000EE81FF81628173818885998568177907BF
:100150003CF48A819B810296DF91CF910C94390106
:10016000DF91CF910895CF93DF93EC011986188624
:100170006A857B858C819D810E941E1060E070E005
:100180008A819B810E9439018A819B8160E070E0B5
:1001900002960E94390142E050E064ED70E080E098
:1001A000DF91CF910C94D516CF93DF93EC01198694
:1001B00018866A857B858C819D810E9413106A85D3
:1001C0007B858C819D810E94F90F43E050E063EBB9
:1001D00070E080E0DF91CF910C94D5160F931F93C0
:1001E000CF93DF93EC01862F5B834A833F832E837B
:1001F0006883798360E00E94C81842E050E064EDB3
:1002000070E080E00E94D5168CEA90E00E943F15D5
:100210008C010E94470E1D830C832DE830E048E2DC
:1002200050E060E070E0C8010E94EC0E9B878A8776
:10023000BC018C819D81DF91CF911F910F910C9416
:100240001E10FC01778366830895FC0184819581EB
:100250000C94340FCF93DF93EC01862F688379835E
:1002600061E00E94C81860E08881DF91CF910C9412
:1002700004196095FC0180810C9404190895FC0117
:100280007183608308958F929F92AF92BF92CF92B5
:10029000DF92EF92FF920F931F93CF93DF93CDB72F
:1002A000DEB762970FB6F894DEBF0FBECDBF7C01FC
:1002B0006B014A015901462F60E0FC018081918168
:1002C0000E943F0AC114D10419F06FE171E002C02D
:1002D0006CE171E0F701808191810E9492154AE002
:1002E000B401CE010D960E94E119898965E0681B71
:1002F0004C2DF701808191810E943F0ABE01635F0E
:100300007F4FF701808191810E9484154C2D65E01B
:10031000F701808191810E943F0A62E271E0F7015A
:10032000808191810E9492154C2D67E0F7018081B8
:1003300091810E943F0A65E271E0F701808191811D
:100340000E9492154AE0B501CE0107960E94E1197C
:100350008B856AE0681B4C2DF701808191810E949A
:100360003F0ABE01695F7F4FF701808191810E9442
:1003700084154C2D6AE0F701808191810E943F0A2B
:1003800069E271E0F701808191810E9492154C2D04
:100390006CE0F701808191810E943F0A65E271E083
:1003A000F701808191810E9492154AE0B801CE0147
:1003B00001960E94E1198D816FE0681B4C2DF701B9
:1003C000808191810E943F0ABE016F5F7F4FF701DC
:1003D000808191810E9484154C2D6FE0F70180810E
:1003E00091810E943F0A6BE271E0F7018081918167
:1003F0000E949215CE0101960E945C19CE010796CB
:100400000E945C19CE010D960E945C1962960FB68F
:10041000F894DEBF0FBECDBFDF91CF911F910F913A
:10042000FF90EF90DF90CF90BF90AF909F908F9014
:10043000089508951F93CF93DF93EB01CB010E94A2
:100440008C1C182FCE0101960E948C1C982F812F96
:10045000DF91CF911F9108951F93CF93DF93EB010D
:10046000152F642FCE010E94941C612FCE0101969E
:10047000DF91CF911F910C94941CFC0171836083D8
:100480000895DC018D919C91DC01ED91FC9104803B
:10049000F581E02D0994DC018D919C91DC01ED91B9
:1004A000FC910680F781E02D0994DC018D919C91EF
:1004B000DC01ED91FC910284F385E02D0994CF934A
:1004C000DF93EC0188819981DC01ED91FC9100843E
:1004D000F185E02D099599838883CE01DF91CF9135
:1004E0000C945502DC018D919C91DC01ED91FC9105
:1004F0000684F785E02D09940895FC018481958197
:100500000895FC01828193810895DC011696ED9196
:10051000FC911797099408950C944315FC0181E30D
:1005200091E091838083738362835583448337830F
:100530002683089508950F931F93CF93DF93EC01C3
:100540000C811D8120E030E040E85FE3F80160812C
:100550007181828193810E94F212F801608371831C
:1005600082839383E881F9810284F385E02DCE01B3
:10057000DF91CF911F910F9109940F931F93CF9308
:10058000DF93EC010C811D8120E030E040E85FE367
:10059000F80160817181828193810E94F112F801DA
:1005A0006083718382839383E881F9810284F38578
:1005B000E02DCE01DF91CF911F910F910994FC01A5
:1005C000868197810895FC01828193810895089521
:1005D0000C944315CF93DF93EC01888599850E9495
:1005E000310A40E060E0888599850E943F0A6A816F
:1005F0007B81888599850E94921541E060E088851D
:1006000099850E943F0AEC81FD8140815181628180
:10061000738122E030E088859985DF91CF910C9439
:10062000D2160F931F93FC0185E491E091838083A0
:1006300073836283558344833783268311870087BE
:100640001F910F9108950895DC0118968D919C914A
:100650001997019719969C938E93189797FF09C045
:100660001A968D919C911B97019719969C938E9346
:100670001897ED91FC9111970284F385E02DCD013F
:100680000994DC0118968D919C9119970196199601
:100690009C938E9318971A962D913C911B978217D5
:1006A000930724F019961C921E921897ED91FC91D5
:1006B00011970284F385E02DCD010994DC01189691
:1006C000ED91FC911997EE0FFF1F14968D919C915F
:1006D0001597E80FF91F808191810895FC018281AF
:1006E00093810895FC011186108608950C9443159A
:1006F000CF93DF93EC018E819F810E94310A40E00D
:1007000060E08E819F810E943F0A6A817B818E8199
:100710009F810E94921541E060E08E819F810E943E
:100720003F0AE885F985EE0FFF1F8C819D81E80F58
:10073000F91F80819181DC01ED91FC910484F585A4
:10074000E02D0995BC018E819F81DF91CF910C94A2
:1007500092150F931F93FC0189E591E091838083AB
:100760007383628355834483178306833387228789
:10077000118610861F910F910895CF92DF92EF920C
:10078000FF926091D9017091DA018091F10190910D
:10079000F2010E94F90F8091DE01882309F490C0D4
:1007A00080910601882309F48BC02091E7013091E4
:1007B000E8014091E9015091EA01609108017091CE
:1007C000090180910A0190910B010E94F1126B01C5
:1007D0007C0120E030E0A9010E94BD1418165CF4F1
:1007E00020E030E040E050E4C701B6010E945E1313
:1007F00087FF58C00BC020E030E040E050ECC7015C
:10080000B6010E94BD1418160CF04CC0C090DF0158
:10081000D090E001E090E101F090E20120E030E0D2
:10082000A901C701B6010E94BD141816DCF520E02D
:1008300030E04FE753E4C701B6010E945E1387FF23
:1008400031C06091DB017091DC01072E000C880B38
:10085000990B0E940D14A70196010E94F1126B01E1
:100860007C0120E030E0A9010E94BD1418165CF460
:1008700020E030E040EA50E4C701B6010E945E1378
:1008800087FF10C00AC020E030E040EA50ECC7010A
:10089000B6010E94BD1418162CF41092060181E0D6
:1008A0008093DD016091DF017091E0018091E101B1
:1008B0009091E2010E94D5137093DC016093DB01FB
:1008C000FF90EF90DF90CF900895CF93DF9300D00B
:1008D00000D0CDB7DEB78091DE01882369F1809129
:1008E000DD01882331F08091FB019091FC010E9491
:1008F000640B80910601882331F08091F901909179
:10090000FA010E94640B6091E3017091E40180910F
:10091000E5019091E6010E94D5137A836983609185
:10092000DF017091E0018091E1019091E2010E946C
:10093000D5137C836B8304C01A8219821C821B82AC
:10094000BE016F5F7F4F80910102909102020E9471
:1009500021010F900F900F900F90DF91CF9108958C
:100960008F929F92AF92BF92CF92DF92EF92FF92BF
:100970000F931F9380910701811172C020E030E036
:100980004FE753E46091E3017091E4018091E50148
:100990009091E6010E94631320E030E048EC52E4BD
:1009A0000E94C2140E94D5134B015C016091EB01BF
:1009B0007091EC018091ED019091EE010E94D513B0
:1009C0006B017C0160910C0170910D0180910E0111
:1009D00090910F010E94D51384019601AB0160E054
:1009E00070E08091FD019091FE010E94430120E0A2
:1009F00030E04FE753E46091DF017091E0018091B6
:100A0000E1019091E2010E94631320E030E048ECA4
:100A100052E40E94C2140E94D5134B015C01609104
:100A2000E7017091E8018091E9019091EA010E944B
:100A3000D5136B017C0160910801709109018091CF
:100A40000A0190910B010E94D51384019601AB011C
:100A500061E070E08091FD019091FE010E944301F0
:100A60001F910F91FF90EF90DF90CF90BF90AF90CC
:100A70009F908F9008956091D7017091D8018091D7
:100A8000F1019091F2010E94F90F8091FF01909184
:100A900000020E94EC126093E7017093E8018093DA
:100AA000E9019093EA011092EB011092EC0110928F
:100AB000ED011092EE010C94B0048091F701909139
:100AC000F8010E949B08909107019923A9F0082E34
:100AD000000C990B8F3F2FEF920731F48091F301B7
:100AE0009091F4010C944102019731F48091F3014B
:100AF0009091F4010C944B020895CF92DF92EF9203
:100B0000FF920F931F93CF93DF9360E070E080918B
:100B1000EF019091F0010E941A028C0162E070E0F6
:100B20008091EF019091F0010E941A02EC01C090B7
:100B30000C01D0900D01E0900E01F0900F01B80172
:100B4000110F880B990B0E940D14A70196010E94AA
:100B50005E13882369F0C701B6010E94D513AB016B
:100B600060E070E08091EF019091F0010E942C0212
:100B7000C0900801D0900901E0900A01F0900B01AB
:100B8000BE01DD0F880B990B0E940D14A701960181
:100B90000E945E138823A9F0C701B6010E94D513F5
:100BA000AB0162E070E08091EF019091F001DF9184
:100BB000CF911F910F91FF90EF90DF90CF900C9409
:100BC0002C02DF91CF911F910F91FF90EF90DF905A
:100BD000CF900895109207018091F3019091F40154
:100BE0000E945F028091F3019091F4010E947202D1
:100BF0008091F5019091F6010E94310A0C947D05D7
:100C00001092DE011092DD01109206011092E301B4
:100C10001092E4011092E5011092E6011092DF01BA
:100C20001092E0011092E1011092E2010C94EA05A9
:100C300081E08093DE011092DD0180930601109225
:100C4000E3011092E4011092E5011092E601109286
:100C5000DF011092E0011092E1011092E2010C9488
:100C6000EA0587E00E943319892B21F481E0809303
:100C7000D60108958091D601882391F02091070133
:100C80008091F3019091F401222319F00E945F02F8
:100C900005C021E0209307010E9455021092D60161
:100CA00008956FE770E089E00E9440188091F1019B
:100CB0009091F2010E94340F809101029091020202
:100CC0000E9425010E9465040E945D050C94310676
:100CD000CF92DF92EF92FF920F931F93CF93DF9308
:100CE0008AE090E00E9441157C018CE090E00E9437
:100CF0003F15EC010091F5011091F60125E030E07F
:100D0000A70169E671E00E94A9038AE090E00E94D1
:100D10003F156C010091F5011091F6019E014CE028
:100D200051E068E771E00E941103F701D182C082AF
:100D30008AE090E00E943F156C010091F50110914E
:100D4000F6019E0148E051E064E871E00E94110361
:100D5000F701D382C28288E090E00E943F158C01A7
:100D600028E136E0AE0162E971E00E948E02F701EF
:100D70001583048388E090E00E943F158C0120E0F9
:100D800036E0AE016AE971E00E948E02F701178336
:100D9000068388E090E00E943F158C012AEE35E042
:100DA000AE0161EA71E00E948E02F70111870087AF
:100DB00082E090E00E943F157C01BE010E943D024E
:100DC000F092F401E092F301C701DF91CF911F91FE
:100DD0000F91FF90EF90DF90CF900C9455026F929F
:100DE0007F928F929F92AF92BF92CF92DF92EF92BB
:100DF000FF920F931F93CF93DF93CDB7DEB7289762
:100E00000FB6F894DEBF0FBECDBF63E070E0CE0139
:100E100005960E942A0164E070E0CE0107960E94C8
:100E20002A011A8219821C821B828CE090E00E94A7
:100E30003F158C019E012F5F3F4FAE014B5F5F4F0F
:100E400062E070E00E94EE00109302020093010243
:100E500082E090E00E943F158C012CE030E04BE0F6
:100E600050E06AE070E00E94C71210930002009305
:100E7000FF018CE090E00E943F154C0100E022E071
:100E800040E167E20E94CA099092F6018092F50162
:100E9000C4010E947B0A8091F5019091F6010E94A5
:100EA000310A82E090E00E943F158C016091F501CB
:100EB0007091F6010E943F011093FE010093FD0125
:100EC00081E090E00E943F158C0146E065E00E94C1
:100ED0003F081093F8010093F701C8010E9416091A
:100EE00060E087E00E94C81889E390E00E943F1507
:100EF0004C011F921F928FE3682E6F9290E8792E1B
:100F00007F921F921F92A12CB12C20EAC22E20E4C6
:100F1000D22EE12CF12C00E010E42CE031E043EE85
:100F200051E06BEE71E0C4010E94D80D9092FC017B
:100F30008092FB0161E070E0C4010E94860D89E3AC
:100F400090E00E943F154C011F921F926F927F927A
:100F50001F921F9228E031E04FED51E067EE71E003
:100F60000E94D80D9092FA018092F90161E070E040
:100F7000C4010E94860D81E090E00E943F158C0123
:100F80000E9419021093F0010093EF0160E070E0FD
:100F9000C8010E941A02BC01990F880B990B0E948C
:100FA0000D1460930C0170930D0180930E019093CA
:100FB0000F0162E070E08091EF019091F0010E94DA
:100FC0001A02BC01990F880B990B0E940D146093B3
:100FD00008017093090180930A0190930B010E940C
:100FE00068068CEA90E00E943F158C010E94470E33
:100FF0001093F2010093F1012DEB33E040EA56E843
:1010000061E070E0C8010E94EC0E9093DA018093D9
:10101000D9012BE335E048EE53E060E070E08091C9
:10102000F1019091F2010E94EC0E9093D80180930F
:10103000D70161E089E00E94C818CE0107960E949E
:101040003E01CE0105960E943E010FB6F894DEBF28
:101050000FBECDBF28960FB6F894DEBF0FBECDBF32
:10106000DF91CF911F910F91FF90EF90DF90CF9084
:10107000BF90AF909F908F907F906F900895CF9387
:10108000DF93DC011C9280910302883008F050C08D
:10109000809103028C93809103028F5F80930302FF
:1010A000CC91D0E0CD5FDD4F6983CC91D0E0CD5FB6
:1010B000DD4F49878C9190E070E0FB01E057FF4FD6
:1010C000E491F0E0EE0FFF1FEC55FF4F25913491B6
:1010D000880F991FFC01ED5FFD4F328B218B8C91A6
:1010E00090E050E0FA01E057FF4FE491F0E0EE0F9E
:1010F000FF1FEC55FF4F25913491880F991FFC017C
:10110000ED5FFD4F32A321A38C9190E0FB01E458E9
:10111000FF4F6491FC01ED5FFD4F61AB8C9190E05E
:10112000FA01E458FF4F4491FC01ED5FFD4F41AFE0
:10113000DF91CF910895DC01809103028830D0F4D3
:10114000EC91F0E0EC5BFD4F8081EC91F0E0EC5B2A
:10115000FD4F873821F483E080838FEF08958081ED
:101160008B3449F4EC91F0E0EC5BFD4F83E080833D
:1011700081E00895089580E00895CF934A3185EF86
:1011800058076105710508F5443A8EE15807610575
:101190007105F8F4493A87E0580761057105E8F4EC
:1011A000453D83E0580761057105D8F44B3E81E069
:1011B000580761057105C8F4463F51056105710581
:1011C000C0F487E0A0E0B4E017C081E0A1E0B0E0A7
:1011D00013C082E0A8E0B0E00FC083E0A0E2B0E07E
:1011E0000BC084E0A0E4B0E007C085E0A0E8B0E078
:1011F00003C086E0A0E0B1E0C2E0C093B0008093FD
:10120000B1009A01AB010E94351A9B01AC0160E06C
:1012100074E284EF90E00E94131A21502093B300EF
:10122000C093700080E88FBFCF910895CF93DF9374
:10123000209103022830C0F4EC01E881F0E0ED5F7A
:10124000FD4F818160E00E94C818E881F0E0ED5F09
:10125000FD4F818560E00E94C81840EA5FE060E0D1
:1012600070E0CE010E94BD08DF91CF9108951F92DA
:101270000F920FB60F9211242F933F938F939F934A
:10128000EF93FF938091030280934C0280914C0274
:101290009FEF980F90934C02882309F469C0109235
:1012A0004D02E0914C02EE0FFF0BED5FFD4F018808
:1012B000F289E02D2081E0914C020E2E000CFF0BF4
:1012C000ED5FFD4F91A980914D02922321E009F439
:1012D00020E0822B80934D0280914D02880F990B64
:1012E00080934D02E0914C02EE0FFF0BED5FFD4F3E
:1012F00001A0F2A1E02D2081E0914C020E2E000C05
:10130000FF0BED5FFD4F91AD80914D02922321E0E7
:1013100009F420E0822B80934D02E0914C020E2EC6
:10132000000CFF0BEC5BFD4F808120914D02837020
:1013300090E0022E000C330B8217930709F4A6CF1E
:10134000E0914C020E2E000CFF0BEC5BFD4F8081F8
:10135000880F880F808380914D02E0914C020E2E01
:10136000000CFF0BEC5BFD4F9081892B80838ECFAF
:10137000FF91EF919F918F913F912F910F900FBE11
:101380000F901F90189510920302089580E090E04E
:10139000089508950F93FC01138212828CEA91E064
:1013A00091838083648340872187028788E08387D5
:1013B0000F9108951F93CF93DF93EC01162F6C814B
:1013C0008CEB92E00E94A3126B85612B8CEB92E078
:1013D0000E945A128CEB92E0DF91CF911F910C94F6
:1013E000C0120F931F93CF938C01C62F64600E948D
:1013F000DA0981E090E00E94FA176C2F6B7FC80138
:101400000E94DA0982E390E0CF911F910F910C9432
:10141000FA171F93CF93DF93EC01162F0E94DA097E
:10142000612FCE01DF91CF911F910C94F1090F93A1
:101430001F93CF93DF938C01C62FD42F607F642B33
:101440000E94090A80E1C89FB00111246D2BC801D8
:10145000DF91CF911F910F910C94090A40E00C94F9
:10146000170A61E00E942E0A80ED97E00C94FA17AB
:1014700062E00E942E0A80ED97E00C94FA17CF9359
:10148000DF93CDB7DEB728970FB6F894DEBF0FBE57
:10149000CDBF9C0188E0E4E1F1E0DE01119601900E
:1014A0000D928A95E1F7F9018185841710F44FEFC9
:1014B000480FFE013196E40FF11DE40FF11D9081FC
:1014C000690F6068C90128960FB6F894DEBF0FBE99
:1014D000CDBFDF91CF910C942E0AFC016681262F9F
:1014E000246026836C600C942E0A41E00E94170A47
:1014F00081E090E00895CF93DF93EC018CEB92E0D4
:101500000E9499121D828985823010F098E09D8397
:101510009A85992329F0813019F48D8184608D8317
:1015200062E370E080E090E00E94BE176B85CE0120
:101530000E94DA0968EE73E080E090E00E94BE1736
:1015400060E3CE010E94090A84E991E10E94FA1742
:1015500060E3CE010E94090A84E991E10E94FA1732
:1015600060E3CE010E94090A86E990E00E94FA1722
:1015700060E2CE010E94090A6D816062CE010E9484
:101580002E0A84E08E83CE010E946D0ACE010E9455
:10159000310A82E08F8366E0CE010E942E0ACE01DE
:1015A000DF91CF910C94380ACF93DF93EC01842F15
:1015B00068834A83298361E00E94C81861E08881BA
:1015C0000E94C81860E089810E94C81861E08A8181
:1015D000DF91CF910C940419CF92DF92EF92FF929A
:1015E0001F93CF93DF937C0110E0C7E0D0E0CC24C1
:1015F000C394D12C60E0F70180810E9404198FE927
:101600009FE00197F1F700C00000F70181810E947F
:101610003319892B39F0C6010C2E01C0880F0A94AA
:10162000EAF7182B61E0F70180810E9404198FE925
:101630009FE00197F1F700C000002197D8F6812FB5
:10164000DF91CF911F91FF90EF90DF90CF900895A1
:101650000F931F93CF93DF938C0160E0FC01828195
:101660000E9404198FE99FE00197F1F700C0000084
:10167000C8010E94EC0AC82FD0E0DC2FCC27C8019B
:101680000E94EC0AC82B61E0F80182810E940419D3
:10169000C2FD11C0BE0183E0769567958A95E1F79A
:1016A00080E090E00E940B1420E030E040E85EE330
:1016B0000E94C21404C060E070E080EC9FE7DF91FC
:1016C000CF911F910F9108952F923F924F925F9269
:1016D0006F927F928F929F92AF92BF92CF92DF9242
:1016E000EF92FF920F931F93CF93DF93CDB7DEB7A7
:1016F0002B970FB6F894DEBF0FBECDBFDC01D89696
:10170000BC91B983B11102C01982E6C09B878A8758
:101710000E948D176A837B838C839D83EA85FB857A
:1017200080A191A1A2A1B3A14A815B816C817D813D
:10173000481B590B6A0B7B0B84A595A5A6A5B7A5DD
:10174000481759076A077B07F8F2028CF38DE02DE2
:1017500080809180A280B380AA85BB855E96ED9142
:10176000FC915F97A50194016081718182819381D1
:101770000E94F1122B013C01EA85FB852089318909
:10178000428953890E94C214AA85BB8594962D91E3
:101790003D914D915C9197970E94F2126B017C01F3
:1017A000EA85FB8564A375A386A397A324A835A81F
:1017B00006A917A99101A8010E94BD1418161CF4CE
:1017C000C101D80118C0AA85BB85D0968D919D9185
:1017D0000D90BC91A02D8E839F83A887B9879C0113
:1017E000AD01C701B6010E945E1387FF0AC08E815A
:1017F0009F81A885B985EA85FB8584A395A3A6A3C7
:10180000B7A3AA85BB851C962D913D914D915C9106
:101810001F97C301B2010E94C214EA85FB8524A16F
:1018200035A146A157A10E94F2126B017C01AA8545
:10183000BB8598962D913D914D915C919B97C501EB
:10184000B4010E94F112EA85FB8524893589468915
:1018500057890E94C2149B01AC01C701B6010E94C6
:10186000F1126B017C019B01AC01B101C8010E9426
:101870005E1387FD17C0AA85BB85D0962C90D097A4
:10188000D1963C90D197D2960C91D297D3961C9139
:101890009101A801B601C7010E945E1387FD02C035
:1018A00016018701AA85BB855C96ED91FC915D9739
:1018B000C101D80180839183A283B383EA85FB852C
:1018C00080A691A6A2A6B3A68A819B81AC81BD8188
:1018D00080A391A3A2A3B3A389812B960FB6F894FA
:1018E000DEBF0FBECDBFDF91CF911F910F91FF9053
:1018F000EF90DF90CF90BF90AF909F908F907F90B0
:101900006F905F904F903F902F9008954F925F920D
:101910006F927F928F929F92AF92BF92CF92DF92FF
:10192000EF92FF920F931F93CF93DF9300D000D0DD
:1019300000D0CDB7DEB79E838D832A013B014801DD
:10194000590120E030E0A901C301B2010E945E13F9
:1019500087FD7FC020E030E0A901C501B4010E94ED
:101960005E1387FD76C020E030E0A901C701B60113
:101970000E945E1387FD6DC0ED81FE814082518221
:101980006282738284829582A682B782C086D18663
:10199000E286F38664A575A586A597A50E940B141B
:1019A00020E030E04AE754E40E94631369837A83BD
:1019B0008B839C83ED81FE8144865586668677867F
:1019C0009B01AC01C501B4010E94C2144B015C0132
:1019D000ED81FE81608B718B828B938B29813A81A3
:1019E0004B815C81C701B6010E9463136B017C01CE
:1019F000ED81FE81648B758B868B978B808D918DAD
:101A0000019739F5A301920160E070E0CB010E94DB
:101A1000F112ED81FE816487758786879787A5011E
:101A2000940160E070E0CB010E94F112ED81FE8133
:101A3000608B718B828B938BA701960160E070E0C5
:101A4000CB010E94F112ED81FE81648B758B868B38
:101A5000978B26960FB6F894DEBF0FBECDBFDF91F1
:101A6000CF911F910F91FF90EF90DF90CF90BF909B
:101A7000AF909F908F907F906F905F904F90089560
:101A80008F929F92AF92BF92CF92DF92EF92FF928E
:101A9000CF93DF93EC01EC8DFD8DC080D180E2808F
:101AA000F380CCA2DDA2EEA2FFA2EA8DFB8D8081A5
:101AB0009181A281B38188A799A7AAA7BBA78CA867
:101AC0009DA8AEA8BFA8A5019401C701B6010E94B8
:101AD000BD14181664F088A899A8AAA8BBA8A501E7
:101AE0009401C701B6010E945E1387FF04C08CA257
:101AF0009DA2AEA2BFA2DF91CF91FF90EF90DF90A9
:101B0000CF90BF90AF909F908F9008951F93CF93E9
:101B1000DF93EC0111E06130710509F010E098AD40
:101B200081E08927181303C0CE010E94400D18AF31
:101B3000DF91CF911F9108950F931F93CF93DF9360
:101B4000EC018B0188AD882361F1888D998D861712
:101B5000970739F12C853D854E855F8560E070E003
:101B6000CB010E94F1126C877D878E879F87288921
:101B700039894A895B8960E070E0CB010E94F112EB
:101B8000688B798B8A8B9B8B2C893D894E895F89E9
:101B900060E070E0CB010E94F1126C8B7D8B8E8B2C
:101BA0009F8B198F088FDF91CF911F910F9108950F
:101BB0004F925F926F927F928F929F92AF92BF925D
:101BC000CF92DF92EF92FF920F931F93CF93DF9309
:101BD00000D000D0CDB7DEB74C0127013801A98273
:101BE000BA82CB82DC82FC01558F448F738F628F67
:101BF000378F268F10AE10AA11AA12AA13AA80E05E
:101C000090E0AFE7B3E484AB95ABA6ABB7AB84E6AB
:101C100090E0A0E0B0E084A795A7A6A7B7A76B8D3A
:101C20007C8DC4010E949C0DCF88D88CE98CFA8CE5
:101C300009811A812B813C81B301A201C4010E9458
:101C4000860C0E948D17F40104A515A526A537A5BD
:101C5000DC01CB01801B910BA20BB30B80A391A3E2
:101C6000A2A3B3A30F900F900F900F90DF91CF918D
:101C70001F910F91FF90EF90DF90CF90BF90AF90AA
:101C80009F908F907F906F905F904F900895CF922C
:101C9000DF92EF92FF92CF93DF93EC010E948D17BA
:101CA0007E012CE8E20EF11CFE01B8966E019E0149
:101CB000245C3F4FD7011D927D0111921192D601F4
:101CC0006D937D938D939D936D01AF01425B5F4F4B
:101CD000DA011D921C92E217F30761F7C655DF4F38
:101CE00019821882DF91CF91FF90EF90DF90CF9013
:101CF0000895FC01E655FF4F208131812A303105DE
:101D00006CF4E258F10920E030E081919191892B47
:101D100041F02F5F3F4F2A303105B9F78FEF9FEF2A
:101D20000895C90108954F925F926F927F92AF928A
:101D3000BF92CF92DF92EF92FF920F931F93CF93B8
:101D4000DF93EC012A013B0169010E94790E7C01BD
:101D500097FD31C0C114D10471F15C01AA0CBB1C08
:101D6000AA0CBB1CAC0EBD1EF50144AE55AE66AE52
:101D700077AEF701EE0FFF1FEC0FFD1FD1A6C0A637
:101D8000EC59FF4F11830083FE01EE0DFF1DE45758
:101D9000FF4F81E080830E948D17F501608371837E
:101DA00082839383C655DF4F8881998101969983F9
:101DB0008883C70102C08FEF9FEFDF91CF911F9102
:101DC0000F91FF90EF90DF90CF90BF90AF907F90FA
:101DD0006F905F904F9008950F931F9300E010E075
:101DE0000E94930E1F910F910895CF93DF936A3055
:101DF0007105BCF5EC01C655DF4F288139812115ED
:101E0000310579F1DB01AA0FBB1FA80FB91F989606
:101E10004D915C919997452B21F199961C921E92B8
:101E20009897FC01E60FF71FE457FF4F1082FD0162
:101E3000EA56FF4F11821082615F7F4F660F771F56
:101E4000660F771FFC01E60FF71F108211821282C6
:101E50001382A858BF4F1D921C922150310939831B
:101E60002883DF91CF9108952F923F924F925F92F6
:101E70006F927F928F929F92AF92BF92CF92DF929A
:101E8000EF92FF920F931F93CF93DF9300D000D078
:101E900000D0CDB7DEB79C838B830E948D176B017A
:101EA0007C01EB81FC81EC59FF4F0B811C81980177
:101EB00024573F4FC80188589F4F9A8389831E83B8
:101EC0000D8322242394312C13AA12AACF01CC977C
:101ED000DC018D919C91892BF1F1AD81BE818D90BA
:101EE0009D90AD90BC901397DC964D915D916D9156
:101EF0007C91DF9726013701481859086A087B084A
:101F0000441655066606770630F1480D591D6A1DC0
:101F10007B1D4D935D936D937C931397D9018C91A9
:101F20008823C9F0408151814115510519F433AA24
:101F300022AA11C0848995898417950764F433AA6D
:101F400022AA0196958B848B8417950724F082E052
:101F500090E093AB82AB3296AD81BE811496BE8386
:101F6000AD832F5F3F4F89819A81E817F90709F008
:101F7000ABCFE12CF12CF801EA56FF4F8081918123
:101F80008130910571F0029791F4D8019896ED9106
:101F9000FC9199970995B7018B819C810E94F50E60
:101FA00006C0D8019896ED91FC9199970995BFEFDD
:101FB000EB1AFB0A0E5F1F4F8AE0E816F104D9F610
:101FC00026960FB6F894DEBF0FBECDBFDF91CF913E
:101FD0001F910F91FF90EF90DF90CF90BF90AF9047
:101FE0009F908F907F906F905F904F903F902F9039
:101FF00008950F931F93CF93DF936A30710574F4A4
:10200000EB018C010E948D17CC0FDD1FCC0FDD1F63
:10201000C00FD11F688379838A839B83DF91CF911F
:102020001F910F9108956A3071053CF4680F791F74
:10203000FB01E457FF4F81E0808308956A3071050A
:1020400034F4680F791FFB01E457FF4F10820895A5
:102050001092BB0281E08093B9021092B80261E055
:1020600082E10E94041961E083E10E940419E9EB16
:10207000F0E080818E7F808380818D7F808388E403
:102080008093B80085E48093BC0008950F9341329B
:1020900008F04AC09091BB029111FCCF32E030931E
:1020A000BB020093B9023FEF30934E0210929302AD
:1020B00040939202562FA4E9B2E0FB013E2F351B5C
:1020C000341718F431913D93F9CF1092BA02309140
:1020D000BA02880F832B8093BA028091B8028130B4
:1020E00061F41092B8028091BA028093BB00809193
:1020F000BC0083FDF8CF85EC01C085EE8093BC0069
:10210000222321F08091BB028230D1F380914E02D4
:102110008F3F79F080914E02803241F080914E02E3
:10212000803331F094E005C091E003C092E001C03B
:1021300093E0892F0F91089540917002262F30E08F
:10214000240F311D21323105DCF42091BB022430F3
:10215000C9F4FC0180E090E0861758F430917002D9
:102160002191DC01AE58BD4FA30FB11D2C930196F8
:10217000F3CF80917002680F6093700280E0089541
:1021800081E0089582E0089585ED8093BC00809100
:10219000BC0084FDFCCF1092BB02089585EC8093B7
:1021A000BC001092BB0208951F920F920FB60F92BF
:1021B00011242F933F934F935F936F937F938F934C
:1021C0009F93AF93BF93EF93FF938091B900887F64
:1021D000803609F49EC078F5883209F45DC090F429
:1021E000803109F456C038F4882309F4F5C08830EA
:1021F00009F44FC0F5C0883109F44EC0803209F4AB
:102200005FC0EEC0803409F46AC058F4803309F42A
:1022100057C0883309F0E4C080934E020E94CE106C
:10222000DFC0803509F44FC0883509F45DC08834BB
:1022300009F0D6C0D3C0883909F4C4C0A8F48837DF
:1022400009F467C038F4883609F463C0803709F4AC
:1022500060C0C6C0883809F4B5C0803909F45FC0D1
:10226000803809F0BDC05BC0803B09F483C038F4FE
:10227000803A09F466C0883A09F47CC0B1C0803C59
:1022800009F4A4C0883C09F4A1C0883B09F487C0C4
:10229000A7C08091BA0210C09091930280919202DF
:1022A000981770F5E091930281E08E0F809393026E
:1022B000F0E0EC56FD4F80818093BB0085EC83C03D
:1022C00080934E028BC0E091930281E08E0F809349
:1022D00093028091BB00F0E0EC56FD4F808390911B
:1022E0009302809192026BC0E091930281E08E0F85
:1022F000809393028091BB00F0E0EC56FD4F808309
:102300008091B90281116AC081E08093B80284EAA9
:102310005EC083E08093BB0210924F02CFCF8091CA
:102320004F02803208F04EC0E0914F0281E08E0FE4
:1023300080934F028091BB00F0E0E05BFD4F808313
:10234000BDCF0E94CE1080914F02803230F4E091D8
:102350004F02F0E0E05BFD4F108260914F0270E0B1
:10236000E091B402F091B50280E592E009951092F7
:102370004F0236C084E08093BB021092710210922B
:102380007002E091B602F091B70209958091700257
:10239000811105C081E08093700210927202E09179
:1023A000710281E08E0F80937102F0E0EE58FD4FD4
:1023B00080818093BB009091710280917002981788
:1023C00008F47CCF85E88093BC000AC085EC80933C
:1023D000BC001092BB0204C010924E020E94C410B6
:1023E000FF91EF91BF91AF919F918F917F916F91ED
:1023F0005F914F913F912F910F900FBE0F901F90C3
:1024000018958091EC0290E02091ED02821B9109D9
:1024100008959091ED028091EC02981750F4E92F05
:10242000F0E0E251FD4F208130E09F5F9093ED029C
:1024300002C02FEF3FEFC9010895E091ED028091B6
:10244000EC02E81730F4F0E0E251FD4F808190E0BB
:1024500008958FEF9FEF08950895CF92DF92EF9246
:10246000FF920F931F93CF93DF937C01CB018A01DF
:102470002091C802222389F0EB016B01C40ED51E06
:10248000CC15DD0569F06991D701ED91FC910190C2
:10249000F081E02DC7010995F3CF642F0E949C10B5
:1024A000C801DF91CF911F910F91FF90EF90DF90C6
:1024B000CF900895CF93DF931F92CDB7DEB7698396
:1024C0002091C8022223D1F02091C902203240F08D
:1024D00021E030E0FC013383228380E090E015C0EE
:1024E0008091CA02E82FF0E0E553FD4F9981908377
:1024F0008F5F8093CA028093C90205C061E0CE015C
:1025000001960E949C1081E090E00F90DF91CF91A6
:102510000895FC011382128288EE93E0A0E0B0E0FF
:1025200084839583A683B78388EB91E0918380832E
:1025300008951092ED021092EC021092CA021092CD
:10254000C9020C94281081E08093C8026093EB02CA
:102550001092CA021092C90208950F93062F21E02B
:102560004091C9026BEC72E08091EB020E94461030
:102570001092CA021092C9021092C8020F910895D7
:1025800061E00C94AD128CEB92E00C948912DF9216
:10259000EF92FF920F931F93CF93DF938C01D62E70
:1025A000E42EF22E83E090E00E943F15EC012D2DE9
:1025B0004E2D6F2D0E94D40AF801D183C08364EFA1
:1025C00071E080E090E0DF91CF911F910F91FF903B
:1025D000EF90DF900C94BE17FC01808191810C94E8
:1025E000280B5058BB27AA270E9409130C94831468
:1025F0000E94751438F00E947C1420F039F49F3F3B
:1026000019F426F40C9472140EF4E095E7FB0C9484
:102610006C14E92F0E94941458F3BA1762077307D9
:102620008407950720F079F4A6F50C94B6140EF4FF
:10263000E0950B2EBA2FA02D0B01B90190010C01D2
:10264000CA01A0011124FF27591B99F0593F50F4EA
:10265000503E68F11A16F040A22F232F342F442742
:10266000585FF3CF469537952795A795F04053953A
:10267000C9F77EF41F16BA0B620B730B840BBAF00A
:102680009150A1F0FF0FBB1F661F771F881FC2F775
:102690000EC0BA0F621F731F841F48F48795779589
:1026A0006795B795F7959E3F08F0B0CF9395880F43
:1026B00008F09927EE0F9795879508950E94481482
:1026C00008F481E008950E9477130C9483140E940B
:1026D0007C1458F00E94751440F029F45F3F29F0F3
:1026E0000C946C1451110C94B7140C9472140E9435
:1026F000941468F39923B1F3552391F3951B550B6B
:10270000BB27AA2762177307840738F09F5F5F4FC4
:10271000220F331F441FAA1FA9F335D00E2E3AF003
:10272000E0E832D091505040E695001CCAF72BD01B
:10273000FE2F29D0660F771F881FBB1F261737076C
:102740004807AB07B0E809F0BB0B802DBF01FF279E
:1027500093585F4F3AF09E3F510578F00C946C14FB
:102760000C94B7145F3FE4F3983ED4F386957795C5
:102770006795B795F7959F5FC9F7880F911D969557
:10278000879597F90895E1E0660F771F881FBB1FB3
:10279000621773078407BA0720F0621B730B840B60
:1027A000BA0BEE1F88F7E09508950E94DC13689439
:1027B000B1110C94B71408950E949C1488F09F578F
:1027C00098F0B92F9927B751B0F0E1F0660F771F55
:1027D000881F991F1AF0BA95C9F714C0B13091F04B
:1027E0000E94B614B1E008950C94B614672F782FA8
:1027F0008827B85F39F0B93FCCF386957795679510
:10280000B395D9F73EF490958095709561957F4F7B
:102810008F4F9F4F0895E89409C097FB3EF4909521
:102820008095709561957F4F8F4F9F4F9923A9F0A9
:10283000F92F96E9BB279395F69587957795679538
:10284000B795F111F8CFFAF4BB0F11F460FF1BC07C
:102850006F5F7F4F8F4F9F4F16C0882311F096E90F
:1028600011C0772321F09EE8872F762F05C06623BD
:1028700071F096E8862F70E060E02AF09A95660F76
:10288000771F881FDAF7880F9695879597F908952F
:10289000990F0008550FAA0BE0E8FEEF1616170671
:1028A000E807F907C0F012161306E407F50798F0D9
:1028B000621B730B840B950B39F40A2661F0232BF2
:1028C000242B252B21F408950A2609F4A140A6956E
:1028D0008FEF811D811D089597F99F6780E870E053
:1028E00060E008959FEF80EC089500240A94161686
:1028F000170618060906089500240A9412161306EE
:10290000140605060895092E0394000C11F488237B
:1029100052F0BB0F40F4BF2B11F460FF04C06F5F97
:102920007F4F8F4F9F4F089557FD9058440F551F6D
:1029300059F05F3F71F04795880F97FB991F61F041
:102940009F3F79F087950895121613061406551FB8
:10295000F2CF4695F1DF08C0161617061806991F24
:10296000F1CF86957105610508940895E894BB2719
:1029700066277727CB0197F908950E94481408F439
:102980008FEF08950E94D5140C9483140E9475143F
:1029900038F00E947C1420F0952311F00C946C14F4
:1029A0000C94721411240C94B7140E94941470F3B4
:1029B000959FC1F3950F50E0551F629FF001729FE4
:1029C000BB27F00DB11D639FAA27F00DB11DAA1FF3
:1029D000649F6627B00DA11D661F829F2227B00D40
:1029E000A11D621F739FB00DA11D621F839FA00DCB
:1029F000611D221F749F3327A00D611D231F849F1B
:102A0000600D211D822F762F6A2F11249F57504071
:102A10009AF0F1F088234AF0EE0FFF1FBB1F661FEC
:102A2000771F881F91505040A9F79E3F510580F0B5
:102A30000C946C140C94B7145F3FE4F3983ED4F3F9
:102A4000869577956795B795F795E7959F5FC1F759
:102A5000FE2B880F911D9695879597F908950895F7
:102A60000E9405180E942F150E94EF06C0E0D0E0DA
:102A70000E9451062097E1F30E940000F9CF0C94C8
:102A8000551A0C94551A0C94ED1ACF92DF92EF92CE
:102A9000FF920F931F93CF93DF936C017A018B0109
:102AA000C0E0D0E0CE15DF0581F0D8016D918D0139
:102AB000D601ED91FC910190F081E02DC6010995C0
:102AC000892B11F02196EECF7E01C701DF91CF91C6
:102AD0001F910F91FF90EF90DF90CF9008956115B7
:102AE000710579F0FB0101900020E9F73197AF0102
:102AF000461B570BDC01ED91FC910280F381E02D28
:102B0000099480E090E00895DB0114964D915C916A
:102B100015976D917C91DC01ED91FC910280F38120
:102B2000E02D09940C946F15DC01ED91FC9101905E
:102B3000F081E02D09948F929F92AF92BF92EF9215
:102B4000FF920F931F93CF93DF93CDB7DEB7A1977B
:102B50000FB6F894DEBF0FBECDBF7C01FA01CB01EA
:102B600019A2223008F42AE08E010F5D1F4F822E39
:102B7000912CA12CB12CBF01A50194010E94131A24
:102B8000F901CA01015011096A3010F4605D01C0F9
:102B9000695CD8016C93232B242B252B61F7B8019A
:102BA000C7010E946F15A1960FB6F894DEBF0FBE45
:102BB000CDBFDF91CF911F910F91FF90EF90BF900C
:102BC000AF909F908F9008952115310541F4DC015D
:102BD000ED91FC910190F081E02D642F09940C940B
:102BE0009B159A01AB0160E070E00C94E4157F92B4
:102BF0008F929F92AF92BF92CF92DF92EF92FF920D
:102C00000F931F93CF93DF938C016A017B01722E88
:102C10009A01AB01C701B6010E940E1A882319F070
:102C200069EC71E027C046015701E894B7F82FEF2F
:102C30003FEF4FE75FE7C501B4010E940E1A811113
:102C40000DC02FEF3FEF4FE75FE7C501B4010E94D2
:102C50005E1318161CF46DEC71E00CC02FEF3FEF03
:102C60004FE75FE4C701B6010E94BD14181694F443
:102C700061ED71E0C801DF91CF911F910F91FF903D
:102C8000EF90DF90CF90BF90AF909F908F907F900C
:102C90000C946F152FEF3FEF4FE75FECC701B601C4
:102CA0000E945E1387FDE4CF20E030E0A901C70158
:102CB000B6010E945E1387FF0AC06DE2C8010E9440
:102CC0009415EC01F7FAF094F7F8F09402C0C0E024
:102CD000D0E0B12C60E070E080E09FE37B1441F035
:102CE00020E030E040E251E40E946313B394F6CF59
:102CF000A70196010E94F2126B017C010E94DC1375
:102D00004B015C012AE0AB01BC01C8010E949B158C
:102D1000C80FD91F7720B9F1C501B4010E940B1467
:102D20009B01AC01C701B6010E94F1126B017C014D
:102D30006EE2C8010E949415C80FD91F20E030E050
:102D400040E251E4C701B6010E94C2144B015C018C
:102D50000E94DC136B017C014AE050E0C8010E9434
:102D6000F115C80FD91FB60180E090E00E940B1446
:102D70009B01AC01C501B4010E94F1126B017C0101
:102D80007A947110DBCFCE01DF91CF911F910F911B
:102D9000FF90EF90DF90CF90BF90AF909F908F907B
:102DA0007F9008950C94F71508958230E8F4E82F89
:102DB000F0E0EE0FFF1FE05FFE4F71836083813014
:102DC00041F0809169008C7F482B40936900E89A1C
:102DD000089580916900837F440F551F440F551F4C
:102DE000482B40936900E99A08951F920F920FB6FD
:102DF0000F9211242F933F934F935F936F937F9381
:102E00008F939F93AF93BF93EF93FF93E091100144
:102E1000F09111010995FF91EF91BF91AF919F91B1
:102E20008F917F916F915F914F913F912F910F9073
:102E30000FBE0F901F9018951F920F920FB60F9212
:102E400011242F933F934F935F936F937F938F93AF
:102E50009F93AF93BF93EF93FF93E0911201F09193
:102E600013010995FF91EF91BF91AF919F918F91C0
:102E70007F916F915F914F913F912F910F900FBE76
:102E80000F901F9018951F920F920FB60F9211245A
:102E90002F933F938F939F93AF93BF9380910F0393
:102EA00090911003A0911103B091120330910E0381
:102EB00023E0230F2D3720F40196A11DB11D05C07D
:102EC00026E8230F0296A11DB11D20930E038093C7
:102ED0000F0390931003A0931103B09312038091FA
:102EE000130390911403A0911503B091160301965A
:102EF000A11DB11D8093130390931403A093150398
:102F0000B0931603BF91AF919F918F913F912F91F5
:102F10000F900FBE0F901F9018952FB7F8946091E7
:102F20000F037091100380911103909112032FBF32
:102F300008953FB7F8948091130390911403A091E2
:102F40001503B091160326B5A89B05C02F3F19F0B5
:102F50000196A11DB11D3FBFBA2FA92F982F882719
:102F6000820F911DA11DB11DBC01CD0142E0660F74
:102F7000771F881F991F4A95D1F708958F929F92C6
:102F8000AF92BF92CF92DF92EF92FF926B017C01E2
:102F90000E9499174B015C01C114D104E104F104B2
:102FA00001F10E940D1A0E949917DC01CB018819CA
:102FB0009909AA09BB09883E9340A105B10560F3B0
:102FC00021E0C21AD108E108F10888EE880E83E0FA
:102FD000981EA11CB11CC114D104E104F10419F71D
:102FE000DBCFFF90EF90DF90CF90BF90AF909F909E
:102FF0008F9008958230910538F0880F991F880FBF
:10300000991F05970197F1F70895789484B5826028
:1030100084BD84B5816084BD85B5826085BD85B57C
:10302000816085BDEEE6F0E0808181608083E1E82B
:10303000F0E0108280818260808380818160808363
:10304000E0E8F0E0808181608083E1EBF0E0808166
:1030500084608083E0EBF0E0808181608083EAE738
:10306000F0E08081846080838081826080838081C1
:10307000816080838081806880831092C100089580
:103080001F93CF93DF93182FEB0161E00E94C818C4
:10309000209711F460E004C0CF3FD10539F461E01E
:1030A000812FDF91CF911F910C940419E12FF0E053
:1030B000E859FF4FE491E330F9F048F4E130B9F01A
:1030C000E230A1F584B5806284BDC8BD34C0E7306C
:1030D000E9F0E83019F1E43049F580918000806230
:1030E00080938000D0938B00C0938A0024C084B565
:1030F000806884BDC7BD1FC08091800080688093B8
:103100008000D0938900C093880015C08091B000E2
:1031100080688093B000C093B3000DC08091B00070
:1031200080628093B000C093B40005C0C038D10560
:103130000CF0B5CFAFCFDF91CF911F9108958330C1
:1031400081F028F4813099F08230A1F00895873021
:10315000A9F08830B9F08430D1F4809180008F7D5F
:1031600003C0809180008F7780938000089584B59C
:103170008F7702C084B58F7D84BD08958091B000A3
:103180008F7703C08091B0008F7D8093B000089549
:10319000CF93DF9390E0FC01E458FF4F2491FC01B2
:1031A000E057FF4F8491882361F190E0880F991FC9
:1031B000FC01E854FF4FC591D491FC01E255FF4F4B
:1031C000A591B491611109C09FB7F89488812095A9
:1031D00082238883EC912E230BC0623061F49FB769
:1031E000F8948881322F309583238883EC912E2B9D
:1031F0002C939FBF06C08FB7F894E8812E2B2883AD
:103200008FBFDF91CF9108951F93CF93DF93282F26
:1032100030E0F901E859FF4F8491F901E458FF4F7C
:10322000D491F901E057FF4FC491CC23C1F0162F80
:1032300081110E949F18EC2FF0E0EE0FFF1FE25566
:10324000FF4FA591B4919FB7F894111104C08C91D0
:10325000D095D82302C0EC91DE2BDC939FBFDF9189
:10326000CF911F910895CF93DF93282F30E0F9017C
:10327000E859FF4F8491F901E458FF4FD491F901C7
:10328000E057FF4FC491CC2391F081110E949F1809
:10329000EC2FF0E0EE0FFF1FEC55FF4FA591B4911E
:1032A000EC91ED2381E090E021F480E002C080E029
:1032B00090E0DF91CF910895FC01808191810C9481
:1032C000ED1ACF93DF93EC0188819981009711F07B
:1032D0000E94ED1A198218821D821C821B821A829A
:1032E000DF91CF9108950F931F93CF93DF93EC015C
:1032F0008B016F5F7F4F888199810E94761B0097B9
:1033000031F0998388831B830A8381E001C080E0C8
:10331000DF91CF911F910F910895CF93DF93EC012F
:1033200088819981892B29F08A819B81861797074B
:1033300060F4CE010E947319882341F08C819D8135
:10334000892B19F4E881F981108281E0DF91CF9116
:103350000895EF92FF920F931F93CF93DF93EC01A9
:103360007B018A01BA010E948D19811104C0CE012E
:103370000E94611907C01D830C83B7018881998160
:103380000E94451CCE01DF91CF911F910F91FF90BC
:10339000EF900895CF93DF93EC016115710559F01B
:1033A000FB0101900020E9F73197AF01461B570B55
:1033B0000E94A91902C00E946119CE01DF91CF912C
:1033C00008950F931F93CF93DF93CDB7DEB7629726
:1033D0000FB6F894DEBF0FBECDBF8C01CB01F80154
:1033E00011821082138212821582148250E0BE0173
:1033F0006F5F7F4F0E944C1CBE016F5F7F4FC80103
:103400000E94CA1962960FB6F894DEBF0FBECDBFF8
:10341000DF91CF911F910F91089508950E94481454
:10342000880B990B0895A1E21A2EAA1BBB1BFD0164
:103430000DC0AA1FBB1FEE1FFF1FA217B307E40793
:10344000F50720F0A21BB30BE40BF50B661F771FEB
:10345000881F991F1A9469F76095709580959095CB
:103460009B01AC01BD01CF0108950E94461AA59FA2
:10347000900DB49F900DA49F800D911D112408956F
:10348000EE0FFF1F0590F491E02D0994A29FB0016B
:10349000B39FC001A39F700D811D1124911DB29F88
:1034A000700D811D1124911D08950F931F93CF93CB
:1034B000DF938230910510F482E090E0E0911903EF
:1034C000F0911A0320E030E0A0E0B0E0309719F16D
:1034D000408151810281138148175907C8F0841730
:1034E000950769F4109731F012960C931297139682
:1034F0001C9327C00093190310931A0322C02115AF
:10350000310519F04217530718F49A01BD01EF0174
:10351000DF01F801DBCF21153105F9F0281B390B4C
:103520002430310580F48A819B816115710521F079
:10353000FB019383828304C090931A038093190341
:10354000FE01329644C0FE01E20FF31F8193919376
:1035500022503109398328833AC0209117033091D2
:103560001803232B41F42091020130910301309381
:1035700018032093170320910001309101012115B8
:10358000310541F42DB73EB740910401509105013A
:10359000241B350BE0911703F0911803E217F30792
:1035A000A0F42E1B3F0B2817390778F0AC014E5FB3
:1035B0005F4F2417350748F04E0F5F1F50931803D5
:1035C000409317038193919302C0E0E0F0E0CF01B4
:1035D000DF91CF911F910F910895CF93DF930097C3
:1035E00009F481C0FC01329713821282A091190361
:1035F000B0911A03109781F420813181820F931FBB
:1036000020911703309118032817390751F5F093CB
:103610001803E093170367C0ED0120E030E0CE17F8
:10362000DF0740F44A815B819E0141155105F1F0AD
:10363000EA01F5CFD383C28340815181840F951F66
:10364000C817D90759F488819981840F951F02966C
:10365000918380838A819B819383828321153105A5
:1036600029F4F0931A03E09319033DC0E901FB83A9
:10367000EA8349915991C40FD51FEC17FD0761F4F6
:1036800080819181840F951F0296E9019983888337
:10369000828193819B838A83E0E0F0E012968D9192
:1036A0009C911397009719F0FD01DC01F7CF8D91E4
:1036B0009C9111979D012E5F3F4F820F931F209188
:1036C0001703309118032817390769F4309729F444
:1036D00010921A031092190302C013821282B0933F
:1036E0001803A0931703DF91CF910895A0E0B0E0F5
:1036F000ECE7FBE10C94A61CEC01009721F4CB0154
:103700000E94551AB4C0FC01E60FF71F9C0122501D
:103710003109E217F30708F4A8C0D9010D911C91F3
:10372000119706171707B0F00530110508F49BC074
:10373000C80104978617970708F495C0025011092D
:10374000061B170B019311936D937C93CF010E947D
:10375000ED1A89C05B01A01AB10A4C01800E911EBE
:10376000A0911903B0911A03612C712CE12CF12C5A
:10377000109709F446C08D919C911197A815B90531
:10378000B1F56C0142E0C40ED11CCA14DB0478F11F
:103790004C018A189B08640142E0C40ED11C1296A9
:1037A000BC9012971396AC91B5E0CB16D10440F0C3
:1037B000B282A38391828082D9016D937C9309C0E8
:1037C0000E5F1F4F800F911FF90191838083EB2DB6
:1037D000FA2FE114F10431F0D7011396FC93EE9324
:1037E000129741C0F0931A03E09319033CC0681686
:1037F000790608F43C017D0112960D90BC91A02D34
:10380000B7CF809117039091180388169906E1F4B9
:1038100066167706C8F48091000190910101009727
:1038200041F48DB79EB74091040150910501841B6E
:10383000950BE817F907C8F4F0931803E093170302
:10384000F901718360830FC0CB010E94551A7C017E
:10385000009759F0A801BE010E943C1CCE010E94B5
:10386000ED1AC70104C0CE0102C080E090E0CDB7E0
:10387000DEB7EEE00C94C21CFB01DC0102C001903B
:103880000D9241505040D8F70895FB01DC010190A2
:103890000D920020E1F708954532510520F44230A1
:1038A00010F00C94571CFB011082CB010895BB272C
:1038B0004A3031F4992322F4BDE2909581959F4FCF
:1038C0000C94631CBB27FB015527AA27880F991F5F
:1038D000AA1FA41710F0A41B83955051B9F7A05D3F
:1038E000AA3308F0A95DA193009779F7B111B193BC
:1038F0001192CB010C947C1CDC01FC01672F7191AF
:103900007723E1F7329704C07C916D9370836291C5
:10391000AE17BF07C8F30895F999FECF92BD81BDD8
:10392000F89A992780B50895262FF999FECF1FBAE6
:1039300092BD81BD20BD0FB6F894FA9AF99A0FBED8
:10394000019608952F923F924F925F926F927F92CD
:103950008F929F92AF92BF92CF92DF92EF92FF929F
:103960000F931F93CF93DF93CDB7DEB7CA1BDB0B4B
:103970000FB6F894DEBF0FBECDBF09942A883988F0
:1039800048885F846E847D848C849B84AA84B984F7
:10399000C884DF80EE80FD800C811B81AA81B98103
:1039A000CE0FD11D0FB6F894DEBF0FBECDBFED0117
:0639B0000895F894FFCF1A
:1039B60000001B03200001010000C841000016435F
:1039C600D416D4160000400014005400553A0044A2
:1039D6003A0043200020202000430025000000007C
:1039E600007C028C028B028B027D02850281028B97
:1039F60002000000009A02E8029B02BD02DF02EA12
:103A060002E302E7020000000023037603240341D9
:103A1600035E0378036E037203424F54544F4D20E6
:103A26004845415445523A005345542054454D505B
:103A3600205550005345542054454D5020444F576F
:103A46004E003C3C5354415254003C3C53544F505E
:103A5600003C3C455849540000000000750A4515D5
:103A6600C609C909000000005A122D12C6092C12F7
:103A7600011209121D120D0A006E616E00696E6652
:063A8600006F76660000EF
:00000001FF
