:100000000C9464000C94EA150C9411160C948C005A
:100010000C948C000C948C000C948C000C948C0030
:100020000C948C000C948C000C948C000C948C0020
:100030000C948C000C948C000C948C000C948C0010
:100040000C9438160C948C000C948C000C948C003E
:100050000C948C000C948C000C948C000C948C00F0
:100060000C941B100C948C0000000008000201008E
:100070000003040700000000000000000102040863
:100080001020408001020408102001020408102002
:10009000040404040404040402020202020203032E
:1000A00003030303000000002300260029000000D2
:1000B0000000250028002B0000000000240027007D
:1000C0002A00B00C0A12BC0C11241FBECFEFD8E0DE
:1000D000DEBFCDBF11E0A0E0B1E0EEEBF7E302C080
:1000E00005900D92AA3AB107D9F722E0AAEAB1E049
:1000F00001C01D92A73BB207E1F710E0C3E6D0E0D4
:1001000004C02197FE010E949619C136D107C9F794
:100110000E94CA140C94D21B0C940000CF93DF935E
:10012000EC0188859985019699878887EE81FF8102
:10013000608171816817790724F48A819B810E940C
:100140003A01EE81FF816281738188859985681704
:1001500079073CF48A819B810296DF91CF910C94C0
:100160003A01DF91CF910895CF93DF93EC01198687
:1001700018866A857B858C819D810E94650F60E071
:1001800070E08A819B810E943A018A819B8160E0B4
:1001900070E002960E943A0142E050E065ED70E0A6
:1001A00080E0DF91CF910C94CA15CF93DF93EC01DF
:1001B000198618866A857B858C819D810E945A0FDD
:1001C0006A857B858C819D810E94400F43E050E0D1
:1001D00064EB70E080E0DF91CF910C94CA150F932F
:1001E0001F93CF93DF93EC01862F5B834A833F837A
:1001F0002E836883798360E00E945E1742E050E0BE
:1002000065ED70E080E00E94CA158CEA90E00E94E3
:10021000D9148C010E948E0D1D830C832EE830E0D2
:1002200048E250E060E070E0C8010E94330E9B8716
:100230008A87BC018C819D81DF91CF911F910F91A5
:100240000C94650FFC01778366830895FC0184811B
:1002500095810C947B0ECF93DF93EC01862F6883FE
:10026000798361E00E945E1760E08881DF91CF9121
:100270000C949A176095FC0180810C949A1708954C
:10028000FC01718360830895AF92BF92CF92DF9299
:10029000EF92FF920F931F93CF93DF93EC017B01BB
:1002A0005A016901462F61E0888199810E942708DF
:1002B000E114F10419F067E171E002C064E171E05A
:1002C000888199810E9428154E2D63E0888199814B
:1002D0000E9427084AE050E0B501888199810E9478
:1002E000C2154E2D66E0888199810E9427086AE137
:1002F00071E0888199810E9428154E2D68E08881DF
:1003000099810E9427084AE050E0B60188819981CE
:100310000E94C2154E2D6BE0888199810E942708AA
:100320006DE171E0888199810E9428154E2D6DE064
:10033000888199810E9427084AE050E0B8018881AD
:1003400099810E94C2154E2D6FE0888199810E948B
:10035000270860E271E088819981DF91CF911F9138
:100360000F91FF90EF90DF90CF90BF90AF900C94E3
:100370002815CF93DF93EC0140E060E088819981FC
:100380000E94270866E971E088819981DF91CF9109
:100390000C94281508956091AA017091AB01809189
:1003A000CC019091CD010E94400F8091B301882330
:1003B000D1F0809106018823B1F02091AE013091F7
:1003C000AF018091AC019091AD01821B930B099616
:1003D000439728F41092060181E08093B201309394
:1003E000AD012093AC0108952F923F924F925F92FE
:1003F0006F927F928F929F92AF92BF92CF92DF9235
:10040000EF92FF920F931F93CF93DF93CDB7DEB799
:10041000C257D1090FB6F894DEBF0FBECDBF63E05F
:1004200070E0CE0181599F4F0E942B0164E070E083
:100430008FE690E08C0F9D1F02960E942B01AD96D7
:100440001FAE1EAEAD97AF961FAE1EAEAF978CE03F
:1004500090E00E94D9144C019E0125593F4FAE01F6
:1004600041595F4F62E070E00E94EF009092DD0121
:100470008092DC0182E090E00E94D9144C0127E0D8
:1004800030E046E050E065E070E00E940E1290928D
:10049000DB018092DA018CE090E00E94D9144C01DB
:1004A00000E022E040E167E20E94B2079092D101B1
:1004B0008092D001C4010E9463088091D001909184
:1004C000D1010E94190882E090E00E94D9144C01E9
:1004D0006091D0017091D1010E9440019092D901A8
:1004E0008092D80186E190E00E94D9144C0188EEF8
:1004F000E82E83E0F82E06E010E025E030E04CE046
:1005000050E06BE070E0C4010E94C40C9092D301F3
:100510008092D20160E08AE00E945E1783E390E05F
:100520000E94D9144C011F921F921F921F9299E3AF
:10053000492E4F922DE9522E5F9239E4632E6F922D
:1005400042E5742E7F925DE3352E3F9265EF262EB5
:100550002F9282EC8F939FE89F93A12CB12C7FE781
:10056000C72E73E4D72EE12CF12C870128EB31E064
:1005700040EC51E068EC71E0C4010E947605909275
:10058000D7018092D60140E050E060E870E4C401F9
:100590000E94BC0540EA5FE060E070E08091D60117
:1005A0009091D7010E94C60583E390E00E94D91480
:1005B0004C011F921F921F921F924F925F926F9257
:1005C0007F923F922F9282EC8F939FE89F9324EB30
:1005D00031E04CEB51E064EC71E0C4010E9476051F
:1005E0009092D5018092D40140E050E060E870E440
:1005F000C4010E94BC0540EA5FE060E070E08091C9
:10060000D4019091D5010E94C60580E090E00E943F
:10061000931B682F70E080E090E00E944D13609380
:10062000C0017093C1018093C2019093C30181E026
:1006300090E00E94931B682F70E080E090E00E94A1
:100640004D136093BC017093BD018093BE019093E4
:10065000BF016DE271E0CE018B599F4F0E9460187F
:1006600020E030E040E050E0BE016B597F4FCE010A
:1006700001963C010E944C09CE018B599F4F0E946C
:10068000F21766E371E0CE018B599F4F0E9460180C
:100690002FEF3FEF41E050E0BE016B597F4FCE019D
:1006A00045960E944C09CE018B599F4F0E94F2172C
:1006B0006DE371E0CE018B599F4F0E9460182FEFC0
:1006C0003FEF42E050E0BE016B597F4FCE0189966B
:1006D0000E944C09CE018B599F4F0E94F2176CE487
:1006E00071E0CE018B599F4F0E9460182FEF3FEFB2
:1006F00043E050E0BE016B597F4FCE01CD960E9482
:100700004C09CE018B599F4F0E94F2176DE571E0A5
:10071000CE018B599F4F0E9460182FEF3FEF44E0AE
:1007200050E0BE016B597F4FCE018F5A9F4F0E9400
:100730004C09CE018B599F4F0E94F21765E671E07C
:10074000CE018B599F4F0E94601886E290E00E9474
:10075000D9144C012091D0013091D101CE018B5997
:100760009F4F6C01E2E0EE2EF12C0AEC11E045E027
:1007700050E0B301C4010E9479099092CF018092A8
:10078000CE01C6010E94F2178091CE019091CF0157
:100790000E94A90C8CEA90E00E94D9144C010E949E
:1007A0008E0D9092CD018092CC012BEC31E040EA8D
:1007B00056E861E070E0C4010E94330E9093AB01F3
:1007C0008093AA010FB6F894DEBF0FBECDBF4601DD
:1007D00094E1891A9108C4010E960E94F217C4018F
:1007E0000E94F2176814790499F78FE690E08C0F55
:1007F0009D1F02960E943F01CE0181599F4F0E948A
:100800003F01CE58DF4F0FB6F894DEBF0FBECDBF0D
:10081000DF91CF911F910F91FF90EF90DF90CF90DC
:10082000BF90AF909F908F907F906F905F904F9010
:100830003F902F900895CF93DF9300D000D0CDB795
:10084000DEB78091B301882309F455C08091DA01A5
:100850009091DB010E942E126093C4017093C50138
:100860008093C6019093C7011092C8011092C901EC
:100870001092CA011092CB018091B2018823A9F095
:100880008091D6019091D7010E94220640E050E06D
:1008900060E87FE38091D6019091D7010E94CC055A
:1008A00090E09093B1018093B0018091060188237C
:1008B000A9F08091D4019091D5010E94220640E0D8
:1008C00050E060E87FE38091D4019091D5010E94CF
:1008D000CC0590E09093AF018093AE018091B00180
:1008E0009091B1019A8389838091AE019091AF017B
:1008F0009C838B8304C01A8219821C821B82BE01D6
:100900006F5F7F4F8091DC019091DD010E94220199
:100910000F900F900F900F90DF91CF9108958F92CD
:100920009F92AF92BF92CF92DF92EF92FF920F937E
:100930001F9380910701811186C060E070E0809173
:10094000D8019091D9010E94B9016091B0017091D4
:10095000B101072E000C880B990B0E944F1320E069
:1009600030E04FE753E40E94A51220E030E048EC6D
:1009700052E40E945C140E9417134B015C016091C9
:10098000C8017091C9018091CA019091CB010E9468
:1009900017136B017C016091C0017091C1018091BE
:1009A000C2019091C3010E94171384019601AB010B
:1009B00060E070E08091D8019091D9010E944401DB
:1009C00061E070E08091D8019091D9010E94B90155
:1009D0006091AE017091AF01072E000C880B990B4E
:1009E0000E944F1320E030E04FE753E40E94A5122D
:1009F00020E030E048EC52E40E945C140E9417139F
:100A00004B015C016091C4017091C5018091C601E8
:100A10009091C7010E9417136B017C016091BC018A
:100A20007091BD018091BE019091BF010E9417138A
:100A300084019601AB0161E070E08091D801909152
:100A4000D9010E9444011F910F91FF90EF90DF9018
:100A5000CF90BF90AF909F908F9008958091D201DA
:100A60009091D3010E94F90C209107012223B1F04B
:100A7000181619061CF467E671E004C0892B71F0A2
:100A80006EE671E08091D0019091D1010E9428150D
:100A900068EE73E080E090E00C94B31608958AE06D
:100AA0000E94C917892B69F480910701882331F0CE
:100AB0008091CE019091CF010C94170C81E080932E
:100AC000070108958091CC019091CD010E947B0E89
:100AD0008091DC019091DD010E9426010E941B049F
:100AE0000E948F040E942E050C944F05AF92BF9276
:100AF000CF92DF92EF92FF920F931F93CF93DF93EA
:100B0000CDB7DEB7FC01758F648F578F468F31A349
:100B100020A3E2A2F3A204A315A3A6A2B7A2C0A693
:100B2000D1A68D859E85AF85B88980839183A28368
:100B3000B38389899A89AB89BC8984839583A68389
:100B4000B7838D899E89AF89B88D80879187A28769
:100B5000B38788EE93E0A0E0B0E082A793A7A4A7B4
:100B6000B5A7DF91CF911F910F91FF90EF90DF908C
:100B7000CF90BF90AF900895FC01448B558B668B4E
:100B8000778B408F518F628F738F0895FC0142A73E
:100B900053A764A775A708958F929F92AF92BF92B3
:100BA000CF92DF92EF92FF92CF93DF934A015B01E6
:100BB000DC015E96ED91FC915F975C960D90BC9187
:100BC000A02D2D913D914D915C916081718182812B
:100BD00093810E9433126B017C0120E030E0A90177
:100BE0000E945714181624F0F7FAF094F7F8F094CE
:100BF000C1E0A5019401C701B6010E94A012181618
:100C00000CF4C0E08C2FDF91CF91FF90EF90DF903C
:100C1000CF90BF90AF909F908F900895CF93DF9328
:100C2000EC010E9482166EA77FA788AB99AB1C8649
:100C30001D861E861F86188A198A1A8A1B8ADF91CA
:100C4000CF9108954F925F926F927F928F929F9271
:100C5000AF92BF92CF92DF92EF92FF920F931F93CA
:100C6000CF93DF93CDB7DEB72A970FB6F894DEBFE8
:100C70000FBECDBF8C01DC01D2968C91D297882318
:100C800029F0D2961C92C8010E940E06F801C48871
:100C9000D588E688F78820E030E0A901C701B601D1
:100CA0000E94A012882311F1D8015E968D919C912B
:100CB0005F975C960D90BC91A02D2D913D914D912B
:100CC0005C91FC0160817181828193810E94331269
:100CD0009B01AC01C701B6010E94A01287FF06C0AC
:100CE000F80186A197A1A0A5B1A52FC0F801C08CDD
:100CF000D18CE28CF38C20E030E0A901C701B60171
:100D00000E94A012882391F1D8015C968D919C914C
:100D10005D975E960D90BC91A02D2D913D914D91CA
:100D20005C91FC0160817181828193810E94331208
:100D30009B01AC01C701B6010E94A01287FF16C03B
:100D4000F80182A193A1A4A1B5A120A131A1F9012B
:100D500080839183A283B3830E948216D8019E96DA
:100D60006D937D938D939C93D197E1C00E948216E1
:100D7000F801C6A4D7A4E0A8F1A84B015C018C1827
:100D80009D08AE08BF0882A593A5A4A5B5A58816A1
:100D90009906AA06BB0608F4CAC00E948216D801AA
:100DA0009E966D937D938D939C93D1975E968D9136
:100DB0009C915F975C960D90BC91A02D2D913D91DB
:100DC0004D915C91FC0160817181828193810E94CF
:100DD00033126B017C01D80150968D919D910D903D
:100DE000BC91A02D89839A83AB83BC83C501B401D8
:100DF0000E944D132B013C0129813A814B815C817A
:100E0000C701B6010E94341220E030E040E05FE309
:100E10000E945C14A30192010E945C1420E030E067
:100E20004AE754E40E94A512F801248535854685D9
:100E300057850E9434124B015C01D8011C966D93BA
:100E40007D938D939C931F97F801C08AD18AE28A83
:100E5000F38A2081318142815381C701B6010E940A
:100E60005C146D837E838F839887D80114962D91AF
:100E70003D914D915C911797C501B4010E945C149E
:100E80009B01AC016D817E818F8198850E94341217
:100E90004B015C0129813A814B815C81C701B6011C
:100EA0000E943312A30192010E94A51220E030E0BB
:100EB0004AE754E40E94A512F80120853185428555
:100EC00053850E945C149B01AC01C501B4010E94D2
:100ED00034123B014C01D8019096CD90DC90919753
:100EE0009296AC9092979396BC9093979496EC9030
:100EF00094979596FC909501A7010E94A01287FDFA
:100F00000FC0F801A6A0B7A0E0A4F1A49501A70125
:100F1000B301C4010E945714181614F05301740150
:100F2000C501D701F60180839183A283B3832A96FA
:100F30000FB6F894DEBF0FBECDBFDF91CF911F91EA
:100F40000F91FF90EF90DF90CF90BF90AF909F9068
:100F50008F907F906F905F904F90089580E090E029
:100F6000089508950F93FC01138212828BE791E09C
:100F700091838083648340872187028788E0838709
:100F80000F9108951F93CF93DF93EC01162F6C817F
:100F900088E592E00E94EA116B85612B88E592E07A
:100FA0000E94A11188E592E0DF91CF911F910C94EE
:100FB00007120F931F93CF938C01C62F64600E947A
:100FC000C20781E090E00E94EF166C2F6B7FC80192
:100FD0000E94C20782E390E0CF911F910F910C9481
:100FE000EF161F93CF93DF93EC01162F0E94C207D9
:100FF000612FCE01DF91CF911F910C94D9070F93F0
:101000001F93CF93DF938C01C62FD42F607F642B67
:101010000E94F10780E1C89FB00111246D2BC80127
:10102000DF91CF911F910F910C94F10740E00C9448
:10103000FF0761E00E94160880ED97E00C94EF1620
:1010400062E00E94160880ED97E00C94EF16CF93B3
:10105000DF93CDB7DEB728970FB6F894DEBF0FBE8B
:10106000CDBF9C0188E0ECE0F1E0DE01119601903B
:101070000D928A95E1F7F9018185841710F44FEFFD
:10108000480FFE013196E40FF11DE40FF11D908130
:10109000690F6068C90128960FB6F894DEBF0FBECD
:1010A000CDBFDF91CF910C941608FC016681262FED
:1010B000246026836C600C94160841E00E94FF07B0
:1010C00081E090E00895CF93DF93EC0188E592E012
:1010D0000E94E0111D828985823010F098E09D8386
:1010E0009A85992329F0813019F48D8184608D834C
:1010F00062E370E080E090E00E94B3166B85CE0161
:101100000E94C20768EE73E080E090E00E94B31690
:1011100060E3CE010E94F10784E991E10E94EF169D
:1011200060E3CE010E94F10784E991E10E94EF168D
:1011300060E3CE010E94F10786E990E00E94EF167D
:1011400060E2CE010E94F1076D816062CE010E94D3
:10115000160884E08E83CE010E945508CE010E94BD
:10116000190882E08F8366E0CE010E941608CE0146
:10117000DF91CF910C942008CF93DF93EC01842F63
:1011800068834A83298361E00E945E1761E0888159
:101190000E945E1760E089810E945E1761E08A818B
:1011A000DF91CF910C949A17CF92DF92EF92FF923A
:1011B0001F93CF93DF937C0110E0C7E0D0E0CC24F5
:1011C000C394D12C60E0F70180810E949A178FE9C7
:1011D0009FE00197F1F700C00000F70181810E94B4
:1011E000C917892B39F0C6010C2E01C0880F0A944B
:1011F000EAF7182B61E0F70180810E949A178FE9C6
:101200009FE00197F1F700C000002197D8F6812FE9
:10121000DF91CF911F91FF90EF90DF90CF900895D5
:101220000F931F93CF93DF938C0160E0FC018281C9
:101230000E949A178FE99FE00197F1F700C0000024
:10124000C8010E94D408C82FD0E0DC2FCC27C801E9
:101250000E94D408C82B61E0F80182810E949A178D
:10126000C2FD11C0BE0183E0769567958A95E1F7CE
:1012700080E090E00E944D1320E030E040E85EE323
:101280000E945C1404C060E070E080EC9FE7DF9196
:10129000CF911F910F910895CF92DF92EF92FF921D
:1012A0000F931F93CF93DF93EC016B017A018901B8
:1012B00067E971E00E94601867E971E0CE010E965F
:1012C0000E9460188FEF9FEF9B878A879D878C878E
:1012D000B601CE010E947518FF82EE821987088739
:1012E000DF91CF911F910F91FF90EF90DF90CF9002
:1012F00008952F923F924F925F926F927F928F92BA
:101300009F92AF92BF92CF92DF92EF92FF920F9394
:101310001F93CF93DF93CDB7DEB72E970FB6F89418
:10132000DEBF0FBECDBF5C014B015E874D8719014B
:10133000380126016C0184E1C80ED11C67E971E017
:10134000C6010E94601867E971E0C5014A960E94D3
:1013500060188501005E1F4F67E971E0C8010E94B7
:101360006018D50113969C928E9212971796FC9254
:10137000EE92169715963C922E921497ED85FE8567
:101380005196FC93EE93509711967C926E9281E069
:1013900090E019969C938E9318971D961C921E921E
:1013A0001C978FEF9FEF1B969C938E931A975396E3
:1013B0001C921E925297B201C6010E947518D50167
:1013C00012966D917C911397C8010E94751867E978
:1013D00071E0CE0107960E94601800E010E0E12C59
:1013E000F12C77247A9466246A94CC24CA94DC2C59
:1013F000F50180899189E816F906CCF5628173813F
:10140000600F711FDB0118968D909C90199797FCC7
:101410000BC01696CD90DC901797CE0107960E94D0
:101420007518782C692C1DC0BE01695F7F4FCE01F5
:1014300001960E948C18D5011296ED91FC9113979C
:10144000E00FF11FD386C28674866586BE016F5F8A
:101450007F4FCF010E960E947518CE0101960E9413
:10146000F217BFEFEB1AFB0A0C5E1F4FC1CFCE0184
:1014700007960E94F2172E960FB6F894DEBF0FBEA5
:10148000CDBFDF91CF911F910F91FF90EF90DF9033
:10149000CF90BF90AF909F908F907F906F905F9014
:1014A0004F903F902F9008950F931F93CF93DF930A
:1014B0008C01EB010E948C188E819F81F80197832B
:1014C000868388859985918780878A859B85938780
:1014D00082878C859D8595878487BE01625F7F4F5B
:1014E000C8010E96DF91CF911F910F910C948C182B
:1014F000CF93DF93EC010E960E94F217CE01DF919D
:10150000CF910C94F2172F923F924F925F926F926D
:101510007F928F929F92AF92BF92CF92DF92EF9283
:10152000FF920F931F93CF93DF93CDB7DEB7A697AC
:101530000FB6F894DEBF0FBECDBF8C01DC0116964E
:101540006D917C911797615071091C968D919C91BA
:101550001D970E944C19072E000C880B990B0E94B6
:101560004F130E948A130E9417131B01F8018481F4
:1015700095810E94190840E060E0D80114968D9191
:101580009C9115970E942708B801665E7F4FCE0197
:1015900001960E948C1868E171E0CE0101960E94CC
:1015A000ED18BC01F801848195810E941A15CE01C5
:1015B00001960E94F217612C712CE12CF12CCC24A5
:1015C000C394D12CAA24AA94BA2C2801F4E14F0E7A
:1015D000511CD80150968D919C915197E816F906AF
:1015E0000CF0BBC012966D917C911397660D771D20
:1015F000CE0101960E94540A2B853C85F801808516
:1016000091852817390709F09DC0FFEFAF16BF0677
:1016100009F45701D80116968D919C911797B7013F
:10162000680F791F50964D915C9151974617570757
:1016300024F1B4E1B69FA001B79F500D1124D80149
:101640001296ED91FC911397E40FF51F7497428564
:1016500053852417350789F49C0121503109229DB7
:10166000A001239D500D329D500D112497012A1980
:101670003B09241735070CF465C0C816D9060CF0D1
:1016800061C04C2D60E0F801848195810E9427089B
:10169000D8011A968D919C911B97E816F906B9F41A
:1016A000B201CE0145960E948C18BE016F5F7F4F3C
:1016B000CE0145960E94DA18BC01F801848195811B
:1016C0000E941A15CE0145960E94F21738C0D80123
:1016D00058968D909C905997BFEF8B1A9B0A63E8A0
:1016E00071E0CE0181960E946018940141E050E0C3
:1016F000BE016F5D7F4FCE014B960E940619BE0161
:10170000655E7F4FCE0145960E948C18BE016F5FCB
:101710007F4FCE0145960E94DA18BC01F801848102
:1017200095810E941A15CE0145960E94F217CE01AE
:101730004B960E94F217CE0181960E94F217FFEF9E
:10174000CF1ADF0ACE0101960E94780A8FEFE81ABD
:10175000F80AA4E16A0E711C3CCFA6960FB6F89465
:10176000DEBF0FBECDBFDF91CF911F910F91FF90D4
:10177000EF90DF90CF90BF90AF909F908F907F9031
:101780006F905F904F903F902F900895AF92BF92CF
:10179000CF92DF92EF92FF920F931F93CF93DF933D
:1017A000CDB7DEB764970FB6F894DEBF0FBECDBFDE
:1017B0006C015B01E12CF12C00E010E0F601808966
:1017C00091890817190704F5628173816E0D7F1DD9
:1017D000CE0101960E94540AF4E1EF0EF11C2B8514
:1017E0003C85F501868197812817390731F4CE01B0
:1017F00001960E94780AC80109C0CE0101960E9494
:10180000780A0F5F1F4FDACF8FEF9FEF64960FB606
:10181000F894DEBF0FBECDBFDF91CF911F910F9126
:10182000FF90EF90DF90CF90BF90AF900895DF9240
:10183000EF92FF920F931F93CF93DF93CDB7DEB755
:1018400064970FB6F894DEBF0FBECDBF8C01FC01CC
:10185000228533852F3FFFEF3F0709F45AC084E10B
:10186000D82ED29EC001D39E900D1124F801628122
:101870007381680F791FCE0101960E94540ABE0140
:101880006F5F7F4FC8010E94C60B7C01CE0101969D
:101890000E94780AF80162817381FFEFEF16FF065C
:1018A000A1F4F80122853385D29EC001D39E900D0C
:1018B0001124DB01A80FB91F2081318116968D916B
:1018C0009C911797F901099536C0F801F386E286D5
:1018D000DE9CC001DF9C900D1124680F791FCE01A2
:1018E00001960E94540ABE01615F7F4FC8014A966B
:1018F0000E9475188B859C85F801918780871586D5
:101900001486C8010E94830ACE0101960E94780ABB
:1019100012C0BC01605E7F4F4A960E947518F801A4
:101920001186108681E090E0938782871586148661
:10193000C8010E94830A64960FB6F894DEBF0FBEFA
:10194000CDBFDF91CF911F910F91FF90EF90DF906E
:1019500008952FEF3FEFFC01338722870C94170C7B
:1019600067E971E084EE91E00E94601867E971E038
:101970008EED91E00C9460188EED91E00E94F217CC
:1019800084EE91E00C94F217EF92FF920F931F9365
:10199000CF93DF93EC01798368835B834A833F872E
:1019A0002E87198B088BFD86EC861D821C821F8278
:1019B0001E82198618861B861A860E948E166A8BCE
:1019C0007B8B8C8B9D8B60E088810E945E1760E032
:1019D0008A810E945E1761E088810E949A1761E007
:1019E0008A81DF91CF911F910F91FF90EF900C941E
:1019F0009A17CF92DF92EF92FF920F931F93CF939C
:101A0000DF93EC0188810E94C9177C018A810E94C2
:101A1000C9172C813D814E815F81E216F30621F4C6
:101A20008417950709F46FC08217930719F4E41619
:101A3000F50661F4E416F50661F451E040E0821722
:101A4000930709F450E0052F142F05C00FEF1FEF87
:101A500002C000E010E0FD82EC829F838E830115BE
:101A6000110509F445C08885998508171907C1F53E
:101A70008A859B8501969B878A870E948E16CA88D5
:101A8000DB88EC88FD88AB01BC014C195D096E094F
:101A90007F098C859D85092E000CAA0BBB0B48176E
:101AA00059076A077B0790F48A859B85688979893D
:101AB0000E944C198E859F85689F7001699FF00C6C
:101AC000789FF00C11241E141F041CF0EE24E394E4
:101AD000F12C0E948E166A8B7B8B8C8B9D8B05C0A4
:101AE0001B861A86EE24E394F12C1987088703C01D
:101AF000EE24E394F12CE09EC001E19E900DF09E57
:101B0000900D112402C080E090E0DF91CF911F91F1
:101B10000F91FF90EF90DF90CF900895CF92DF92DA
:101B2000EF92FF92CF93DF93EC010E9482167E0129
:101B30002CE8E20EF11CFE01B8966E019E01245CB9
:101B40003F4FD7011D927D0111921192D6016D93E5
:101B50007D938D939D936D01AF01425B5F4FDA01E1
:101B60001D921C92E217F30761F7C655DF4F1982E9
:101B70001882DF91CF91FF90EF90DF90CF90089582
:101B8000FC01E655FF4F208131812A3031056CF48C
:101B9000E258F10920E030E081919191892B41F0E8
:101BA0002F5F3F4F2A303105B9F78FEF9FEF089530
:101BB000C90108954F925F926F927F92AF92BF9248
:101BC000CF92DF92EF92FF920F931F93CF93DF9309
:101BD000EC012A013B0169010E94C00D7C0197FDC7
:101BE00031C0C114D10471F15C01AA0CBB1CAA0C58
:101BF000BB1CAC0EBD1EF50144AE55AE66AE77AE55
:101C0000F701EE0FFF1FEC0FFD1FD1A6C0A6EC5988
:101C1000FF4F11830083FE01EE0DFF1DE457FF4FC0
:101C200081E080830E948216F50160837183828344
:101C30009383C655DF4F8881998101969983888364
:101C4000C70102C08FEF9FEFDF91CF911F910F91DE
:101C5000FF90EF90DF90CF90BF90AF907F906F900C
:101C60005F904F9008950F931F9300E010E00E9443
:101C7000DA0D1F910F910895CF93DF936A307105AC
:101C8000BCF5EC01C655DF4F28813981211531059E
:101C900079F1DB01AA0FBB1FA80FB91F98964D91D0
:101CA0005C919997452B21F199961C921E929897D9
:101CB000FC01E60FF71FE457FF4F1082FD01EA56C3
:101CC000FF4F11821082615F7F4F660F771F660F93
:101CD000771FFC01E60FF71F108211821282138218
:101CE000A858BF4F1D921C92215031093983288377
:101CF000DF91CF9108952F923F924F925F926F9212
:101D00007F928F929F92AF92BF92CF92DF92EF928B
:101D1000FF920F931F93CF93DF9300D000D000D09A
:101D2000CDB7DEB79C838B830E9482166B017C014A
:101D3000EB81FC81EC59FF4F0B811C8198012457EA
:101D40003F4FC80188589F4F9A8389831E830D8314
:101D500022242394312C13AA12AACF01CC97DC01A0
:101D60008D919C91892BF1F1AD81BE818D909D90DB
:101D7000AD90BC901397DC964D915D916D917C91E7
:101D8000DF9726013701481859086A087B0844166E
:101D900055066606770630F1480D591D6A1D7B1DF4
:101DA0004D935D936D937C931397D9018C91882308
:101DB000C9F0408151814115510519F433AA22AA75
:101DC00011C0848995898417950764F433AA22AADF
:101DD0000196958B848B8417950724F082E090E020
:101DE00093AB82AB3296AD81BE811496BE83AD8338
:101DF0002F5F3F4F89819A81E817F90709F0ABCF30
:101E0000E12CF12CF801EA56FF4F8081918181305D
:101E1000910571F0029791F4D8019896ED91FC919B
:101E200099970995B7018B819C810E943C0E06C051
:101E3000D8019896ED91FC9199970995BFEFEB1A0F
:101E4000FB0A0E5F1F4F8AE0E816F104D9F62696CA
:101E50000FB6F894DEBF0FBECDBFDF91CF911F91BB
:101E60000F91FF90EF90DF90CF90BF90AF909F9039
:101E70008F907F906F905F904F903F902F9008953C
:101E80000F931F93CF93DF936A30710574F4EB01C6
:101E90008C010E948216CC0FDD1FCC0FDD1FC00FFE
:101EA000D11F688379838A839B83DF91CF911F91B0
:101EB0000F9108956A3071053CF4680F791FFB019A
:101EC000E457FF4F81E0808308956A30710534F450
:101ED000680F791FFB01E457FF4F1082089510929D
:101EE000570281E0809355021092540261E082E132
:101EF0000E949A1761E083E10E949A17E9EBF0E0F3
:101F000080818E7F808380818D7F808388E4809331
:101F1000B80085E48093BC0008950F93413208F027
:101F20004AC0909157029111FCCF32E03093570292
:101F3000009355023FEF3093EA0110922F02409335
:101F40002E02562FA0E3B2E0FB013E2F351B3417C3
:101F500018F431913D93F9CF109256023091560208
:101F6000880F832B8093560280915402813061F454
:101F700010925402809156028093BB008091BC0065
:101F800083FDF8CF85EC01C085EE8093BC00222351
:101F900021F0809157028230D1F38091EA018F3F86
:101FA00079F08091EA01803241F08091EA0180333A
:101FB00031F094E005C091E003C092E001C093E0ED
:101FC000892F0F91089540910C02262F30E0240FA5
:101FD000311D21323105DCF4209157022430C9F43F
:101FE000FC0180E090E0861758F430910C022191BA
:101FF000DC01A25FBD4FA30FB11D2C930196F3CF5F
:1020000080910C02680F60930C0280E0089581E0DB
:10201000089582E0089585ED8093BC008091BC0016
:1020200084FDFCCF10925702089585EC8093BC008C
:102030001092570208951F920F920FB60F9211241B
:102040002F933F934F935F936F937F938F939F93C0
:10205000AF93BF93EF93FF938091B900887F803651
:1020600009F49EC078F5883209F45DC090F480319F
:1020700009F456C038F4882309F4F5C0883009F40F
:102080004FC0F5C0883109F44EC0803209F45FC0FA
:10209000EEC0803409F46AC058F4803309F457C0A4
:1020A000883309F0E4C08093EA010E941510DFC074
:1020B000803509F44FC0883509F45DC0883409F0D3
:1020C000D6C0D3C0883909F4C4C0A8F4883709F44D
:1020D00067C038F4883609F463C0803709F460C0FB
:1020E000C6C0883809F4B5C0803909F45FC08038AB
:1020F00009F0BDC05BC0803B09F483C038F4803A6E
:1021000009F466C0883A09F47CC0B1C0803C09F487
:10211000A4C0883C09F4A1C0883B09F487C0A7C0CB
:102120008091560210C090912F0280912E02981734
:1021300070F5E0912F0281E08E0F80932F02F0E086
:10214000E05DFD4F80818093BB0085EC83C0809370
:10215000EA018BC0E0912F0281E08E0F80932F0265
:102160008091BB00F0E0E05DFD4F808390912F02F5
:1021700080912E026BC0E0912F0281E08E0F809340
:102180002F028091BB00F0E0E05DFD4F80838091E5
:10219000550281116AC081E08093540284EA5EC0D6
:1021A00083E0809357021092EB01CFCF8091EB0137
:1021B000803208F04EC0E091EB0181E08E0F8093F9
:1021C000EB018091BB00F0E0E451FE4F8083BDCF76
:1021D0000E9415108091EB01803230F4E091EB0108
:1021E000F0E0E451FE4F10826091EB0170E0E0916D
:1021F0005002F09151028CEE91E009951092EB01A2
:1022000036C084E08093570210920D0210920C02A7
:10221000E0915202F0915302099580910C028111D4
:1022200005C081E080930C0210920E02E0910D0235
:1022300081E08E0F80930D02F0E0E25FFD4F808120
:102240008093BB0090910D0280910C02981708F4C6
:102250007CCF85E88093BC000AC085EC8093BC00ED
:102260001092570204C01092EA010E940B10FF91D5
:10227000EF91BF91AF919F918F917F916F915F91FE
:102280004F913F912F910F900FBE0F901F90189577
:102290008091880290E020918902821B9109089523
:1022A0009091890280918802981750F4E92FF0E00C
:1022B000E657FD4F208130E09F5F9093890202C076
:1022C0002FEF3FEFC9010895E091890280918802C4
:1022D000E81730F4F0E0E657FD4F808190E0089574
:1022E0008FEF9FEF08950895CF92DF92EF92FF92C4
:1022F0000F931F93CF93DF937C01CB018A01209131
:102300006402222389F0EB016B01C40ED51ECC15AB
:10231000DD0569F06991D701ED91FC910190F081A3
:10232000E02DC7010995F3CF642F0E94E30FC80188
:10233000DF91CF911F910F91FF90EF90DF90CF90A1
:102340000895CF93DF931F92CDB7DEB769832091B5
:1023500064022223D1F020916502203240F021E076
:1023600030E0FC013383228380E090E015C080914F
:102370006602E82FF0E0E959FD4F998190838F5F65
:10238000809366028093650205C061E0CE010196EC
:102390000E94E30F81E090E00F90DF91CF910895CC
:1023A000FC011382128288EE93E0A0E0B0E0848307
:1023B0009583A683B7838CE991E091838083089508
:1023C00010928902109288021092660210926502A1
:1023D0000C946F0F81E080936402609387021092E7
:1023E00066021092650208950F93062F21E0409136
:1023F000650267E672E0809187020E948D0F10925D
:10240000660210926502109264020F91089561E0D5
:102410000C94F41188E592E00C94D011DF92EF92C5
:10242000FF920F931F93CF93DF938C01F62EE42E30
:10243000D22E83E090E00E94D914EC012D2D4E2D78
:102440006F2D0E94BC08F801D183C083DF91CF912A
:102450001F910F91FF90EF90DF900895FC01808114
:1024600091810C9410095058BB27AA270E944B1247
:102470000C9405140E94F71338F00E94FE1320F00C
:1024800039F49F3F19F426F40C94F4130EF4E095FC
:10249000E7FB0C94C513E92F0E94161458F3BA17E2
:1024A000620773078407950720F079F4A6F50C946A
:1024B00050140EF4E0950B2EBA2FA02D0B01B9018C
:1024C00090010C01CA01A0011124FF27591B99F0AA
:1024D000593F50F4503E68F11A16F040A22F232FB6
:1024E000342F4427585FF3CF469537952795A79506
:1024F000F0405395C9F77EF41F16BA0B620B730BAD
:10250000840BBAF09150A1F0FF0FBB1F661F771F1D
:10251000881FC2F70EC0BA0F621F731F841F48F4D2
:10252000879577956795B795F7959E3F08F0B0CF5B
:102530009395880F08F09927EE0F97958795089542
:102540000E94A11308F481E008950E94B9120C942E
:1025500005140E94FE1358F00E94F71340F029F46E
:102560005F3F29F00C94C51351110C9451140C9435
:10257000F4130E94161468F39923B1F3552391F3D1
:10258000951B550BBB27AA2762177307840738F0E2
:102590009F5F5F4F220F331F441FAA1FA9F335D03F
:1025A0000E2E3AF0E0E832D091505040E695001CF3
:1025B000CAF72BD0FE2F29D0660F771F881FBB1FAD
:1025C000261737074807AB07B0E809F0BB0B802D8B
:1025D000BF01FF2793585F4F3AF09E3F510578F0B7
:1025E0000C94C5130C9451145F3FE4F3983ED4F35C
:1025F000869577956795B795F7959F5FC9F7880F8B
:10260000911D9695879597F90895E1E0660F771FDC
:10261000881FBB1F621773078407BA0720F0621B6D
:10262000730B840BBA0BEE1F88F7E09508950E9498
:102630001E136894B1110C94511408950E941E1435
:1026400088F09F5798F0B92F9927B751B0F0E1F073
:10265000660F771F881F991F1AF0BA95C9F714C023
:10266000B13091F00E945014B1E008950C945014D0
:10267000672F782F8827B85F39F0B93FCCF386955C
:1026800077956795B395D9F73EF4909580957095B9
:1026900061957F4F8F4F9F4F0895E89409C097FB36
:1026A0003EF490958095709561957F4F8F4F9F4F29
:1026B0009923A9F0F92F96E9BB279395F69587956D
:1026C00077956795B795F111F8CFFAF4BB0F11F430
:1026D00060FF1BC06F5F7F4F8F4F9F4F16C08823D7
:1026E00011F096E911C0772321F09EE8872F762F0D
:1026F00005C0662371F096E8862F70E060E02AF04E
:102700009A95660F771F881FDAF7880F9695879539
:1027100097F908950E94381490F09F3748F491116A
:1027200016F00C94511460E070E080E89FEB08957F
:1027300026F41B16611D711D811D0C94CB130C9486
:10274000E613990F0008550FAA0BE0E8FEEF1616E6
:102750001706E807F907C0F012161306E407F50795
:1027600098F0621B730B840B950B39F40A2661F009
:10277000232B242B252B21F408950A2609F4A140AC
:10278000A6958FEF811D811D089597F99F6780E8B9
:1027900070E060E00895882371F4772321F0985069
:1027A000872B762F07C0662311F499270DC090510F
:1027B000862B70E060E02AF09A95660F771F881FDD
:1027C000DAF7880F9695879597F908959F3F31F02E
:1027D000915020F4879577956795B795880F911D4F
:1027E0009695879597F908959FEF80EC08950024BA
:1027F0000A941616170618060906089500240A9466
:1028000012161306140605060895092E0394000CEB
:1028100011F4882352F0BB0F40F4BF2B11F460FF7A
:1028200004C06F5F7F4F8F4F9F4F089557FD9058A3
:10283000440F551F59F05F3F71F04795880F97FB84
:10284000991F61F09F3F79F087950895121613063E
:102850001406551FF2CF4695F1DF08C0161617066D
:102860001806991FF1CF86957105610508940895A2
:102870000E941E14A0F0BEE7B91788F4BB279F384A
:1028800060F41616B11D672F782F8827985FF7CF51
:10289000869577956795B11D93959639C8F30895F8
:1028A000E894BB2766277727CB0197F908950E9404
:1028B000A11308F48FEF08950E946F140C9405146F
:1028C0000E94F71338F00E94FE1320F0952311F0B8
:1028D0000C94C5130C94F41311240C9451140E94FD
:1028E000161470F3959FC1F3950F50E0551F629F2A
:1028F000F001729FBB27F00DB11D639FAA27F00D59
:10290000B11DAA1F649F6627B00DA11D661F829F7F
:102910002227B00DA11D621F739FB00DA11D621F64
:10292000839FA00D611D221F749F3327A00D611D81
:10293000231F849F600D211D822F762F6A2F112463
:102940009F5750409AF0F1F088234AF0EE0FFF1F96
:10295000BB1F661F771F881F91505040A9F79E3FED
:10296000510580F00C94C5130C9451145F3FE4F3AF
:10297000983ED4F3869577956795B795F795E79543
:102980009F5FC1F7FE2B880F911D9695879597F94C
:10299000089508950E94FA160E94C9140E94F40135
:1029A000C0E0D0E00E9462052097E1F30E940000A1
:1029B000F9CF0C949C19CF92DF92EF92FF920F9374
:1029C0001F93CF93DF936C017A018B01C0E0D0E0BD
:1029D000CE15DF0581F0D8016D918D01D601ED9105
:1029E000FC910190F081E02DC6010995892B11F031
:1029F0002196EECF7E01C701DF91CF911F910F91FC
:102A0000FF90EF90DF90CF9008956115710579F0F8
:102A1000FB0101900020E9F73197AF01461B570BEE
:102A2000DC01ED91FC910280F381E02D099480E0BE
:102A300090E00895DB0114964D915C9115976D918E
:102A40007C91DC01ED91FC910280F381E02D0994F1
:102A50000C940515DC01ED91FC910190F081E02DC5
:102A600009948F929F92AF92BF92EF92FF920F9331
:102A70001F93CF93DF93CDB7DEB7A1970FB6F8942E
:102A8000DEBF0FBECDBF7C01FA01CB0119A22230FF
:102A900008F42AE08E010F5D1F4F822E912CA12C8D
:102AA000B12CBF01A50194010E946019F901CA016E
:102AB000015011096A3010F4605D01C0695CD801F1
:102AC0006C93232B242B252B61F7B801C7010E949F
:102AD0000515A1960FB6F894DEBF0FBECDBFDF91EE
:102AE000CF911F910F91FF90EF90BF90AF909F906B
:102AF0008F900895CF92DF92EF92FF920F931F93E2
:102B0000CF93DF932115310581F4DC01ED91FC9128
:102B10000190F081E02D642FDF91CF911F910F91F3
:102B2000FF90EF90DF90CF9009942A30310501F5A6
:102B300077FF1DC06A017B01EC016DE20E942A153E
:102B40008C0144275527BA014C195D096E097F098C
:102B50002AE0CE010E943115800F911FDF91CF91A5
:102B60001F910F91FF90EF90DF90CF9008952AE092
:102B7000DF91CF911F910F91FF90EF90DF90CF9059
:102B80000C9431159A01AB01770F660B770B0C94FF
:102B90007A1508958230E8F4E82FF0E0EE0FFF1F79
:102BA000E85FFE4F71836083813041F0809169005E
:102BB0008C7F482B40936900E89A089580916900C2
:102BC000837F440F551F440F551F482B40936900C6
:102BD000E99A08951F920F920FB60F9211242F9326
:102BE0003F934F935F936F937F938F939F93AF9395
:102BF000BF93EF93FF93E0910801F09109010995CC
:102C0000FF91EF91BF91AF919F918F917F916F91C4
:102C10005F914F913F912F910F900FBE0F901F909A
:102C200018951F920F920FB60F9211242F933F9376
:102C30004F935F936F937F938F939F93AF93BF93C4
:102C4000EF93FF93E0910A01F0910B010995FF9139
:102C5000EF91BF91AF919F918F917F916F915F9114
:102C60004F913F912F910F900FBE0F901F9018958D
:102C70001F920F920FB60F9211242F933F938F93B1
:102C80009F93AF93BF938091AB029091AC02A091C0
:102C9000AD02B091AE023091AA0223E0230F2D378E
:102CA00020F40196A11DB11D05C026E8230F029650
:102CB000A11DB11D2093AA028093AB029093AC0298
:102CC000A093AD02B093AE028091AF029091B0029A
:102CD000A091B102B091B2020196A11DB11D8093E5
:102CE000AF029093B002A093B102B093B202BF9131
:102CF000AF919F918F913F912F910F900FBE0F90A9
:102D00001F9018952FB7F8946091AB027091AC02A8
:102D10008091AD029091AE022FBF08953FB7F89415
:102D20008091AF029091B002A091B102B091B20235
:102D300026B5A89B05C02F3F19F00196A11DB11D16
:102D40003FBFBA2FA92F982F8827820F911DA11D51
:102D5000B11DBC01CD0142E0660F771F881F991F8E
:102D60004A95D1F708958F929F92AF92BF92CF92DA
:102D7000DF92EF92FF926B017C010E948E164B0155
:102D80005C01C114D104E104F10401F10E944B196A
:102D90000E948E16DC01CB0188199909AA09BB098A
:102DA000883E9340A105B10560F321E0C21AD10825
:102DB000E108F10888EE880E83E0981EA11CB11C82
:102DC000C114D104E104F10419F7DBCFFF90EF90B7
:102DD000DF90CF90BF90AF909F908F9008958230FA
:102DE000910538F0880F991F880F991F0597019753
:102DF000F1F70895789484B5826084BD84B58160CC
:102E000084BD85B5826085BD85B5816085BDEEE6F2
:102E1000F0E0808181608083E1E8F0E010828081D1
:102E200082608083808181608083E0E8F0E080813F
:102E300081608083E1EBF0E0808184608083E0EB5F
:102E4000F0E0808181608083EAE7F0E08081846047
:102E500080838081826080838081816080838081A3
:102E6000806880831092C1000895833081F028F437
:102E7000813099F08230A1F008958730A9F0883030
:102E8000B9F08430D1F4809180008F7D03C08091AF
:102E900080008F7780938000089584B58F7702C07B
:102EA00084B58F7D84BD08958091B0008F7703C075
:102EB0008091B0008F7D8093B0000895CF93DF9311
:102EC00090E0FC01E458FF4F2491FC01E057FF4FD4
:102ED0008491882361F190E0880F991FFC01E854E8
:102EE000FF4FC591D491FC01E255FF4FA591B491DC
:102EF000611109C09FB7F894888120958223888347
:102F0000EC912E230BC0623061F49FB7F894888156
:102F1000322F309583238883EC912E2B2C939FBFE7
:102F200006C08FB7F894E8812E2B28838FBFDF91DE
:102F3000CF9108951F93CF93DF93282F30E0F901AD
:102F4000E859FF4F8491F901E458FF4FD491F901FA
:102F5000E057FF4FC491CC23C1F0162F81110E947E
:102F60003517EC2FF0E0EE0FFF1FE255FF4FA59154
:102F7000B4919FB7F894111104C08C91D095D823C7
:102F800002C0EC91DE2BDC939FBFDF91CF911F91AC
:102F90000895CF93DF93282F30E0F901E859FF4FD0
:102FA0008491F901E458FF4FD491F901E057FF4FA4
:102FB000C491CC2391F081110E943517EC2FF0E0E1
:102FC000EE0FFF1FEC55FF4FA591B491EC91ED234F
:102FD00081E090E021F480E002C080E090E0DF91A9
:102FE000CF910895FC01808191810C94341ACF9384
:102FF000DF93EC0188819981009711F00E94341AC7
:10300000198218821D821C821B821A82DF91CF9145
:1030100008950F931F93CF93DF93EC018B016F5FA4
:103020007F4F888199810E94BD1A009731F0998362
:1030300088831B830A8381E001C080E0DF91CF9108
:103040001F910F910895CF93DF93EC0188819981AF
:10305000892B29F08A819B818617970760F4CE011E
:103060000E940918882341F08C819D81892B19F4D5
:10307000E881F981108281E0DF91CF910895EF928C
:10308000FF920F931F93CF93DF93EC017B018A0193
:10309000BA010E942318811104C0CE010E94F717C3
:1030A00007C01D830C83B701888199810E948C1B06
:1030B000CE01DF91CF911F910F91FF90EF90089576
:1030C000FC01118210821382128215821482611512
:1030D000710551F0FB0101900020E9F73197AF0134
:1030E000461B570B0C943F180895CF93DF93EC01C8
:1030F000FB018617970761F0608171816115710589
:1031000029F0448155810E943F1802C00E94F717A0
:10311000CE01DF91CF910895FC01118210821382BC
:103120001282158214820C947518CF93DF93EC01F0
:103130006115710559F0FB0101900020E9F7319705
:10314000AF01461B570B0E943F1802C00E94F717A1
:10315000CE01DF91CF910895EF92FF920F931F93CD
:10316000CF93DF936115710511F480E01CC0411508
:103170005105C1F07B01EC018C819D818A01080F12
:10318000191FB801CE010E942318882371F32881EA
:1031900039818C819D81B701820F931F0E948C1B06
:1031A0001D830C8381E0DF91CF911F910F91FF90E0
:1031B000EF900895CF93DF93EC01FB01448155819B
:1031C000608171810E94AC18811103C0CE010E9400
:1031D000F717CE01DF91CF910895CF93DF93EC01E4
:1031E0006115710561F0FB0101900020E9F731974D
:1031F000AF01461B570B0E94AC18811103C0CE01D2
:103200000E94F717CE01DF91CF910895BF92CF9220
:10321000DF92EF92FF920F931F93CF93DF937C0186
:103220006B018A01E9012417350720F4812F8901F8
:10323000C42FD82F67E971E0C7010E946018D6013A
:1032400014968D919C91159708171907C8F48C173F
:103250009D0708F4EC01D601ED91FC911197EC0F5C
:10326000FD1FB08010826D917C91600F711FC701AE
:103270000E949518D601ED91FC91EC0FFD1FB082D4
:10328000C701DF91CF911F910F91FF90EF90DF90D9
:10329000CF90BF900895089597FB072E16F40094E1
:1032A00007D077FD09D00E94821907FC05D03EF4B3
:1032B000909581959F4F0895709561957F4F0895E2
:1032C000A1E21A2EAA1BBB1BFD010DC0AA1FBB1F2A
:1032D000EE1FFF1FA217B307E407F50720F0A21B9C
:1032E000B30BE40BF50B661F771F881F991F1A9409
:1032F00069F760957095809590959B01AC01BD0133
:10330000CF010895AA1BBB1B51E107C0AA1FBB1F19
:10331000A617B70710F0A61BB70B881F991F5A9561
:10332000A9F780959095BC01CD010895EE0FFF1F80
:103330000590F491E02D09940F931F93CF93DF93A1
:103340008230910510F482E090E0E091B502F091B6
:10335000B60220E030E0A0E0B0E0309719F1408103
:1033600051810281138148175907C8F084179507C6
:1033700069F4109731F012960C93129713961C93E0
:1033800027C00093B5021093B60222C02115310563
:1033900019F04217530718F49A01BD01EF01DF013C
:1033A000F801DBCF21153105F9F0281B390B24304A
:1033B000310580F48A819B816115710521F0FB0143
:1033C0009383828304C09093B6028093B502FE017A
:1033D000329644C0FE01E20FF31F81939193225075
:1033E0003109398328833AC02091B3023091B40265
:1033F000232B41F420910201309103013093B40258
:103400002093B30220910001309101012115310573
:1034100041F42DB73EB74091040150910501241BA2
:10342000350BE091B302F091B402E217F307A0F478
:103430002E1B3F0B2817390778F0AC014E5F5F4F0A
:103440002417350748F04E0F5F1F5093B402409386
:10345000B3028193919302C0E0E0F0E0CF01DF91ED
:10346000CF911F910F910895CF93DF93009709F4A7
:1034700081C0FC01329713821282A091B502B091F3
:10348000B602109781F420813181820F931F209121
:10349000B3023091B4022817390751F5F093B40202
:1034A000E093B30267C0ED0120E030E0CE17DF0704
:1034B00040F44A815B819E0141155105F1F0EA011A
:1034C000F5CFD383C28340815181840F951FC817E4
:1034D000D90759F488819981840F951F02969183A9
:1034E00080838A819B81938382832115310529F40E
:1034F000F093B602E093B5023DC0E901FB83EA8395
:1035000049915991C40FD51FEC17FD0761F48081D3
:103510009181840F951F0296E901998388838281A6
:1035200093819B838A83E0E0F0E012968D919C91D9
:103530001397009719F0FD01DC01F7CF8D919C9155
:1035400011979D012E5F3F4F820F931F2091B30271
:103550003091B4022817390769F4309729F4109292
:10356000B6021092B50202C013821282B093B40266
:10357000A093B302DF91CF910895A0E0B0E0E3EC17
:10358000FAE10C949F1BEC01009721F4CB010E94FF
:103590009C19B4C0FC01E60FF71F9C0122503109B1
:1035A000E217F30708F4A8C0D9010D911C911197F7
:1035B00006171707B0F00530110508F49BC0C801C5
:1035C00004978617970708F495C002501109061B47
:1035D000170B019311936D937C93CF010E94341AC2
:1035E00089C05B01A01AB10A4C01800E911EA09106
:1035F000B502B091B602612C712CE12CF12C109720
:1036000009F446C08D919C911197A815B905B1F5A3
:103610006C0142E0C40ED11CCA14DB0478F14C01E9
:103620008A189B08640142E0C40ED11C1296BC901B
:1036300012971396AC91B5E0CB16D10440F0B2824C
:10364000A38391828082D9016D937C9309C00E5F20
:103650001F4F800F911FF90191838083EB2DFA2F6B
:10366000E114F10431F0D7011396FC93EE93129715
:1036700041C0F093B602E093B5023CC068167906EB
:1036800008F43C017D0112960D90BC91A02DB7CF9E
:103690008091B3029091B40288169906E1F46616FF
:1036A0007706C8F48091000190910101009741F4E0
:1036B0008DB79EB74091040150910501841B950B75
:1036C000E817F907C8F4F093B402E093B302F901E4
:1036D000718360830FC0CB010E949C197C0100970D
:1036E00059F0A801BE010E94831BCE010E94341A2A
:1036F000C70104C0CE0102C080E090E0CDB7DEB7C4
:10370000EEE00C94BB1BFB01DC0102C001900D92AA
:1037100041505040D8F70895FB01DC0101900D9213
:103720000020E1F70895F999FECF92BD81BDF89A86
:10373000992780B508952F923F924F925F926F9292
:103740007F928F929F92AF92BF92CF92DF92EF9231
:10375000FF920F931F93CF93DF93CDB7DEB7CA1BB2
:10376000DB0B0FB6F894DEBF0FBECDBF09942A88DD
:10377000398848885F846E847D848C849B84AA8485
:10378000B984C884DF80EE80FD800C811B81AA8112
:10379000B981CE0FD11D0FB6F894DEBF0FBECDBFDD
:1037A000ED01089510E0C3E6D0E004C0FE010E94E0
:0E37B00096192196C436D107C9F7F894FFCFB9
:1037BE000000B70220000101C915C9150000400024
:1037CE0014005400553A00443A00432D00432000A3
:1037DE002500545255450046414C5345005345541F
:1037EE0054494E4753004F4E2F4F46460053657473
:1037FE002074656D7020696E20757000536574209D
:10380E0074656D7020696E20646F776E00203C3C8D
:10381E0045786974003E00656E6320757000656EB4
:10382E006320646F776E00000000005D08DB14AE4D
:10383E0007B107202020202020202020202020201B
:10384E00202020202020200000000000A111741153
:0A385E00AE077311481150116411F8
:00000001FF
