:100000000C9463000C94EC160C9413170C948B0056
:100010000C948B000C948B000C948B000C942E0988
:100020000C948B000C948B000C948B000C948B0024
:100030000C948B000C948B000C948B000C948B0014
:100040000C943A170C948B000C948B000C948B003E
:100050000C948B000C948B000C948B000C948B00F4
:100060000C94CB100C948B000000000800020100DF
:100070000003040700000000000000000102040863
:100080001020408001020408102001020408102002
:10009000040404040404040402020202020203032E
:1000A00003030303000000002300260029000000D2
:1000B0000000250028002B0000000000240027007D
:1000C0002A00BA09BA1211241FBECFEFD8E0DEBF52
:1000D000CDBF11E0A0E0B1E0E6EEF8E302C005908C
:1000E0000D92A63DB107D9F723E0A6EDB1E001C01E
:1000F0001D92AB31B207E1F710E0C3E6D0E004C0D7
:100100002197FE010E94D819C136D107C9F70E9474
:1001100027150C94711C0C940000CF93DF93EC0115
:1001200088859985019699878887EE81FF8160810E
:1001300071816817790724F48A819B810E943901B3
:10014000EE81FF81628173818885998568177907BF
:100150003CF48A819B810296DF91CF910C94390106
:10016000DF91CF910895CF93DF93EC011986188624
:100170006A857B858C819D810E94151060E070E00E
:100180008A819B810E9439018A819B8160E070E0B5
:1001900002960E94390142E050E064ED70E080E098
:1001A000DF91CF910C94CC16CF93DF93EC0119869D
:1001B00018866A857B858C819D810E940A106A85DC
:1001C0007B858C819D810E94F00F43E050E063EBC2
:1001D00070E080E0DF91CF910C94CC160F931F93C9
:1001E000CF93DF93EC01862F5B834A833F832E837B
:1001F0006883798360E00E94601842E050E064ED1B
:1002000070E080E00E94CC168CEA90E00E943615E7
:100210008C010E943E0E1D830C832DE830E048E2E5
:1002200050E060E070E0C8010E94E30E9B878A877F
:10023000BC018C819D81DF91CF911F910F910C9416
:100240001510FC01778366830895FC0184819581F4
:100250000C942B0FCF93DF93EC01862F6883798367
:1002600061E00E94601860E08881DF91CF910C947A
:100270009C186095FC0180810C949C180895FC01E9
:100280007183608308958F929F92AF92BF92CF92B5
:10029000DF92EF92FF920F931F93CF93DF93CDB72F
:1002A000DEB762970FB6F894DEBF0FBECDBF7C01FC
:1002B0006B014A015901462F60E0FC018081918168
:1002C0000E94360AC114D10419F06FE171E002C036
:1002D0006CE171E0F701808191810E9489154AE00B
:1002E000B401CE010D960E947919898965E0681BD9
:1002F0004C2DF701808191810E94360ABE01635F17
:100300007F4FF701808191810E947B154C2D65E024
:10031000F701808191810E94360A62E271E0F70163
:10032000808191810E9489154C2D67E0F7018081C1
:1003300091810E94360A65E271E0F7018081918126
:100340000E9489154AE0B501CE0107960E947919ED
:100350008B856AE0681B4C2DF701808191810E949A
:10036000360ABE01695F7F4FF701808191810E944B
:100370007B154C2D6AE0F701808191810E94360A3D
:1003800069E271E0F701808191810E9489154C2D0D
:100390006CE0F701808191810E94360A65E271E08C
:1003A000F701808191810E9489154AE0B801CE0150
:1003B00001960E9479198D816FE0681B4C2DF70121
:1003C000808191810E94360ABE016F5F7F4FF701E5
:1003D000808191810E947B154C2D6FE0F701808117
:1003E00091810E94360A6BE271E0F7018081918170
:1003F0000E948915CE0101960E94F418CE0107963D
:100400000E94F418CE010D960E94F41862960FB661
:10041000F894DEBF0FBECDBFDF91CF911F910F913A
:10042000FF90EF90DF90CF90BF90AF909F908F9014
:10043000089508951F93CF93DF93EB01CB010E94A2
:10044000241C182FCE0101960E94241C982F812F66
:10045000DF91CF911F9108951F93CF93DF93EB010D
:10046000152F642FCE010E942C1C612FCE01019606
:10047000DF91CF911F910C942C1CFC017183608340
:100480000895DC018D919C91DC01ED91FC9104803B
:10049000F581E02D0994DC018D919C91DC01ED91B9
:1004A000FC910680F781E02D0994DC018D919C91EF
:1004B000DC01ED91FC910284F385E02D0994CF934A
:1004C000DF93EC0188819981DC01ED91FC9100843E
:1004D000F185E02D099599838883CE01DF91CF9135
:1004E0000C945502DC018D919C91DC01ED91FC9105
:1004F0000684F785E02D09940895FC018481958197
:100500000895FC01828193810895DC011696ED9196
:10051000FC911797099408950C943A15FC0181E316
:1005200091E091838083738362835583448337830F
:100530002683089508950F931F93CF93DF93EC01C3
:100540000C811D8120E030E040E85FE3F80160812C
:100550007181828193810E94E912F8016083718325
:1005600082839383E881F9810284F385E02DCE01B3
:10057000DF91CF911F910F9109940F931F93CF9308
:10058000DF93EC010C811D8120E030E040E85FE367
:10059000F80160817181828193810E94E812F801E3
:1005A0006083718382839383E881F9810284F38578
:1005B000E02DCE01DF91CF911F910F910994FC01A5
:1005C000868197810895FC01828193810895089521
:1005D0000C943A15CF93DF93EC01888599850E949E
:1005E000280A40E060E0888599850E94360A6A8181
:1005F0007B81888599850E94891541E060E0888526
:1006000099850E94360AEC81FD8140815181628189
:10061000738122E030E088859985DF91CF910C9439
:10062000C9160F931F93FC0185E491E091838083A9
:1006300073836283558344833783268311870087BE
:100640001F910F9108950895DC0118968D919C914A
:100650001997019719969C938E93189797FF09C045
:100660001A968D919C911B97019719969C938E9346
:100670001897ED91FC9111970284F385E02DCD013F
:100680000994DC0118968D919C9119970196199601
:100690009C938E9318971A962D913C911B978217D5
:1006A000930724F019961C921E921897ED91FC91D5
:1006B00011970284F385E02DCD010994DC01189691
:1006C000ED91FC911997EE0FFF1F14968D919C915F
:1006D0001597E80FF91F808191810895FC018281AF
:1006E00093810895FC011186108608950C943A15A3
:1006F000CF93DF93EC018E819F810E94280A40E016
:1007000060E08E819F810E94360A6A817B818E81A2
:100710009F810E94891541E060E08E819F810E9447
:10072000360AE885F985EE0FFF1F8C819D81E80F61
:10073000F91F80819181DC01ED91FC910484F585A4
:10074000E02D0995BC018E819F81DF91CF910C94A2
:1007500089150F931F93FC0189E591E091838083B4
:100760007383628355834483178306833387228789
:10077000118610861F910F910895CF92DF92EF920C
:10078000FF926091D9017091DA018091F10190910D
:10079000F2010E94F00F8091DE01882309F490C0DD
:1007A00080910601882309F48BC02091E7013091E4
:1007B000E8014091E9015091EA01609108017091CE
:1007C000090180910A0190910B010E94E8126B01CE
:1007D0007C0120E030E0A9010E94B41418165CF4FA
:1007E00020E030E040E050E4C701B6010E9455131C
:1007F00087FF58C00BC020E030E040E050ECC7015C
:10080000B6010E94B41418160CF04CC0C090DF0161
:10081000D090E001E090E101F090E20120E030E0D2
:10082000A901C701B6010E94B4141816DCF520E036
:1008300030E04FE753E4C701B6010E94551387FF2C
:1008400031C06091DB017091DC01072E000C880B38
:10085000990B0E940414A70196010E94E8126B01F3
:100860007C0120E030E0A9010E94B41418165CF469
:1008700020E030E040EA50E4C701B6010E94551381
:1008800087FF10C00AC020E030E040EA50ECC7010A
:10089000B6010E94B41418162CF41092060181E0DF
:1008A0008093DD016091DF017091E0018091E101B1
:1008B0009091E2010E94CC137093DC016093DB0104
:1008C000FF90EF90DF90CF900895CF93DF9300D00B
:1008D00000D0CDB7DEB78091DE01882369F1809129
:1008E000DD01882331F08091FB019091FC010E9491
:1008F0005B0B80910601882331F08091F901909182
:10090000FA010E945B0B6091E3017091E401809118
:10091000E5019091E6010E94CC137A83698360918E
:10092000DF017091E0018091E1019091E2010E946C
:10093000CC137C836B8304C01A8219821C821B82B5
:10094000BE016F5F7F4F80910102909102020E9471
:1009500021010F900F900F900F90DF91CF9108958C
:100960008F929F92AF92BF92CF92DF92EF92FF92BF
:100970000F931F9380910701811172C020E030E036
:100980004FE753E46091E3017091E4018091E50148
:100990009091E6010E945A1320E030E048EC52E4C6
:1009A0000E94B9140E94CC134B015C016091EB01D1
:1009B0007091EC018091ED019091EE010E94CC13B9
:1009C0006B017C0160910C0170910D0180910E0111
:1009D00090910F010E94CC1384019601AB0160E05D
:1009E00070E08091FD019091FE010E94430120E0A2
:1009F00030E04FE753E46091DF017091E0018091B6
:100A0000E1019091E2010E945A1320E030E048ECAD
:100A100052E40E94B9140E94CC134B015C01609116
:100A2000E7017091E8018091E9019091EA010E944B
:100A3000CC136B017C0160910801709109018091D8
:100A40000A0190910B010E94CC1384019601AB0125
:100A500061E070E08091FD019091FE010E944301F0
:100A60001F910F91FF90EF90DF90CF90BF90AF90CC
:100A70009F908F9008956091D7017091D8018091D7
:100A8000F1019091F2010E94F00F8091FF0190918D
:100A900000020E94E3126093E7017093E8018093E3
:100AA000E9019093EA011092EB011092EC0110928F
:100AB000ED011092EE010C94B0048091F701909139
:100AC000F8010E949208909107019923A9F0082E3D
:100AD000000C990B8F3F2FEF920731F48091F301B7
:100AE0009091F4010C944102019731F48091F3014B
:100AF0009091F4010C944B020895CF92DF92EF9203
:100B0000FF920F931F93CF93DF9360E070E080918B
:100B1000EF019091F0010E941A028C0162E070E0F6
:100B20008091EF019091F0010E941A02EC01C090B7
:100B30000C01D0900D01E0900E01F0900F01B80172
:100B4000110F880B990B0E940414A70196010E94B3
:100B50005513882369F0C701B6010E94CC13AB017D
:100B600060E070E08091EF019091F0010E942C0212
:100B7000C0900801D0900901E0900A01F0900B01AB
:100B8000BE01DD0F880B990B0E940414A70196018A
:100B90000E9455138823A9F0C701B6010E94CC1307
:100BA000AB0162E070E08091EF019091F001DF9184
:100BB000CF911F910F91FF90EF90DF90CF900C9409
:100BC0002C02DF91CF911F910F91FF90EF90DF905A
:100BD000CF900895109207018091F3019091F40154
:100BE0000E945F028091F3019091F4010E947202D1
:100BF0008091F5019091F6010E94280A0C947D05E0
:100C00001092DE011092DD01109206011092E301B4
:100C10001092E4011092E5011092E6011092DF01BA
:100C20001092E0011092E1011092E2010C94EA05A9
:100C300081E08093DE011092DD0180930601109225
:100C4000E3011092E4011092E5011092E601109286
:100C5000DF011092E0011092E1011092E2010C9488
:100C6000EA0587E00E94CB18892B21F481E080936C
:100C7000D60108958091D601882391F02091070133
:100C80008091F3019091F401222319F00E945F02F8
:100C900005C021E0209307010E9455021092D60161
:100CA00008958091F1019091F2010E942B0F8091A3
:100CB0000102909102020E9425010E9465040E9497
:100CC0005D050C943106CF92DF92EF92FF920F9365
:100CD0001F93CF93DF938AE090E00E9438157C0148
:100CE0008CE090E00E943615EC010091F501109126
:100CF000F60125E030E0A70169E671E00E94A90352
:100D00008AE090E00E9436156C010091F501109187
:100D1000F6019E014CE051E068E771E00E9411038A
:100D2000F701D182C0828AE090E00E9436156C0102
:100D30000091F5011091F6019E0148E051E064E850
:100D400071E00E941103F701D382C28288E090E033
:100D50000E9436158C0128E136E0AE0162E971E0AF
:100D60000E948E02F7011583048388E090E00E94C0
:100D700036158C0120E036E0AE016AE971E00E9490
:100D80008E02F7011783068388E090E00E943615F3
:100D90008C012AEE35E0AE0161EA71E00E948E021C
:100DA000F7011187008782E090E00E9436157C01F0
:100DB000BE010E943D02F092F401E092F301C701EE
:100DC000DF91CF911F910F91FF90EF90DF90CF9027
:100DD0000C9455026F927F928F929F92AF92BF9226
:100DE000CF92DF92EF92FF920F931F93CF93DF93F7
:100DF000CDB7DEB728970FB6F894DEBF0FBECDBFD4
:100E000063E070E0CE0105960E942A0164E070E084
:100E1000CE0107960E942A011A8219821C821B8227
:100E20008CE090E00E9436158C019E012F5F3F4FB1
:100E3000AE014B5F5F4F62E070E00E94EE001093E6
:100E400002020093010282E090E00E9436158C01BC
:100E50002CE030E04BE050E06AE070E00E94BE120F
:100E6000109300020093FF018CE090E00E94361581
:100E70004C0100E022E040E167E20E94C10990924B
:100E8000F6018092F501C4010E94720A8091F50179
:100E90009091F6010E94280A82E090E00E943615A7
:100EA0008C016091F5017091F6010E943F01109351
:100EB000FE010093FD0181E090E00E9436158C0157
:100EC00046E065E00E9436081093F8010093F701B0
:100ED000C8010E940D0960E087E00E94601889E364
:100EE00090E00E9436154C011F921F928FE3682EEE
:100EF0006F9290E8792E7F921F921F92A12CB12CB5
:100F000020EAC22E20E4D22EE12CF12C00E010E4E5
:100F10002CE031E043EE51E06BEE71E0C4010E9441
:100F2000CF0D9092FC018092FB0161E070E0C40162
:100F30000E947D0D89E390E00E9436154C011F92BE
:100F40001F926F927F921F921F9228E031E04FED27
:100F500051E067EE71E00E94CF0D9092FA0180920D
:100F6000F90161E070E0C4010E947D0D81E090E034
:100F70000E9436158C010E9419021093F001009313
:100F8000EF0160E070E0C8010E941A02BC01990FF5
:100F9000880B990B0E94041460930C0170930D014F
:100FA00080930E0190930F0162E070E08091EF0159
:100FB0009091F0010E941A02BC01990F880B990BC5
:100FC0000E940414609308017093090180930A0140
:100FD00090930B010E9463068CEA90E00E94361504
:100FE0008C010E943E0E1093F2010093F1012DEB53
:100FF00033E040EA56E861E070E0C8010E94E30E89
:101000009093DA018093D9012BE335E048EE53E069
:1010100060E070E08091F1019091F2010E94E30E96
:101020009093D8018093D701CE0107960E943E018C
:10103000CE0105960E943E010FB6F894DEBF0FBEAA
:10104000CDBF28960FB6F894DEBF0FBECDBFDF919F
:10105000CF911F910F91FF90EF90DF90CF90BF90B5
:10106000AF909F908F907F906F900895CF93DF9374
:10107000DC011C9280910302883008F050C08091FE
:1010800003028C93809103028F5F80930302CC91C3
:10109000D0E0CD5FDD4F6983CC91D0E0CD5FDD4FF7
:1010A00049878C9190E070E0FB01E057FF4FE4919D
:1010B000F0E0EE0FFF1FEC55FF4F25913491880FA4
:1010C000991FFC01ED5FFD4F328B218B8C9190E0DD
:1010D00050E0FA01E057FF4FE491F0E0EE0FFF1F00
:1010E000EC55FF4F25913491880F991FFC01ED5F5E
:1010F000FD4F32A321A38C9190E0FB01E458FF4FF8
:101100006491FC01ED5FFD4F61AB8C9190E0FA01C1
:10111000E458FF4F4491FC01ED5FFD4F41AFDF917B
:10112000CF910895DC01809103028830D0F4EC91D6
:10113000F0E0EC5BFD4F8081EC91F0E0EC5BFD4F6B
:10114000873821F483E080838FEF089580818B348A
:1011500049F4EC91F0E0EC5BFD4F83E0808381E0AB
:101160000895089580E00895CF934A3185EF580798
:101170006105710508F5443A8EE15807610571056E
:10118000F8F4493A87E0580761057105E8F4453DF0
:1011900083E0580761057105D8F44B3E81E058079C
:1011A00061057105C8F4463F510561057105C0F43C
:1011B00087E0A0E0B4E017C081E0A1E0B0E013C098
:1011C00082E0A8E0B0E00FC083E0A0E2B0E00BC096
:1011D00084E0A0E4B0E007C085E0A0E8B0E003C090
:1011E00086E0A0E0B1E0C2E0C093B0008093B1001F
:1011F0009A01AB010E94CD199B01AC0160E074E241
:1012000084EF90E00E94AB1921502093B300C0936B
:10121000700080E88FBFCF910895CF93DF93209126
:1012200003022830C0F4EC01E881F0E0ED5FFD4FEF
:10123000818160E00E946018E881F0E0ED5FFD4F81
:10124000818560E00E94601840EA5FE060E070E045
:10125000CE010E94B408DF91CF9108951F920F92A2
:101260000FB60F9211242F933F938F939F93EF9379
:10127000FF938091030280934C0280914C029FEF78
:10128000980F90934C02882309F469C010924D0284
:10129000E0914C02EE0FFF0BED5FFD4F0188F289EC
:1012A000E02D2081E0914C020E2E000CFF0BED5F33
:1012B000FD4F91A980914D02922321E009F420E095
:1012C000822B80934D0280914D02880F990B809361
:1012D0004D02E0914C02EE0FFF0BED5FFD4F01A0C0
:1012E000F2A1E02D2081E0914C020E2E000CFF0BAC
:1012F000ED5FFD4F91AD80914D02922321E009F405
:1013000020E0822B80934D02E0914C020E2E000CC7
:10131000FF0BEC5BFD4F808120914D02837090E0CC
:10132000022E000C330B8217930709F4A6CFE0912D
:101330004C020E2E000CFF0BEC5BFD4F8081880FE2
:10134000880F808380914D02E0914C020E2E000C9C
:10135000FF0BEC5BFD4F9081892B80838ECFFF913B
:10136000EF919F918F913F912F910F900FBE0F9012
:101370001F90189510920302089580E090E0089560
:1013800008950F93FC01138212828CEA91E09183FD
:101390008083648340872187028788E083870F9159
:1013A00008951F93CF93DF93EC01162F6C818CEB84
:1013B00092E00E949A126B85612B8CEB92E00E9466
:1013C00051128CEB92E0DF91CF911F910C94B712E8
:1013D0000F931F93CF938C01C62F64600E94D10995
:1013E00081E090E00E94F1176C2F6B7FC8010E9492
:1013F000D10982E390E0CF911F910F910C94F117E6
:101400001F93CF93DF93EC01162F0E94D109612F18
:10141000CE01DF91CF911F910C94E8090F931F9398
:10142000CF93DF938C01C62FD42F607F642B0E9453
:10143000000A80E1C89FB00111246D2BC801DF9123
:10144000CF911F910F910C94000A40E00C940E0A6A
:1014500061E00E94250A80ED97E00C94F11762E0AC
:101460000E94250A80ED97E00C94F117CF93DF934B
:10147000CDB7DEB728970FB6F894DEBF0FBECDBF4D
:101480009C0188E0E4E1F1E0DE01119601900D920B
:101490008A95E1F7F9018185841710F44FEF480F21
:1014A000FE013196E40FF11DE40FF11D9081690FEB
:1014B0006068C90128960FB6F894DEBF0FBECDBF95
:1014C000DF91CF910C94250AFC016681262F2460C0
:1014D00026836C600C94250A41E00E940E0A81E08C
:1014E00090E00895CF93DF93EC018CEB92E00E94A3
:1014F00090121D828985823010F098E09D839A8534
:10150000992329F0813019F48D8184608D8362E301
:1015100070E080E090E00E94B5176B85CE010E94DC
:10152000D10968EE73E080E090E00E94B51760E3B7
:10153000CE010E94000A84E991E10E94F11760E364
:10154000CE010E94000A84E991E10E94F11760E354
:10155000CE010E94000A86E990E00E94F11760E245
:10156000CE010E94000A6D816062CE010E94250AB0
:1015700084E08E83CE010E94640ACE010E94280A74
:1015800082E08F8366E0CE010E94250ACE01DF91C2
:10159000CF910C942F0ACF93DF93EC01842F6883B3
:1015A0004A83298361E00E94601861E088810E947B
:1015B000601860E089810E94601861E08A81DF9193
:1015C000CF910C949C18CF92DF92EF92FF921F93D1
:1015D000CF93DF937C0110E0C7E0D0E0CC24C3942C
:1015E000D12C60E0F70180810E949C188FE99FE078
:1015F0000197F1F700C00000F70181810E94CB182C
:10160000892B39F0C6010C2E01C0880F0A94EAF725
:10161000182B61E0F70180810E949C188FE99FE000
:101620000197F1F700C000002197D8F6812FDF91D4
:10163000CF911F91FF90EF90DF90CF9008950F937F
:101640001F93CF93DF938C0160E0FC0182810E94A5
:101650009C188FE99FE00197F1F700C00000C801D6
:101660000E94E30AC82FD0E0DC2FCC27C8010E94DB
:10167000E30AC82B61E0F80182810E949C18C2FD38
:1016800011C0BE0183E0769567958A95E1F780E009
:1016900090E00E94021420E030E040E85EE30E9407
:1016A000B91404C060E070E080EC9FE7DF91CF9157
:1016B0001F910F9108952F923F924F925F926F92D8
:1016C0007F928F929F92AF92BF92CF92DF92EF92D2
:1016D000FF920F931F93CF93DF93CDB7DEB72B9776
:1016E0000FB6F894DEBF0FBECDBFDC01D896BC911B
:1016F000B983B11102C01982E6C09B878A870E9414
:1017000084176A837B838C839D83EA85FB8580A114
:1017100091A1A2A1B3A14A815B816C817D81481B0B
:10172000590B6A0B7B0B84A595A5A6A5B7A54817F1
:1017300059076A077B07F8F2028CF38DE02D808051
:101740009180A280B380AA85BB855E96ED91FC91C5
:101750005F97A501940160817181828193810E94CC
:10176000E8122B013C01EA85FB85208931894289F9
:1017700053890E94B914AA85BB8594962D913D91F9
:101780004D915C9197970E94E9126B017C01EA856B
:10179000FB8564A375A386A397A324A835A806A9EF
:1017A00017A99101A8010E94B41418161CF4C101D4
:1017B000D80118C0AA85BB85D0968D919D910D90BA
:1017C000BC91A02D8E839F83A887B9879C01AD0112
:1017D000C701B6010E94551387FF0AC08E819F8101
:1017E000A885B985EA85FB8584A395A3A6A3B7A39D
:1017F000AA85BB851C962D913D914D915C911F97BB
:10180000C301B2010E94B914EA85FB8524A135A168
:1018100046A157A10E94E9126B017C01AA85BB85F4
:1018200098962D913D914D915C919B97C501B40186
:101830000E94E812EA85FB85248935894689578903
:101840000E94B9149B01AC01C701B6010E94E812C5
:101850006B017C019B01AC01B101C8010E945513D1
:1018600087FD17C0AA85BB85D0962C90D097D196BE
:101870003C90D197D2960C91D297D3961C9191011E
:10188000A801B601C7010E94551387FD02C01601C9
:101890008701AA85BB855C96ED91FC915D97C1019E
:1018A000D80180839183A283B383EA85FB8580A6D8
:1018B00091A6A2A6B3A68A819B81AC81BD8180A39B
:1018C00091A3A2A3B3A389812B960FB6F894DEBF90
:1018D0000FBECDBFDF91CF911F910F91FF90EF9081
:1018E000DF90CF90BF90AF909F908F907F906F9040
:1018F0005F904F903F902F9008954F925F926F921C
:101900007F928F929F92AF92BF92CF92DF92EF928F
:10191000FF920F931F93CF93DF9300D000D000D09E
:10192000CDB7DEB79E838D832A013B014801590163
:1019300020E030E0A901C301B2010E94551387FDE8
:101940007FC020E030E0A901C501B4010E94551319
:1019500087FD76C020E030E0A901C701B6010E94F2
:10196000551387FD6DC0ED81FE81408251826282F8
:10197000738284829582A682B782C086D186E286EF
:10198000F38664A575A586A597A50E94021420E09C
:1019900030E04AE754E40E945A1369837A838B83C8
:1019A0009C83ED81FE8144865586668677869B0101
:1019B000AC01C501B4010E94B9144B015C01ED8179
:1019C000FE81608B718B828B938B29813A814B8155
:1019D0005C81C701B6010E945A136B017C01ED8145
:1019E000FE81648B758B868B978B808D918D019793
:1019F00039F5A301920160E070E0CB010E94E8128A
:101A0000ED81FE816487758786879787A50194019C
:101A100060E070E0CB010E94E812ED81FE81608BF6
:101A2000718B828B938BA701960160E070E0CB01F4
:101A30000E94E812ED81FE81648B758B868B978BFB
:101A400026960FB6F894DEBF0FBECDBFDF91CF91C3
:101A50001F910F91FF90EF90DF90CF90BF90AF90CC
:101A60009F908F907F906F905F904F9008958F928E
:101A70009F92AF92BF92CF92DF92EF92FF92CF935D
:101A8000DF93EC01EC8DFD8DC080D180E280F3808E
:101A9000CCA2DDA2EEA2FFA2EA8DFB8D8081918116
:101AA000A281B38188A799A7AAA7BBA78CA89DA844
:101AB000AEA8BFA8A5019401C701B6010E94B41445
:101AC000181664F088A899A8AAA8BBA8A501940133
:101AD000C701B6010E94551387FF04C08CA29DA2C6
:101AE000AEA2BFA2DF91CF91FF90EF90DF90CF9099
:101AF000BF90AF909F908F9008951F93CF93DF93E7
:101B0000EC0111E06130710509F010E098AD81E061
:101B10008927181303C0CE010E94370D18AFDF913B
:101B2000CF911F9108950F931F93CF93DF93EC01F3
:101B30008B0188AD882361F1888D998D8617970771
:101B400039F12C853D854E855F8560E070E0CB01E5
:101B50000E94E8126C877D878E879F872889398944
:101B60004A895B8960E070E0CB010E94E812688BD3
:101B7000798B8A8B9B8B2C893D894E895F8960E0AC
:101B800070E0CB010E94E8126C8B7D8B8E8B9F8B5B
:101B9000198F088FDF91CF911F910F9108954F9268
:101BA0005F926F927F928F929F92AF92BF92CF92ED
:101BB000DF92EF92FF920F931F93CF93DF9300D0AA
:101BC00000D0CDB7DEB74C0127013801A982BA8217
:101BD000CB82DC82FC01558F448F738F628F378FED
:101BE000268F10AE10AA11AA12AA13AA80E090E0C4
:101BF000AFE7B3E484AB95ABA6ABB7AB84E690E0BC
:101C0000A0E0B0E084A795A7A6A7B7A76B8D7C8DB1
:101C1000C4010E94930DCF88D88CE98CFA8C09817D
:101C20001A812B813C81B301A201C4010E947D0C69
:101C30000E948417F40104A515A526A537A5DC018B
:101C4000CB01801B910BA20BB30B80A391A3A2A38A
:101C5000B3A30F900F900F900F90DF91CF911F9132
:101C60000F91FF90EF90DF90CF90BF90AF909F903B
:101C70008F907F906F905F904F900895CF92DF92FA
:101C8000EF92FF92CF93DF93EC010E9484177E01C5
:101C90002CE8E20EF11CFE01B8966E019E01245C58
:101CA0003F4FD7011D927D0111921192D6016D9384
:101CB0007D938D939D936D01AF01425B5F4FDA0180
:101CC0001D921C92E217F30761F7C655DF4F198288
:101CD0001882DF91CF91FF90EF90DF90CF90089521
:101CE000FC01E655FF4F208131812A3031056CF42B
:101CF000E258F10920E030E081919191892B41F087
:101D00002F5F3F4F2A303105B9F78FEF9FEF0895CE
:101D1000C90108954F925F926F927F92AF92BF92E6
:101D2000CF92DF92EF92FF920F931F93CF93DF93A7
:101D3000EC012A013B0169010E94700E7C0197FDB4
:101D400031C0C114D10471F15C01AA0CBB1CAA0CF6
:101D5000BB1CAC0EBD1EF50144AE55AE66AE77AEF3
:101D6000F701EE0FFF1FEC0FFD1FD1A6C0A6EC5927
:101D7000FF4F11830083FE01EE0DFF1DE457FF4F5F
:101D800081E080830E948417F501608371838283E0
:101D90009383C655DF4F8881998101969983888303
:101DA000C70102C08FEF9FEFDF91CF911F910F917D
:101DB000FF90EF90DF90CF90BF90AF907F906F90AB
:101DC0005F904F9008950F931F9300E010E00E94E2
:101DD0008A0E1F910F910895CF93DF936A3071059A
:101DE000BCF5EC01C655DF4F28813981211531053D
:101DF00079F1DB01AA0FBB1FA80FB91F98964D916F
:101E00005C919997452B21F199961C921E92989777
:101E1000FC01E60FF71FE457FF4F1082FD01EA5661
:101E2000FF4F11821082615F7F4F660F771F660F31
:101E3000771FFC01E60FF71F1082118212821382B6
:101E4000A858BF4F1D921C92215031093983288315
:101E5000DF91CF9108952F923F924F925F926F92B0
:101E60007F928F929F92AF92BF92CF92DF92EF922A
:101E7000FF920F931F93CF93DF9300D000D000D039
:101E8000CDB7DEB79C838B830E9484176B017C01E6
:101E9000EB81FC81EC59FF4F0B811C819801245789
:101EA0003F4FC80188589F4F9A8389831E830D83B3
:101EB00022242394312C13AA12AACF01CC97DC013F
:101EC0008D919C91892BF1F1AD81BE818D909D907A
:101ED000AD90BC901397DC964D915D916D917C9186
:101EE000DF9726013701481859086A087B0844160D
:101EF00055066606770630F1480D591D6A1D7B1D93
:101F00004D935D936D937C931397D9018C918823A6
:101F1000C9F0408151814115510519F433AA22AA13
:101F200011C0848995898417950764F433AA22AA7D
:101F30000196958B848B8417950724F082E090E0BE
:101F400093AB82AB3296AD81BE811496BE83AD83D6
:101F50002F5F3F4F89819A81E817F90709F0ABCFCE
:101F6000E12CF12CF801EA56FF4F808191818130FC
:101F7000910571F0029791F4D8019896ED91FC913A
:101F800099970995B7018B819C810E94EC0E06C040
:101F9000D8019896ED91FC9199970995BFEFEB1AAE
:101FA000FB0A0E5F1F4F8AE0E816F104D9F6269669
:101FB0000FB6F894DEBF0FBECDBFDF91CF911F915A
:101FC0000F91FF90EF90DF90CF90BF90AF909F90D8
:101FD0008F907F906F905F904F903F902F900895DB
:101FE0000F931F93CF93DF936A30710574F4EB0165
:101FF0008C010E948417CC0FDD1FCC0FDD1FC00F9A
:10200000D11F688379838A839B83DF91CF911F914E
:102010000F9108956A3071053CF4680F791FFB0138
:10202000E457FF4F81E0808308956A30710534F4EE
:10203000680F791FFB01E457FF4F1082089510923B
:10204000BB0281E08093B9021092B80261E082E1A4
:102050000E949C1861E083E10E949C18E9EBF0E08B
:1020600080818E7F808380818D7F808388E48093D0
:10207000B80085E48093BC0008950F93413208F0C6
:102080004AC09091BB029111FCCF32E03093BB0269
:102090000093B9023FEF30934E02109293024093A7
:1020A0009202562FA4E9B2E0FB013E2F351B3417F4
:1020B00018F431913D93F9CF1092BA023091BA02DF
:1020C000880F832B8093BA028091B802813061F42B
:1020D0001092B8028091BA028093BB008091BC003C
:1020E00083FDF8CF85EC01C085EE8093BC002223F0
:1020F00021F08091BB028230D1F380914E028F3F5C
:1021000079F080914E02803241F080914E0280330E
:1021100031F094E005C091E003C092E001C093E08B
:10212000892F0F91089540917002262F30E0240FDF
:10213000311D21323105DCF42091BB022430C9F479
:10214000FC0180E090E0861758F4309170022191F4
:10215000DC01AE58BD4FA30FB11D2C930196F3CFF8
:1021600080917002680F6093700280E0089581E0B2
:10217000089582E0089585ED8093BC008091BC00B5
:1021800084FDFCCF1092BB02089585EC8093BC00C7
:102190001092BB0208951F920F920FB60F92112456
:1021A0002F933F934F935F936F937F938F939F935F
:1021B000AF93BF93EF93FF938091B900887F8036F0
:1021C00009F49EC078F5883209F45DC090F480313E
:1021D00009F456C038F4882309F4F5C0883009F4AE
:1021E0004FC0F5C0883109F44EC0803209F45FC099
:1021F000EEC0803409F46AC058F4803309F457C043
:10220000883309F0E4C080934E020E94C510DFC0FD
:10221000803509F44FC0883509F45DC0883409F071
:10222000D6C0D3C0883909F4C4C0A8F4883709F4EB
:1022300067C038F4883609F463C0803709F460C099
:10224000C6C0883809F4B5C0803909F45FC0803849
:1022500009F0BDC05BC0803B09F483C038F4803A0C
:1022600009F466C0883A09F47CC0B1C0803C09F426
:10227000A4C0883C09F4A1C0883B09F487C0A7C06A
:102280008091BA0210C090919302809192029817A7
:1022900070F5E091930281E08E0F80939302F0E05D
:1022A000EC56FD4F80818093BB0085EC83C080930A
:1022B0004E028BC0E091930281E08E0F80939302D7
:1022C0008091BB00F0E0EC56FD4F8083909193022B
:1022D000809192026BC0E091930281E08E0F809317
:1022E00093028091BB00F0E0EC56FD4F808380911B
:1022F000B90281116AC081E08093B80284EA5EC0AD
:1023000083E08093BB0210924F02CFCF80914F02A7
:10231000803208F04EC0E0914F0281E08E0F809332
:102320004F028091BB00F0E0E05BFD4F8083BDCFAA
:102330000E94C51080914F02803230F4E0914F022C
:10234000F0E0E05BFD4F108260914F0270E0E091A1
:10235000B402F091B50280E592E0099510924F0227
:1023600036C084E08093BB0210927102109270021A
:10237000E091B602F091B702099580917002811147
:1023800005C081E08093700210927202E0917102A8
:1023900081E08E0F80937102F0E0EE58FD4F808156
:1023A0008093BB009091710280917002981708F49D
:1023B0007CCF85E88093BC000AC085EC8093BC008C
:1023C0001092BB0204C010924E020E94BB10FF91FB
:1023D000EF91BF91AF919F918F917F916F915F919D
:1023E0004F913F912F910F900FBE0F901F90189516
:1023F0008091EC0290E02091ED02821B91090895FA
:102400009091ED028091EC02981750F4E92FF0E0E2
:10241000E251FD4F208130E09F5F9093ED0202C0BA
:102420002FEF3FEFC9010895E091ED028091EC029A
:10243000E81730F4F0E0E251FD4F808190E008951C
:102440008FEF9FEF08950895CF92DF92EF92FF9262
:102450000F931F93CF93DF937C01CB018A012091CF
:10246000C802222389F0EB016B01C40ED51ECC15E6
:10247000DD0569F06991D701ED91FC910190F08142
:10248000E02DC7010995F3CF642F0E949310C80176
:10249000DF91CF911F910F91FF90EF90DF90CF9040
:1024A0000895CF93DF931F92CDB7DEB76983209154
:1024B000C8022223D1F02091C902203240F021E04D
:1024C00030E0FC013383228380E090E015C08091EE
:1024D000CA02E82FF0E0E553FD4F998190838F5FAA
:1024E0008093CA028093C90205C061E0CE010196C3
:1024F0000E94931081E090E00F90DF91CF910895BA
:10250000FC011382128288EE93E0A0E0B0E08483A5
:102510009583A683B78388EB91E0918380830895A8
:102520001092ED021092EC021092CA021092C902AF
:102530000C941F1081E08093C8026093EB0210920C
:10254000CA021092C90208950F93062F21E040910C
:10255000C9026BEC72E08091EB020E943D10109278
:10256000CA021092C9021092C8020F91089561E048
:102570000C94A4128CEB92E00C948012DF92EF92F8
:10258000FF920F931F93CF93DF938C01D62EE42EEF
:10259000F22E83E090E00E943615EC012D2D4E2D99
:1025A0006F2D0E94CB0AF801D183C08364EF71E0E4
:1025B00080E090E0DF91CF911F910F91FF90EF901D
:1025C000DF900C94B517FC01808191810C941F0B56
:1025D0005058BB27AA270E9400130C947A140E941B
:1025E0006C1438F00E94731420F039F49F3F19F4F2
:1025F00026F40C9469140EF4E095E7FB0C94631434
:10260000E92F0E948B1458F3BA17620773078407E7
:10261000950720F079F4A6F50C94AD140EF4E0952E
:102620000B2EBA2FA02D0B01B90190010C01CA018C
:10263000A0011124FF27591B99F0593F50F4503E37
:1026400068F11A16F040A22F232F342F4427585F29
:10265000F3CF469537952795A795F0405395C9F741
:102660007EF41F16BA0B620B730B840BBAF09150F9
:10267000A1F0FF0FBB1F661F771F881FC2F70EC098
:10268000BA0F621F731F841F48F48795779567956B
:10269000B795F7959E3F08F0B0CF9395880F08F057
:1026A0009927EE0F9795879508950E943F1408F497
:1026B00081E008950E946E130C947A140E947314A2
:1026C00058F00E946C1440F029F45F3F29F00C94FC
:1026D000631451110C94AE140C9469140E948B1461
:1026E00068F39923B1F3552391F3951B550BBB2741
:1026F000AA2762177307840738F09F5F5F4F220F86
:10270000331F441FAA1FA9F335D00E2E3AF0E0E87C
:1027100032D091505040E695001CCAF72BD0FE2FC6
:1027200029D0660F771F881FBB1F2617370748075A
:10273000AB07B0E809F0BB0B802DBF01FF27935812
:102740005F4F3AF09E3F510578F00C9463140C945F
:10275000AE145F3FE4F3983ED4F386957795679582
:10276000B795F7959F5FC9F7880F911D9695879547
:1027700097F90895E1E0660F771F881FBB1F621766
:1027800073078407BA0720F0621B730B840BBA0B24
:10279000EE1F88F7E09508950E94D3136894B11155
:1027A0000C94AE1408950E94931488F09F5798F0EB
:1027B000B92F9927B751B0F0E1F0660F771F881F46
:1027C000991F1AF0BA95C9F714C0B13091F00E9460
:1027D000AD14B1E008950C94AD14672F782F8827BD
:1027E000B85F39F0B93FCCF3869577956795B39587
:1027F000D9F73EF490958095709561957F4F8F4FF6
:102800009F4F0895E89409C097FB3EF490958095FA
:10281000709561957F4F8F4F9F4F9923A9F0F92FA6
:1028200096E9BB279395F695879577956795B79524
:10283000F111F8CFFAF4BB0F11F460FF1BC06F5F0A
:102840007F4F8F4F9F4F16C0882311F096E911C01C
:10285000772321F09EE8872F762F05C0662371F03D
:1028600096E8862F70E060E02AF09A95660F771F51
:10287000881FDAF7880F9695879597F90895990F2D
:102880000008550FAA0BE0E8FEEF16161706E8073A
:10289000F907C0F012161306E407F50798F0621B5B
:1028A000730B840B950B39F40A2661F0232B242B30
:1028B000252B21F408950A2609F4A140A6958FEF4F
:1028C000811D811D089597F99F6780E870E060E0A1
:1028D00008959FEF80EC089500240A9416161706B9
:1028E00018060906089500240A9412161306140601
:1028F00005060895092E0394000C11F4882352F064
:10290000BB0F40F4BF2B11F460FF04C06F5F7F4F1B
:102910008F4F9F4F089557FD9058440F551F59F002
:102920005F3F71F04795880F97FB991F61F09F3FBC
:1029300079F087950895121613061406551FF2CFE5
:102940004695F1DF08C0161617061806991FF1CF35
:1029500086957105610508940895E894BB2766275C
:102960007727CB0197F908950E943F1408F48FEF61
:1029700008950E94CC140C947A140E946C1438F0C0
:102980000E94731420F0952311F00C9463140C949E
:10299000691411240C94AE140E948B1470F3959F4B
:1029A000C1F3950F50E0551F629FF001729FBB2746
:1029B000F00DB11D639FAA27F00DB11DAA1F649FE2
:1029C0006627B00DA11D661F829F2227B00DA11D95
:1029D000621F739FB00DA11D621F839FA00D611D1B
:1029E000221F749F3327A00D611D231F849F600D3C
:1029F000211D822F762F6A2F11249F5750409AF065
:102A0000F1F088234AF0EE0FFF1FBB1F661F771FF0
:102A1000881F91505040A9F79E3F510580F00C94BB
:102A200063140C94AE145F3FE4F3983ED4F38695A0
:102A300077956795B795F795E7959F5FC1F7FE2B5B
:102A4000880F911D9695879597F9089508950E948E
:102A5000FC170E9426150E94EA06C0E0D0E00E9402
:102A600051062097E1F30E940000F9CF0C94ED1974
:102A70000C94ED190C94851ACF92DF92EF92FF928D
:102A80000F931F93CF93DF936C017A018B01C0E00A
:102A9000D0E0CE15DF0581F0D8016D918D01D60112
:102AA000ED91FC910190F081E02DC6010995892BF3
:102AB00011F02196EECF7E01C701DF91CF911F91DA
:102AC0000F91FF90EF90DF90CF9008956115710501
:102AD00079F0FB0101900020E9F73197AF01461B27
:102AE000570BDC01ED91FC910280F381E02D0994FC
:102AF00080E090E00895DB0114964D915C9115976C
:102B00006D917C91DC01ED91FC910280F381E02DCF
:102B100009940C946615DC01ED91FC910190F08113
:102B2000E02D09948F929F92AF92BF92EF92FF9205
:102B30000F931F93CF93DF93CDB7DEB7A1970FB657
:102B4000F894DEBF0FBECDBF7C01FA01CB0119A204
:102B5000223008F42AE08E010F5D1F4F822E912C47
:102B6000A12CB12CBF01A50194010E94AB19F90160
:102B7000CA01015011096A3010F4605D01C0695C3E
:102B8000D8016C93232B242B252B61F7B801C701A7
:102B90000E946615A1960FB6F894DEBF0FBECDBF9A
:102BA000DF91CF911F910F91FF90EF90BF90AF9069
:102BB0009F908F9008952115310541F4DC01ED912E
:102BC000FC910190F081E02D642F09940C949215F2
:102BD0009A01AB0160E070E00C94DB157F928F925C
:102BE0009F92AF92BF92CF92DF92EF92FF920F939C
:102BF0001F93CF93DF938C016A017B01722E9A01A0
:102C0000AB01C701B6010E94A619882319F069EC2F
:102C100071E027C046015701E894B7F82FEF3FEF66
:102C20004FE75FE7C501B4010E94A61981110DC0ED
:102C30002FEF3FEF4FE75FE7C501B4010E94551347
:102C400018161CF46DEC71E00CC02FEF3FEF4FE74E
:102C50005FE4C701B6010E94B414181694F461ED44
:102C600071E0C801DF91CF911F910F91FF90EF901C
:102C7000DF90CF90BF90AF909F908F907F900C94FB
:102C800066152FEF3FEF4FE75FECC701B6010E94DB
:102C9000551387FDE4CF20E030E0A901C701B6015C
:102CA0000E94551387FF0AC06DE2C8010E948B1570
:102CB000EC01F7FAF094F7F8F09402C0C0E0D0E02D
:102CC000B12C60E070E080E09FE37B1441F020E0F5
:102CD00030E040E251E40E945A13B394F6CFA701CA
:102CE00096010E94E9126B017C010E94D3134B01F3
:102CF0005C012AE0AB01BC01C8010E949215C80F1B
:102D0000D91F7720B9F1C501B4010E9402149B01BB
:102D1000AC01C701B6010E94E8126B017C016EE2B2
:102D2000C8010E948B15C80FD91F20E030E040E297
:102D300051E4C701B6010E94B9144B015C010E9425
:102D4000D3136B017C014AE050E0C8010E94E815F2
:102D5000C80FD91FB60180E090E00E9402149B01C9
:102D6000AC01C501B4010E94E8126B017C017A94A8
:102D70007110DBCFCE01DF91CF911F910F91FF90AA
:102D8000EF90DF90CF90BF90AF909F908F907F900B
:102D900008950C94EE1508958230E8F4E82FF0E0E1
:102DA000EE0FFF1FE05FFE4F71836083813041F0C3
:102DB000809169008C7F482B40936900E89A0895C0
:102DC00080916900837F440F551F440F551F482B86
:102DD00040936900E99A08951F920F920FB60F92DF
:102DE00011242F933F934F935F936F937F938F9310
:102DF0009F93AF93BF93EF93FF93E0911001F091F6
:102E000011010995FF91EF91BF91AF919F918F9122
:102E10007F916F915F914F913F912F910F900FBED6
:102E20000F901F9018951F920F920FB60F921124BA
:102E30002F933F934F935F936F937F938F939F93C2
:102E4000AF93BF93EF93FF93E0911201F0911301C1
:102E50000995FF91EF91BF91AF919F918F917F91D4
:102E60006F915F914F913F912F910F900FBE0F90F7
:102E70001F9018951F920F920FB60F9211242F9347
:102E80003F938F939F93AF93BF9380910F03909144
:102E90001003A0911103B091120330910E0323E0AF
:102EA000230F2D3720F40196A11DB11D05C026E882
:102EB000230F0296A11DB11D20930E0380930F03D3
:102EC00090931003A0931103B09312038091130306
:102ED00090911403A0911503B09116030196A11DC2
:102EE000B11D8093130390931403A0931503B09323
:102EF0001603BF91AF919F918F913F912F910F90AA
:102F00000FBE0F901F9018952FB7F89460910F0384
:102F10007091100380911103909112032FBF0895B7
:102F20003FB7F8948091130390911403A091150377
:102F3000B091160326B5A89B05C02F3F19F0019646
:102F4000A11DB11D3FBFBA2FA92F982F8827820F2F
:102F5000911DA11DB11DBC01CD0142E0660F771F7F
:102F6000881F991F4A95D1F708958F929F92AF922B
:102F7000BF92CF92DF92EF92FF926B017C010E9491
:102F800090174B015C01C114D104E104F10401F17B
:102F90000E94A5190E949017DC01CB01881999099C
:102FA000AA09BB09883E9340A105B10560F321E061
:102FB000C21AD108E108F10888EE880E83E0981E55
:102FC000A11CB11CC114D104E104F10419F7DBCF39
:102FD000FF90EF90DF90CF90BF90AF909F908F9039
:102FE00008958230910538F0880F991F880F991F36
:102FF00005970197F1F70895789484B5826084BDB0
:1030000084B5816084BD85B5826085BD85B58160EC
:1030100085BDEEE6F0E0808181608083E1E8F0E04C
:103020001082808182608083808181608083E0E87B
:10303000F0E0808181608083E1EBF0E0808184605A
:103040008083E0EBF0E0808181608083EAE7F0E05C
:1030500080818460808380818260808380818160C0
:1030600080838081806880831092C10008958330BE
:1030700081F028F4813099F08230A1F008958730F2
:10308000A9F08830B9F08430D1F4809180008F7D30
:1030900003C0809180008F7780938000089584B56D
:1030A0008F7702C084B58F7D84BD08958091B00074
:1030B0008F7703C08091B0008F7D8093B00008951A
:1030C000CF93DF9390E0FC01E458FF4F2491FC0183
:1030D000E057FF4F8491882361F190E0880F991F9A
:1030E000FC01E854FF4FC591D491FC01E255FF4F1C
:1030F000A591B491611109C09FB7F894888120957A
:1031000082238883EC912E230BC0623061F49FB739
:10311000F8948881322F309583238883EC912E2B6D
:103120002C939FBF06C08FB7F894E8812E2B28837D
:103130008FBFDF91CF9108951F93CF93DF93282FF7
:1031400030E0F901E859FF4F8491F901E458FF4F4D
:10315000D491F901E057FF4FC491CC23C1F0162F51
:1031600081110E943718EC2FF0E0EE0FFF1FE2559F
:10317000FF4FA591B4919FB7F894111104C08C91A1
:10318000D095D82302C0EC91DE2BDC939FBFDF915A
:10319000CF911F910895CF93DF93282F30E0F9014D
:1031A000E859FF4F8491F901E458FF4FD491F90198
:1031B000E057FF4FC491CC2391F081110E94371842
:1031C000EC2FF0E0EE0FFF1FEC55FF4FA591B491EF
:1031D000EC91ED2381E090E021F480E002C080E0FA
:1031E00090E0DF91CF910895FC01808191810C9452
:1031F000851ACF93DF93EC0188819981009711F0B4
:103200000E94851A198218821D821C821B821A82D2
:10321000DF91CF9108950F931F93CF93DF93EC012C
:103220008B016F5F7F4F888199810E940E1B0097F1
:1032300031F0998388831B830A8381E001C080E099
:10324000DF91CF911F910F910895CF93DF93EC0100
:1032500088819981892B29F08A819B81861797071C
:1032600060F4CE010E940B19882341F08C819D816E
:10327000892B19F4E881F981108281E0DF91CF91E7
:103280000895EF92FF920F931F93CF93DF93EC017A
:103290007B018A01BA010E942519811104C0CE0167
:1032A0000E94F91807C01D830C83B701888199819A
:1032B0000E94DD1BCE01DF91CF911F910F91FF90F6
:1032C000EF900895CF93DF93EC016115710559F0EC
:1032D000FB0101900020E9F73197AF01461B570B26
:1032E0000E94411902C00E94F918CE01DF91CF91CE
:1032F00008950F931F93CF93DF93CDB7DEB76297F7
:103300000FB6F894DEBF0FBECDBF8C01CB01F80124
:1033100011821082138212821582148250E0BE0143
:103320006F5F7F4F0E94E41BBE016F5F7F4FC8013C
:103330000E94621962960FB6F894DEBF0FBECDBF31
:10334000DF91CF911F910F91089508950E943F142E
:10335000880B990B0895A1E21A2EAA1BBB1BFD0135
:103360000DC0AA1FBB1FEE1FFF1FA217B307E40764
:10337000F50720F0A21BB30BE40BF50B661F771FBC
:10338000881F991F1A9469F760957095809590959C
:103390009B01AC01BD01CF0108950E94DE19A59FDC
:1033A000900DB49F900DA49F800D911D1124089540
:1033B000EE0FFF1F0590F491E02D0994A29FB0013C
:1033C000B39FC001A39F700D811D1124911DB29F59
:1033D000700D811D1124911D08950F931F93CF939C
:1033E000DF938230910510F482E090E0E0911903C0
:1033F000F0911A0320E030E0A0E0B0E0309719F13E
:10340000408151810281138148175907C8F0841700
:10341000950769F4109731F012960C931297139652
:103420001C9327C00093190310931A0322C021157F
:10343000310519F04217530718F49A01BD01EF0145
:10344000DF01F801DBCF21153105F9F0281B390B1D
:103450002430310580F48A819B816115710521F04A
:10346000FB019383828304C090931A038093190312
:10347000FE01329644C0FE01E20FF31F8193919347
:1034800022503109398328833AC0209117033091A3
:103490001803232B41F42091020130910301309352
:1034A0001803209317032091000130910101211589
:1034B000310541F42DB73EB740910401509105010B
:1034C000241B350BE0911703F0911803E217F30763
:1034D000A0F42E1B3F0B2817390778F0AC014E5F84
:1034E0005F4F2417350748F04E0F5F1F50931803A6
:1034F000409317038193919302C0E0E0F0E0CF0185
:10350000DF91CF911F910F910895CF93DF93009793
:1035100009F481C0FC01329713821282A091190331
:10352000B0911A03109781F420813181820F931F8B
:1035300020911703309118032817390751F5F0939C
:103540001803E093170367C0ED0120E030E0CE17C9
:10355000DF0740F44A815B819E0141155105F1F07E
:10356000EA01F5CFD383C28340815181840F951F37
:10357000C817D90759F488819981840F951F02963D
:10358000918380838A819B81938382832115310576
:1035900029F4F0931A03E09319033DC0E901FB837A
:1035A000EA8349915991C40FD51FEC17FD0761F4C7
:1035B00080819181840F951F0296E9019983888308
:1035C000828193819B838A83E0E0F0E012968D9163
:1035D0009C911397009719F0FD01DC01F7CF8D91B5
:1035E0009C9111979D012E5F3F4F820F931F209159
:1035F0001703309118032817390769F4309729F415
:1036000010921A031092190302C013821282B0930F
:103610001803A0931703DF91CF910895A0E0B0E0C5
:10362000E4E1FBE10C943E1CEC01009721F4CB019A
:103630000E94ED19B4C0FC01E60FF71F9C01225057
:103640003109E217F30708F4A8C0D9010D911C91C4
:10365000119706171707B0F00530110508F49BC045
:10366000C80104978617970708F495C002501109FE
:10367000061B170B019311936D937C93CF010E944E
:10368000851A89C05B01A01AB10A4C01800E911EF7
:10369000A0911903B0911A03612C712CE12CF12C2B
:1036A000109709F446C08D919C911197A815B90502
:1036B000B1F56C0142E0C40ED11CCA14DB0478F1F0
:1036C0004C018A189B08640142E0C40ED11C12967A
:1036D000BC9012971396AC91B5E0CB16D10440F094
:1036E000B282A38391828082D9016D937C9309C0B9
:1036F0000E5F1F4F800F911FF90191838083EB2D87
:10370000FA2FE114F10431F0D7011396FC93EE93F4
:10371000129741C0F0931A03E09319033CC0681656
:10372000790608F43C017D0112960D90BC91A02D04
:10373000B7CF809117039091180388169906E1F48A
:1037400066167706C8F480910001909101010097F8
:1037500041F48DB79EB74091040150910501841B3F
:10376000950BE817F907C8F4F0931803E0931703D3
:10377000F901718360830FC0CB010E94ED197C01B8
:10378000009759F0A801BE010E94D41BCE010E94EF
:10379000851AC70104C0CE0102C080E090E0CDB719
:1037A000DEB7EEE00C945A1CFB01DC0102C0019074
:1037B0000D9241505040D8F70895FB01DC01019073
:1037C0000D920020E1F708954532510520F4423072
:1037D00010F00C94EF1BFB011082CB010895BB2766
:1037E0004A3031F4992322F4BDE2909581959F4FA0
:1037F0000C94FB1BBB27FB015527AA27880F991F99
:10380000AA1FA41710F0A41B83955051B9F7A05D0F
:10381000AA3308F0A95DA193009779F7B111B1938C
:103820001192CB010C94141CDC01FC01672F7191E7
:103830007723E1F7329704C07C916D937083629196
:10384000AE17BF07C8F30895F999FECF92BD81BDA9
:10385000F89A992780B50895262FF999FECF1FBAB7
:1038600092BD81BD20BD0FB6F894FA9AF99A0FBEA9
:10387000019608952F923F924F925F926F927F929E
:103880008F929F92AF92BF92CF92DF92EF92FF9270
:103890000F931F93CF93DF93CDB7DEB7CA1BDB0B1C
:1038A0000FB6F894DEBF0FBECDBF09942A883988C1
:1038B00048885F846E847D848C849B84AA84B984C8
:1038C000C884DF80EE80FD800C811B81AA81B981D4
:1038D000CE0FD11D0FB6F894DEBF0FBECDBFED01E8
:0638E0000895F894FFCFEB
:1038E60000001B03200001010000C8410000164330
:1038F600CB16CB160000400014005400553A004485
:103906003A0043200020202000430025000000004C
:10391600007C028C028B028B027D02850281028B67
:1039260002000000009A02E8029B02BD02DF02EAE2
:1039360002E302E7020000000023037603240341AA
:10394600035E0378036E037203424F54544F4D20B7
:103956004845415445523A005345542054454D502C
:10396600205550005345542054454D5020444F5740
:103976004E003C3C5354415254003C3C53544F502F
:10398600003C3C4558495400000000006C0A3C15B8
:10399600BD09C0090000000051122412BD092312FE
:1039A600F811001214120D0A006E616E00696E663F
:0639B600006F76660000C0
:00000001FF
