S0150000426F74746F6D5F6865617465722E73726563C2
S11300000C9470000C94631D0C94901D0C94A4002B
S11300100C94A4000C94A4000C94A4000C94E80C7C
S11300200C94A4000C94A4000C94A4000C94A400BC
S11300300C94A4000C94C10B0C94A4000C94A40084
S11300400C94BD1D0C94A4000C94041A0C94471A2F
S11300500C94A4000C94A4000C94A4000C94A4008C
S11300600C940F150C94A40000000007500201002A
S1130070000304060000000000000000000051011D
S11300800204081020408001020408102001020428
S1130090081020020801041020400404040404048D
S11300A0040402020202020203030303030305051C
S11300B0050505050500000000230026002900A70A
S11300C00000000000250028002B00A9000000000B
S11300D000240027002A00A80000740DFE16821ACE
S11300E011241FBECFEFD8E0DEBFCDBF14BE0FB6C4
S11300F0F894A895809160008861809360001092C4
S113010060000FBE12E0A0E0B1E0ECECF5E402C048
S113011005900D92A633B107D9F724E0A6E3B2E027
S113012001C01D92A235B207E1F710E0C0E7D0E0AC
S113013004C02197FE010E947F22CD36D107C9F762
S11301400E94F51A0C94E4220C9400006091390288
S113015070913A0280913B0290913C020E945914A2
S1130160109236020895609137027091380280919E
S11301703B0290913C020E943414809136026091BB
S11301800001811102C0662341F081E06827609379
S1130190000180913D020C942C1F08951F93CF936E
S11301A0DF93162F60933D0270933E028CEA90E039
S11301B00E94041BEC010E947412D0933C02C09371
S11301C03B0226EA30E040E050E0BA01CE010E9452
S11301D0271390933A028093390223EB30E041E0F5
S11301E050E060E070E080913B0290913C020E94FC
S11301F027139093380280933702609139027091EB
S11302003A0280913B0290913C020E94591461E0B1
S1130210812FDF91CF911F910C94CC1E80913B02D2
S113022090913C020C946F13CF92DF92EF92FF9265
S11302306A017B016091390270913A0280913B021C
S113024090913C020E944E146091390270913A02DE
S1130250A701960180913B0290913C020E941913E0
S11302606091390270913A0280913B0290913C0274
S11302700E94341481E080933602FF90EF90DF9067
S1130280CF90089510924802109247020E94B50B35
S113029060E070E080914502909146020E94D8018E
S11302A060E070E080914302909144020E94D80182
S11302B042E050E06FE571E080E00C94431D109241
S11302C04802109247020E94BB0B43E050E062E4F4
S11302D071E080E00C94431D8091470290914802A4
S11302E001969093480280934702409141025091B5
S11302F042022FEF30E0241B350B2817390744F452
S113030061E070E080914502909146020E94D8011C
S113031020913F02309140028FEF90E0821B930BBB
S113032020914702309148028217930744F461E018
S113033070E080914302909144020C94D801089596
S1130340FC01862F509346024093450230934402A9
S1130350209343026083718360E00E94CC1E42E0DC
S113036050E06FE571E080E00E94431D48E250E0F8
S113037060E070E08CE691E00E940F0B0C94B50BEA
S113038070934202609341025093400240933F02B3
S11303900895CF93DF93EC01862F6883798361E01E
S11303A00E94CC1E60E08881DF91CF910C942C1FB9
S11303B0FC0180810C942C1FFC01718360830895DF
S11303C08F929F92AF92BF92CF92DF92EF92FF9261
S11303D00F931F93CF93DF93CDB7DEB765970FB617
S11303E0F894DEBF0FBECDBF7C016B014A015901F9
S11303F0462F60E0FC01808191810E94EC0DC114C4
S1130400D10419F068E171E002C065E171E0F7011F
S1130410808191810E947C1B4AE0B401CE010F9639
S11304200E9409208B8965E0681B4C2DF7018081AF
S113043091810E94EC0DBE01615F7F4FF7018081C5
S113044091810E94471B4C2D65E0F70180819181C9
S11304500E94EC0D6BE171E0F701808191810E94B3
S11304607C1B4C2D67E0F701808191810E94EC0D8B
S11304706EE171E0F701808191810E947C1B4AE06A
S1130480B501CE0108960E9409208C856AE0681B9C
S11304904C2DF701808191810E94EC0DBE01685FB3
S11304A07F4FF701808191810E94471B4C2D6AE0A8
S11304B0F701808191810E94EC0D62E271E0F70105
S11304C0808191810E947C1B4C2D6CE0F70180811E
S11304D091810E94EC0D6EE171E0F70180819181C0
S11304E00E947C1B4AE0B801CE0101960E940920BB
S11304F08D816FE0681B4C2DF701808191810E94F2
S1130500EC0DBE016F5F7F4FF701808191810E94E6
S1130510471B4C2D6FE0F701808191810E94EC0D07
S113052064E271E0F701808191810E947C1BCE011D
S113053001960E94841FCE0108960E94841FCE015A
S11305400F960E94841F65960FB6F894DEBF0FBE07
S1130550CDBFDF91CF911F910F91FF90EF90DF906E
S1130560CF90BF90AF909F908F90089561BD72BD62
S1130570F89A0000000080B508958FB761BD72BD80
S113058040BDF89494E09FBB92E09FBB8FBF089559
S1130590CF93DF93EC0181E090E00E94041B20E8FC
S11305A026BF2CE426BF99838883DF91CF910895D9
S11305B0FC01808191810C94B6020F931F93CF9319
S11305C08B01C42FFC01808191810E94BD0266E2EF
S11305D071E087E993E00E947C1B4AE050E0B80197
S11305E087E993E00E945D1C66E371E087E993E08C
S11305F00E947C1B4AE050E06C2F87E993E0CF9186
S11306001F910F910C94031CFF920F931F93CF9390
S1130610DF938C01EB01FC01808191810E94B60281
S1130620F82EBE016F5F7F4FF801808191810E9497
S1130630B602982F8F2DDF91CF911F910F91FF90CC
S11306400895FF920F931F93CF93DF938C01EB01D7
S1130650F52EFC01808191810E94BD02BE016F5F75
S11306607F4F4F2DF80180819181DF91CF911F91B0
S11306700F91FF900C94BD02FC0171836083089577
S1130680DC018D919C91DC01ED91FC910480F5815C
S1130690E02D0994DC018D919C91DC01ED91FC919C
S11306A00680F781E02D0994DC018D919C91DC0199
S11306B0ED91FC910284F385E02D0994CF93DF93AF
S11306C0EC0188819981DC01ED91FC910084F18534
S11306D0E02D099599838883CE01DF91CF910C9405
S11306E05403DC018D919C91DC01ED91FC91068415
S11306F0F785E02D09940895FC018481958108957E
S1130700FC01828193810895DC011696ED91FC91A0
S11307101797099408950C94081BFC0181E491E057
S113072091838083738362835583448337832683D1
S113073008950895DC011496ED91FC91159730818C
S113074021E023272083ED91FC910284F385E02DA1
S11307500994DC01ED91FC910480F581E02D09946C
S1130760FC01868197810895FC018281938108951B
S113077008950C94081BCF93DF93EC018885998529
S11307800E94DE0D40E060E0888599850E94EC0DB2
S11307906A817B81888599850E947C1B41E060E0A9
S11307A0888599850E94EC0DEC81FD818081811101
S11307B003C066E571E002C061E571E08885998552
S11307C0DF91CF910C947C1B0F931F93FC0180E667
S11307D091E0918380837383628355834483378359
S11307E02683118700871F910F91089508950F9311
S11307F01F93CF93DF93EC010C811D8120E030E047
S113080040E85FE3F80160817181828193810E94F5
S11308102D17F8016083718382839383E881F981C2
S11308200284F385E02DCE01DF91CF911F910F91CA
S113083009940F931F93CF93DF93EC010C811D81D7
S113084020E030E040E85FE3F8016081718182815B
S113085093810E942C17F8016083718382839383B0
S1130860E881F9810284F385E02DCE01DF91CF91F7
S11308701F910F910994FC01868197810895FC01D1
S113088082819381089508950C94081BCF93DF937C
S1130890EC01888599850E94DE0D40E060E0888542
S11308A099850E94EC0D6A817B81888599850E94D7
S11308B07C1B41E060E0888599850E94EC0DEC8109
S11308C0FD81408151816281738122E030E088851D
S11308D09985DF91CF910C94411D0F931F93FC01D7
S11308E084E791E091838083738362835583448397
S11308F037832683118700871F910F9108950895E8
S1130900DC0118968D919C911997019719969C93E7
S11309108E93189797FF09C01A968D919C911B97F7
S1130920019719969C938E931897ED91FC911197CA
S11309300284F385E02DCD010994DC0118968D9194
S11309409C911997019619969C938E9318971A96D1
S11309502D913C911B978217930724F019961C92B2
S11309601E921897ED91FC9111970284F385E02D66
S1130970CD010994DC011896ED91FC911997EE0FC5
S1130980FF1F14968D919C911597E80FF91F808194
S113099091810895FC01828193810895FC0111865F
S11309A0108608950C94081BCF93DF93EC018E817D
S11309B09F810E94DE0D40E060E08E819F810E9455
S11309C0EC0D6A817B818E819F810E947C1B41E0BA
S11309D060E08E819F810E94EC0DE885F985EE0F21
S11309E0FF1F8C819D81E80FF91F80819181DC01BB
S11309F0ED91FC910484F585E02D0995BC018E816F
S1130A009F81DF91CF910C947C1B0F931F93FC016A
S1130A1088E891E091838083738362835583448360
S1130A201783068333872287118610861F910F91BF
S1130A30089580917802909179020E945E038091DA
S1130A406A0290916B02DC01ED91FC910684F785BA
S1130A50E02D0994CF92DF92EF92FF9260914C02C5
S1130A6070914D0280917602909177020E94341425
S1130A7080915102882309F490C080910501882354
S1130A8009F48BC0209162023091630240916402A8
S1130A905091650260915A0270915B0280915C02F0
S1130AA090915D020E942C176B017C0120E030E0E4
S1130AB0A9010E94F81818165CF420E030E040E028
S1130AC050E4C701B6010E94991787FF58C00BC0B4
S1130AD020E030E040E050ECC701B6010E94F81875
S1130AE018160CF04CC0C0905202D0905302E09003
S1130AF05402F090550220E030E0A901C701B6018C
S1130B000E94F8181816DCF520E030E04FE753E4B3
S1130B10C701B6010E94991787FF31C060914E0248
S1130B2070914F02072E000C880B990B0E944818F5
S1130B30A70196010E942C176B017C0120E030E094
S1130B40A9010E94F81818165CF420E030E040EA8D
S1130B5050E4C701B6010E94991787FF10C00AC06C
S1130B6020E030E040EA50ECC701B6010E94F818DA
S1130B7018162CF41092050181E0809350026091C4
S1130B8052027091530280915402909155020E9436
S1130B90101870934F0260934E02FF90EF90DF9015
S1130BA0CF90089580910101882309F459C0809160
S1130BB00601811155C080915102882309F450C067
S1130BC080910401882321F120915E0230915F021B
S1130BD040916002509161026091660270916702D7
S1130BE080916802909169020E94F81887FD10C0F4
S1130BF080915002882361F048EC50E060E070E09E
S1130C0080917202909173020E9414011092040167
S1130C1080910301882321F120915A0230915B02D3
S1130C2040915C0250915D02609162027091630296
S1130C3080916402909165020E94F81887FD10C0AB
S1130C4080910501882361F048EC50E060E070E099
S1130C5080917202909173020E9414011092030118
S1130C600895CF92DF92EF92FF92809151028823F0
S1130C7061F180915002882331F08091800290913B
S1130C8081020E94110F80910501882331F0809127
S1130C907E0290917F020E94110F60915202709126
S1130CA0530280915402909155020E9410186B01D6
S1130CB07C01609156027091570280915802909184
S1130CC059020E941018A60104C040E050E060E000
S1130CD070E08091860290918702FF90EF90DF9000
S1130CE0CF900C94C0018F929F92AF92BF92CF92FB
S1130CF0DF92EF92FF920F931F938091060181116F
S1130D0072C020E030E04FE753E4609156027091E6
S1130D10570280915802909159020E949E1720E038
S1130D2030E048EC52E40E94FD180E9410184B0178
S1130D305C016091660270916702809168029091F3
S1130D4069020E9410186B017C0160915E0270912F
S1130D505F0280916002909161020E9410188401E8
S1130D609601AB0160E070E0809182029091830271
S1130D700E94E00120E030E04FE753E4609152022A
S1130D807091530280915402909155020E949E17D3
S1130D9020E030E048EC52E40E94FD180E94101854
S1130DA04B015C0160916202709163028091640264
S1130DB0909165020E9410186B017C0160915A02A7
S1130DC070915B0280915C0290915D020E94101808
S1130DD084019601AB0161E070E080918202909100
S1130DE083020E94E0011F910F91FF90EF90DF902A
S1130DF0CF90BF90AF909F908F90089560914A02DA
S1130E0070914B0280917602909177020E94341483
S1130E1080918402909185020E9427176093620258
S1130E207093630280936402909365021092660249
S1130E301092670210926802109269020E943106B1
S1130E400E94D2050C94730680917C0290917D02DD
S1130E500E944C0C909106019923A9F0082E000CD5
S1130E60990B8F3F2FEF920731F480917802909184
S1130E7079020C944003019731F4809178029091A7
S1130E8079020C944A030895209106018091780216
S1130E9090917902222319F00E945E0305C021E09B
S1130EA0209306010E94540380910201882351F08B
S1130EB042E350E060E070E080917202909173022E
S1130EC00C941401089587E00E945B1F892B21F480
S1130ED081E080934902089580914902882321F09A
S1130EE0109249020C9444070895809176029091DF
S1130EF077020E946F1380917202909173020E9494
S1130F000E010E9424070C94630760E070E0809156
S1130F107402909175020E940403BC01990F880B1E
S1130F20990B0E94481860935E0270935F0280934D
S1130F3060029093610262E070E08091740290918B
S1130F4075020E940403BC01990F880B990B0E943F
S1130F50481860935A0270935B0280935C029093EA
S1130F605D0264E070E080917402909175020E94C9
S1130F70D80291E0811101C090E09093020165E0F4
S1130F8070E080917402909175020E94D80291E001
S1130F90811101C090E09093010108958F929F9276
S1130FA0AF92BF92CF92DF92EF92FF920F931F9373
S1130FB0CF93DF9360E070E08091740290917502AA
S1130FC00E9404036C0162E070E0809174029091CD
S1130FD075020E940403EC0164E070E080917402E5
S1130FE0909175020E9404037C0165E070E0809199
S1130FF07402909175020E9404038C0180905E0239
S113100090905F02A0906002B0906102B601DD0C86
S1131010880B990B0E944818A50194010E94991706
S1131020882369F0C501B4010E941018AB0160E087
S113103070E080917402909175020E942103809067
S11310405A0290905B02A0905C02B0905D02BE01D7
S1131050DD0F880B990B0E944818A50194010E948A
S11310609917882369F0C501B4010E941018AB01D7
S113107062E070E080917402909175020E942103F5
S113108040910201842F90E0E816F90641F064E0F3
S113109070E080917402909175020E94DD0240918B
S11310A00101842F90E008171907A1F065E070E0B2
S11310B08091740290917502DF91CF911F910F91ED
S11310C0FF90EF90DF90CF90BF90AF909F908F9064
S11310D00C94DD02DF91CF911F910F91FF90EF905F
S11310E0DF90CF90BF90AF909F908F900895109213
S11310F0060181E0809303018093040180917802CA
S1131100909179020E945E03809178029091790215
S11311100E9471030E94CE0780917A0290917B0213
S11311200C94DE0D1092510210925002109205019F
S113113010925602109257021092580210925902BD
S113114010925202109253021092540210925502BD
S11311500C94770881E0809351021092500280939E
S113116005011092560210925702109258021092E2
S11311705902109252021092530210925402109289
S113118055020C9477080F931F93CF93DF938CE051
S113119090E00E94061B909371028093700286E097
S11311A090E00E94061B90936F0280936E028CE085
S11311B090E00E94041BEC0100917A0210917B02E2
S11311C0409170025091710226E030E068E971E0CC
S11311D00E940505D0936D02C0936C028CE090E0F0
S11311E00E94041BEC0100917A0210917B02409151
S11311F06E0250916F0223E030E067EA71E00E94D2
S11312000505D0936B02C0936A028AE090E00E94C5
S1131210041BEC0100917A0210917B0220916C0274
S113122030916D024EE552E066EB71E00E946D0470
S1131230E0917002F0917102D183C0838AE090E062
S11312400E94041BEC0100917A0210917B02209110
S11312506C0230916D024AE552E062EC71E00E944A
S11312606D04E0917002F0917102D383C283809186
S11312706A0290916B029583848388E090E00E94D7
S1131280041BEC0140916C0250916D022AEA38E093
S113129060ED71E00E948D03E0917002F0917102A3
S11312A0D783C68388E090E00E94041BEC01409140
S11312B06C0250916D0222E938E068ED71E00E9401
S11312C08D03E0917002F0917102D187C08788E0AC
S11312D090E00E94041BEC0140916C0250916D025D
S11312E027E738E06FED71E00E948D03E091700212
S11312F0F0917102D387C2878AE090E00E94041BB8
S1131300EC0100917A0210917B0220916A023091E3
S11313106B0242E051E066EE71E00E94E403E0916A
S11313206E02F0916F02D183C0838AE090E00E9444
S1131330041BEC0100917A0210917B0220916A0255
S113134030916B0241E051E061EF71E00E94E403EF
S1131350E0916E02F0916F02D383C28388E090E043
S11313600E94041BEC0140916C0250916D0229E132
S113137035E06FED71E00E948D03E0916E02F09113
S11313806F02D583C48382E090E00E94041BEC01C9
S113139060916C0270916D020E943C03D0937902BB
S11313A0C0937802CE01DF91CF911F910F910C94DD
S11313B054038F929F92AF92BF92CF92DF92EF929B
S11313C0FF920F931F93CF93DF9382E090E00E94EC
S11313D0041B4C0163E070E00E94C90182E090E0CC
S11313E00E94041B8C0164E070E00E94C90182E049
S11313F090E00E94041BEC019801A40162E070E0FB
S11314000E94A001D0938702C093860282E090E0FC
S11314100E94041BEC012CE030E04BE050E06AE059
S113142070E00E940217D0938502C09384028CE07E
S113143090E00E94041BEC0100E022E040E167E23E
S11314400E94770DD0937B02C0937A02CE010E9452
S1131450280E80917A0290917B020E94DE0D82E038
S113146090E00E94041BEC0160917A0270917B026F
S11314700E94DC01D0938302C093820281E090E059
S11314800E94041BEC0146E065E00E94F00BD0933F
S11314907D02C0937C02CE010E94C70C60E087E00D
S11314A00E94CC1E89E390E00E94041BEC011F9271
S11314B01F928FE3882E8F9290E8992E9F921F920D
S11314C01F92A12CB12C20EAC22E20E4D22EE12CB2
S11314D0F12C00E010E42EE532E046E552E066E649
S11314E072E0CE010E940512D0938102C093800263
S11314F000E010E02FE733E440E050E0BA01CE0111
S11315000E94ED1061E070E0809180029091810270
S11315100E94B31189E390E00E94041BEC011F9226
S11315201F928F929F921F921F92E12CF12C00E048
S113153010E42AE532E042E552E062E672E00E94FD
S11315400512D0937F02C0937E0200E010E02FE7E3
S113155033E440E050E0BA01CE010E94ED1061E0B6
S113156070E080917E0290917F020E94B3110E94EC
S1131570C3088CEA90E00E94041BEC010E947412E0
S1131580D0937702C09376022AE235E040EA56E827
S113159061E070E0CE010E94271390934D02809386
S11315A04C022EEF36E048EE53E060E070E08091AC
S11315B07602909177020E94271390934B028093B6
S11315C04A0281E090E00E94041BEC0169E070E0B3
S11315D00E94CE00D0937302C093720282E090E026
S11315E00E94041BEC010E94C802D0937502C093B0
S11315F074028DB79EB70C960FB6F8949EBF0FBEBB
S11316008DBFDF91CF911F910F91FF90EF90DF90ED
S1131610CF90BF90AF909F908F900C9485072091AE
S11316206F002E7F20936F0090938B0280938A0229
S11316301092800010928100DB01CA010697A10973
S1131640B1098A3F9F40A105B10590F4DB01CA01AD
S113165064E0880F991FAA1FBB1F6A95D1F740E366
S113166050E061E070E0481B590B6A0B7B0B6BC0C8
S1131670DB01CA019051A109B10981159047A10567
S1131680B10580F4DB01CA01880F991FAA1FBB1F93
S113169046E050E061E070E0481B590B6A0B7B0B9D
S11316A082E052C0DB01CA019058A109B109811539
S11316B09048A340B10598F4DB01CA0142E0B69515
S11316C0A795979587954A95D1F740E050E061E05A
S11316D070E0481B590B6A0B7B0B83E035C0DB01C0
S11316E0CA0114970097AC40B10598F4DB01CA0114
S11316F034E0B695A795979587953A95D1F740E04C
S113170050E061E070E0481B590B6A0B7B0B84E0EE
S11317101BC0DB01CA0150970097A043B10598F4A0
S1131720DB01CA0126E0B695A795979587952A957A
S1131730D1F740E050E061E070E0481B590B6A0BC0
S11317407B0B85E001C081E0809381005093890286
S113175040938802109285001092840080916F005B
S1131760816080936F0078940895EFE6F0E08081C3
S11317708E7F80830895EFE6F0E08081816080832E
S113178008951F920F920FB60F9211242F933F9337
S11317904F935F936F937F938F939F93AF93BF9375
S11317A0EF93FF9380918802909189029093850032
S11317B080938400E0918A02F0918B020995FF9155
S11317C0EF91BF91AF919F918F917F916F915F91B5
S11317D04F913F912F910F900FBE0F901F9018952E
S11317E0CF93DF93DC011C9280918C02883008F047
S11317F050C080918C028C9380918C028F5F809377
S11318008C02CC91D0E0C457DD4F6983CC91D0E0F9
S1131810C457DD4F49878C9190E070E0FB01E65698
S1131820FF4FE491F0E0EE0FFF1FEB54FF4F2591C3
S11318303491880F991FFC01E457FD4F328B218BA3
S11318408C9190E050E0FA01E656FF4FE491F0E00D
S1131850EE0FFF1FEB54FF4F25913491880F991F12
S1131860FC01E457FD4F32A321A38C9190E0FB01CE
S1131870E158FF4F6491FC01E457FD4F61AB8C913B
S113188090E0FA01E158FF4F4491FC01E457FD4F09
S113189041AFDF91CF910895DC0180918C028830B3
S11318A0D0F4EC91F0E0E353FD4F8081EC91F0E053
S11318B0E353FD4F873821F483E080838FEF08954D
S11318C080818B3449F4EC91F0E0E353FD4F83E0E5
S11318D0808381E00895089580E00895CF934A318C
S11318E085EF58076105710508F5443A8EE15807FC
S11318F061057105F8F4493A87E0580761057105F7
S1131900E8F4453D83E0580761057105D8F44B3E82
S113191081E0580761057105C8F4463F510561052A
S11319207105C0F487E0A0E0B4E017C081E0A1E055
S1131930B0E013C082E0A8E0B0E00FC083E0A0E212
S1131940B0E00BC084E0A0E4B0E007C085E0A0E80C
S1131950B0E003C086E0A0E0B1E0C2E0C093B00014
S11319608093B1009A01AB010E9474229B01AC01E7
S113197060E074E284EF90E00E94522221502093B0
S1131980B300C093700080E88FBFCF910895CF93C8
S1131990DF9320918C022830C0F4EC01E881F0E060
S11319A0E457FD4F818160E00E94CC1EE881F0E0A5
S11319B0E457FD4F818560E00E94CC1E40EA5FE061
S11319C060E070E0CE010E946E0CDF91CF9108952B
S11319D01F920F920FB60F9211242F933F938F9360
S11319E09F93EF93FF9380918C028093D502809113
S11319F0D5029FEF980F9093D502882309F469C00C
S1131A001092D602E091D502EE0FFF0BE457FD4F82
S1131A100188F289E02D2081E091D5020E2E000C80
S1131A20FF0BE457FD4F91A98091D602922321E048
S1131A3009F420E0822B8093D6028091D602880F8D
S1131A40990B8093D602E091D502EE0FFF0BE45779
S1131A50FD4F01A0F2A1E02D2081E091D5020E2ED0
S1131A60000CFF0BE457FD4F91AD8091D6029223F9
S1131A7021E009F420E0822B8093D602E091D50284
S1131A800E2E000CFF0BE353FD4F80812091D602F4
S1131A90837090E0022E000C330B8217930709F435
S1131AA0A6CFE091D5020E2E000CFF0BE353FD4FA1
S1131AB08081880F880F80838091D602E091D502BF
S1131AC00E2E000CFF0BE353FD4F9081892B808376
S1131AD08ECFFF91EF919F918F913F912F910F9016
S1131AE00FBE0F901F90189510928C0208950F93BB
S1131AF0FC011382128283E092E0918380836483E9
S1131B0040872187028788E083870F9108951F9378
S1131B10CF93DF93EC01162F6C8185E493E00E9450
S1131B20DE166B85612B85E493E00E94951685E4AF
S1131B3093E0DF91CF911F910C94FB160F931F93A9
S1131B40CF938C01C62F64600E94870D81E090E0E2
S1131B500E945E1E6C2F6B7FC8010E94870D82E37A
S1131B6090E0CF911F910F910C945E1E1F93CF9321
S1131B70DF93EC01162F0E94870D612FCE01DF91B8
S1131B80CF911F910C949E0D0F931F93CF93DF93CE
S1131B908C01C62FD42F607F642B0E94B60D80E188
S1131BA0C89FB00111246D2BC801DF91CF911F9103
S1131BB00F910C94B60D40E00C94C40D61E00E94AA
S1131BC0DB0D80ED97E00C945E1E62E00E94DB0D5D
S1131BD080ED97E00C945E1ECF93DF93CDB7DEB714
S1131BE028970FB6F894DEBF0FBECDBF9C0188E0E6
S1131BF0EDE0F1E0DE01119601900D928A95E1F796
S1131C00F9018185841710F44FEF480FFE013196D6
S1131C10E40FF11DE40FF11D9081690F6068C901A3
S1131C2028960FB6F894DEBF0FBECDBFDF91CF91DB
S1131C300C94DB0DFC016681262F246026836C60E6
S1131C400C94DB0D41E00E94C40D81E090E0089506
S1131C50CF93DF93EC0185E493E00E94D4161D82B8
S1131C608985823010F098E09D839A85992329F024
S1131C70813019F48D8184608D8362E370E080E0AB
S1131C8090E00E94381E6B85CE010E94870D68EE9D
S1131C9073E080E090E00E94381E60E3CE010E9471
S1131CA0B60D84E991E10E945E1E60E3CE010E94BC
S1131CB0B60D84E991E10E945E1E60E3CE010E94AC
S1131CC0B60D86E990E00E945E1E60E2CE010E949D
S1131CD0B60D6D816062CE010E94DB0D84E08E83BF
S1131CE0CE010E941A0ECE010E94DE0D82E08F8387
S1131CF066E0CE010E94DB0DCE01DF91CF910C9402
S1131D00E50DCF93DF93EC01842F68834A83298305
S1131D1061E00E94CC1E61E088810E94CC1E60E0DC
S1131D2089810E94CC1E61E08A81DF91CF910C945D
S1131D302C1FCF92DF92EF92FF921F93CF93DF93EA
S1131D407C0110E0C7E0D0E0CC24C394D12C60E047
S1131D50F70180810E942C1F8FE99FE00197F1F722
S1131D6000C00000F70181810E945B1F892B39F0BC
S1131D70C6010C2E01C0880F0A94EAF7182B61E003
S1131D80F70180810E942C1F8FE99FE00197F1F7F2
S1131D9000C000002197D8F6812FDF91CF911F91C9
S1131DA0FF90EF90DF90CF9008950F931F93CF9300
S1131DB0DF938C0160E0FC0182810E942C1F8FE97B
S1131DC09FE00197F1F700C00000C8010E94990E3E
S1131DD0C82FD0E0DC2FCC27C8010E94990EC82B55
S1131DE061E0F80182810E942C1FC2FD11C0BE0176
S1131DF083E0769567958A95E1F780E090E00E940C
S1131E00461820E030E040E85EE30E94FD1804C07C
S1131E1060E070E080EC9FE7DF91CF911F910F911C
S1131E2008952F923F924F925F926F927F928F927A
S1131E309F92AF92BF92CF92DF92EF92FF920F9355
S1131E401F93CF93DF93CDB7DEB72B970FB6F894DC
S1131E50DEBF0FBECDBFDC01D896BC91B983B111F2
S1131E6002C01982E6C09B878A870E94071E6A8384
S1131E707B838C839D83EA85FB8580A191A1A2A1AC
S1131E80B3A14A815B816C817D81481B590B6A0B2C
S1131E907B0B84A595A5A6A5B7A5481759076A077E
S1131EA07B07F8F2028CF38DE02D80809180A28074
S1131EB0B380AA85BB855E96ED91FC915F97A501E1
S1131EC0940160817181828193810E942C172B017E
S1131ED03C01EA85FB8520893189428953890E9426
S1131EE0FD18AA85BB8594962D913D914D915C91E9
S1131EF097970E942D176B017C01EA85FB8564A3EB
S1131F0075A386A397A324A835A806A917A99101A8
S1131F10A8010E94F81818161CF4C101D80118C0B1
S1131F20AA85BB85D0968D919D910D90BC91A02DD5
S1131F308E839F83A887B9879C01AD01C701B60131
S1131F400E94991787FF0AC08E819F81A885B98551
S1131F50EA85FB8584A395A3A6A3B7A3AA85BB851D
S1131F601C962D913D914D915C911F97C301B20137
S1131F700E94FD18EA85FB8524A135A146A157A13D
S1131F800E942D176B017C01AA85BB8598962D9123
S1131F903D914D915C919B97C501B4010E942C1712
S1131FA0EA85FB8524893589468957890E94FD186D
S1131FB09B01AC01C701B6010E942C176B017C0187
S1131FC09B01AC01B101C8010E94991787FD17C09C
S1131FD0AA85BB85D0962C90D097D1963C90D1976A
S1131FE0D2960C91D297D3961C919101A801B60177
S1131FF0C7010E94991787FD02C016018701AA85AF
S1132000BB855C96ED91FC915D97C101D8018083FD
S11320109183A283B383EA85FB8580A691A6A2A6B9
S1132020B3A68A819B81AC81BD8180A391A3A2A325
S1132030B3A389812B960FB6F894DEBF0FBECDBF34
S1132040DF91CF911F910F91FF90EF90DF90CF9090
S1132050BF90AF909F908F907F906F905F904F90C4
S11320603F902F9008954F925F926F927F928F923C
S11320709F92AF92BF92CF92DF92EF92FF920F9313
S11320801F93CF93DF9300D000D000D0CDB7DEB73D
S11320909E838D832A013B014801590120E030E0F1
S11320A0A901C301B2010E94991787FD7FC020E0F6
S11320B030E0A901C501B4010E94991787FD76C0DB
S11320C020E030E0A901C701B6010E94991787FDFD
S11320D06DC0ED81FE81408251826282738284826E
S11320E09582A682B782C086D186E286F38664A5ED
S11320F075A586A597A50E94461820E030E04AE71A
S113210054E40E949E1769837A838B839C83ED81B8
S1132110FE8144865586668677869B01AC01C5019F
S1132120B4010E94FD184B015C01ED81FE81608BBE
S1132130718B828B938B29813A814B815C81C7019E
S1132140B6010E949E176B017C01ED81FE81648BB8
S1132150758B868B978B808D918D019739F5A301B3
S1132160920160E070E0CB010E942C17ED81FE81AA
S11321706487758786879787A501940160E070E07E
S1132180CB010E942C17ED81FE81608B718B828BB9
S1132190938BA701960160E070E0CB010E942C179D
S11321A0ED81FE81648B758B868B978B26960FB69B
S11321B0F894DEBF0FBECDBFDF91CF911F910F9179
S11321C0FF90EF90DF90CF90BF90AF909F908F9053
S11321D07F906F905F904F9008952F923F924F920F
S11321E05F926F927F928F929F92AF92BF92CF92A3
S11321F0DF92EF92FF920F931F93CF93DF93EC0143
S11322006A017B0148015901A9019801C701B6017E
S11322100E94F81887FF4EC0C8AAD9AAEAAAFBAA46
S11322208CAA9DAAAEAABFAA88AD882309F442C08D
S11322302C8C3D8CF1014080518062807380A3011D
S11322409201C501B4010E94991787FF06C0F101EC
S113225080829182A282B3820DC0A3019201C70140
S1132260B6010E94F81818162CF4F101C082D1822C
S1132270E282F3828CA09DA0AEA0BFA0CCA8DDA872
S1132280EEA8FFA8A7019601C501B4010E94F818A1
S1132290181664F0C8A8D9A8EAA8FBA8A701960153
S11322A0C501B4010E94991787FF04C0CCA2DDA226
S11322B0EEA2FFA2DF91CF911F910F91FF90EF90BB
S11322C0DF90CF90BF90AF909F908F907F906F9052
S11322D05F904F903F902F9008958F929F92AF926E
S11322E0BF92CF92DF92EF92FF92CF93DF93EC01F4
S11322F0EC8DFD8DC080D180E280F380CCA2DDA284
S1132300EEA2FFA2EA8DFB8D80819181A281B3812F
S113231088A799A7AAA7BBA78CA89DA8AEA8BFA861
S1132320A5019401C701B6010E94F818181664F0BB
S113233088A899A8AAA8BBA8A5019401C701B601B9
S11323400E94991787FF04C08CA29DA2AEA2BFA2CF
S1132350DF91CF91FF90EF90DF90CF90BF90AF903F
S11323609F908F9008951F93CF93DF93EC0111E01A
S11323706130710509F010E098AD81E089271813E8
S113238003C0CE010E946D1118AFDF91CF911F9150
S113239008950F931F93CF93DF93EC018B0188ADC6
S11323A0882361F1888D998D8617970739F12C85DB
S11323B03D854E855F8560E070E0CB010E942C175F
S11323C06C877D878E879F87288939894A895B89AD
S11323D060E070E0CB010E942C17688B798B8A8BAC
S11323E09B8B2C893D894E895F8960E070E0CB012D
S11323F00E942C176C8B7D8B8E8B9F8B198F088F73
S1132400DF91CF911F910F9108954F925F926F9238
S11324107F928F929F92AF92BF92CF92DF92EF9270
S1132420FF920F931F93CF93DF9300D000D0CDB7CB
S1132430DEB74C0127013801A982BA82CB82DC8243
S1132440FC01558F448F738F628F378F268F10AEA8
S113245010AA11AA12AA13AA80E090E0AFE7B3E48D
S113246084AB95ABA6ABB7AB84E690E0A0E0B0E05C
S113247084A795A7A6A7B7A76B8D7C8DC4010E94DE
S1132480C911CF88D88CE98CFA8C09811A812B81E7
S11324903C81B301A201C4010E9433100E94071EB3
S11324A0F40104A515A526A537A5DC01CB01801BE5
S11324B0910BA20BB30B80A391A3A2A3B3A30F9080
S11324C00F900F900F90DF91CF911F910F91FF907C
S11324D0EF90DF90CF90BF90AF909F908F907F90C0
S11324E06F905F904F900895CF92DF92EF92FF929A
S11324F0CF93DF93EC010E94071E7E012CE8E20ECD
S1132500F11CFE01B8966E019E01245C3F4FD70179
S11325101D927D0111921192D6016D937D938D933D
S11325209D936D01AF01425B5F4FDA011D921C92D6
S1132530E217F30761F7C655DF4F19821882DF915E
S1132540CF91FF90EF90DF90CF900895FC01E65576
S1132550FF4F208131812A3031056CF4E258F109B2
S113256020E030E081919191892B41F02F5F3F4F22
S11325702A303105B9F78FEF9FEF0895C901089507
S11325804F925F926F927F92AF92BF92CF92DF92FF
S1132590EF92FF920F931F93CF93DF93EC012A01E5
S11325A03B0169010E94A6127C0197FD31C0C11450
S11325B0D10471F15C01AA0CBB1CAA0CBB1CAC0EAF
S11325C0BD1EF50144AE55AE66AE77AEF701EE0F13
S11325D0FF1FEC0FFD1FD1A6C0A6EC59FF4F1183BE
S11325E00083FE01EE0DFF1DE457FF4F81E0808361
S11325F00E94071EF5016083718382839383C6550D
S1132600DF4F88819981019699838883C70102C02D
S11326108FEF9FEFDF91CF911F910F91FF90EF907C
S1132620DF90CF90BF90AF907F906F905F904F906E
S11326300895615F7F4F660F771F660F771F860FC0
S1132640971FFC01208331834283538308950F93A2
S11326501F9300E010E00E94C0121F910F91089593
S1132660CF93DF936A307105BCF5EC01C655DF4F9B
S1132670288139812115310579F1DB01AA0FBB1FAE
S1132680A80FB91F98964D915C919997452B21F10C
S113269099961C921E929897FC01E60FF71FE45737
S11326A0FF4F1082FD01EA56FF4F11821082615FD5
S11326B07F4F660F771F660F771FFC01E60FF71F2A
S11326C01082118212821382A858BF4F1D921C924D
S11326D02150310939832883DF91CF9108952F92B6
S11326E03F924F925F926F927F928F929F92AF929E
S11326F0BF92CF92DF92EF92FF920F931F93CF93EB
S1132700DF9300D000D000D0CDB7DEB79C838B839D
S11327100E94071E6B017C01EB81FC81EC59FF4F89
S11327200B811C81980124573F4FC80188589F4F43
S11327309A8389831E830D8322242394312C13AA24
S113274012AACF01CC97DC018D919C91892BF1F1D8
S1132750AD81BE818D909D90AD90BC901397DC9619
S11327604D915D916D917C91DF9726013701481859
S113277059086A087B08441655066606770630F140
S1132780480D591D6A1D7B1D4D935D936D937C937C
S11327901397D9018C918823C9F040815181411547
S11327A0510519F433AA22AA11C084899589841782
S11327B0950764F433AA22AA0196958B848B841717
S11327C0950724F082E090E093AB82AB3296AD8122
S11327D0BE811496BE83AD832F5F3F4F89819A815A
S11327E0E817F90709F0ABCFE12CF12CF801EA5610
S11327F0FF4F808191818130910571F0029791F4AE
S1132800D8019896ED91FC9199970995B7018B8120
S11328109C810E94301306C0D8019896ED91FC91DA
S113282099970995BFEFEB1AFB0A0E5F1F4F8AE0D9
S1132830E816F104D9F626960FB6F894DEBF0FBE5B
S1132840CDBFDF91CF911F910F91FF90EF90DF905B
S1132850CF90BF90AF909F908F907F906F905F903C
S11328604F903F902F9008950F931F93CF93DF9332
S11328706A30710574F4EB018C010E94071ECC0FC1
S1132880DD1FCC0FDD1FC00FD11F688379838A83BE
S11328909B83DF91CF911F910F9108956A30710549
S11328A03CF4680F791FFB01E457FF4F81E08083FC
S11328B008956A30710534F4680F791FFB01E457F9
S11328C0FF4F108208951092440381E080934203E5
S11328D01092410361E082E10E942C1F61E083E1D8
S11328E00E942C1FE9EBF0E080818E7F8083808141
S11328F08D7F808388E48093B80085E48093BC0056
S113290008950F93413208F04AC090914403911105
S1132910FCCF32E030934403009342033FEF309303
S1132920D70210921C0340931B03562FADE1B3E072
S1132930FB013E2F351B341718F431913D93F9CF29
S11329401092430330914303880F832B80934303F6
S113295080914103813061F41092410380914303DB
S11329608093BB008091BC0083FDF8CF85EC01C04F
S113297085EE8093BC00222321F0809144038230B1
S1132980D1F38091D7028F3F79F08091D7028032C2
S113299041F08091D702803331F094E005C091E09A
S11329A003C092E001C093E0892F0F9108954091F4
S11329B0F902262F30E0240F311D21323105DCF4D9
S11329C0209144032430C9F4FC0180E090E0861790
S11329D058F43091F9022191DC01A550BD4FA30FA9
S11329E0B11D2C930196F3CF8091F902680F609387
S11329F0F90280E0089581E0089582E0089585ED6C
S1132A008093BC008091BC0084FDFCCF10924403F1
S1132A10089585EC8093BC001092440308951F929E
S1132A200F920FB60F9211242F933F934F935F93FE
S1132A306F937F938F939F93AF93BF93EF93FF9382
S1132A408091B900887F803609F49EC078F5883279
S1132A5009F45DC090F4803109F456C038F4882339
S1132A6009F4F5C0883009F44FC0F5C0883109F481
S1132A704EC0803209F45FC0EEC0803409F46AC0ED
S1132A8058F4803309F457C0883309F0E4C08093C4
S1132A90D7020E940915DFC0803509F44FC088357C
S1132AA009F45DC0883409F0D6C0D3C0883909F46C
S1132AB0C4C0A8F4883709F467C038F4883609F428
S1132AC063C0803709F460C0C6C0883809F4B5C053
S1132AD0803909F45FC0803809F0BDC05BC0803B19
S1132AE009F483C038F4803A09F466C0883A09F4DA
S1132AF07CC0B1C0803C09F4A4C0883C09F4A1C0E6
S1132B00883B09F487C0A7C08091430310C090910B
S1132B101C0380911B03981770F5E0911C0381E05E
S1132B208E0F80931C03F0E0E35EFC4F8081809362
S1132B30BB0085EC83C08093D7028BC0E0911C035B
S1132B4081E08E0F80931C038091BB00F0E0E35E74
S1132B50FC4F808390911C0380911B036BC0E09118
S1132B601C0381E08E0F80931C038091BB00F0E076
S1132B70E35EFC4F80838091420381116AC081E04F
S1132B808093410384EA5EC083E0809344031092FF
S1132B90D802CFCF8091D802803208F04EC0E091A5
S1132BA0D80281E08E0F8093D8028091BB00F0E0C0
S1132BB0E752FD4F8083BDCF0E9409158091D80252
S1132BC0803230F4E091D802F0E0E752FD4F1082F9
S1132BD06091D80270E0E0913D03F0913E0389EDED
S1132BE092E009951092D80236C084E080934403A1
S1132BF01092FA021092F902E0913F03F09140031F
S1132C0009958091F902811105C081E08093F90250
S1132C101092FB02E091FA0281E08E0F8093FA0297
S1132C20F0E0E550FD4F80818093BB009091FA0263
S1132C308091F902981708F47CCF85E88093BC0052
S1132C400AC085EC8093BC001092440304C0109227
S1132C50D7020E94FF14FF91EF91BF91AF919F9112
S1132C608F917F916F915F914F913F912F910F9031
S1132C700FBE0F901F9018958091750390E02091DE
S1132C807603821B910908959091760380917503D0
S1132C90981750F4E92FF0E0E958FC4F208130E018
S1132CA09F5F9093760302C02FEF3FEFC901089511
S1132CB0E091760380917503E81730F4F0E0E95869
S1132CC0FC4F808190E008958FEF9FEF0895089561
S1132CD0CF92DF92EF92FF920F931F93CF93DF93E4
S1132CE07C01CB018A0120915103222389F0EB015D
S1132CF06B01C40ED51ECC15DD0569F06991D701B1
S1132D00ED91FC910190F081E02DC7010995F3CF7D
S1132D10642F0E94D714C801DF91CF911F910F91A6
S1132D20FF90EF90DF90CF900895CF93DF931F92A1
S1132D30CDB7DEB76983209151032223D1F02091CE
S1132D405203203240F021E030E0FC01338322833F
S1132D5080E090E015C080915303E82FF0E0EC5A36
S1132D60FC4F998190838F5F809353038093520328
S1132D7005C061E0CE0101960E94D71481E090E085
S1132D800F90DF91CF910895FC011382128288EE97
S1132D9093E0A0E0B0E084839583A683B7838BE0BF
S1132DA092E09183808308951092760310927503C4
S1132DB010925303109252030C94631481E0809395
S1132DC051036093740310925303109252030895B5
S1132DD00F93062F21E04091520364E573E0809144
S1132DE074030E94811410925303109252031092A0
S1132DF051030F91089561E00C94E81685E493E083
S1132E000C94C416DF92EF92FF920F931F93CF930B
S1132E10DF938C01D62EE42EF22E83E090E00E9404
S1132E20041BEC012D2D4E2D6F2D0E94810EF801F7
S1132E30D183C08364EF71E080E090E0DF91CF91B3
S1132E401F910F91FF90EF90DF900C94381EFC01BE
S1132E50808191810C94D50E5058BB27AA270E94DB
S1132E6044170C94BE180E94B01838F00E94B7188A
S1132E7020F039F49F3F19F426F40C94AD180EF4A5
S1132E80E095E7FB0C94A718E92F0E94CF1858F39C
S1132E90BA17620773078407950720F079F4A6F53B
S1132EA00C94F1180EF4E0950B2EBA2FA02D0B0103
S1132EB0B90190010C01CA01A0011124FF27591B7B
S1132EC099F0593F50F4503E68F11A16F040A22F81
S1132ED0232F342F4427585FF3CF469537952795F2
S1132EE0A795F0405395C9F77EF41F16BA0B620BF1
S1132EF0730B840BBAF09150A1F0FF0FBB1F661F38
S1132F00771F881FC2F70EC0BA0F621F731F841F7A
S1132F1048F4879577956795B795F7959E3F08F0A0
S1132F20B0CF9395880F08F09927EE0F9795879562
S1132F3008950E94831808F481E008950E94B2174E
S1132F400C94BE180E94B71858F00E94B01840F0B4
S1132F5029F45F3F29F00C94A71851110C94F2182E
S1132F600C94AD180E94CF1868F39923B1F355233C
S1132F7091F3951B550BBB27AA2762177307840788
S1132F8038F09F5F5F4F220F331F441FAA1FA9F31E
S1132F9035D00E2E3AF0E0E832D091505040E6950C
S1132FA0001CCAF72BD0FE2F29D0660F771F881F6D
S1132FB0BB1F261737074807AB07B0E809F0BB0B60
S1132FC0802DBF01FF2793585F4F3AF09E3F510574
S1132FD078F00C94A7180C94F2185F3FE4F3983E31
S1132FE0D4F3869577956795B795F7959F5FC9F75D
S1132FF0880F911D9695879597F90895E1E0660FDE
S1133000771F881FBB1F621773078407BA0720F056
S1133010621B730B840BBA0BEE1F88F7E0950895BF
S11330200E9417186894B1110C94F21808950E9424
S1133030D71888F09F5798F0B92F9927B751B0F057
S1133040E1F0660F771F881F991F1AF0BA95C9F728
S113305014C0B13091F00E94F118B1E008950C94BD
S1133060F118672F782F8827B85F39F0B93FCCF370
S1133070869577956795B395D9F73EF490958095A5
S1133080709561957F4F8F4F9F4F0895E89409C0C5
S113309097FB3EF490958095709561957F4F8F4F87
S11330A09F4F9923A9F0F92F96E9BB279395F6959D
S11330B0879577956795B795F111F8CFFAF4BB0F1B
S11330C011F460FF1BC06F5F7F4F8F4F9F4F16C07F
S11330D0882311F096E911C0772321F09EE8872F09
S11330E0762F05C0662371F096E8862F70E060E0C5
S11330F02AF09A95660F771F881FDAF7880F96953E
S1133100879597F90895990F0008550FAA0BE0E8E1
S1133110FEEF16161706E807F907C0F01216130695
S1133120E407F50798F0621B730B840B950B39F4D5
S11331300A2661F0232B242B252B21F408950A263B
S113314009F4A140A6958FEF811D811D089597F97B
S11331509F6780E870E060E008959FEF80EC089539
S113316000240A9416161706180609060895002462
S11331700A9412161306140605060895092E0394DC
S1133180000C11F4882352F0BB0F40F4BF2B11F450
S113319060FF04C06F5F7F4F8F4F9F4F089557FDAF
S11331A09058440F551F59F05F3F71F04795880FB1
S11331B097FB991F61F09F3F79F087950895121648
S11331C013061406551FF2CF4695F1DF08C01616F4
S11331D017061806991FF1CF8695710561050894A5
S11331E00895E894BB2766277727CB0197F90895BC
S11331F00E94831808F48FEF08950E9410190C940C
S1133200BE180E94B01838F00E94B71820F0952319
S113321011F00C94A7180C94AD1811240C94F21806
S11332200E94CF1870F3959FC1F3950F50E0551F7E
S1133230629FF001729FBB27F00DB11D639FAA2707
S1133240F00DB11DAA1F649F6627B00DA11D661F56
S1133250829F2227B00DA11D621F739FB00DA11D77
S1133260621F839FA00D611D221F749F3327A00D31
S1133270611D231F849F600D211D822F762F6A2FCD
S113328011249F5750409AF0F1F088234AF0EE0F32
S1133290FF1FBB1F661F771F881F91505040A9F75F
S11332A09E3F510580F00C94A7180C94F2185F3FD0
S11332B0E4F3983ED4F3869577956795B795F7959B
S11332C0E7959F5FC1F7FE2B880F911D9695879513
S11332D097F90895FC0124853585F901E05CFF4FD9
S11332E080819181329620813181821B930B8F736F
S11332F099270895DC011C96ED91FC911D97DF013F
S1133300A05CBF4F2D913C91119712968D919C9189
S113331011972817390739F08D919C91E80FF91FFF
S1133320808190E008958FEF9FEF0895FC01A485BC
S1133330B585FD01E05CFF4F2081318132968081AB
S113334091812817390779F080819181A80FB91FDD
S11333508C91208131812F5F3F4F2F73332731832D
S1133360208390E008958FEF9FEF0895FC0181A1E1
S1133370882329F0A489B5898C9186FFFBCF11A2FB
S113338008950F931F93CF93DF93FC01A685B78510
S11333908D01005C1F4FE8018881998101968F732C
S11333A09927AD014E5B5F4FEA01288139812817C7
S11333B03907D1F3E80128813981A20FB31F6C9337
S11333C0A685B785A05CBF4F11969C938E93A68962
S11333D0B7892C9181E090E0078C02C0880F991F77
S11333E00A94E2F7822B8C9381E081A30488F58907
S11333F0E02D80818064808381E090E0DF91CF9133
S11334001F910F91089508951F920F920FB60F9276
S113341011242F934F935F938F939F93EF93FF9375
S11334208091C00082FD1CC02091C60080913D04A3
S113343090913E0440913F045091400401968F7353
S113344099274817590771F0E0913D04F0913E0423
S1133450E350FC4F208390933E0480933D0402C0CC
S11334608091C600FF91EF919F918F915F914F9151
S11334702F910F900FBE0F901F90189587E993E03E
S11334800E946A19892B11F00C94031A08951F9253
S11334900F920FB60F9211242F933F938F939F9304
S11334A0EF93FF932091F9033091FA038091FB038A
S11334B09091FC032817390731F48091C1008F7D66
S11334C08093C10014C0E091FB03F091FC03E75426
S11334D0FC4F20818091FB039091FC0301968F7334
S11334E099279093FC038093FB032093C600FF91DC
S11334F0EF919F918F913F912F910F900FBE0F905D
S11335001F901895E7E9F3E01382128288EE93E0A6
S1133510A0E0B0E084839583A683B7838BE192E037
S1133520918380838DEF93E09587848789EB93E083
S11335309787868785EC90E0918B808B84EC90E074
S1133540938B828B80EC90E0958B848B81EC90E064
S1133550978B868B82EC90E0918F808F86EC90E045
S1133560938F828F84E0848F83E0858F87E0868FBA
S113357085E0878F81E080A308951F93CF93DF9325
S1133580C2EFD0E0888184608EBB10E818838EB3CC
S1133590888364E170E080E090E00E94381E8881B6
S11335A08F7980628EBB18838EB38883E1E6F0E066
S11335B010831082DF91CF911F9108958091CD00E7
S11335C08ABD8091CE008BBD90E896BF80E486BF13
S11335D0809162008C708C3011F40C94BD1A90931D
S11335E0610081E08093610008950E94DE1A0E94C8
S11335F0681E0E94D909CEE3DAE10E94750720977C
S1133600E1F30E943E1AF9CF0C9447200C94472012
S11336100C94DF20CF92DF92EF92FF920F931F93CF
S1133620CF93DF936C01EB017B01E40EF51E00E008
S113363010E0CE15DF0561F06991D601ED91FC91A2
S11336400190F081E02DC6010995080F191FF1CFF3
S1133650C801DF91CF911F910F91FF90EF90DF9000
S1133660CF9008956115710579F0FB010190002058
S1133670E9F73197AF01461B570BDC01ED91FC9143
S11336800280F381E02D099480E090E00895AF92E8
S1133690BF92CF92DF92EF92FF920F931F93CF933B
S11336A0DF937C016B01C0E0D0E000E010E0D601C4
S11336B014968D919C911597C817D90788F4D70152
S11336C0ED91FC91A080B180BE01C6010E9436201C
S11336D0682FC701F5010995080F191F2196E7CF37
S11336E0C801DF91CF911F910F91FF90EF90DF9070
S11336F0CF90BF90AF9008950C94321BDC01ED91F4
S1133700FC910190F081E02D09940F931F93CF93C6
S1133710DF93EC016DE00E947E1B8C016AE0CE0118
S11337200E947E1B800F911FDF91CF911F910F91FB
S113373008958F929F92AF92BF92CF92DF92EF92B1
S1133740FF920F931F93CF93DF93CDB7DEB7A1976B
S11337500FB6F894DEBF0FBECDBF6C01142FE52F5A
S1133760CB01022F19A2223008F40AE07E0121E2E3
S1133770E20EF11C802E912CA12CB12C612F7E2FF6
S1133780A50194010E945222029F1019112481E084
S1133790E81AF1081A3010F4105D01C0195CF70141
S11337A01083122FE32FCA01232B242B252B31F74F
S11337B0B701C6010E94321BA1960FB6F894DEBF72
S11337C00FBECDBFDF91CF911F910F91FF90EF906E
S11337D0DF90CF90BF90AF909F908F900895211568
S11337E0310541F4DC01ED91FC910190F081E02D73
S11337F0642F09940C94991B9A01462F50E060E0C1
S113380070E00C94EF1B0F931F93CF93DF93EC01A5
S11338100E94FC1B8C01CE010E94851B800F911F0E
S1133820DF91CF911F910F910895CF92DF92EF9284
S1133830FF920F931F93CF93DF932115310581F4EA
S1133840DC01ED91FC910190F081E02D642FDF917A
S1133850CF911F910F91FF90EF90DF90CF9009943B
S11338602A30310501F577FF1DC06A017B01EC01A7
S11338706DE20E947E1B8C0144275527BA014C1926
S11338805D096E097F092AE0CE010E94991B800F11
S1133890911FDF91CF911F910F91FF90EF90DF90D7
S11338A0CF9008952AE0DF91CF911F910F91FF905F
S11338B0EF90DF90CF900C94991B9A01AB01770F96
S11338C0660B770B0C94151C7F928F929F92AF928C
S11338D0BF92CF92DF92EF92FF920F931F93CF93F9
S11338E0DF938C016A017B01722E9A01AB01C7013F
S11338F0B6010E944D22882319F067E272E027C0C6
S113390046015701E894B7F82FEF3FEF4FE75FE721
S1133910C501B4010E944D2281110DC02FEF3FEF6C
S11339204FE75FE7C501B4010E94991718161CF40C
S11339306BE272E00CC02FEF3FEF4FE75FE4C7018B
S1133940B6010E94F818181694F46FE272E0C801E8
S1133950DF91CF911F910F91FF90EF90DF90CF9067
S1133960BF90AF909F908F907F900C94321B2FEF5D
S11339703FEF4FE75FECC701B6010E94991787FD3F
S1133980E4CF20E030E0A901C701B6010E949917F5
S113399087FF0AC06DE2C8010E947E1BEC01F7FAA2
S11339A0F094F7F8F09402C0C0E0D0E0B12C60E0ED
S11339B070E080E09FE37B1441F020E030E040E2DF
S11339C051E40E949E17B394F6CFA70196010E947A
S11339D02D176B017C010E9417184B015C012AE032
S11339E0AB01BC01C8010E94991BC80FD91F7720E5
S11339F0C9F1C501B4010E9446189B01AC01C7017D
S1133A00B6010E942C176B017C0163E372E0C801CC
S1133A100E94321BC80FD91F20E030E040E251E47D
S1133A20C701B6010E94FD184B015C010E941018E9
S1133A306B017C014AE050E0C8010E945D1CC80F84
S1133A40D91FB601DD0C880B990B0E9448189B0105
S1133A50AC01C501B4010E942C176B017C017A945E
S1133A607110DACFCE01DF91CF911F910F91FF90AA
S1133A70EF90DF90CF90BF90AF909F908F907F900A
S1133A8008950C94641C8230E8F4E82FF0E0EE0F03
S1133A90FF1FEF5BFB4F71836083813041F08091A6
S1133AA069008C7F482B40936900E89A08958091BF
S1133AB06900837F440F551F440F551F482B4093C3
S1133AC06900E99A08951F920F920FB60F9211247C
S1133AD02F933F934F935F936F937F938F939F9312
S1133AE0AF93BF93EF93FF9380914104909142046D
S1133AF0892B29F0E0914104F09142040995FF914A
S1133B00EF91BF91AF919F918F917F916F915F9151
S1133B104F913F912F910F900FBE0F901F901895CA
S1133B201F920F920FB60F9211242F933F934F932E
S1133B305F936F937F938F939F93AF93BF93EF9311
S1133B40FF938091430490914404892B29F0E091E0
S1133B504304F09144040995FF91EF91BF91AF9113
S1133B609F918F917F916F915F914F913F912F9191
S1133B700F900FBE0F901F9018951F920F920FB6C3
S1133B800F9211242F933F938F939F93AF93BF93DF
S1133B908091460490914704A0914804B09149044F
S1133BA03091450423E0230F2D3720F40196A11D05
S1133BB0B11D05C026E8230F0296A11DB11D209357
S1133BC045048093460490934704A0934804B0931B
S1133BD0490480914A0490914B04A0914C04B09103
S1133BE04D040196A11DB11D80934A0490934B048A
S1133BF0A0934C04B0934D04BF91AF919F918F91CA
S1133C003F912F910F900FBE0F901F9018952FB7D3
S1133C10F89460914604709147048091480490910F
S1133C2049042FBF08953FB7F89480914A049091B6
S1133C304B04A0914C04B0914D0426B5A89B05C03B
S1133C402F3F19F00196A11DB11D3FBFBA2FA92F17
S1133C50982F8827820F911DA11DB11DBC01CD0194
S1133C6042E0660F771F881F991F4A95D1F7089580
S1133C70CF92DF92EF92FF92CF93DF936B017C019F
S1133C800E94131EEB01C114D104E104F10479F084
S1133C900E94131E6C1B7D0B683E7340A0F381E0F1
S1133CA0C81AD108E108F108C851DC4FECCFDF9104
S1133CB0CF91FF90EF90DF90CF900895019739F066
S1133CC0880F991F880F991F02970197F1F708959C
S1133CD0789484B5826084BD84B5816084BD85B5E3
S1133CE0826085BD85B5816085BDEEE6F0E08081AA
S1133CF081608083E1E8F0E01082808182608083CB
S1133D00808181608083E0E8F0E08081816080834D
S1133D10E1EBF0E0808184608083E0EBF0E080817F
S1133D2081608083EAE7F0E0808184608083808121
S1133D308260808380818E7F80838081806880839D
S1133D401092C1000895833081F028F4813099F0F5
S1133D508230A1F008958630A9F08730B9F084301C
S1133D60D1F4809180008F7D03C0809180008F7793
S1133D7080938000089584B58F7702C084B58F7DC9
S1133D8084BD08958091B0008F7703C08091B00006
S1133D908F7D8093B0000895CF93DF93282F30E078
S1133DA0F901E158FF4F9491F901E656FF4F249130
S1133DB06330E9F4843071F43091F00038603EBB34
S1133DC030E83093F0003EB33093F00030B7306405
S1133DD030BF0DC0863159F43091F00030613EBBE4
S1133DE030E83093F0003EB33093F0007E9A222303
S1133DF081F130E0220F331FF901E353FF4FA59106
S1133E00B491F901EF53FF4FC591D491611109C0E9
S1133E102FB7F8948C91909589238C93E8819E23F5
S1133E200BC0623061F42FB7F8948C91392F309520
S1133E3083238C93E8819E2B98832FBF0AC0843000
S1133E4041F0863131F08FB7F894EC919E2B9C931E
S1133E508FBFDF91CF9108951F93CF93DF93282FC6
S1133E6030E0F901E859FF4F8491F901E158FF4F1F
S1133E70D491F901E656FF4FC491CC23C1F0162F1B
S1133E8081110E94A31EEC2FF0E0EE0FFF1FEF53F1
S1133E90FF4FA591B4919FB7F894111104C08C9170
S1133EA0D095D82302C0EC91DE2BDC939FBFDF9129
S1133EB0CF911F910895CF93DF93282F30E0F9011C
S1133EC0E859FF4F8491F901E158FF4FD491F9016A
S1133ED0E656FF4FC491CC2391F081110E94A31E9A
S1133EE0EC2FF0E0EE0FFF1FEB54FF4FA591B491C0
S1133EF0EC91ED2381E090E021F480E002C080E0C9
S1133F0090E0DF91CF910895FC01808191810C9420
S1133F10DF20CF93DF93EC0188819981009711F022
S1133F200E94DF20198218821D821C821B821A8241
S1133F30DF91CF9108950F931F93CF93DF93EC01FB
S1133F408B016F5F7F4F888199810E946821009760
S1133F5031F0998388831B830A8381E001C080E068
S1133F60DF91CF911F910F910895CF93DF93EC01CF
S1133F7088819981892B29F08A819B8186179707EB
S1133F8060F4CE010E949B1F882341F08C819D81A7
S1133F90892B19F4E881F981108281E0DF91CF91B6
S1133FA00895EF92FF920F931F93CF93DF93EC0149
S1133FB07B018A01BA010E94B51F811104C0CE01A0
S1133FC00E94891F07C01D830C83B70188819981D2
S1133FD00E949D22CE01DF91CF911F910F91FF90FE
S1133FE0EF900895CF93DF93EC016115710559F0BB
S1133FF0FB0101900020E9F73197AF01461B570BF5
S11340000E94D11F02C00E94891FCE01DF91CF916F
S113401008950F931F93CF93DF93CDB7DEB76297C5
S11340200FB6F894DEBF0FBECDBF8C01CB01F801F3
S1134030118210821382128215821482168250E039
S1134040BE016F5F7F4F0E94A422BE016F5F7F4F4E
S1134050C8010E94F21F62960FB6F894DEBF0FBE2D
S1134060CDBFDF91CF911F910F910895FC01248161
S113407035816217730748F480819181009729F094
S1134080FC01E60FF71F8081089580E008950F93E7
S11340901F93CF93DF938230910510F482E090E078
S11340A0E0915004F091510420E030E0A0E0B0E051
S11340B0309719F1408151810281138148175907C2
S11340C0C8F08417950769F4109731F012960C9391
S11340D0129713961C9327C0009350041093510415
S11340E022C02115310519F04217530718F49A011B
S11340F0BD01EF01DF01F801DBCF21153105F9F036
S1134100281B390B2430310580F48A819B81611589
S1134110710521F0FB019383828304C090935104C1
S113412080935004FE01329644C0FE01E20FF31F57
S11341308193919322503109398328833AC0209185
S11341404E0430914F04232B41F420910901309106
S11341500A0130934F0420934E04209107013091BB
S113416008012115310541F42DB73EB740910B01EB
S113417050910C01241B350BE0914E04F0914F0437
S1134180E217F307A0F42E1B3F0B2817390778F02A
S1134190AC014E5F5F4F2417350748F04E0F5F1F89
S11341A050934F0440934E048193919302C0E0E0F6
S11341B0F0E0CF01DF91CF911F910F910895CF933C
S11341C0DF93009709F481C0FC01329713821282B5
S11341D0A0915004B0915104109781F42081318151
S11341E0820F931F20914E0430914F0428173907F2
S11341F051F5F0934F04E0934E0467C0ED0120E0C5
S113420030E0CE17DF0740F44A815B819E014115FF
S11342105105F1F0EA01F5CFD383C2834081518186
S1134220840F951FC817D90759F488819981840F81
S1134230951F0296918380838A819B8193838283D5
S11342402115310529F4F0935104E09350043DC045
S1134250E901FB83EA8349915991C40FD51FEC17F7
S1134260FD0761F480819181840F951F0296E90115
S113427099838883828193819B838A83E0E0F0E041
S113428012968D919C911397009719F0FD01DC0112
S1134290F7CF8D919C9111979D012E5F3F4F820F17
S11342A0931F20914E0430914F042817390769F465
S11342B0309729F4109251041092500402C01382D2
S11342C01282B0934F04A0934E04DF91CF910895CE
S11342D06F927F928F929F92AF92BF92CF92DF9212
S11342E0EF92FF920F931F93CF93DF93009789F47C
S11342F0CB01DF91CF911F910F91FF90EF90DF9051
S1134300CF90BF90AF909F908F907F906F900C94C0
S11343104720FC01E60FF71F9C0122503109E217E8
S1134320F30708F4A9C0EC01D9010D911C91119770
S113433006171707B0F00530110508F49BC0C80133
S113434004978617970708F495C002501109061BB5
S1134350170B019311936D937C93CF010E94DF207F
S113436089C05B01A01AB10A4C01800E911EA09174
S11343705004B0915104612C712CE12CF12C109754
S113438009F446C08D919C911197A815B905B1F512
S11343906C0142E0C40ED11CCA14DB0478F14C0158
S11343A08A189B08640142E0C40ED11C1296BC908A
S11343B012971396AC91B5E0CB16D10440F0B282BB
S11343C0A38391828082D9016D937C9309C00E5F8F
S11343D01F4F800F911FF90191838083EB2DFA2FDA
S11343E0E114F10431F0D7011396FC93EE93129784
S11343F041C0F0935104E09350043CC06816790620
S113440008F43C017D0112960D90BC91A02DB7CF0C
S113441080914E0490914F0488169906E1F4661633
S11344207706C8F48091070190910801009741F440
S11344308DB79EB740910B0150910C01841B950BD5
S1134440E817F907C8F4F0934F04E0934E04F90118
S1134450718360830FC0CB010E9447207C010097C9
S113446059F0A801BE010E949422CE010E94DF20CF
S1134470C70104C0CE0102C080E090E0DF91CF917B
S11344801F910F91FF90EF90DF90CF90BF90AF906E
S11344909F908F907F906F9008950E948318880B4F
S11344A0990B0895A1E21A2EAA1BBB1BFD010DC096
S11344B0AA1FBB1FEE1FFF1FA217B307E407F507D0
S11344C020F0A21BB30BE40BF50B661F771F881FAC
S11344D0991F1A9469F760957095809590959B0142
S11344E0AC01BD01CF0108950E948522A59F900DC6
S11344F0B49F900DA49F800D911D11240895EE0F7B
S1134500FF1F0590F491E02D0994A29FB001B39F81
S1134510C001A39F700D811D1124911DB29F700DC8
S1134520811D1124911D0895FB01DC0102C001903D
S11345300D9241505040D8F70895FB01DC010190E1
S11345400D920020E1F708954532510520F44230E0
S113455010F00C94AF22FB011082CB010895BB270D
S11345604A3031F4992322F4BDE2909581959F4F0E
S11345700C94BB22BB27FB015527AA27880F991F40
S1134580AA1FA41710F0A41B83955051B9F7A05D7E
S1134590AA3308F0A95DA193009779F7B111B193FB
S11345A01192CB010C94D422DC01FC01672F719190
S11345B07723E1F7329704C07C916D937083629105
S10F45C0AE17BF07C8F30895F894FFCFAE
S11345CC01010101010101000052048000000040BE
S11345DC0014005400553A00443A004320002020B3
S11345EC200043002500577269746520616464726D
S11345FC6573733A20002076616C3A200000000049
S113460C007B038B038A038A037C03840380038A61
S113461C03545255450046414C53450000000000DC
S113462C9903B9039A03A903B003BB03B403B803F6
S113463C00000000F6034404F70319043B04460489
S113464C3F044304000000007F04D20480049D0452
S113465CBA04D404CA04CE04424F54544F4D2048D7
S113466C45415445523A00534F554E4420534554FA
S113467C54494E473A005345542054454D50205507
S113468C50005345542054454D5020444F574E0030
S113469C3C3C5354415254003C3C53544F50003C0A
S11346AC3C4558495400434C49434B2042454550E2
S11346BC0054454D5020534554204245455000006C
S11346CC000000220E0A1B00000000951668163C20
S11346DC1644165816671600000000C1190A1B6A06
S11346EC1996197A19B6196E616E00696E66006FA7
S10946FC7666002E0000AA
S9030000FC
