S0150000426F74746F6D5F6865617465722E73726563C2
S11300000C9464000C943E1B0C94651B0C948C00A3
S11300100C948C000C948C000C948C000C94A90B04
S11300200C948C000C948C000C948C000C948C001C
S11300300C948C000C948C000C948C000C948C000C
S11300400C948C1B0C948C000C94E9180C941B19C4
S11300500C948C000C948C000C948C000C948C00EC
S11300600C9454130C948C0000000008000201004E
S1130070000304070000000000000000010204085F
S113008010204080010204081020010204081020FE
S1130090040404040404040402020202020203032A
S11300A003030303000000002300260029000000CE
S11300B00000250028002B00000000002400270079
S11300C02A00350C43154B1911241FBECFEFD8E07D
S11300D0DEBFCDBF12E0A0E0B1E0E8E4F2E402C08C
S11300E005900D92AA32B107D9F724E0AAE2B2E052
S11300F001C01D92AE32B207E1F710E0C4E6D0E0D1
S113010004C02197FE010E94891EC136D107C9F798
S11301100E9479190C9422210C94000060912A0207
S113012070912B0280912C0290912D020E949E12BC
S113013060E070E080912E020C94891C1F93CF9391
S1130140DF93162F60932E0270932F028CEA90E0B7
S11301500E948819EC010E94B910D0932D02C0931B
S11301602C022EE830E040E050E0BA01CE010E94BB
S11301706C1190932B0280932A02BC0180912C0273
S113018090912D020E949E1261E0812FDF91CF9108
S11301901F910C94111D80912C0290912D020C94AE
S11301A0B411CF92DF92EF92FF926A017B016091CA
S11301B02A0270912B0280912C0290912D020E94B0
S11301C0931260912A0270912B02A70196018091EB
S11301D02C0290912D020E945E1160912A0270916E
S11301E02B0280912C0290912D020E9479126FE7CC
S11301F070E080912E02FF90EF90DF90CF900C94EE
S1130200891C8091380290913902019690933902A9
S113021080933802E0913002F09131026081718163
S11302206817790734F480913202909133020E9466
S1130230C601E0913002F0913102628173818091B4
S1130240380290913902681779073CF480913202A0
S11302509091330202960C94C601089510923902CB
S11302601092380260913602709137028091340204
S1130270909135020E949E1260E070E080913202FB
S1130280909133020E94C601809132029091330210
S113029060E070E002960E94C60142E050E064E52E
S11302A071E080E00C941E1B109239021092380207
S11302B06091360270913702809134029091350238
S11302C00E94931260913602709137028091340239
S11302D0909135020E94791243E050E06EE271E0A1
S11302E080E00C941E1BCF93DF93FC01862F509368
S11302F03302409332023093310220933002608300
S1130300718360E00E94111D42E050E064E571E0F9
S113031080E00E941E1B8CEA90E00E948819EC0188
S11303200E94B910D0933502C093340221E031E029
S113033048E250E060E070E0CE010E946C119093BE
S1130340370280933602BC018091340290913502C9
S1130350DF91CF910C949E1270933102609330021E
S1130360089580913402909135020C94B411CF9386
S1130370DF93EC01862F6883798361E00E94111D6D
S113038060E08881DF91CF910C944D1D6095FC0154
S113039080810C944D1D0895FC0171836083089540
S11303A08F929F92AF92BF92CF92DF92EF92FF9281
S11303B00F931F93CF93DF93CDB7DEB762970FB63A
S11303C0F894DEBF0FBECDBF7C016B014A01590119
S11303D0462F60E0FC01808191810E94B10CC11420
S11303E0D10419F06BE171E002C068E171E0F7013A
S11303F0808191810E94DB194AE0B401CE010D96FF
S11304000E942A1E898965E0681B4C2DF7018081B2
S113041091810E94B10CBE01635F7F4FF70180811F
S113042091810E94CD194C2D65E0F7018081918165
S11304300E94B10C6EE171E0F701808191810E940C
S1130440DB194C2D67E0F701808191810E94B10C8A
S113045061E271E0F701808191810E94DB194AE039
S1130460B501CE0107960E942A1E8B856AE0681B9F
S11304704C2DF701808191810E94B10CBE01695F0E
S11304807F4FF701808191810E94CD194C2D6AE044
S1130490F701808191810E94B10C65E271E0F7015E
S11304A0808191810E94DB194C2D6CE0F7018081E1
S11304B091810E94B10C61E271E0F7018081918128
S11304C00E94DB194AE0B801CE0101960E942A1E5F
S11304D08D816FE0681B4C2DF701808191810E9412
S11304E0B10CBE016F5F7F4FF701808191810E9443
S11304F0CD194C2D6FE0F701808191810E94B10CE0
S113050067E271E0F701808191810E94DB19CE01DD
S113051001960E94A51DCE0107960E94A51DCE013D
S11305200D960E94A51D62960FB6F894DEBF0FBE0D
S1130530CDBFDF91CF911F910F91FF90EF90DF908E
S1130540CF90BF90AF909F908F9008950895CB0166
S11305500C94D520CB01642F0C94DD201F93CF93F2
S1130560DF93EB01CB010E94D520182FCE01019619
S11305700E94D520982F812FDF91CF911F9108954C
S11305801F93CF93DF93EB01152F642FCE010E94AD
S1130590DD20612FCE010196DF91CF911F910C9444
S11305A0DD20FC01718360830895DC018D919C91B1
S11305B0DC01ED91FC910480F581E02D0994DC01CE
S11305C08D919C91DC01ED91FC910680F781E02DE9
S11305D00994DC018D919C91DC01ED91FC910284E4
S11305E0F385E02D0994CF93DF93EC018881998101
S11305F0DC01ED91FC910084F185E02D099599834E
S11306008883CE01DF91CF910C94E902DC018D91B6
S11306109C91DC01ED91FC910684F785E02D099411
S11306200895FC01848195810895FC018281938160
S11306300895DC011696ED91FC911797099408959D
S11306400C948C19FC018DE291E091838083738377
S11306506283558344833783268308950895DC0198
S11306601496ED91FC911597308121E02327208386
S1130670ED91FC910284F385E02D0994DC01ED9168
S1130680FC910480F581E02D0994FC018681978119
S11306900895FC0182819381089508950C948C1926
S11306A0CF93DF93EC01888599850E94A30C40E0E9
S11306B060E0888599850E94B10C6A817B81888578
S11306C099850E94DB1941E060E0888599850E9444
S11306D0B10CEC81FD818081811103C062E471E081
S11306E002C06DE371E088859985DF91CF910C9408
S11306F0DB190F931F93FC018CE491E091838083B9
S113070073836283558344833783268311870087E9
S11307101F910F91089508950F931F93CF93DF9323
S1130720EC010C811D8120E030E040E85FE3F8013A
S113073060817181828193810E947215F8016083C6
S1130740718382839383E881F9810284F385E02DA8
S1130750CE01DF91CF911F910F9109940F931F93B5
S1130760CF93DF93EC010C811D8120E030E040E861
S11307705FE3F80160817181828193810E94711528
S1130780F8016083718382839383E881F981028411
S1130790F385E02DCE01DF91CF911F910F91099444
S11307A0FC01868197810895FC01828193810895DB
S11307B008950C948C19CF93DF93EC018885998567
S11307C00E94A30C40E060E0888599850E94B10CEA
S11307D06A817B81888599850E94DB1941E060E00C
S11307E0888599850E94B10CEC81FD8140815181FD
S11307F06281738122E030E088859985DF91CF9111
S11308000C941B1B0F931F93FC0180E691E09183D2
S1130810808373836283558344833783268311875C
S113082000871F910F9108950895DC0118968D910A
S11308309C911997019719969C938E93189797FFFB
S113084009C01A968D919C911B97019719969C93B8
S11308508E931897ED91FC9111970284F385E02D06
S1130860CD010994DC0118968D919C9119970196FC
S113087019969C938E9318971A962D913C911B97D9
S11308808217930724F019961C921E921897ED91E3
S1130890FC9111970284F385E02DCD010994DC01CC
S11308A01896ED91FC911997EE0FFF1F14968D91F8
S11308B09C911597E80FF91F808191810895FC019F
S11308C0828193810895FC011186108608950C9409
S11308D08C19CF93DF93EC018E819F810E94A30C2E
S11308E040E060E08E819F810E94B10C6A817B812F
S11308F08E819F810E94DB1941E060E08E819F819F
S11309000E94B10CE885F985EE0FFF1F8C819D8153
S1130910E80FF91F80819181DC01ED91FC91048441
S1130920F585E02D0995BC018E819F81DF91CF91E2
S11309300C94DB190F931F93FC0184E791E09183DE
S11309408083738362835583448317830683338749
S11309502287118610861F910F9108958091690254
S113096090916A020E94F30280915B0290915C0272
S1130970DC01ED91FC910684F785E02D0994CF927A
S1130980DF92EF92FF9260913D0270913E0280915E
S11309906702909168020E94791280914202882332
S11309A009F490C080910A01882309F48BC0209136
S11309B05302309154024091550250915602609175
S11309C04B0270914C0280914D0290914E020E9414
S11309D071156B017C0120E030E0A9010E943D17F4
S11309E018165CF420E030E040E050E4C701B601A2
S11309F00E94DE1587FF58C00BC020E030E040E0C5
S1130A0050ECC701B6010E943D1718160CF04CC0FB
S1130A10C0904302D0904402E0904502F090460218
S1130A2020E030E0A901C701B6010E943D17181665
S1130A30DCF520E030E04FE753E4C701B6010E9443
S1130A40DE1587FF31C060913F0270914002072E8E
S1130A50000C880B990B0E948D16A70196010E9429
S1130A6071156B017C0120E030E0A9010E943D1763
S1130A7018165CF420E030E040EA50E4C701B60107
S1130A800E94DE1587FF10C00AC020E030E040EA73
S1130A9050ECC701B6010E943D1718162CF41092B1
S1130AA00A0181E080934102609143027091440203
S1130AB080914502909146020E945516709340021F
S1130AC060933F02FF90EF90DF90CF900895809164
S1130AD00601882309F459C080910B01811155C086
S1130AE080914202882309F450C08091090188232F
S1130AF021F120914F0230915002409151025091C6
S1130B00520260915702709158028091590290915B
S1130B105A020E943D1787FD10C08091410288232C
S1130B2061F048EC50E060E070E0809163029091E5
S1130B3064020E94D1001092090180910801882367
S1130B4021F120914B0230914C0240914D02509181
S1130B504E0260915302709154028091550290911B
S1130B6056020E943D1787FD10C080910A01882318
S1130B7061F048EC50E060E070E080916302909195
S1130B8064020E94D100109208010895CF93DF936C
S1130B9000D000D0CDB7DEB780914202882369F13E
S1130BA080914102882331F0809171029091720208
S1130BB00E94D60D80910A01882331F080916F0242
S1130BC0909170020E94D60D609147027091480284
S1130BD08091490290914A020E9455167A83698352
S1130BE060914302709144028091450290914602C3
S1130BF00E9455167C836B8304C01A8219821C825E
S1130C001B82BE016F5F7F4F8091770290917802C3
S1130C100E94AC010F900F900F900F90DF91CF9135
S1130C2008958F929F92AF92BF92CF92DF92EF92EC
S1130C30FF920F931F9380910B01811172C020E0EA
S1130C4030E04FE753E4609147027091480280918D
S1130C50490290914A020E94E31520E030E048ECFA
S1130C6052E40E9442170E9455164B015C016091A8
S1130C705702709158028091590290915A020E9431
S1130C8055166B017C0160914F0270915002809166
S1130C905102909152020E94551684019601AB01B3
S1130CA060E070E080917302909174020E94D00120
S1130CB020E030E04FE753E4609143027091440236
S1130CC080914502909146020E94E31520E030E0B5
S1130CD048EC52E40E9442170E9455164B015C01F5
S1130CE06091530270915402809155029091560282
S1130CF00E9455166B017C0160914B0270914C026D
S1130D0080914D0290914E020E94551684019601E5
S1130D10AB0161E070E080917302909174020E94D3
S1130D20D0011F910F91FF90EF90DF90CF90BF9073
S1130D30AF909F908F90089560913B0270913C0218
S1130D4080916702909168020E94791280917502E5
S1130D50909176020E946C15609353027093540232
S1130D6080935502909356021092570210925802A3
S1130D701092590210925A020E9467050C941106AF
S1130D8080916D0290916E020E940D0B90910B0167
S1130D909923A9F0082E000C990B8F3F2FEF92078F
S1130DA031F48091690290916A020C94D502019702
S1130DB031F48091690290916A020C94DF020895E3
S1130DC060E070E080916502909166020E94AE023C
S1130DD0BC01990F880B990B0E948D1660934F02EA
S1130DE070935002809351029093520262E070E03B
S1130DF080916502909166020E94AE02BC01990F37
S1130E00880B990B0E948D1660934B0270934C02D1
S1130E1080934D0290934E0264E070E080916502ED
S1130E20909166020E94A70291E0811101C090E0B6
S1130E309093070165E070E08091650290916602ED
S1130E400E94A70291E0811101C090E090930601F5
S1130E5008958F929F92AF92BF92EF92FF920F9359
S1130E601F93CF93DF9360E070E0809165029091CF
S1130E7066020E94AE028C0162E070E0809165021D
S1130E80909166020E94AE02EC0164E070E08091F1
S1130E906502909166020E94A702EE24E3948111F8
S1130EA001C0E12C65E070E08091650290916602DA
S1130EB00E94A702FF24F394811101C0F12C8090B9
S1130EC04F0290905002A0905102B0905202B8018B
S1130ED0110F880B990B0E948D16A50194010E9495
S1130EE0DE15882369F0C501B4010E945516AB01D3
S1130EF060E070E080916502909166020E94C002F9
S1130F0080904B0290904C02A0904D02B0904E0203
S1130F10BE01DD0F880B990B0E948D16A50194016B
S1130F200E94DE15882369F0C501B4010E9455169C
S1130F30AB0162E070E080916502909166020E94CC
S1130F40C00240910701E41641F064E070E0809132
S1130F506502909166020E94AA0240910601F4166D
S1130F6091F065E070E08091650290916602DF91F6
S1130F70CF911F910F91FF90EF90BF90AF909F90F2
S1130F808F900C94AA02DF91CF911F910F91FF9043
S1130F90EF90BF90AF909F908F90089510920B01A7
S1130FA081E0809308018093090180916902909106
S1130FB06A020E94F3028091690290916A020E947F
S1130FC006030E94290780916B0290916C020C9495
S1130FD0A30C109242021092410210920A01109244
S1130FE04702109248021092490210924A0210924B
S1130FF043021092440210924502109246020C944D
S1131000CE0781E0809342021092410280930A014C
S113101010924702109248021092490210924A021A
S1131020109243021092440210924502109246021A
S11310300C94CE0787E00E947C1D892B21F481E06B
S113104080933A02089580913A02882301F1209115
S11310500B018091690290916A02222319F00E9487
S1131060F30205C021E020930B010E94E9021092D3
S11310703A0280910701882351F042E350E060E096
S113108070E080916302909164020C94D100089501
S113109080916702909168020E94B4118091770256
S11310A0909178020E94B101809163029091640250
S11310B00E94CB000E94C6050E94C0060C941A0828
S11310C00F931F93CF93DF938CE090E00E948A19D3
S11310D0909362028093610286E090E00E948A19F4
S11310E09093600280935F028CE090E00E948819E4
S11310F0EC0100916B0210916C02409161025091DD
S1131100620226E030E064E871E00E949A04D09321
S11311105E02C0935D028CE090E00E948819EC01AD
S113112000916B0210916C0240915F025091600239
S113113023E030E063E971E00E949A04D0935C02FA
S1131140C0935B028AE090E00E948819EC01009150
S11311506B0210916C0220915D0230915E024FE4AB
S113116052E062EA71E00E940204E0916102F091AF
S11311706202D183C0838AE090E00E948819EC0166
S113118000916B0210916C0220915D0230915E021D
S11311904BE452E06EEA71E00E940204E0916102C5
S11311A0F0916202D383C28380915B0290915C02CE
S11311B09583848388E090E00E948819EC01409133
S11311C05D0250915E0221E038E06CEB71E00E9418
S11311D02203E0916102F0916202D783C68388E022
S11311E090E00E948819EC0140915D0250915E02EA
S11311F029EE37E064EC71E00E942203E091610281
S1131200F0916202D187C08788E090E00E9488193B
S1131210EC0140915D0250915E022EEC37E06BECE4
S113122071E00E942203E0916102F0916202D3878F
S1131230C2878AE090E00E948819EC0100916B0259
S113124010916C0220915B0230915C0247E051E006
S113125062ED71E00E947903E0915F02F091600217
S1131260D183C0838AE090E00E948819EC01009148
S11312706B0210916C0220915B0230915C0246E09B
S113128051E06DED71E00E947903E0915F02F0910D
S11312906002D383C28388E090E00E948819EC0145
S11312A040915D0250915E022EEA34E06BEC71E0F5
S11312B00E942203E0915F02F0916002D583C4830F
S11312C082E090E00E948819EC0160915D027091C7
S11312D05E020E94D102D0936A02C0936902CE01D9
S11312E0DF91CF911F910F910C94E9026F927F923D
S11312F08F929F92AF92BF92CF92DF92EF92FF9222
S11313000F931F93CF93DF93CDB7DEB728970FB614
S1131310F894DEBF0FBECDBF26E040E855E260E0A2
S113132070E084E893E00E94841863E070E0CE01EA
S113133005960E94B70164E070E0CE0107960E9412
S1131340B7011A8219821C821B8282E090E00E94FB
S113135088198C019E012F5F3F4FAE014B5F5F4F99
S113136062E070E00E9473011093780200937702A8
S113137082E090E00E9488198C012CE030E04BE080
S113138050E06AE070E00E944715109376020093E3
S113139075028CE090E00E9488194C0100E022E084
S11313A040E167E20E943C0C90926C0280926B02D6
S11313B0C4010E94ED0C80916B0290916C020E941A
S11313C0A30C82E090E00E9488198C0160916B026A
S11313D070916C020E94CC0110937402009373020A
S11313E081E090E00E9488198C0146E065E00E944B
S11313F0B10A10936E0200936D02C8010E94880B1B
S113140060E087E00E94111D89E390E00E94881942
S11314104C011F921F928FE3682E6F9290E8792EF1
S11314207F921F921F92A12CB12C20EAC22E20E49D
S1131430D22EE12CF12C00E010E42FE432E047E45A
S113144052E067E572E0C4010E944A109092720271
S11314508092710261E070E0C4010E94F80F89E398
S113146090E00E9488194C011F921F926F927F9204
S11314701F921F922BE432E043E452E063E572E0F2
S11314800E944A109092700280926F0261E070E0B4
S1131490C4010E94F80F81E090E00E9488198C0139
S11314A00E94A60210936602009365020E94E00661
S11314B00E9460088CEA90E00E9488198C010E94C6
S11314C0B91010936802009367022FEB34E040EAEE
S11314D056E861E070E0C8010E946C1190933E02EE
S11314E080933D022CE936E048EE53E060E070E082
S11314F080916702909168020E946C1190933C0263
S113150080933B0281E090E00E9488198C0169E09D
S113151070E00E949E001093640200936302CE0167
S113152007960E94CB01CE0105960E94CB010FB60F
S1131530F894DEBF0FBECDBF28960FB6F894DEBF79
S11315400FBECDBFDF91CF911F910F91FF90EF9010
S1131550DF90CF90BF90AF909F908F907F906F90CF
S11315600895CF93DF93DC011C9280917902883037
S113157008F050C0809179028C93809179028F5F3A
S113158080937902CC91D0E0C758DD4F6983CC9128
S1131590D0E0C758DD4F49878C9190E070E0FB01A3
S11315A0E057FF4FE491F0E0EE0FFF1FEC55FF4FC3
S11315B025913491880F991FFC01E758FD4F328B18
S11315C0218B8C9190E050E0FA01E057FF4FE491B9
S11315D0F0E0EE0FFF1FEC55FF4F25913491880F7B
S11315E0991FFC01E758FD4F32A321A38C9190E091
S11315F0FB01E458FF4F6491FC01E758FD4F61ABD8
S11316008C9190E0FA01E458FF4F4491FC01E758B3
S1131610FD4F41AFDF91CF910895DC0180917902B4
S11316208830D0F4EC91F0E0E654FD4F8081EC91E9
S1131630F0E0E654FD4F873821F483E080838FEF98
S1131640089580818B3449F4EC91F0E0E654FD4F29
S113165083E0808381E00895089580E00895CF9326
S11316604A3185EF58076105710508F5443A8EE162
S1131670580761057105F8F4493A87E05807610590
S11316807105E8F4453D83E0580761057105D8F418
S11316904B3E81E0580761057105C8F4463F51058A
S11316A061057105C0F487E0A0E0B4E017C081E0F3
S11316B0A1E0B0E013C082E0A8E0B0E00FC083E096
S11316C0A0E2B0E00BC084E0A0E4B0E007C085E095
S11316D0A0E8B0E003C086E0A0E0B1E0C2E0C093BF
S11316E0B0008093B1009A01AB010E947E1E9B0161
S11316F0AC0160E074E284EF90E00E945C1E215033
S11317002093B300C093700080E88FBFCF910895F9
S1131710CF93DF93209179022830C0F4EC01E88163
S1131720F0E0E758FD4F818160E00E94111DE881DF
S1131730F0E0E758FD4F818560E00E94111D40EA0A
S11317405FE060E070E0CE010E942F0BDF91CF914B
S113175008951F920F920FB60F9211242F933F9367
S11317608F939F93EF93FF93809179028093C202AA
S11317708091C2029FEF980F9093C202882309F4CC
S113178069C01092C302E091C202EE0FFF0BE7584A
S1131790FD4F0188F289E02D2081E091C2020E2ED6
S11317A0000CFF0BE758FD4F91A98091C3029223CF
S11317B021E009F420E0822B8093C3028091C302CC
S11317C0880F990B8093C302E091C202EE0FFF0BC6
S11317D0E758FD4F01A0F2A1E02D2081E091C20263
S11317E00E2E000CFF0BE758FD4F91AD8091C30204
S11317F0922321E009F420E0822B8093C302E0913C
S1131800C2020E2E000CFF0BE654FD4F8081209186
S1131810C302837090E0022E000C330B82179307EF
S113182009F4A6CFE091C2020E2E000CFF0BE65481
S1131830FD4F8081880F880F80838091C302E091DF
S1131840C2020E2E000CFF0BE654FD4F9081892B33
S113185080838ECFFF91EF919F918F913F912F9134
S11318600F900FBE0F901F90189510927902089553
S113187080E090E0089508950F93FC011382128292
S11318808FEE91E091838083648340872187028770
S113189088E083870F9108951F93CF93DF93EC0122
S11318A0162F6C8182E393E00E9423156B85612BD4
S11318B082E393E00E94DA1482E393E0DF91CF9114
S11318C01F910C9440150F931F93CF938C01C62F37
S11318D064600E944C0C81E090E00E94431C6C2FD9
S11318E06B7FC8010E944C0C82E390E0CF911F9162
S11318F00F910C94431C1F93CF93DF93EC01162F8D
S11319000E944C0C612FCE01DF91CF911F910C945A
S1131910630C0F931F93CF93DF938C01C62FD42FA7
S1131920607F642B0E947B0C80E1C89FB00111246E
S11319306D2BC801DF91CF911F910F910C947B0CFB
S113194040E00C94890C61E00E94A00C80ED97E0CB
S11319500C94431C62E00E94A00C80ED97E00C9470
S1131960431CCF93DF93CDB7DEB728970FB6F89417
S1131970DEBF0FBECDBF9C0188E0E0E1F1E0DE01F7
S1131980119601900D928A95E1F7F90181858417EA
S113199010F44FEF480FFE013196E40FF11DE40FF0
S11319A0F11D9081690F6068C90128960FB6F894FB
S11319B0DEBF0FBECDBFDF91CF910C94A00CFC0114
S11319C06681262F246026836C600C94A00C41E071
S11319D00E94890C81E090E00895CF93DF93EC019D
S11319E082E393E00E9419151D828985823010F0EC
S11319F098E09D839A85992329F0813019F48D818B
S1131A0084608D8362E370E080E090E00E94071CB4
S1131A106B85CE010E944C0C68EE73E080E090E090
S1131A200E94071C60E3CE010E947B0C84E991E1D3
S1131A300E94431C60E3CE010E947B0C84E991E187
S1131A400E94431C60E3CE010E947B0C86E990E077
S1131A500E94431C60E2CE010E947B0C6D81606297
S1131A60CE010E94A00C84E08E83CE010E94DF0C84
S1131A70CE010E94A30C82E08F8366E0CE010E9417
S1131A80A00CCE01DF91CF910C94AA0CCF93DF93DD
S1131A90EC01842F68834A83298361E00E94111D2D
S1131AA061E088810E94111D60E089810E94111DFE
S1131AB061E08A81DF91CF910C944D1DCF92DF922A
S1131AC0EF92FF921F93CF93DF937C0110E0C7E066
S1131AD0D0E0CC24C394D12C60E0F70180810E9433
S1131AE04D1D8FE99FE00197F1F700C00000F70159
S1131AF081810E947C1D892B39F0C6010C2E01C006
S1131B00880F0A94EAF7182B61E0F70180810E949C
S1131B104D1D8FE99FE00197F1F700C00000219768
S1131B20D8F6812FDF91CF911F91FF90EF90DF9036
S1131B30CF9008950F931F93CF93DF938C0160E0B0
S1131B40FC0182810E944D1D8FE99FE00197F1F70E
S1131B5000C00000C8010E945E0DC82FD0E0DC2F39
S1131B60CC27C8010E945E0DC82B61E0F801828178
S1131B700E944D1DC2FD11C0BE0183E0769567959C
S1131B808A95E1F780E090E00E948B1620E030E037
S1131B9040E85EE30E94421704C060E070E080EC1D
S1131BA09FE7DF91CF911F910F9108952F923F925C
S1131BB04F925F926F927F928F929F92AF92BF9259
S1131BC0CF92DF92EF92FF920F931F93CF93DF9305
S1131BD0CDB7DEB72B970FB6F894DEBF0FBECDBFDF
S1131BE0DC01D896BC91B983B11102C01982E6C058
S1131BF09B878A870E94D61B6A837B838C839D8301
S1131C00EA85FB8580A191A1A2A1B3A14A815B8150
S1131C106C817D81481B590B6A0B7B0B84A595A5B0
S1131C20A6A5B7A5481759076A077B07F8F2028CDF
S1131C30F38DE02D80809180A280B380AA85BB853E
S1131C405E96ED91FC915F97A5019401608171818D
S1131C50828193810E9471152B013C01EA85FB85E9
S1131C6020893189428953890E944217AA85BB85FC
S1131C7094962D913D914D915C9197970E94721588
S1131C806B017C01EA85FB8564A375A386A397A3F6
S1131C9024A835A806A917A99101A8010E943D17F7
S1131CA018161CF4C101D80118C0AA85BB85D096AA
S1131CB08D919D910D90BC91A02D8E839F83A887BB
S1131CC0B9879C01AD01C701B6010E94DE1587FFEB
S1131CD00AC08E819F81A885B985EA85FB8584A386
S1131CE095A3A6A3B7A3AA85BB851C962D913D9168
S1131CF04D915C911F97C301B2010E944217EA857E
S1131D00FB8524A135A146A157A10E9472156B0140
S1131D107C01AA85BB8598962D913D914D915C914E
S1131D209B97C501B4010E947115EA85FB8524893E
S1131D303589468957890E9442179B01AC01C70126
S1131D40B6010E9471156B017C019B01AC01B101CC
S1131D50C8010E94DE1587FD17C0AA85BB85D096F1
S1131D602C90D097D1963C90D197D2960C91D29743
S1131D70D3961C919101A801B601C7010E94DE15FA
S1131D8087FD02C016018701AA85BB855C96ED918B
S1131D90FC915D97C101D80180839183A283B383B1
S1131DA0EA85FB8580A691A6A2A6B3A68A819B811B
S1131DB0AC81BD8180A391A3A2A3B3A389812B96F7
S1131DC00FB6F894DEBF0FBECDBFDF91CF911F9148
S1131DD00F91FF90EF90DF90CF90BF90AF909F90C6
S1131DE08F907F906F905F904F903F902F900895C9
S1131DF04F925F926F927F928F929F92AF92BF9217
S1131E00CF92DF92EF92FF920F931F93CF93DF93C2
S1131E1000D000D000D0CDB7DEB79E838D832A01D9
S1131E203B014801590120E030E0A901C301B2019E
S1131E300E94DE1587FD7FC020E030E0A901C501C6
S1131E40B4010E94DE1587FD76C020E030E0A901D0
S1131E50C701B6010E94DE1587FD6DC0ED81FE81CC
S1131E60408251826282738284829582A682B78282
S1131E70C086D186E286F38664A575A586A597A556
S1131E800E948B1620E030E04AE754E40E94E315F8
S1131E9069837A838B839C83ED81FE814486558696
S1131EA0668677869B01AC01C501B4010E94421786
S1131EB04B015C01ED81FE81608B718B828B938B76
S1131EC029813A814B815C81C701B6010E94E315E7
S1131ED06B017C01ED81FE81648B758B868B978B06
S1131EE0808D918D019739F5A301920160E070E036
S1131EF0CB010E947115ED81FE8164877587868709
S1131F009787A501940160E070E0CB010E947115F0
S1131F10ED81FE81608B718B828B938BA70196017F
S1131F2060E070E0CB010E947115ED81FE81648B4D
S1131F30758B868B978B26960FB6F894DEBF0FBEF3
S1131F40CDBFDF91CF911F910F91FF90EF90DF9064
S1131F50CF90BF90AF909F908F907F906F905F9045
S1131F604F9008958F929F92AF92BF92CF92DF923B
S1131F70EF92FF92CF93DF93EC01EC8DFD8DC08047
S1131F80D180E280F380CCA2DDA2EEA2FFA2EA8D92
S1131F90FB8D80819181A281B38188A799A7AAA78B
S1131FA0BBA78CA89DA8AEA8BFA8A5019401C70192
S1131FB0B6010E943D17181664F088A899A8AAA82B
S1131FC0BBA8A5019401C701B6010E94DE1587FFD5
S1131FD004C08CA29DA2AEA2BFA2DF91CF91FF90BC
S1131FE0EF90DF90CF90BF90AF909F908F90089527
S1131FF01F93CF93DF93EC0111E06130710509F079
S113200010E098AD81E08927181303C0CE010E9427
S1132010B20F18AFDF91CF911F9108950F931F93C3
S1132020CF93DF93EC018B0188AD882361F1888D18
S1132030998D8617970739F12C853D854E855F85E7
S113204060E070E0CB010E9471156C877D878E87FC
S11320509F87288939894A895B8960E070E0CB01D0
S11320600E947115688B798B8A8B9B8B2C893D8997
S11320704E895F8960E070E0CB010E9471156C8B22
S11320807D8B8E8B9F8B198F088FDF91CF911F9142
S11320900F9108954F925F926F927F928F929F92C9
S11320A0AF92BF92CF92DF92EF92FF920F931F9362
S11320B0CF93DF9300D000D0CDB7DEB74C0127011A
S11320C03801A982BA82CB82DC82FC01558F448F0D
S11320D0738F628F378F268F10AE10AA11AA12AA9F
S11320E013AA80E090E0AFE7B3E484AB95ABA6AB72
S11320F0B7AB84E690E0A0E0B0E084A795A7A6A7DC
S1132100B7A76B8D7C8DC4010E940E10CF88D88C2C
S1132110E98CFA8C09811A812B813C81B301A201DB
S1132120C4010E94F80E0E94D61BF40104A515A553
S113213026A537A5DC01CB01801B910BA20BB30BA9
S113214080A391A3A2A3B3A30F900F900F900F901D
S1132150DF91CF911F910F91FF90EF90DF90CF907F
S1132160BF90AF909F908F907F906F905F904F90B3
S11321700895CF92DF92EF92FF92CF93DF93EC0119
S11321800E94D61B7E012CE8E20EF11CFE01B896DB
S11321906E019E01245C3F4FD7011D927D01119277
S11321A01192D6016D937D938D939D936D01AF0133
S11321B0425B5F4FDA011D921C92E217F30761F74D
S11321C0C655DF4F19821882DF91CF91FF90EF90AF
S11321D0DF90CF900895FC01E655FF4F20813181B7
S11321E02A3031056CF4E258F10920E030E08191A5
S11321F09191892B41F02F5F3F4F2A303105B9F778
S11322008FEF9FEF0895C90108954F925F926F92E7
S11322107F92AF92BF92CF92DF92EF92FF920F9391
S11322201F93CF93DF93EC012A013B0169010E94C4
S1132230EB107C0197FD31C0C114D10471F15C0134
S1132240AA0CBB1CAA0CBB1CAC0EBD1EF50144AEF3
S113225055AE66AE77AEF701EE0FFF1FEC0FFD1F14
S1132260D1A6C0A6EC59FF4F11830083FE01EE0DE9
S1132270FF1DE457FF4F81E080830E94D61BF501C8
S11322806083718382839383C655DF4F88819981EC
S1132290019699838883C70102C08FEF9FEFDF9176
S11322A0CF911F910F91FF90EF90DF90CF90BF904F
S11322B0AF907F906F905F904F900895615F7F4FD4
S11322C0660F771F660F771F860F971FFC01208309
S11322D031834283538308950F931F9300E010E0EA
S11322E00E9405111F910F910895CF93DF936A30D7
S11322F07105BCF5EC01C655DF4F288139812115E4
S1132300310579F1DB01AA0FBB1FA80FB91F9896FD
S11323104D915C919997452B21F199961C921E92AF
S11323209897FC01E60FF71FE457FF4F1082FD0159
S1132330EA56FF4F11821082615F7F4F660F771F4D
S1132340660F771FFC01E60FF71F108211821282BD
S11323501382A858BF4F1D921C9221503109398312
S11323602883DF91CF9108952F923F924F925F92ED
S11323706F927F928F929F92AF92BF92CF92DF9291
S1132380EF92FF920F931F93CF93DF9300D000D06F
S113239000D0CDB7DEB79C838B830E94D61B6B0124
S11323A07C01EB81FC81EC59FF4F0B811C8198016E
S11323B024573F4FC80188589F4F9A8389831E83AF
S11323C00D8322242394312C13AA12AACF01CC9773
S11323D0DC018D919C91892BF1F1AD81BE818D90B1
S11323E09D90AD90BC901397DC964D915D916D914D
S11323F07C91DF9726013701481859086A087B0841
S1132400441655066606770630F1480D591D6A1DB7
S11324107B1D4D935D936D937C931397D9018C91A0
S11324208823C9F0408151814115510519F433AA1B
S113243022AA11C0848995898417950764F433AA64
S113244022AA0196958B848B8417950724F082E049
S113245090E093AB82AB3296AD81BE811496BE837D
S1132460AD832F5F3F4F89819A81E817F90709F0FF
S1132470ABCFE12CF12CF801EA56FF4F808191811A
S11324808130910571F0029791F4D8019896ED91FD
S1132490FC9199970995B7018B819C810E947511D4
S11324A006C0D8019896ED91FC9199970995BFEFD4
S11324B0EB1AFB0A0E5F1F4F8AE0E816F104D9F607
S11324C026960FB6F894DEBF0FBECDBFDF91CF9135
S11324D01F910F91FF90EF90DF90CF90BF90AF903E
S11324E09F908F907F906F905F904F903F902F9030
S11324F008950F931F93CF93DF936A30710574F49B
S1132500EB018C010E94D61BCC0FDD1FCC0FDD1F0D
S1132510C00FD11F688379838A839B83DF91CF9116
S11325201F910F9108956A3071053CF4680F791F6B
S1132530FB01E457FF4F81E0808308956A30710501
S113254034F4680F791FFB01E457FF4F108208959C
S11325501092310381E080932F0310922E0361E0E7
S113256082E10E944D1D61E083E10E944D1DE9EB73
S1132570F0E080818E7F808380818D7F808388E4FA
S11325808093B80085E48093BC0008950F93413292
S113259008F04AC0909131039111FCCF32E030939E
S11325A0310300932F033FEF3093C40210920903C9
S11325B040930803562FAAE0B3E0FB013E2F351BDE
S11325C0341718F431913D93F9CF109230033091C0
S11325D03003880F832B8093300380912E03813046
S11325E061F410922E03809130038093BB0080919C
S11325F0BC0083FDF8CF85EC01C085EE8093BC0060
S1132600222321F0809131038230D1F38091C402DE
S11326108F3F79F08091C402803241F08091C402EE
S1132620803331F094E005C091E003C092E001C032
S113263093E0892F0F9108954091E602262F30E010
S1132640240F311D21323105DCF420913103243073
S1132650C9F4FC0180E090E0861758F43091E6025A
S11326602191DC01A851BD4FA30FB11D2C930196FC
S1132670F3CF8091E602680F6093E60280E008954C
S113268081E0089582E0089585ED8093BC008091F7
S1132690BC0084FDFCCF10923103089585EC809337
S11326A0BC001092310308951F920F920FB60F923F
S11326B011242F933F934F935F936F937F938F9343
S11326C09F93AF93BF93EF93FF938091B900887F5B
S11326D0803609F49EC078F5883209F45DC090F420
S11326E0803109F456C038F4882309F4F5C08830E1
S11326F009F44FC0F5C0883109F44EC0803209F4A2
S11327005FC0EEC0803409F46AC058F4803309F421
S113271057C0883309F0E4C08093C4020E944E136A
S1132720DFC0803509F44FC0883509F45DC08834B2
S113273009F0D6C0D3C0883909F4C4C0A8F48837D6
S113274009F467C038F4883609F463C0803709F4A3
S113275060C0C6C0883809F4B5C0803909F45FC0C8
S1132760803809F0BDC05BC0803B09F483C038F4F5
S1132770803A09F466C0883A09F47CC0B1C0803C50
S113278009F4A4C0883C09F4A1C0883B09F487C0BB
S1132790A7C08091300310C0909109038091080371
S11327A0981770F5E091090381E08E0F8093090377
S11327B0F0E0E65FFC4F80818093BB0085EC83C032
S11327C08093C4028BC0E091090381E08E0F809353
S11327D009038091BB00F0E0E65FFC4F8083909199
S11327E00903809108036BC0E091090381E08E0F17
S11327F0809309038091BB00F0E0E65FFC4F808387
S113280080912F0381116AC081E080932E0384EAB2
S11328105EC083E0809331031092C502CFCF8091D4
S1132820C502803208F04EC0E091C50281E08E0FEF
S11328308093C5028091BB00F0E0EA53FD4F808392
S1132840BDCF0E944E138091C502803230F4E091D6
S1132850C502F0E0EA53FD4F10826091C50270E0BA
S1132860E0912A03F0912B0386EC92E009951092F3
S1132870C50236C084E0809331031092E7021092BF
S1132880E602E0912C03F0912D0309958091E60274
S1132890811105C081E08093E6021092E802E09184
S11328A0E70281E08E0F8093E702F0E0E851FD4FEC
S11328B080818093BB009091E7028091E602981793
S11328C008F47CCF85E88093BC000AC085EC809333
S11328D0BC001092310304C01092C4020E9444133D
S11328E0FF91EF91BF91AF919F918F917F916F91E4
S11328F05F914F913F912F910F900FBE0F901F90BA
S113290018958091620390E020916303821B9109E2
S113291008959091630380916203981750F4E92F0E
S1132920F0E0EC59FC4F208130E09F5F909363030B
S113293002C02FEF3FEFC9010895E0916303809136
S11329406203E81730F4F0E0EC59FC4F808190E02A
S113295008958FEF9FEF08950895CF92DF92EF923D
S1132960FF920F931F93CF93DF937C01CB018A01D6
S113297020913E03222389F0EB016B01C40ED51E86
S1132980CC15DD0569F06991D701ED91FC910190B9
S1132990F081E02DC7010995F3CF642F0E941C1329
S11329A0C801DF91CF911F910F91FF90EF90DF90BD
S11329B0CF900895CF93DF931F92CDB7DEB769838D
S11329C020913E032223D1F020913F03203240F096
S11329D021E030E0FC013383228380E090E015C0E5
S11329E080914003E82FF0E0EF5BFC4F99819083E6
S11329F08F5F8093400380933F0305C061E0CE0165
S1132A0001960E941C1381E090E00F90DF91CF911A
S1132A100895FC011382128288EE93E0A0E0B0E0F6
S1132A2084839583A683B7838BEF91E0918380831E
S1132A30089510926303109262031092400310925F
S1132A403F030C94A81281E080933E0360936103DA
S1132A501092400310923F0308950F93062F21E034
S1132A6040913F0361E473E0809161030E94C612C8
S1132A701092400310923F0310923E030F91089569
S1132A8061E00C942D1582E393E00C940915DF9218
S1132A90EF92FF920F931F93CF93DF938C01D62E67
S1132AA0E42EF22E83E090E00E948819EC012D2D93
S1132AB04E2D6F2D0E94460DF801D183C08364EF23
S1132AC071E080E090E0DF91CF911F910F91FF9032
S1132AD0EF90DF900C94071CFC01808191810C9491
S1132AE09A0D5058BB27AA270E9489150C940317E6
S1132AF00E94F51638F00E94FC1620F039F49F3F2E
S1132B0019F426F40C94F2160EF4E095E7FB0C94F9
S1132B10EC16E92F0E94141758F3BA1762077307CB
S1132B208407950720F079F4A6F50C9436170EF473
S1132B30E0950B2EBA2FA02D0B01B90190010C01C9
S1132B40CA01A0011124FF27591B99F0593F50F4E1
S1132B50503E68F11A16F040A22F232F342F442739
S1132B60585FF3CF469537952795A795F040539531
S1132B70C9F77EF41F16BA0B620B730B840BBAF001
S1132B809150A1F0FF0FBB1F661F771F881FC2F76C
S1132B900EC0BA0F621F731F841F48F48795779580
S1132BA06795B795F7959E3F08F0B0CF9395880F3A
S1132BB008F09927EE0F9795879508950E94C816F7
S1132BC008F481E008950E94F7150C9403170E94FD
S1132BD0FC1658F00E94F51640F029F45F3F29F0E6
S1132BE00C94EC1651110C9437170C94F2160E94A5
S1132BF0141768F39923B1F3552391F3951B550BDF
S1132C00BB27AA2762177307840738F09F5F5F4FBB
S1132C10220F331F441FAA1FA9F335D00E2E3AF0FA
S1132C20E0E832D091505040E695001CCAF72BD012
S1132C30FE2F29D0660F771F881FBB1F2617370763
S1132C404807AB07B0E809F0BB0B802DBF01FF2795
S1132C5093585F4F3AF09E3F510578F00C94EC1670
S1132C600C9437175F3FE4F3983ED4F38695779539
S1132C706795B795F7959F5FC9F7880F911D96954E
S1132C80879597F90895E1E0660F771F881FBB1FAA
S1132C90621773078407BA0720F0621B730B840B57
S1132CA0BA0BEE1F88F7E09508950E945C166894AD
S1132CB0B1110C94371708950E941C1788F09F5780
S1132CC098F0B92F9927B751B0F0E1F0660F771F4C
S1132CD0881F991F1AF0BA95C9F714C0B13091F042
S1132CE00E943617B1E008950C943617672F782F99
S1132CF08827B85F39F0B93FCCF386957795679507
S1132D00B395D9F73EF490958095709561957F4F72
S1132D108F4F9F4F0895E89409C097FB3EF4909518
S1132D208095709561957F4F8F4F9F4F9923A9F0A0
S1132D30F92F96E9BB279395F6958795779567952F
S1132D40B795F111F8CFFAF4BB0F11F460FF1BC073
S1132D506F5F7F4F8F4F9F4F16C0882311F096E906
S1132D6011C0772321F09EE8872F762F05C06623B4
S1132D7071F096E8862F70E060E02AF09A95660F6D
S1132D80771F881FDAF7880F9695879597F9089526
S1132D90990F0008550FAA0BE0E8FEEF1616170668
S1132DA0E807F907C0F012161306E407F50798F0D0
S1132DB0621B730B840B950B39F40A2661F0232BE9
S1132DC0242B252B21F408950A2609F4A140A69565
S1132DD08FEF811D811D089597F99F6780E870E04A
S1132DE060E008959FEF80EC089500240A9416167D
S1132DF0170618060906089500240A9412161306E5
S1132E00140605060895092E0394000C11F4882372
S1132E1052F0BB0F40F4BF2B11F460FF04C06F5F8E
S1132E207F4F8F4F9F4F089557FD9058440F551F64
S1132E3059F05F3F71F04795880F97FB991F61F038
S1132E409F3F79F087950895121613061406551FAF
S1132E50F2CF4695F1DF08C0161617061806991F1B
S1132E60F1CF86957105610508940895E894BB2710
S1132E7066277727CB0197F908950E94C81608F4AE
S1132E808FEF08950E9455170C9403170E94F516AE
S1132E9038F00E94FC1620F0952311F00C94EC16E7
S1132EA00C94F21611240C9437170E94141770F323
S1132EB0959FC1F3950F50E0551F629FF001729FDB
S1132EC0BB27F00DB11D639FAA27F00DB11DAA1FEA
S1132ED0649F6627B00DA11D661F829F2227B00D37
S1132EE0A11D621F739FB00DA11D621F839FA00DC2
S1132EF0611D221F749F3327A00D611D231F849F12
S1132F00600D211D822F762F6A2F11249F57504068
S1132F109AF0F1F088234AF0EE0FFF1FBB1F661FE3
S1132F20771F881F91505040A9F79E3F510580F0AC
S1132F300C94EC160C9437175F3FE4F3983ED4F3EB
S1132F40869577956795B795F795E7959F5FC1F750
S1132F50FE2B880F911D9695879597F90895FC018E
S1132F60918D228D892F90E0805C9F4F821B910967
S1132F708F7399270895FC01918D828D981731F0F4
S1132F80828DE80FF11D858D90E008958FEF9FEFFE
S1132F900895FC01918D828D981761F0828DDF0177
S1132FA0A80FB11D5D968C91928D9F5F9F73928F38
S1132FB090E008958FEF9FEF0895FC01538D448DA9
S1132FC0252F30E0842F90E0821B930B541710F0D0
S1132FD0CF9608950197089581E499E1892B49F0EA
S1132FE080E090E0892B29F00E94411981110C9412
S1132FF000000895FC01848DDF01A80FB11DA35AC0
S1133000BF4F2C91848D90E001968F739927848F04
S1133010A689B7892C93A089B1898C9180648C93FB
S1133020938D848D981306C00288F389E02D8081E6
S11330308F7D80830895EF92FF920F931F93CF9318
S1133040DF93EC0181E0888F9B8D8C8D981305C0F4
S1133050E889F989808185FD24C0F62E0B8D10E066
S11330600F5F1F4F0F731127E02E8C8DE8120CC0D9
S11330700FB607FCFACFE889F989808185FFF5CF7F
S1133080CE010E94FA17F1CF8B8DFE01E80FF11DDE
S1133090E35AFF4FF0820B8FEA89FB8980818062BB
S11330A007C0EE89FF896083E889F989808180649B
S11330B0808381E090E0DF91CF911F910F91FF9089
S11330C0EF900895CF93DF93EC01888D8823C9F0A6
S11330D0EA89FB89808185FD05C0A889B9898C911D
S11330E086FD0FC00FB607FCF5CF808185FFF2CFB8
S11330F0A889B9898C9185FFEDCFCE010E94FA177A
S1133100E7CFDF91CF910895CF92DF92EF92FF92B4
S11331101F93CF93DF93EC016A017B01122FE8899F
S1133120F98982E080834115514E61057105B1F042
S113313060E079E08DE390E0A70196010E945C1EB7
S1133140DA01C9010197A109B109B695A795979527
S113315087959C01211580E13807A8F0E889F98951
S1133160108260E874E88EE190E0A70196010E9465
S11331705C1EDA01C9010197A109B109B695A795A9
S1133180979587959C01EC85FD853083EE85FF85B9
S11331902083188EEC89FD891083EA89FB8980815C
S11331A080618083EA89FB89808188608083EA89E1
S11331B0FB89808180688083EA89FB8980818F7D97
S11331C08083DF91CF911F91FF90EF90DF90CF909C
S11331D008951F920F920FB60F9211242F938F937D
S11331E09F93EF93FF93E0919403F0919503808173
S11331F0E0919A03F0919B0382FD12C0908180912B
S11332009D038F5F8F7320919E03821751F0E0918D
S11332109D03F0E0EC57FC4F958F80939D0301C014
S11332208081FF91EF919F918F912F910F900FBE0D
S11332300F901F9018951F920F920FB60F921124A2
S11332402F933F934F935F936F937F938F939F93AA
S1133250AF93BF93EF93FF9384E893E00E94FA1730
S1133260FF91EF91BF91AF919F918F917F916F915A
S11332705F914F913F912F910F900FBE0F901F9030
S1133280189584E893E00E94AF1721E0892B09F494
S113329020E0822F0895E4E8F3E01382128288EE9E
S11332A093E0A0E0B0E084839583A683B7838DE0A8
S11332B092E09183808385EC90E09587848784EC09
S11332C090E09787868780EC90E0918B808B81ECEF
S11332D090E0938B828B82EC90E0958B848B86ECD0
S11332E090E0978B868B118E128E138E148E089518
S11332F008950E944E1C0E9478190E947609CCEE13
S1133300D7E10E9448082097E1F30E94EC17F9CF17
S11333100C949E1E0C949E1E0C94361FCF92DF922A
S1133320EF92FF920F931F93CF93DF936C017A0177
S11333308B01C0E0D0E0CE15DF0581F0D8016D919E
S11333408D01D601ED91FC910190F081E02DC60133
S11333500995892B11F02196EECF7E01C701DF91EB
S1133360CF911F910F91FF90EF90DF90CF90089530
S11333706115710579F0FB0101900020E9F731979F
S1133380AF01461B570BDC01ED91FC910280F381E8
S1133390E02D099480E090E00895DB0114964D91AE
S11333A05C9115976D917C91DC01ED91FC9102800B
S11333B0F381E02D09940C94B819DC01ED91FC9192
S11333C00190F081E02D09948F929F92AF92BF9269
S11333D0EF92FF920F931F93CF93DF93CDB7DEB796
S11333E0A1970FB6F894DEBF0FBECDBF7C01FA01E2
S11333F0CB0119A2223008F42AE08E010F5D1F4F81
S1133400822E912CA12CB12CBF01A50194010E9404
S11334105C1EF901CA01015011096A3010F4605DA3
S113342001C0695CD8016C93232B242B252B61F7F5
S1133430B801C7010E94B819A1960FB6F894DEBF6F
S11334400FBECDBFDF91CF911F910F91FF90EF90F1
S1133450BF90AF909F908F9008952115310541F44E
S1133460DC01ED91FC910190F081E02D642F099431
S11334700C94E4199A01AB0160E070E00C942D1AED
S11334807F928F929F92AF92BF92CF92DF92EF92F0
S1133490FF920F931F93CF93DF938C016A017B01FB
S11334A0722E9A01AB01C701B6010E94571E8823F0
S11334B019F06EE172E027C046015701E894B7F8AD
S11334C02FEF3FEF4FE75FE7C501B4010E94571E9E
S11334D081110DC02FEF3FEF4FE75FE7C501B40146
S11334E00E94DE1518161CF462E272E00CC02FEF85
S11334F03FEF4FE75FE4C701B6010E943D1718167E
S113350094F466E272E0C801DF91CF911F910F91AC
S1133510FF90EF90DF90CF90BF90AF909F908F90EF
S11335207F900C94B8192FEF3FEF4FE75FECC70182
S1133530B6010E94DE1587FDE4CF20E030E0A9014A
S1133540C701B6010E94DE1587FF0AC06DE2C801FB
S11335500E94DD19EC01F7FAF094F7F8F09402C038
S1133560C0E0D0E0B12C60E070E080E09FE37B1429
S113357041F020E030E040E251E40E94E315B394CE
S1133580F6CFA70196010E9472156B017C010E947F
S11335905C164B015C012AE0AB01BC01C8010E942E
S11335A0E419C80FD91F7720B9F1C501B4010E94ED
S11335B08B169B01AC01C701B6010E9471156B010A
S11335C07C016EE2C8010E94DD19C80FD91F20E0FA
S11335D030E040E251E4C701B6010E9442174B01BA
S11335E05C010E945C166B017C014AE050E0C8015A
S11335F00E943A1AC80FD91FB60180E090E00E94D9
S11336008B169B01AC01C501B4010E9471156B01BD
S11336107C017A947110DBCFCE01DF91CF911F91A1
S11336200F91FF90EF90DF90CF90BF90AF909F905D
S11336308F907F9008950C94401A08958230E8F496
S1133640E82FF0E0EE0FFF1FE45FFE4F718360830D
S1133650813041F0809169008C7F482B4093690050
S1133660E89A089580916900837F440F551F440FA1
S1133670551F482B40936900E99A08951F920F92B1
S11336800FB60F9211242F933F934F935F936F9331
S11336907F938F939F93AF93BF93EF93FF93E091A7
S11336A00C01F0910D010995FF91EF91BF91AF913C
S11336B09F918F917F916F915F914F913F912F9146
S11336C00F900FBE0F901F9018951F920F920FB678
S11336D00F9211242F933F934F935F936F937F9394
S11336E08F939F93AF93BF93EF93FF93E0910E015A
S11336F0F0910F010995FF91EF91BF91AF919F91C7
S11337008F917F916F915F914F913F912F910F9086
S11337100FBE0F901F9018951F920F920FB60F9225
S113372011242F933F938F939F93AF93BF938091D3
S1133730220490912304A0912404B0912504309193
S1133740210423E0230F2D3720F40196A11DB11D80
S113375005C026E8230F0296A11DB11D2093210464
S11337608093220490932304A0932404B09325040B
S11337708091260490912704A0912804B0912904F3
S11337800196A11DB11D8093260490932704A09354
S11337902804B0932904BF91AF919F918F913F91D9
S11337A02F910F900FBE0F901F9018952FB7F8947C
S11337B06091220470912304809124049091250443
S11337C02FBF08953FB7F894809126049091270461
S11337D0A0912804B091290426B5A89B05C02F3FC9
S11337E019F00196A11DB11D3FBFBA2FA92F982F23
S11337F08827820F911DA11DB11DBC01CD0142E09E
S1133800660F771F881F991F4A95D1F708958F92E5
S11338109F92AF92BF92CF92DF92EF92FF926B0191
S11338207C010E94E21B4B015C01C114D104E10440
S1133830F10401F10E94561E0E94E21BDC01CB013F
S113384088199909AA09BB09883E9340A105B105C5
S113385060F321E0C21AD108E108F10888EE880E6D
S113386083E0981EA11CB11CC114D104E104F1042D
S113387019F7DBCFFF90EF90DF90CF90BF90AF9020
S11338809F908F9008958230910538F0880F991F8A
S1133890880F991F05970197F1F70895789484B5D7
S11338A0826084BD84B5816084BD85B5826085BD38
S11338B085B5816085BDEEE6F0E08081816080831E
S11338C0E1E8F0E010828081826080838081816001
S11338D08083E0E8F0E0808181608083E1EBF0E0C8
S11338E0808184608083E0EBF0E08081816080836C
S11338F0EAE7F0E080818460808380818260808355
S11339008081816080838081806880831092C1007F
S113391008951F93CF93DF93182FEB0161E00E946A
S1133920111D209711F460E004C0CF3FD10539F494
S113393061E0812FDF91CF911F910C944D1DE12FF8
S1133940F0E0E859FF4FE491E330F9F048F4E13056
S1133950B9F0E230A1F584B5806284BDC8BD34C03D
S1133960E730E9F0E83019F1E43049F5809180005E
S1133970806280938000D0938B00C0938A0024C01F
S113398084B5806884BDC7BD1FC0809180008068F5
S113399080938000D0938900C093880015C08091E3
S11339A0B00080688093B000C093B3000DC08091D4
S11339B0B00080628093B000C093B40005C0C038EA
S11339C0D1050CF0B5CFAFCFDF91CF911F91089502
S11339D0833081F028F4813099F08230A1F0089589
S11339E08730A9F08830B9F08430D1F48091800018
S11339F08F7D03C0809180008F778093800008952D
S1133A0084B58F7702C084B58F7D84BD089580917D
S1133A10B0008F7703C08091B0008F7D8093B00099
S1133A200895CF93DF9390E0FC01E458FF4F249175
S1133A30FC01E057FF4F8491882361F190E0880FE7
S1133A40991FFC01E854FF4FC591D491FC01E25544
S1133A50FF4FA591B491611109C09FB7F894888173
S1133A60209582238883EC912E230BC0623061F46D
S1133A709FB7F8948881322F309583238883EC9103
S1133A802E2B2C939FBF06C08FB7F894E8812E2B62
S1133A9028838FBFDF91CF9108951F93CF93DF9336
S1133AA0282F30E0F901E859FF4F8491F901E458D7
S1133AB0FF4FD491F901E057FF4FC491CC23C1F0DB
S1133AC0162F81110E94E81CEC2FF0E0EE0FFF1F6F
S1133AD0E255FF4FA591B4919FB7F894111104C01A
S1133AE08C91D095D82302C0EC91DE2BDC939FBF40
S1133AF0DF91CF911F910895CF93DF93282F30E06A
S1133B00F901E859FF4F8491F901E458FF4FD4912A
S1133B10F901E057FF4FC491CC2391F081110E9429
S1133B20E81CEC2FF0E0EE0FFF1FEC55FF4FA591C2
S1133B30B491EC91ED2381E090E021F480E002C0A7
S1133B4080E090E0DF91CF910895FC018081918124
S1133B500C94361FCF93DF93EC01888199810097F1
S1133B6011F00E94361F198218821D821C821B824A
S1133B701A82DF91CF9108950F931F93CF93DF9310
S1133B80EC018B016F5F7F4F888199810E94BF1F79
S1133B90009731F0998388831B830A8381E001C0F5
S1133BA080E0DF91CF911F910F910895CF93DF9320
S1133BB0EC0188819981892B29F08A819B81861760
S1133BC0970760F4CE010E94BC1D882341F08C81CC
S1133BD09D81892B19F4E881F981108281E0DF91BC
S1133BE0CF910895EF92FF920F931F93CF93DF939A
S1133BF0EC017B018A01BA010E94D61D811104C027
S1133C00CE010E94AA1D07C01D830C83B7018881C1
S1133C1099810E948E20CE01DF91CF911F910F9147
S1133C20FF90EF900895CF93DF93EC016115710538
S1133C3059F0FB0101900020E9F73197AF01461BD1
S1133C40570B0E94F21D02C00E94AA1DCE01DF91F3
S1133C50CF9108950F931F93CF93DF93CDB7DEB722
S1133C6062970FB6F894DEBF0FBECDBF8C01CB01B7
S1133C70F80111821082138212821582148250E09C
S1133C80BE016F5F7F4F0E949520BE016F5F7F4F23
S1133C90C8010E94131E62960FB6F894DEBF0FBED1
S1133CA0CDBFDF91CF911F910F91089508950E9488
S1133CB0C816880B990B0895A1E21A2EAA1BBB1BE8
S1133CC0FD010DC0AA1FBB1FEE1FFF1FA217B307E4
S1133CD0E407F50720F0A21BB30BE40BF50B661FFA
S1133CE0771F881F991F1A9469F7609570958095BE
S1133CF090959B01AC01BD01CF0108950E948F1ED8
S1133D00A59F900DB49F900DA49F800D911D11242B
S1133D100895EE0FFF1F0590F491E02D0994A29FE2
S1133D20B001B39FC001A39F700D811D1124911D8B
S1133D30B29F700D811D1124911D08950F931F933F
S1133D40CF93DF938230910510F482E090E0E0910C
S1133D502C04F0912D0420E030E0A0E0B0E0309796
S1133D6019F1408151810281138148175907C8F024
S1133D708417950769F4109731F012960C931297F3
S1133D8013961C9327C000932C0410932D0422C077
S1133D902115310519F04217530718F49A01BD0192
S1133DA0EF01DF01F801DBCF21153105F9F0281B04
S1133DB0390B2430310580F48A819B8161157105AA
S1133DC021F0FB019383828304C090932D0480939C
S1133DD02C04FE01329644C0FE01E20FF31F8193CE
S1133DE0919322503109398328833AC020912A04BF
S1133DF030912B04232B41F42091020130910301D3
S1133E0030932B0420932A04209100013091010166
S1133E102115310541F42DB73EB74091040150916D
S1133E200501241B350BE0912A04F0912B04E217C1
S1133E30F307A0F42E1B3F0B2817390778F0AC01C9
S1133E404E5F5F4F2417350748F04E0F5F1F5093A6
S1133E502B0440932A048193919302C0E0E0F0E0A4
S1133E60CF01DF91CF911F910F910895CF93DF93ED
S1133E70009709F481C0FC01329713821282A09149
S1133E802C04B0912D04109781F420813181820F8C
S1133E90931F20912A0430912B042817390751F5D8
S1133EA0F0932B04E0932A0467C0ED0120E030E096
S1133EB0CE17DF0740F44A815B819E01411551050D
S1133EC0F1F0EA01F5CFD383C28340815181840F9D
S1133ED0951FC817D90759F488819981840F951FB4
S1133EE00296918380838A819B81938382832115A7
S1133EF0310529F4F0932D04E0932C043DC0E9012D
S1133F00FB83EA8349915991C40FD51FEC17FD0730
S1133F1061F480819181840F951F0296E901998350
S1133F208883828193819B838A83E0E0F0E0129608
S1133F308D919C911397009719F0FD01DC01F7CF47
S1133F408D919C9111979D012E5F3F4F820F931F7E
S1133F5020912A0430912B042817390769F43097EB
S1133F6029F410922D0410922C0402C013821282A0
S1133F70B0932B04A0932A04DF91CF910895A0E07D
S1133F80B0E0E5ECFFE10C94EF20EC01009721F4A4
S1133F90CB010E949E1EB4C0FC01E60FF71F9C01DA
S1133FA022503109E217F30708F4A8C0D9010D9192
S1133FB01C91119706171707B0F00530110508F486
S1133FC09BC0C80104978617970708F495C0025050
S1133FD01109061B170B019311936D937C93CF0169
S1133FE00E94361F89C05B01A01AB10A4C01800EE1
S1133FF0911EA0912C04B0912D04612C712CE12C04
S1134000F12C109709F446C08D919C911197A81535
S1134010B905B1F56C0142E0C40ED11CCA14DB042D
S113402078F14C018A189B08640142E0C40ED11C4B
S11340301296BC9012971396AC91B5E0CB16D104AE
S113404040F0B282A38391828082D9016D937C93E4
S113405009C00E5F1F4F800F911FF9019183808368
S1134060EB2DFA2FE114F10431F0D7011396FC93F0
S1134070EE93129741C0F0932D04E0932C043CC0BE
S11340806816790608F43C017D0112960D90BC91E6
S1134090A02DB7CF80912A0490912B0488169906FD
S11340A0E1F466167706C8F480910001909101014D
S11340B0009741F48DB79EB74091040150910501DA
S11340C0841B950BE817F907C8F4F0932B04E093CD
S11340D02A04F901718360830FC0CB010E949E1EE4
S11340E07C01009759F0A801BE010E948520CE01F1
S11340F00E94361FC70104C0CE0102C080E090E0D8
S1134100CDB7DEB7EEE00C940B21FB01DC0102C05D
S113411001900D9241505040D8F70895FB01DC0105
S113412001900D920020E1F708954532510520F4E5
S1134130423010F00C94A020FB011082CB010895B2
S1134140BB274A3031F4992322F4BDE2909581953E
S11341509F4F0C94AC20BB27FB015527AA27880F3F
S1134160991FAA1FA41710F0A41B83955051B9F7E7
S1134170A05DAA3308F0A95DA193009779F7B11166
S1134180B1931192CB010C94C520DC01FC01672F83
S113419071917723E1F7329704C07C916D9370831A
S11341A06291AE17BF07C8F30895F999FECF92BD87
S11341B081BDF89A992780B50895262FF999FECFE5
S11341C01FBA92BD81BD20BD0FB6F894FA9AF99A30
S11341D00FBE019608952F923F924F925F926F9275
S11341E07F928F929F92AF92BF92CF92DF92EF9283
S11341F0FF920F931F93CF93DF93CDB7DEB7CA1B04
S1134200DB0B0FB6F894DEBF0FBECDBF09942A882E
S1134210398848885F846E847D848C849B84AA84D6
S1134220B984C884DF80EE80FD800C811B81AA8163
S1134230B981CE0FD11D0FB6F894DEBF0FBECDBF2E
S10B4240ED010895F894FFCF8D
S113424800002E0420000101010101011D1B1D1B9A
S11342580000400014005400553A00443A0043203A
S11342680020202000430025000000000010032047
S1134278031F031F031103190315031F0354525586
S1134288450046414C534500000000002E034E03F0
S11342982F033E034503500349034D030000000068
S11342A88B03D9038C03AE03D003DB03D403D803F5
S11342B80000000014046704150432044F04690460
S11342C85F046304424F54544F4D204845415445BC
S11342D8523A00534F554E442053455454494E477F
S11342E83A005345542054454D50205550005345E9
S11342F8542054454D5020444F574E003C3C535491
S1134308415254003C3C53544F50003C3C4558499E
S11343185400434C49434B20424545500054454DB5
S1134328502053455420424545500000000000E702
S11343380C8E19380C3B0C00000000DA14AD14384C
S11343480CAC14811489149D14000000001B188EF1
S113435819DD176218AF17C917BB170D0A006E616C
S10D43686E00696E66006F76660051
S9030000FC
