S0150000426F74746F6D5F6865617465722E73726563C2
S11300000C9462000C948A0E0C94B10E0C948A0029
S11300100C948A000C948A000C948A000C948A0034
S11300200C948A000C948A000C948A000C948A0024
S11300300C948A000C94A8060C948A000C948A00F0
S11300400C94D80E0C948A000C948A000C948A00A8
S11300500C948A000C948A000C948A000C948A00F4
S11300600C9421090C948A0000000008000201008D
S1130070000304070000000000000000010204085F
S113008010204080010204081020010204081020FE
S1130090040404040404040402020202020203032A
S11300A003030303000000002300260029000000CE
S11300B00000250028002B00000000002400270079
S11300C02A00100B11241FBECFEFD8E0DEBFCDBF36
S11300D011E0A0E0B1E0ECECF3E202C005900D9277
S11300E0A034B107D9F722E0A0E4B1E001C01D9229
S11300F0AB33B207E1F710E0C2E6D0E004C02197C9
S1130100FE010E94B510C136D107C9F70E94780DCF
S11301100C94E4110C9400008091400190914101F1
S113012001969093410180934001E0914201F09146
S11301304301608171816817790734F48091440127
S1130140909145010E941901E0914201F09143010F
S11301506281738180914001909141016817790710
S11301603CF4809144019091450102960C9419014C
S1130170089510924101109240010E949C0660E093
S113018070E080914401909145010E941901809191
S113019044019091450160E070E002960E941901CB
S11301A042E050E067ED70E080E00C946A0E10923B
S11301B04101109240010E94A20643E050E069EB25
S11301C070E080E00C946A0E862F509345014093B2
S11301D0440130934301209342016093460170939C
S11301E0470160E00E94FE0F42E050E067ED70E0DE
S11301F080E00E946A0E48E250E060E070E08CE823
S113020090E00E94F6050C949C0670934301609361
S113021042010895CF93DF93EC01862F688379839D
S113022061E00E94FE0F60E08881DF91CF910C9421
S11302303A106095FC0180810C943A100895CF9295
S1130240DF92EF92FF920F931F93CF93DF937C0182
S1130250162FD42EC22E8CE090E00E94870DEC0164
S113026000E02C2D4D2D612F0E94DB06F701D18378
S1130270C083CE010E948C07F70180819181DF91B8
S1130280CF911F910F91FF90EF90DF90CF900C943E
S11302904207AF92BF92CF92DF92EF92FF920F93F9
S11302A01F93CF93DF93EC017B015A016901462F21
S11302B061E0888199810E945007E114F10419F0EA
S11302C065E171E002C062E171E0888199810E9478
S11302D0C80D4E2D63E0888199810E9450074AE041
S11302E050E0B501888199810E94620E4E2D66E02E
S11302F0888199810E94500768E171E08881998121
S11303000E94C80D4E2D68E0888199810E94500793
S11303104AE050E0B601888199810E94620E4E2D18
S11303206BE0888199810E9450076BE171E08881BC
S113033099810E94C80D4E2D6DE0888199810E949B
S113034050074AE050E0B801888199810E94620E0A
S11303504E2D6FE0888199810E9450076EE171E013
S113036088819981DF91CF911F910F91FF90EF9038
S1130370DF90CF90BF90AF900C94C80DCF93DF93D4
S1130380EC0140E060E0888199810E9450076CE1B3
S113039071E088819981DF91CF910C94C80D2F92DF
S11303A03F924F925F926F927F928F929F92AF9201
S11303B0BF92CF92DF92EF92FF920F931F93CF934E
S11303C0DF93CDB7DEB728970FB6F894DEBF0FBE24
S11303D0CDBF63E070E0CE0105960E940A0164E09F
S11303E070E0CE0107960E940A011A8219821C82CB
S11303F01B8281E090E00E94870D4C019E012F5FDB
S11304003F4FAE014B5F5F4F62E070E00E94E4003B
S1130410909269018092680182E090E00E94870DC9
S11304204C0127E030E046E050E065E070E00E94D7
S1130430140B909267018092660182E090E00E9422
S1130440870D4C0122E030E040E150E067E270E0CB
S11304500E941F01909265018092640183E390E001
S11304600E94870D4C011F921F921F921F9289E3D5
S1130470482E4F929DE9592E5F9229E4622E6F9285
S113048032E5732E7F924DE3342E3F9255EF252EA5
S11304902F9282EC8F939FE89F93A12CB12C6FE74E
S11304A0C62E63E4D62EE12CF12C87012CE431E036
S11304B044E551E06CE571E0C4010E94BE039092F2
S11304C063018092620140E050E060E870E4C4019E
S11304D00E94040440EA5FE060E070E08091620101
S11304E0909163010E940E0483E390E00E94870DC3
S11304F04C011F921F921F921F924F925F926F9214
S11305007F923F922F9282EC8F939FE89F9328E4EF
S113051031E040E551E068E571E0C4010E94BE03AA
S1130520909261018092600140E050E060E870E4E4
S1130530C4010E94040440EA5FE060E070E080913E
S11305406001909161010E940E0480E090E00E949D
S1130550DC11682F70E080E090E00E94530C6093FF
S1130560540170935501809356019093570181E093
S113057090E00E94DC11682F70E080E090E00E941F
S1130580530C6093500170935101809352019093E6
S11305905301CE0107960E941E01CE0105960E94CA
S11305A01E010FB6F894DEBF0FBECDBF28960FB65E
S11305B0F894DEBF0FBECDBFDF91CF911F910F9195
S11305C0FF90EF90DF90CF90BF90AF909F908F906F
S11305D07F906F905F904F903F902F9008958F92EF
S11305E09F92AF92BF92CF92DF92EF92FF920F93BE
S11305F01F93CF93DF9300D000D0CDB7DEB78091A7
S11306006601909167010E94340B609358017093C6
S1130610590180935A0190935B0110925C011092EE
S11306205D0110925E0110925F01809162019091D0
S113063063010E946A0480916001909161010E94AB
S11306406A0440E050E060E87FE3809162019091A9
S113065063010E941404082F10E040E050E060E8B9
S11306607FE380916001909161010E941404E82E5F
S1130670F12C1A830983FC82EB82BE016F5F7F4FEA
S113068080916801909169010E94050160E070E029
S113069080916401909165010E94BE0160915C01AA
S11306A070915D0180915E0190915F010E941D0C2B
S11306B04B015C0160915401709155018091560188
S11306C0909157010E941D0C9401AB0160E070E011
S11306D080916401909165010E94490161E070E09C
S11306E080916401909165010E94BE01B701FF0CE5
S11306F0880B990B0E94550C20E030E04FE753E43F
S11307000E94AB0B20E030E048EC52E40E940A0D5A
S11307100E941D0C4B015C016091580170915901BC
S113072080915A0190915B010E941D0C6B017C0128
S11307306091500170915101809152019091530147
S11307400E941D0C84019601AB0161E070E0809170
S11307506401909165010E9449010F900F900F90E0
S11307600F90DF91CF911F910F91FF90EF90DF9049
S1130770CF90BF90AF909F908F900895AF92BF920B
S1130780CF92DF92EF92FF920F931F93CF93DF9359
S1130790CDB7DEB7FC01758F648F578F468F31A3B9
S11307A020A3E2A2F3A204A315A3A6A2B7A2C0A603
S11307B0D1A68D859E85AF85B88980839183A283D8
S11307C0B38389899A89AB89BC8984839583A683F9
S11307D0B7838D899E89AF89B88D80879187A287D9
S11307E0B38788EE93E0A0E0B0E082A793A7A4A724
S11307F0B5A7DF91CF911F910F91FF90EF90DF90FC
S1130800CF90BF90AF900895FC01448B558B668BBD
S1130810778B408F518F628F738F0895FC0142A7AD
S113082053A764A775A708958F929F92AF92BF9222
S1130830CF92DF92EF92FF92CF93DF934A015B0155
S1130840DC015E96ED91FC915F975C960D90BC91F6
S1130850A02D2D913D914D915C916081718182819A
S113086093810E94390B6B017C0120E030E0A901E7
S11308700E94050D181624F0F7FAF094F7F8F09496
S1130880C1E0A5019401C701B6010E94A60B181688
S11308900CF4C0E08C2FDF91CF91FF90EF90DF90AC
S11308A0CF90BF90AF909F908F900895CF93DF9398
S11308B0EC010E94220F6EA77FA788AB99AB1C8620
S11308C01D861E861F86188A198A1A8A1B8ADF913A
S11308D0CF9108954F925F926F927F928F929F92E1
S11308E0AF92BF92CF92DF92EF92FF920F931F933A
S11308F0CF93DF93CDB7DEB72A970FB6F894DEBF58
S11309000FBECDBF8C01DC01D2968C91D297882387
S113091029F0D2961C92C8010E945604F801C4889A
S1130920D588E688F78820E030E0A901C701B60140
S11309300E94A60B882311F1D8015E968D919C919B
S11309405F975C960D90BC91A02D2D913D914D919A
S11309505C91FC0160817181828193810E94390BD9
S11309609B01AC01C701B6010E94A60B87FF06C01C
S1130970F80186A197A1A0A5B1A52FC0F801C08C4C
S1130980D18CE28CF38C20E030E0A901C701B601E0
S11309900E94A60B882391F1D8015C968D919C91BD
S11309A05D975E960D90BC91A02D2D913D914D913A
S11309B05C91FC0160817181828193810E94390B79
S11309C09B01AC01C701B6010E94A60B87FF16C0AC
S11309D0F80182A193A1A4A1B5A120A131A1F9019B
S11309E080839183A283B3830E94220FD8019E96B1
S11309F06D937D938D939C93D197E1C00E94220FB8
S1130A00F801C6A4D7A4E0A8F1A84B015C018C1896
S1130A109D08AE08BF0882A593A5A4A5B5A5881610
S1130A209906AA06BB0608F4CAC00E94220FD80180
S1130A309E966D937D938D939C93D1975E968D91A5
S1130A409C915F975C960D90BC91A02D2D913D914A
S1130A504D915C91FC0160817181828193810E943E
S1130A60390B6B017C01D80150968D919D910D90AD
S1130A70BC91A02D89839A83AB83BC83C501B40147
S1130A800E94530C2B013C0129813A814B815C81EA
S1130A90C701B6010E943A0B20E030E040E05FE37A
S1130AA00E940A0DA30192010E940A0D20E030E089
S1130AB04AE754E40E94AB0BF8012485358546854A
S1130AC057850E943A0B4B015C01D8011C966D932B
S1130AD07D938D939C931F97F801C08AD18AE28AF3
S1130AE0F38A2081318142815381C701B6010E947A
S1130AF00A0D6D837E838F839887D80114962D9178
S1130B003D914D915C911797C501B4010E940A0D66
S1130B109B01AC016D817E818F8198850E943A0B87
S1130B204B015C0129813A814B815C81C701B6018B
S1130B300E94390BA30192010E94AB0B20E030E02C
S1130B404AE754E40E94AB0BF801208531854285C5
S1130B5053850E940A0D9B01AC01C501B4010E949A
S1130B603A0B3B014C01D8019096CD90DC909197C3
S1130B709296AC9092979396BC9093979496EC909F
S1130B8094979596FC909501A7010E94A60B87FD6A
S1130B900FC0F801A6A0B7A0E0A4F1A49501A70195
S1130BA0B301C4010E94050D181614F05301740119
S1130BB0C501D701F60180839183A283B3832A966A
S1130BC00FB6F894DEBF0FBECDBFDF91CF911F915A
S1130BD00F91FF90EF90DF90CF90BF90AF909F90D8
S1130BE08F907F906F905F904F90089520916F0049
S1130BF02E7F20936F0090936D0180936C0110926F
S1130C00800010928100DB01CA010697A109B10995
S1130C108A3F9F40A105B10590F4DB01CA0164E05D
S1130C20880F991FAA1FBB1F6A95D1F740E350E0B4
S1130C3061E070E0481B590B6A0B7B0B6BC0DB0156
S1130C40CA019051A109B10981159047A105B105C7
S1130C5080F4DB01CA01880F991FAA1FBB1F46E05D
S1130C6050E061E070E0481B590B6A0B7B0B82E09B
S1130C7052C0DB01CA019058A109B10981159048FD
S1130C80A340B10598F4DB01CA0142E0B695A795EB
S1130C90979587954A95D1F740E050E061E070E080
S1130CA0481B590B6A0B7B0B83E035C0DB01CA017F
S1130CB014970097AC40B10598F4DB01CA0134E005
S1130CC0B695A795979587953A95D1F740E050E06A
S1130CD061E070E0481B590B6A0B7B0B84E01BC07E
S1130CE0DB01CA0150970097A043B10598F4DB01DA
S1130CF0CA0126E0B695A795979587952A95D1F7C9
S1130D0040E050E061E070E0481B590B6A0B7B0B3C
S1130D1085E001C081E08093810050936B01409392
S1130D206A01109285001092840080916F008160A6
S1130D3080936F0078940895EFE6F0E080818E7FD1
S1130D4080830895EFE6F0E08081816080830895D8
S1130D501F920F920FB60F9211242F933F934F932C
S1130D605F936F937F938F939F93AF93BF93EF930F
S1130D70FF9380916A0190916B0190938500809319
S1130D808400E0916C01F0916D010995FF91EF9160
S1130D90BF91AF919F918F917F916F915F914F918F
S1130DA03F912F910F900FBE0F901F90189580E0E8
S1130DB090E0089508950F93FC011382128286E255
S1130DC091E091838083648340872187028788E050
S1130DD083870F9108951F93CF93DF93EC01162F10
S1130DE06C818CED91E00E94F00A6B85612B8CED97
S1130DF091E00E94A70A8CED91E0DF91CF911F91C1
S1130E000C940D0B0F931F93CF938C01C62F64602A
S1130E100E94EB0681E090E00E948F0F6C2F6B7FA5
S1130E20C8010E94EB0682E390E0CF911F910F91DD
S1130E300C948F0F1F93CF93DF93EC01162F0E9416
S1130E40EB06612FCE01DF91CF911F910C94020725
S1130E500F931F93CF93DF938C01C62FD42F607F02
S1130E60642B0E941A0780E1C89FB00111246D2BE6
S1130E70C801DF91CF911F910F910C941A0740E0A4
S1130E800C94280761E00E943F0780ED97E00C94E2
S1130E908F0F62E00E943F0780ED97E00C948F0F64
S1130EA0CF93DF93CDB7DEB728970FB6F894DEBFA4
S1130EB00FBECDBF9C0188E0EAE0F1E0DE011196AF
S1130EC001900D928A95E1F7F9018185841710F458
S1130ED04FEF480FFE013196E40FF11DE40FF11DB1
S1130EE09081690F6068C90128960FB6F894DEBF37
S1130EF00FBECDBFDF91CF910C943F07FC016681FB
S1130F00262F246026836C600C943F0741E00E94E6
S1130F10280781E090E00895CF93DF93EC018CEDF6
S1130F2091E00E94E60A1D828985823010F098E0E3
S1130F309D839A85992329F0813019F48D818460E9
S1130F408D8362E370E080E090E00E94530F6B8534
S1130F50CE010E94EB0668EE73E080E090E00E9410
S1130F60530F60E3CE010E941A0784E991E10E94C5
S1130F708F0F60E3CE010E941A0784E991E10E9479
S1130F808F0F60E3CE010E941A0786E990E00E9469
S1130F908F0F60E2CE010E941A076D816062CE015C
S1130FA00E943F0784E08E83CE010E947E07CE011B
S1130FB00E94420782E08F8366E0CE010E943F07D1
S1130FC0CE01DF91CF910C944907CF93DF93EC01CD
S1130FD0842F68834A83298361E00E94FE0F61E0C5
S1130FE088810E94FE0F60E089810E94FE0F61E00B
S1130FF08A81DF91CF910C943A10CF92DF92EF92D5
S1131000FF921F93CF93DF937C0110E0C7E0D0E001
S1131010CC24C394D12C60E0F70180810E943A1063
S11310208FE99FE00197F1F700C00000F70181818B
S11310300E946910892B39F0C6010C2E01C0880F5B
S11310400A94EAF7182B61E0F70180810E943A10B4
S11310508FE99FE00197F1F700C000002197D8F6CF
S1131060812FDF91CF911F91FF90EF90DF90CF9070
S113107008950F931F93CF93DF938C0160E0FC01DD
S113108082810E943A108FE99FE00197F1F700C036
S11310900000C8010E94FD07C82FD0E0DC2FCC2738
S11310A0C8010E94FD07C82B61E0F80182810E94FB
S11310B03A10C2FD11C0BE0183E0769567958A950A
S11310C0E1F780E090E00E94530C20E030E040E83B
S11310D05EE30E940A0D04C060E070E080EC9FE7CC
S11310E0DF91CF911F910F9108951092DB0181E060
S11310F08093D9011092D80161E082E10E943A10F4
S113110061E083E10E943A10E9EBF0E080818E7F98
S1131110808380818D7F808388E48093B80085E418
S11311208093BC0008950F93413208F04AC0909117
S1131130DB019111FCCF32E03093DB010093D90144
S11311403FEF30936E011092B3014093B201562FDA
S1131150A4EBB1E0FB013E2F351B341718F4319199
S11311603D93F9CF1092DA013091DA01880F832B85
S11311708093DA018091D801813061F41092D80112
S11311808091DA018093BB008091BC0083FDF8CF8D
S113119085EC01C085EE8093BC00222321F0809170
S11311A0DB018230D1F380916E018F3F79F0809121
S11311B06E01803241F080916E01803331F094E011
S11311C005C091E003C092E001C093E0892F0F9124
S11311D0089540919001262F30E0240F311D2132D3
S11311E03105DCF42091DB012430C9F4FC0180E0FA
S11311F090E0861758F4309190012191DC01AE56AD
S1131200BE4FA30FB11D2C930196F3CF8091900193
S1131210680F6093900180E0089581E0089582E072
S1131220089585ED8093BC008091BC0084FDFCCFC3
S11312301092DB01089585EC8093BC001092DB01D1
S113124008951F920F920FB60F9211242F933F937C
S11312504F935F936F937F938F939F93AF93BF93BA
S1131260EF93FF938091B900887F803609F49EC084
S113127078F5883209F45DC090F4803109F456C0E1
S113128038F4882309F4F5C0883009F44FC0F5C058
S1131290883109F44EC0803209F45FC0EEC0803456
S11312A009F46AC058F4803309F457C0883309F04C
S11312B0E4C080936E010E941B09DFC0803509F4ED
S11312C04FC0883509F45DC0883409F0D6C0D3C056
S11312D0883909F4C4C0A8F4883709F467C038F41D
S11312E0883609F463C0803709F460C0C6C0883802
S11312F009F4B5C0803909F45FC0803809F0BDC075
S11313005BC0803B09F483C038F4803A09F466C0BA
S1131310883A09F47CC0B1C0803C09F4A4C0883C7C
S113132009F4A1C0883B09F487C0A7C08091DA0101
S113133010C09091B3018091B201981770F5E091BB
S1131340B30181E08E0F8093B301F0E0EC54FE4FC3
S113135080818093BB0085EC83C080936E018BC039
S1131360E091B30181E08E0F8093B3018091BB00C3
S1131370F0E0EC54FE4F80839091B3018091B20170
S11313806BC0E091B30181E08E0F8093B301809133
S1131390BB00F0E0EC54FE4F80838091D9018111B1
S11313A06AC081E08093D80184EA5EC083E08093C0
S11313B0DB0110926F01CFCF80916F01803208F072
S11313C04EC0E0916F0181E08E0F80936F01809198
S11313D0BB00F0E0E059FE4F8083BDCF0E941B09A3
S11313E080916F01803230F4E0916F01F0E0E059B8
S11313F0FE4F108260916F0170E0E091D401F09192
S1131400D50180E791E0099510926F0136C084E020
S11314108093DB011092910110929001E091D6012A
S1131420F091D701099580919001811105C081E067
S11314308093900110929201E091910181E08E0FCE
S113144080939101F0E0EE56FE4F80818093BB00C3
S11314509091910180919001981708F47CCF85E8D0
S11314608093BC000AC085EC8093BC001092DB0121
S113147004C010926E010E941109FF91EF91BF9177
S1131480AF919F918F917F916F915F914F913F9118
S11314902F910F900FBE0F901F90189580910C0202
S11314A090E020910D02821B9109089590910D0204
S11314B080910C02981750F4E92FF0E0E25FFD4FA1
S11314C0208130E09F5F90930D0202C02FEF3FEF29
S11314D0C9010895E0910D0280910C02E81730F4DF
S11314E0F0E0E25FFD4F808190E008958FEF9FEF81
S11314F008950895CF92DF92EF92FF920F931F9376
S1131500CF93DF937C01CB018A012091E801222350
S113151089F0EB016B01C40ED51ECC15DD0569F015
S11315206991D701ED91FC910190F081E02DC70103
S11315300995F3CF642F0E94E908C801DF91CF9188
S11315401F910F91FF90EF90DF90CF900895CF936C
S1131550DF931F92CDB7DEB769832091E801222380
S1131560D1F02091E901203240F021E030E0FC018B
S11315703383228380E090E015C08091EA01E82F54
S1131580F0E0E551FE4F998190838F5F8093EA01EB
S11315908093E90105C061E0CE0101960E94E9084B
S11315A081E090E00F90DF91CF910895FC011382C8
S11315B0128288EE93E0A0E0B0E084839583A68352
S11315C0B78382E391E091838083089510920D02A2
S11315D010920C021092EA011092E9010C94750821
S11315E081E08093E80160930B021092EA0110926B
S11315F0E90108950F93062F21E04091E9016BEE74
S113160071E080910B020E9493081092EA011092FB
S1131610E9011092E8010F91089561E00C94FA0A2F
S11316208CED91E00C94D60ADF92EF92FF920F9327
S11316301F93CF93DF938C01F62EE42ED22E83E0FA
S113164090E00E94870DEC012D2D4E2D6F2D0E94F0
S1131650E507F801D183C083DF91CF911F910F91EA
S1131660FF90EF90DF900895FC01808191810C94AC
S113167039085058BB27AA270E94510B0C94CB0C55
S11316800E94BD0C38F00E94C40C20F039F49F3F36
S113169019F426F40C94BA0C0EF4E095E7FB0C94C0
S11316A0B40CE92F0E94DC0C58F3BA1762077307D5
S11316B08407950720F079F4A6F50C94FE0C0EF43B
S11316C0E0950B2EBA2FA02D0B01B90190010C014E
S11316D0CA01A0011124FF27591B99F0593F50F466
S11316E0503E68F11A16F040A22F232F342F4427BE
S11316F0585FF3CF469537952795A795F0405395B6
S1131700C9F77EF41F16BA0B620B730B840BBAF085
S11317109150A1F0FF0FBB1F661F771F881FC2F7F0
S11317200EC0BA0F621F731F841F48F48795779504
S11317306795B795F7959E3F08F0B0CF9395880FBE
S113174008F09927EE0F9795879508950E94900CBD
S113175008F481E008950E94BF0B0C94CB0C0E9406
S1131760C40C58F00E94BD0C40F029F45F3F29F0EE
S11317700C94B40C51110C94FF0C0C94BA0C0E94F0
S1131780DC0C68F39923B1F3552391F3951B550BA6
S1131790BB27AA2762177307840738F09F5F5F4F40
S11317A0220F331F441FAA1FA9F335D00E2E3AF07F
S11317B0E0E832D091505040E695001CCAF72BD097
S11317C0FE2F29D0660F771F881FBB1F26173707E8
S11317D04807AB07B0E809F0BB0B802DBF01FF271A
S11317E093585F4F3AF09E3F510578F00C94B40C37
S11317F00C94FF0C5F3FE4F3983ED4F38695779501
S11318006795B795F7959F5FC9F7880F911D9695D2
S1131810879597F90895E1E0660F771F881FBB1F2E
S1131820621773078407BA0720F0621B730B840BDB
S1131830BA0BEE1F88F7E09508950E94240C689473
S1131840B1110C94FF0C08950E94E40C88F09F578A
S113185098F0B92F9927B751B0F0E1F0660F771FD0
S1131860881F991F1AF0BA95C9F714C0B13091F0C6
S11318700E94FE0CB1E008950C94FE0C672F782FA3
S11318808827B85F39F0B93FCCF38695779567958B
S1131890B395D9F73EF490958095709561957F4FF7
S11318A08F4F9F4F0895E89409C097FB3EF490959D
S11318B08095709561957F4F8F4F9F4F9923A9F025
S11318C0F92F96E9BB279395F695879577956795B4
S11318D0B795F111F8CFFAF4BB0F11F460FF1BC0F8
S11318E06F5F7F4F8F4F9F4F16C0882311F096E98B
S11318F011C0772321F09EE8872F762F05C0662339
S113190071F096E8862F70E060E02AF09A95660FF1
S1131910771F881FDAF7880F9695879597F90895AA
S1131920990F0008550FAA0BE0E8FEEF16161706EC
S1131930E807F907C0F012161306E407F50798F054
S1131940621B730B840B950B39F40A2661F0232B6D
S1131950242B252B21F408950A2609F4A140A695E9
S11319608FEF811D811D089597F99F6780E870E0CE
S113197060E008959FEF80EC089500240A94161601
S1131980170618060906089500240A941216130669
S1131990140605060895092E0394000C11F48823F7
S11319A052F0BB0F40F4BF2B11F460FF04C06F5F13
S11319B07F4F8F4F9F4F089557FD9058440F551FE9
S11319C059F05F3F71F04795880F97FB991F61F0BD
S11319D09F3F79F087950895121613061406551F34
S11319E0F2CF4695F1DF08C0161617061806991FA0
S11319F0F1CF86957105610508940895E894BB2795
S1131A0066277727CB0197F908950E94900C08F474
S1131A108FEF08950E941D0D0C94CB0C0E94BD0CF9
S1131A2038F00E94C40C20F0952311F00C94B40CEF
S1131A300C94BA0C11240C94FF0C0E94DC0C70F36F
S1131A40959FC1F3950F50E0551F629FF001729F5F
S1131A50BB27F00DB11D639FAA27F00DB11DAA1F6E
S1131A60649F6627B00DA11D661F829F2227B00DBB
S1131A70A11D621F739FB00DA11D621F839FA00D46
S1131A80611D221F749F3327A00D611D231F849F96
S1131A90600D211D822F762F6A2F11249F575040ED
S1131AA09AF0F1F088234AF0EE0FFF1FBB1F661F68
S1131AB0771F881F91505040A9F79E3F510580F031
S1131AC00C94B40C0C94FF0C5F3FE4F3983ED4F3F5
S1131AD0869577956795B795F795E7959F5FC1F7D5
S1131AE0FE2B880F911D9695879597F90895089573
S1131AF00E949A0F0E94770D0E94CF01C0E0D0E0AF
S1131B000E94EF022097E1F30E940000F9CF0C94A9
S1131B10BB10CF92DF92EF92FF920F931F93CF935C
S1131B20DF936C017A018B01C0E0D0E0CE15DF05B4
S1131B3081F0D8016D918D01D601ED91FC91019058
S1131B40F081E02DC6010995892B11F02196EECF85
S1131B507E01C701DF91CF911F910F91FF90EF900C
S1131B60DF90CF9008956115710579F0FB01019024
S1131B700020E9F73197AF01461B570BDC01ED91CB
S1131B80FC910280F381E02D099480E090E00895B7
S1131B900C94B30DDC01ED91FC910190F081E02DEA
S1131BA009948F929F92AF92BF92EF92FF920F93FC
S1131BB01F93CF93DF93CDB7DEB7A1970FB6F894F9
S1131BC0DEBF0FBECDBF7C01FA01CB0119A22230CA
S1131BD008F42AE08E010F5D1F4F822E912CA12C58
S1131BE0B12CBF01A50194010E949310F901CA010F
S1131BF0015011096A3010F4605D01C0695CD801BC
S1131C006C93232B242B252B61F7B801C7010E9469
S1131C10B30DA1960FB6F894DEBF0FBECDBFDF9112
S1131C20CF911F910F91FF90EF90BF90AF909F9035
S1131C308F900895CF92DF92EF92FF920F931F93AC
S1131C40CF93DF932115310581F4DC01ED91FC91F3
S1131C500190F081E02D642FDF91CF911F910F91BE
S1131C60FF90EF90DF90CF9009942A30310501F571
S1131C7077FF1DC06A017B01EC016DE20E94CA0D71
S1131C808C0144275527BA014C195D096E097F0957
S1131C902AE0CE010E94D10D800F911FDF91CF91D8
S1131CA01F910F91FF90EF90DF90CF9008952AE05D
S1131CB0DF91CF911F910F91FF90EF90DF90CF9024
S1131CC00C94D10D9A01AB01770F660B770B0C9432
S1131CD01A0E08958230E8F4E82FF0E0EE0FFF1FAB
S1131CE0EA5FFE4F71836083813041F08091690027
S1131CF08C7F482B40936900E89A0895809169008D
S1131D00837F440F551F440F551F482B4093690090
S1131D10E99A08951F920F920FB60F9211242F93F0
S1131D203F934F935F936F937F938F939F93AF935F
S1131D30BF93EF93FF93E0910601F091070109959A
S1131D40FF91EF91BF91AF919F918F917F916F918F
S1131D505F914F913F912F910F900FBE0F901F9065
S1131D6018951F920F920FB60F9211242F933F9341
S1131D704F935F936F937F938F939F93AF93BF938F
S1131D80EF93FF93E0910801F09109010995FF9108
S1131D90EF91BF91AF919F918F917F916F915F91DF
S1131DA04F913F912F910F900FBE0F901F90189558
S1131DB01F920F920FB60F9211242F933F938F937C
S1131DC09F93AF93BF9380912F0290913002A09183
S1131DD03102B091320230912E0223E0230F2D37CD
S1131DE020F40196A11DB11D05C026E8230F02961B
S1131DF0A11DB11D20932E0280932F0290933002D7
S1131E00A0933102B0933202809133029091340254
S1131E10A0913502B09136020196A11DB11D8093A7
S1131E20330290933402A0933502B0933602BF91EB
S1131E30AF919F918F913F912F910F900FBE0F9073
S1131E401F9018952FB7F89460912F02709130026B
S1131E5080913102909132022FBF08953FB7F894D8
S1131E608091330290913402A0913502B0913602F0
S1131E7026B5A89B05C02F3F19F00196A11DB11DE1
S1131E803FBFBA2FA92F982F8827820F911DA11D1C
S1131E90B11DBC01CD0142E0660F771F881F991F59
S1131EA04A95D1F708958F929F92AF92BF92CF92A5
S1131EB0DF92EF92FF926B017C010E942E0F4B0187
S1131EC05C01C114D104E104F10401F10E949210F7
S1131ED00E942E0FDC01CB0188199909AA09BB09BC
S1131EE0883E9340A105B10560F321E0C21AD108F0
S1131EF0E108F10888EE880E83E0981EA11CB11C4D
S1131F00C114D104E104F10419F7DBCFFF90EF9081
S1131F10DF90CF90BF90AF909F908F9008958230C4
S1131F20910538F0880F991F880F991F059701971D
S1131F30F1F70895789484B5826084BD84B5816096
S1131F4084BD85B5826085BD85B5816085BDEEE6BD
S1131F50F0E0808181608083E1E8F0E0108280819C
S1131F6082608083808181608083E0E8F0E080810A
S1131F7081608083E1EBF0E0808184608083E0EB2A
S1131F80F0E0808181608083EAE7F0E08081846012
S1131F90808380818260808380818160808380816E
S1131FA0806880831092C1000895833081F028F402
S1131FB0813099F08230A1F008958730A9F08830FB
S1131FC0B9F08430D1F4809180008F7D03C080917A
S1131FD080008F7780938000089584B58F7702C046
S1131FE084B58F7D84BD08958091B0008F7703C040
S1131FF08091B0008F7D8093B0000895CF93DF93DC
S113200090E0FC01E458FF4F2491FC01E057FF4F9E
S11320108491882361F190E0880F991FFC01E854B2
S1132020FF4FC591D491FC01E255FF4FA591B491A6
S1132030611109C09FB7F894888120958223888311
S1132040EC912E230BC0623061F49FB7F894888121
S1132050322F309583238883EC912E2B2C939FBFB2
S113206006C08FB7F894E8812E2B28838FBFDF91A9
S1132070CF9108951F93CF93DF93282F30E0F90178
S1132080E859FF4F8491F901E458FF4FD491F901C5
S1132090E057FF4FC491CC23C1F0162F81110E9449
S11320A0D50FEC2FF0E0EE0FFF1FE255FF4FA59187
S11320B0B4919FB7F894111104C08C91D095D82392
S11320C002C0EC91DE2BDC939FBFDF91CF911F9177
S11320D00895CF93DF93282F30E0F901E859FF4F9B
S11320E08491F901E458FF4FD491F901E057FF4F6F
S11320F0C491CC2391F081110E94D50FEC2FF0E014
S1132100EE0FFF1FEC55FF4FA591B491EC91ED2319
S113211081E090E021F480E002C080E090E0DF9173
S1132120CF9108950895A1E21A2EAA1BBB1BFD01AD
S11321300DC0AA1FBB1FEE1FFF1FA217B307E407A2
S1132140F50720F0A21BB30BE40BF50B661F771FFA
S1132150881F991F1A9469F76095709580959095DA
S11321609B01AC01BD01CF010895EE0FFF1F059047
S1132170F491E02D09940F931F93CF93DF93823052
S1132180910510F482E090E0E0913902F0913A0276
S113219020E030E0A0E0B0E0309719F140815181B7
S11321A00281138148175907C8F08417950769F409
S11321B0109731F012960C93129713961C9327C024
S11321C00093390210933A0222C02115310519F007
S11321D04217530718F49A01BD01EF01DF01F8011A
S11321E0DBCF21153105F9F0281B390B24303105DB
S11321F080F48A819B816115710521F0FB01938331
S1132200828304C090933A0280933902FE0132968D
S113221044C0FE01E20FF31F8193919322503109D0
S1132220398328833AC02091370230913802232B16
S113223041F420910201309103013093380220933C
S1132240370220910001309101012115310541F43B
S11322502DB73EB74091040150910501241B350B65
S1132260E0913702F0913802E217F307A0F42E1B35
S11322703F0B2817390778F0AC014E5F5F4F2417E6
S1132280350748F04E0F5F1F5093380240933702D2
S11322908193919302C0E0E0F0E0CF01DF91CF9110
S11322A01F910F910895CF93DF93009709F481C094
S11322B0FC01329713821282A0913902B0913A0242
S11322C0109781F420813181820F931F209137026E
S11322D0309138022817390751F5F0933802E0930A
S11322E0370267C0ED0120E030E0CE17DF0740F48D
S11322F04A815B819E0141155105F1F0EA01F5CF58
S1132300D383C28340815181840F951FC817D90795
S113231059F488819981840F951F02969183808353
S11323208A819B81938382832115310529F4F0935B
S11323303A02E09339023DC0E901FB83EA83499103
S11323405991C40FD51FEC17FD0761F48081918169
S1132350840F951F0296E901998388838281938172
S11323609B838A83E0E0F0E012968D919C91139711
S1132370009719F0FD01DC01F7CF8D919C91119725
S11323809D012E5F3F4F820F931F209137023091A2
S113239038022817390769F4309729F410923A0261
S11323A01092390202C013821282B0933802A093B1
S11323B03702DF91CF910895F999FECF92BD81BD87
S10F23C0F89A992780B50895F894FFCF8F
S11323CC00003B022000690E690E0000400014005E
S11323DC5400553A00443A00432D00432000250094
S11323EC3E00000000008607890DD706DA060000BF
S11323FC0000A70A7A0AD706790A4E0A560A6A0A0C
S9030000FC
