:100000000C9464000C94641C0C948B1C0C948C0059
:100010000C948C000C948C000C948C000C944F0C61
:100020000C948C000C948C000C948C000C948C0020
:100030000C948C000C94280B0C948C000C948C0069
:100040000C94B21C0C948C000C940F1A0C94411A52
:100050000C948C000C948C000C948C000C948C00F0
:100060000C947A140C948C0000000008000201002B
:100070000003040700000000000000000102040863
:100080001020408001020408102001020408102002
:10009000040404040404040402020202020203032E
:1000A00003030303000000002300260029000000D2
:1000B0000000250028002B0000000000240027007D
:1000C0002A00DB0C6916711A11241FBECFEFD8E08D
:1000D000DEBFCDBF12E0A0E0B1E0E4E9F4E402C08D
:1000E00005900D92AA32B107D9F724E0AAE2B2E056
:1000F00001C01D92A233B207E1F710E0C4E6D0E0E0
:1001000004C02197FE010E94AF1FC136D107C9F775
:100110000E949F1A0C9448220C94000060912A02BD
:1001200070912B0280912C0290912D020E94C41399
:1001300060E070E080912E020C94AF1D1F93CF936E
:10014000DF93162F60932E0270932F028CEA90E0BB
:100150000E94AE1AEC010E94DF11D0932D02C093D1
:100160002C022EE830E040E050E0BA01CE010E94BF
:10017000921290932B0280932A02BC0180912C0250
:1001800090912D020E94C41361E0812FDF91CF91E5
:100190001F910C94371E80912C0290912D020C948B
:1001A000DA12CF92DF92EF92FF926A017B016091A7
:1001B0002A0270912B0280912C0290912D020E94B4
:1001C000B91360912A0270912B02A70196018091C8
:1001D0002C0290912D020E94841260912A0270914B
:1001E0002B0280912C0290912D020E949F136FE7A9
:1001F00070E080912E02FF90EF90DF90CF900C94F2
:10020000AF1D10923902109238020E941C0B60E060
:1002100070E080913602909137020E94970160E071
:1002200070E080913402909135020E94970142E083
:1002300050E06EE171E080E00C94441C10923902B1
:10024000109238020E94220B43E050E061E071E01E
:1002500080E00C94441C8091380290913902019600
:1002600090933902809338024091320250913302C8
:100270002FEF30E0241B350B2817390744F461E0D9
:1002800070E080913602909137020E949701209190
:100290003002309131028FEF90E0821B930B20915E
:1002A0003802309139028217930744F461E070E01C
:1002B00080913402909135020C9497010895FC01CD
:1002C000862F5093370240933602309335022093A5
:1002D00034026083718360E00E94371E42E050E088
:1002E0006EE171E080E00E94441C48E250E060E072
:1002F00070E08BE291E00E94760A0C941C0B7093E4
:1003000033026093320250933102409330020895D9
:10031000CF93DF93EC01862F6883798361E00E949D
:10032000371E60E08881DF91CF910C94731EFC0131
:1003300080810C94731EFC017183608308958F92F9
:100340009F92AF92BF92CF92DF92EF92FF920F9364
:100350001F93CF93DF93CDB7DEB762970FB6F894B4
:10036000DEBF0FBECDBF7C016B014A015901462F94
:1003700060E0FC01808191810E94570DC114D1047D
:1003800019F06BE171E002C068E171E0F701808172
:1003900091810E94011B4AE0B401CE010D960E949A
:1003A000501F898965E0681B4C2DF7018081918180
:1003B0000E94570DBE01635F7F4FF70180819181DD
:1003C0000E94F31A4C2D65E0F701808191810E9413
:1003D000570D6EE171E0F701808191810E94011B50
:1003E0004C2D67E0F701808191810E94570D61E2F9
:1003F00071E0F701808191810E94011B4AE0B50103
:10040000CE0107960E94501F8B856AE0681B4C2D19
:10041000F701808191810E94570DBE01695F7F4F76
:10042000F701808191810E94F31A4C2D6AE0F70157
:10043000808191810E94570D65E271E0F701808112
:1004400091810E94011B4C2D6CE0F701808191810C
:100450000E94570D61E271E0F701808191810E9455
:10046000011B4AE0B801CE0101960E94501F8D8108
:100470006FE0681B4C2DF701808191810E94570D20
:10048000BE016F5F7F4FF701808191810E94F31A57
:100490004C2D6FE0F701808191810E94570D67E23A
:1004A00071E0F701808191810E94011BCE010196CC
:1004B0000E94CB1ECE0107960E94CB1ECE010D9648
:1004C0000E94CB1E62960FB6F894DEBF0FBECDBF62
:1004D000DF91CF911F910F91FF90EF90DF90CF9020
:1004E000BF90AF909F908F9008950895CB010C948A
:1004F000FB21CB01642F0C9403221F93CF93DF9336
:10050000EB01CB010E94FB21182FCE0101960E9426
:10051000FB21982F812FDF91CF911F9108951F9379
:10052000CF93DF93EB01152F642FCE010E9403229E
:10053000612FCE010196DF91CF911F910C94032280
:10054000FC01718360830895DC018D919C91DC0135
:10055000ED91FC910480F581E02D0994DC018D91F1
:100560009C91DC01ED91FC910680F781E02D0994CE
:10057000DC018D919C91DC01ED91FC910284F3856D
:10058000E02D0994CF93DF93EC0188819981DC0100
:10059000ED91FC910084F185E02D09959983888384
:1005A000CE01DF91CF910C94B802DC018D919C912A
:1005B000DC01ED91FC910684F785E02D0994089506
:1005C000FC01848195810895FC01828193810895C5
:1005D000DC011696ED91FC911797099408950C94FF
:1005E000B21AFC018DE291E0918380837383628370
:1005F000558344833783268308950895DC01149638
:10060000ED91FC911597308121E023272083ED9116
:10061000FC910284F385E02D0994DC01ED91FC91BD
:100620000480F581E02D0994FC018681978108956D
:10063000FC0182819381089508950C94B21ACF939E
:10064000DF93EC01888599850E94490D40E060E0C8
:10065000888599850E94570D6A817B818885998557
:100660000E94011B41E060E0888599850E94570D3A
:10067000EC81FD818081811103C062E471E002C0E0
:100680006DE371E088859985DF91CF910C94011B12
:100690000F931F93FC018CE491E09183808373831B
:1006A00062835583448337832683118700871F9194
:1006B0000F91089508950F931F93CF93DF93EC014B
:1006C0000C811D8120E030E040E85FE3F8016081AB
:1006D0007181828193810E949816F80160837183F1
:1006E00082839383E881F9810284F385E02DCE0132
:1006F000DF91CF911F910F9109940F931F93CF9387
:10070000DF93EC010C811D8120E030E040E85FE3E5
:10071000F80160817181828193810E949716F801AE
:100720006083718382839383E881F9810284F385F6
:10073000E02DCE01DF91CF911F910F910994FC0123
:10074000868197810895FC0182819381089508959F
:100750000C94B21ACF93DF93EC01888599850E949F
:10076000490D40E060E0888599850E94570D6A81B7
:100770007B81888599850E94011B41E060E0888526
:1007800099850E94570DEC81FD81408151816281E4
:10079000738122E030E088859985DF91CF910C94B8
:1007A000411C0F931F93FC0180E691E091838083AD
:1007B000738362835583448337832683118700873D
:1007C0001F910F9108950895DC0118968D919C91C9
:1007D0001997019719969C938E93189797FF09C0C4
:1007E0001A968D919C911B97019719969C938E93C5
:1007F0001897ED91FC9111970284F385E02DCD01BE
:100800000994DC0118968D919C911997019619967F
:100810009C938E9318971A962D913C911B97821753
:10082000930724F019961C921E921897ED91FC9153
:1008300011970284F385E02DCD010994DC0118960F
:10084000ED91FC911997EE0FFF1F14968D919C91DD
:100850001597E80FF91F808191810895FC0182812D
:1008600093810895FC011186108608950C94B21AA4
:10087000CF93DF93EC018E819F810E94490D40E070
:1008800060E08E819F810E94570D6A817B818E81FD
:100890009F810E94011B41E060E08E819F810E9448
:1008A000570DE885F985EE0FFF1F8C819D81E80FBC
:1008B000F91F80819181DC01ED91FC910484F58523
:1008C000E02D0995BC018E819F81DF91CF910C9421
:1008D000011B0F931F93FC0184E791E091838083B8
:1008E0007383628355834483178306833387228708
:1008F000118610861F910F91089580916902909141
:100900006A020E94C20280915B0290915C02DC014B
:10091000ED91FC910684F785E02D0994CF92DF924A
:10092000EF92FF9260913D0270913E0280916702CA
:10093000909168020E949F1380914202882309F4DB
:1009400090C080910A01882309F48BC02091530242
:1009500030915402409155025091560260914B02E1
:1009600070914C0280914D0290914E020E94971618
:100970006B017C0120E030E0A9010E946318181689
:100980005CF420E030E040E050E4C701B6010E9492
:10099000041787FF58C00BC020E030E040E050EC67
:1009A000C701B6010E94631818160CF04CC0C09025
:1009B0004302D0904402E0904502F090460220E0CD
:1009C00030E0A901C701B6010E9463181816DCF5D2
:1009D00020E030E04FE753E4C701B6010E9404175E
:1009E00087FF31C060913F0270914002072E000CDA
:1009F000880B990B0E94B317A70196010E949716C6
:100A00006B017C0120E030E0A9010E9463181816F8
:100A10005CF420E030E040EA50E4C701B6010E94F7
:100A2000041787FF10C00AC020E030E040EA50EC15
:100A3000C701B6010E94631818162CF410920A011F
:100A400081E0809341026091430270914402809161
:100A50004502909146020E947B177093400260937A
:100A60003F02FF90EF90DF90CF90089580910601B4
:100A7000882309F459C080910B01811155C08091E0
:100A80004202882309F450C080910901882321F192
:100A900020914F02309150024091510250915202E8
:100AA00060915702709158028091590290915A02B8
:100AB0000E94631887FD10C080914102882361F075
:100AC00048EC50E060E070E0809163029091640235
:100AD0000E94D1001092090180910801882321F120
:100AE00020914B0230914C0240914D0250914E02A8
:100AF0006091530270915402809155029091560278
:100B00000E94631887FD10C080910A01882361F05C
:100B100048EC50E060E070E08091630290916402E4
:100B20000E94D100109208010895CF92DF92EF92B7
:100B3000FF9280914202882361F1809141028823D3
:100B400031F080917102909172020E947C0E80912E
:100B50000A01882331F080916F02909170020E9407
:100B60007C0E609143027091440280914502909105
:100B700046020E947B176B017C01609147027091D5
:100B800048028091490290914A020E947B17A60177
:100B900004C040E050E060E070E080917702909106
:100BA0007802FF90EF90DF90CF900C947F018F92AE
:100BB0009F92AF92BF92CF92DF92EF92FF920F93EC
:100BC0001F9380910B01811172C020E030E04FE74C
:100BD00053E46091470270914802809149029091DC
:100BE0004A020E94091720E030E048EC52E40E94DB
:100BF00068180E947B174B015C016091570270914D
:100C000058028091590290915A020E947B176B0101
:100C10007C0160914F02709150028091510290913D
:100C200052020E947B1784019601AB0160E070E0E4
:100C300080917302909174020E949F0120E030E045
:100C40004FE753E460914302709144028091450262
:100C5000909146020E94091720E030E048EC52E4EF
:100C60000E9468180E947B174B015C01609153023F
:100C70007091540280915502909156020E947B1708
:100C80006B017C0160914B0270914C0280914D028E
:100C900090914E020E947B1784019601AB0161E0A6
:100CA00070E080917302909174020E949F011F91E5
:100CB0000F91FF90EF90DF90CF90BF90AF909F90FB
:100CC0008F90089560913B0270913C028091670281
:100CD000909168020E949F13809175029091760214
:100CE0000E949216609353027093540280935502AF
:100CF0009093560210925702109258021092590285
:100D000010925A020E9495050E9436050C94D70550
:100D100080916D0290916E020E94B30B90910B0135
:100D20009923A9F0082E000C990B8F3F2FEF920703
:100D300031F48091690290916A020C94A4020197A7
:100D400031F48091690290916A020C94AE02089588
:100D500087E00E94A21E892B21F481E080933A0251
:100D6000089580913A02882301F120910B0180912E
:100D7000690290916A02222319F00E94C20205C002
:100D800021E020930B010E94B80210923A02809158
:100D90000701882351F042E350E060E070E0809169
:100DA0006302909164020C94D100089580916702CF
:100DB000909168020E94DA1280916302909164021D
:100DC0000E94CB000E9488060C94A80660E070E0A8
:100DD00080916502909166020E947D02BC01990F8C
:100DE000880B990B0E94B31760934F0270935002C7
:100DF000809351029093520262E070E0809165020C
:100E0000909166020E947D02BC01990F880B990B9C
:100E10000E94B31760934B0270934C0280934D0273
:100E200090934E0264E070E08091650290916602BA
:100E30000E94760291E0811101C090E09093070139
:100E400065E070E080916502909166020E947602F2
:100E500091E0811101C090E09093060108958F9276
:100E60009F92AF92BF92EF92FF920F931F93CF93F7
:100E7000DF9360E070E080916502909166020E94CD
:100E80007D028C0162E070E08091650290916602C3
:100E90000E947D02EC0164E070E080916502909117
:100EA00066020E947602EE24E394811101C0E12CD7
:100EB00065E070E080916502909166020E94760282
:100EC000FF24F394811101C0F12C80904F02909087
:100ED0005002A0905102B0905202B801110F880B3D
:100EE000990B0E94B317A50194010E94041788234F
:100EF00069F0C501B4010E947B17AB0160E070E0AE
:100F000080916502909166020E948F0280904B0250
:100F100090904C02A0904D02B0904E02BE01DD0FA9
:100F2000880B990B0E94B317A50194010E94041726
:100F3000882369F0C501B4010E947B17AB0162E010
:100F400070E080916502909166020E948F0240914C
:100F50000701E41641F064E070E080916502909131
:100F600066020E94790240910601F41691F065E054
:100F700070E08091650290916602DF91CF911F91A0
:100F80000F91FF90EF90BF90AF909F908F900C9437
:100F90007902DF91CF911F910F91FF90EF90BF9059
:100FA000AF909F908F90089510920B0181E08093F5
:100FB0000801809309018091690290916A020E9460
:100FC000C2028091690290916A020E94D5020E9439
:100FD0002F0780916B0290916C020C94490D109236
:100FE00042021092410210920A011092470210929E
:100FF00048021092490210924A0210924302109243
:10100000440210924502109246020C94D40781E0EB
:10101000809342021092410280930A01109247028B
:10102000109248021092490210924A021092430212
:101030001092440210924502109246020C94D4077A
:101040000F931F93CF93DF938CE090E00E94B01A30
:10105000909362028093610286E090E00E94B01A51
:101060009093600280935F028CE090E00E94AE1A41
:10107000EC0100916B0210916C0240916102509161
:10108000620226E030E064E871E00E946904D093D7
:101090005E02C0935D028CE090E00E94AE1AEC010B
:1010A00000916B0210916C0240915F0250916002BE
:1010B00023E030E063E971E00E946904D0935C02B0
:1010C000C0935B028AE090E00E94AE1AEC010091AE
:1010D0006B0210916C0220915D0230915E024FE430
:1010E00052E062EA71E00E94D103E0916102F09166
:1010F0006202D183C0838AE090E00E94AE1AEC01C4
:1011000000916B0210916C0220915D0230915E02A1
:101110004BE452E06EEA71E00E94D103E09161027B
:10112000F0916202D383C28380915B0290915C0252
:101130009583848388E090E00E94AE1AEC01409190
:101140005D0250915E0227E038E06CEB71E00E9496
:10115000F102E0916102F0916202D783C68388E0D8
:1011600090E00E94AE1AEC0140915D0250915E0247
:101170002FEE37E064EC71E00E94F102E091610231
:10118000F0916202D187C08788E090E00E94AE1A99
:10119000EC0140915D0250915E0224ED37E06BEC72
:1011A00071E00E94F102E0916102F0916202D38746
:1011B000C2878AE090E00E94AE1AEC0100916B02B7
:1011C00010916C0220915B0230915C0247E051E08B
:1011D00062ED71E00E944803E0915F02F0916002CD
:1011E000D183C0838AE090E00E94AE1AEC010091A6
:1011F0006B0210916C0220915B0230915C0246E020
:1012000051E06DED71E00E944803E0915F02F091C2
:101210006002D383C28388E090E00E94AE1AEC01A2
:1012200040915D0250915E022DE734E06BEC71E07D
:101230000E94F102E0915F02F0916002D583C483C5
:1012400082E090E00E94AE1AEC0160915D02709124
:101250005E020E94A002D0936A02C0936902CE018E
:10126000DF91CF911F910F910C94B8028F929F92B2
:10127000AF92BF92CF92DF92EF92FF920F931F93A4
:10128000CF93DF9326E040E855E260E070E088E825
:1012900093E00E94AA1982E090E00E94AE1A4C01ED
:1012A00063E070E00E94880182E090E00E94AE1A44
:1012B0008C0164E070E00E94880182E090E00E946E
:1012C000AE1AEC019801A40162E070E00E945F0197
:1012D000D0937802C093770282E090E00E94AE1A29
:1012E000EC012CE030E04BE050E06AE070E00E945E
:1012F0006D16D0937602C09375028CE090E00E9448
:10130000AE1AEC0100E022E040E167E20E94E20C4C
:10131000D0936C02C0936B02CE010E94930D80911A
:101320006B0290916C020E94490D82E090E00E9455
:10133000AE1AEC0160916B0270916C020E949B01ED
:10134000D0937402C093730281E090E00E94AE1AC1
:10135000EC0146E065E00E94570BD0936E02C0930B
:101360006D02CE010E942E0C60E087E00E94371EC5
:1013700089E390E00E94AE1AEC011F921F928FE366
:10138000882E8F9290E8992E9F921F921F92A12CE7
:10139000B12C20EAC22E20E4D22EE12CF12C00E068
:1013A00010E42FE432E047E452E067E572E0CE015A
:1013B0000E947011D0937202C093710200E010E09D
:1013C0002FE733E440E050E0BA01CE010E9458100C
:1013D00061E070E080917102909172020E941E1192
:1013E00089E390E00E94AE1AEC011F921F928F9247
:1013F0009F921F921F92E12CF12C00E010E42BE44D
:1014000032E043E452E063E572E00E947011D09351
:101410007002C0936F0200E010E02FE733E440E079
:1014200050E0BA01CE010E94581061E070E0809156
:101430006F02909170020E941E1181E090E00E9464
:10144000AE1AEC010E947502D0936602C093650249
:101450000E94E6060E9420088CEA90E00E94AE1AE4
:10146000EC010E94DF11D0936802C09367022EE85E
:1014700034E040EA56E861E070E0CE010E9492124A
:1014800090933E0280933D0222E636E048EE53E020
:1014900060E070E080916702909168020E94921271
:1014A00090933C0280933B0281E090E00E94AE1A50
:1014B000EC0169E070E00E949E00D0936402C0934A
:1014C00063028DB79EB70C960FB6F8949EBF0FBE01
:1014D0008DBFDF91CF911F910F91FF90EF90DF9023
:1014E000CF90BF90AF909F908F90089520916F0004
:1014F0002E7F20936F0090937C0280937B0210924A
:10150000800010928100DB01CA010697A109B10990
:101510008A3F9F40A105B10590F4DB01CA0164E058
:10152000880F991FAA1FBB1F6A95D1F740E350E0AF
:1015300061E070E0481B590B6A0B7B0B6BC0DB0151
:10154000CA019051A109B10981159047A105B105C2
:1015500080F4DB01CA01880F991FAA1FBB1F46E058
:1015600050E061E070E0481B590B6A0B7B0B82E096
:1015700052C0DB01CA019058A109B10981159048F8
:10158000A340B10598F4DB01CA0142E0B695A795E6
:10159000979587954A95D1F740E050E061E070E07B
:1015A000481B590B6A0B7B0B83E035C0DB01CA017A
:1015B00014970097AC40B10598F4DB01CA0134E000
:1015C000B695A795979587953A95D1F740E050E065
:1015D00061E070E0481B590B6A0B7B0B84E01BC079
:1015E000DB01CA0150970097A043B10598F4DB01D5
:1015F000CA0126E0B695A795979587952A95D1F7C4
:1016000040E050E061E070E0481B590B6A0B7B0B37
:1016100085E001C081E08093810050937A0240937D
:101620007902109285001092840080916F00816091
:1016300080936F0078940895EFE6F0E080818E7FCC
:1016400080830895EFE6F0E08081816080830895D3
:101650001F920F920FB60F9211242F933F934F9327
:101660005F936F937F938F939F93AF93BF93EF930A
:10167000FF938091790290917A02909385008093F4
:101680008400E0917B02F0917C020995FF91EF913B
:10169000BF91AF919F918F917F916F915F914F918A
:1016A0003F912F910F900FBE0F901F901895CF93E1
:1016B000DF93DC011C9280917D02883008F050C0DD
:1016C00080917D028C9380917D028F5F80937D025B
:1016D000CC91D0E0C358DD4F6983CC91D0E0C358A2
:1016E000DD4F49878C9190E070E0FB01E057FF4FA0
:1016F000E491F0E0EE0FFF1FEC55FF4F2591349180
:10170000880F991FFC01E358FD4F328B218B8C9180
:1017100090E050E0FA01E057FF4FE491F0E0EE0F67
:10172000FF1FEC55FF4F25913491880F991FFC0145
:10173000E358FD4F32A321A38C9190E0FB01E458C4
:10174000FF4F6491FC01E358FD4F61AB8C9190E039
:10175000FA01E458FF4F4491FC01E358FD4F41AFBB
:10176000DF91CF910895DC0180917D028830D0F423
:10177000EC91F0E0E254FD4F8081EC91F0E0E25416
:10178000FD4F873821F483E080838FEF08958081B7
:101790008B3449F4EC91F0E0E254FD4F83E0808318
:1017A00081E00895089580E00895CF934A3185EF50
:1017B00058076105710508F5443A8EE1580761053F
:1017C0007105F8F4493A87E0580761057105E8F4B6
:1017D000453D83E0580761057105D8F44B3E81E033
:1017E000580761057105C8F4463F5105610571054B
:1017F000C0F487E0A0E0B4E017C081E0A1E0B0E071
:1018000013C082E0A8E0B0E00FC083E0A0E2B0E047
:101810000BC084E0A0E4B0E007C085E0A0E8B0E041
:1018200003C086E0A0E0B1E0C2E0C093B0008093C6
:10183000B1009A01AB010E94A41F9B01AC0160E0C2
:1018400074E284EF90E00E94821F21502093B30045
:10185000C093700080E88FBFCF910895CF93DF933E
:1018600020917D022830C0F4EC01E881F0E0E358DB
:10187000FD4F818160E00E94371EE881F0E0E3586F
:10188000FD4F818560E00E94371E40EA5FE060E026
:1018900070E0CE010E94D50BDF91CF9108951F9289
:1018A0000F920FB60F9211242F933F938F939F9314
:1018B000EF93FF9380917D028093C6028091C602D0
:1018C0009FEF980F9093C602882309F469C0109285
:1018D000C702E091C602EE0FFF0BE358FD4F0188EF
:1018E000F289E02D2081E091C6020E2E000CFF0B44
:1018F000E358FD4F91A98091C702922321E009F49A
:1019000020E0822B8093C7028091C702880F990B39
:101910008093C702E091C602EE0FFF0BE358FD4F24
:1019200001A0F2A1E02D2081E091C6020E2E000C54
:10193000FF0BE358FD4F91AD8091C702922321E048
:1019400009F420E0822B8093C702E091C6020E2E9C
:10195000000CFF0BE254FD4F80812091C702837081
:1019600090E0022E000C330B8217930709F4A6CFE8
:10197000E091C6020E2E000CFF0BE254FD4F808159
:10198000880F880F80838091C702E091C6020E2ED7
:10199000000CFF0BE254FD4F9081892B80838ECF8A
:1019A000FF91EF919F918F913F912F910F900FBEDB
:1019B0000F901F90189510927D02089580E090E09E
:1019C000089508950F93FC01138212828FEE91E027
:1019D00091838083648340872187028788E083879F
:1019E0000F9108951F93CF93DF93EC01162F6C8115
:1019F00086E393E00E9449166B85612B86E393E0B2
:101A00000E94001686E393E0DF91CF911F910C9422
:101A100066160F931F93CF938C01C62F64600E94AC
:101A2000F20C81E090E00E94691D6C2F6B7FC80171
:101A30000E94F20C82E390E0CF911F910F910C94E1
:101A4000691D1F93CF93DF93EC01162F0E94F20CB8
:101A5000612FCE01DF91CF911F910C94090D0F934F
:101A60001F93CF93DF938C01C62FD42F607F642BFD
:101A70000E94210D80E1C89FB00111246D2BC80187
:101A8000DF91CF911F910F910C94210D40E00C94A8
:101A90002F0D61E00E94460D80ED97E00C94691DCA
:101AA00062E00E94460D80ED97E00C94691DCF9393
:101AB000DF93CDB7DEB728970FB6F894DEBF0FBE21
:101AC000CDBF9C0188E0E0E1F1E0DE0111960190DC
:101AD0000D928A95E1F7F9018185841710F44FEF93
:101AE000480FFE013196E40FF11DE40FF11D9081C6
:101AF000690F6068C90128960FB6F894DEBF0FBE63
:101B0000CDBFDF91CF910C94460DFC016681262F4D
:101B1000246026836C600C94460D41E00E942F0DDA
:101B200081E090E00895CF93DF93EC0186E393E0AA
:101B30000E943F161D828985823010F098E09D83B7
:101B40009A85992329F0813019F48D8184608D83E1
:101B500062E370E080E090E00E942D1D6B85CE0175
:101B60000E94F20C68EE73E080E090E00E942D1D70
:101B700060E3CE010E94210D84E991E10E94691D7C
:101B800060E3CE010E94210D84E991E10E94691D6C
:101B900060E3CE010E94210D86E990E00E94691D5C
:101BA00060E2CE010E94210D6D816062CE010E9433
:101BB000460D84E08E83CE010E94850DCE010E94E9
:101BC000490D82E08F8366E0CE010E94460DCE0172
:101BD000DF91CF910C94500DCF93DF93EC01842FC4
:101BE00068834A83298361E00E94371E61E088810F
:101BF0000E94371E60E089810E94371E61E08A8161
:101C0000DF91CF910C94731ECF92DF92EF92FF92EF
:101C10001F93CF93DF937C0110E0C7E0D0E0CC248A
:101C2000C394D12C60E0F70180810E94731E8FE97C
:101C30009FE00197F1F700C00000F70181810E9449
:101C4000A21E892B39F0C6010C2E01C0880F0A9400
:101C5000EAF7182B61E0F70180810E94731E8FE97B
:101C60009FE00197F1F700C000002197D8F6812F7F
:101C7000DF91CF911F91FF90EF90DF90CF9008956B
:101C80000F931F93CF93DF938C0160E0FC0182815F
:101C90000E94731E8FE99FE00197F1F700C00000DA
:101CA000C8010E94040EC82FD0E0DC2FCC27C80149
:101CB0000E94040EC82B61E0F80182810E94731E0D
:101CC000C2FD11C0BE0183E0769567958A95E1F764
:101CD00080E090E00E94B11720E030E040E85EE351
:101CE0000E94681804C060E070E080EC9FE7DF911C
:101CF000CF911F910F9108952F923F924F925F9233
:101D00006F927F928F929F92AF92BF92CF92DF920B
:101D1000EF92FF920F931F93CF93DF93CDB7DEB770
:101D20002B970FB6F894DEBF0FBECDBFDC01D8965F
:101D3000BC91B983B11102C01982E6C09B878A8722
:101D40000E94FC1C6A837B838C839D83EA85FB85D0
:101D500080A191A1A2A1B3A14A815B816C817D8107
:101D6000481B590B6A0B7B0B84A595A5A6A5B7A5A7
:101D7000481759076A077B07F8F2028CF38DE02DAC
:101D800080809180A280B380AA85BB855E96ED910C
:101D9000FC915F97A501940160817181828193819B
:101DA0000E9497162B013C01EA85FB852089318929
:101DB000428953890E946818AA85BB8594962D9103
:101DC0003D914D915C9197970E9498166B017C0113
:101DD000EA85FB8564A375A386A397A324A835A8E9
:101DE00006A917A99101A8010E94631818161CF4EE
:101DF000C101D80118C0AA85BB85D0968D919D914F
:101E00000D90BC91A02D8E839F83A887B9879C01DC
:101E1000AD01C701B6010E94041787FF0AC08E8179
:101E20009F81A885B985EA85FB8584A395A3A6A390
:101E3000B7A3AA85BB851C962D913D914D915C91D0
:101E40001F97C301B2010E946818EA85FB8524A18F
:101E500035A146A157A10E9498166B017C01AA8565
:101E6000BB8598962D913D914D915C919B97C501B5
:101E7000B4010E949716EA85FB8524893589468935
:101E800057890E9468189B01AC01C701B6010E94E6
:101E900097166B017C019B01AC01B101C8010E9446
:101EA000041787FD17C0AA85BB85D0962C90D097C4
:101EB000D1963C90D197D2960C91D297D3961C9103
:101EC0009101A801B601C7010E94041787FD02C055
:101ED00016018701AA85BB855C96ED91FC915D9703
:101EE000C101D80180839183A283B383EA85FB85F6
:101EF00080A691A6A2A6B3A68A819B81AC81BD8152
:101F000080A391A3A2A3B3A389812B960FB6F894C3
:101F1000DEBF0FBECDBFDF91CF911F910F91FF901C
:101F2000EF90DF90CF90BF90AF909F908F907F9079
:101F30006F905F904F903F902F9008954F925F92D7
:101F40006F927F928F929F92AF92BF92CF92DF92C9
:101F5000EF92FF920F931F93CF93DF9300D000D0A7
:101F600000D0CDB7DEB79E838D832A013B014801A7
:101F7000590120E030E0A901C301B2010E94041719
:101F800087FD7FC020E030E0A901C501B4010E94B7
:101F9000041787FD76C020E030E0A901C701B60133
:101FA0000E94041787FD6DC0ED81FE814082518241
:101FB0006282738284829582A682B782C086D1862D
:101FC000E286F38664A575A586A597A50E94B1173C
:101FD00020E030E04AE754E40E94091769837A83DD
:101FE0008B839C83ED81FE81448655866686778649
:101FF0009B01AC01C501B4010E9468184B015C0152
:10200000ED81FE81608B718B828B938B29813A816C
:102010004B815C81C701B6010E9409176B017C01ED
:10202000ED81FE81648B758B868B978B808D918D76
:10203000019739F5A301920160E070E0CB010E94A5
:102040009716ED81FE816487758786879787A5013E
:10205000940160E070E0CB010E949716ED81FE8153
:10206000608B718B828B938BA701960160E070E08F
:10207000CB010E949716ED81FE81648B758B868B58
:10208000978B26960FB6F894DEBF0FBECDBFDF91BB
:10209000CF911F910F91FF90EF90DF90CF90BF9065
:1020A000AF909F908F907F906F905F904F9008952A
:1020B0002F923F924F925F926F927F928F929F9258
:1020C000AF92BF92CF92DF92EF92FF920F931F9346
:1020D000CF93DF93EC016A017B0148015901A9010B
:1020E0009801C701B6010E94631887FF4EC0C8AAB5
:1020F000D9AAEAAAFBAA8CAA9DAAAEAABFAA88ADB1
:10210000882309F442C02C8C3D8CF1014080518021
:1021100062807380A3019201C501B4010E9404177B
:1021200087FF06C0F10180829182A282B3820DC036
:10213000A3019201C701B6010E94631818162CF47E
:10214000F101C082D182E282F3828CA09DA0AEA078
:10215000BFA0CCA8DDA8EEA8FFA8A7019601C501E5
:10216000B4010E946318181664F0C8A8D9A8EAA898
:10217000FBA8A7019601C501B4010E94041787FFBF
:1021800004C0CCA2DDA2EEA2FFA2DF91CF911F91ED
:102190000F91FF90EF90DF90CF90BF90AF909F9006
:1021A0008F907F906F905F904F903F902F90089509
:1021B0008F929F92AF92BF92CF92DF92EF92FF9257
:1021C000CF93DF93EC01EC8DFD8DC080D180E28058
:1021D000F380CCA2DDA2EEA2FFA2EA8DFB8D80816E
:1021E0009181A281B38188A799A7AAA7BBA78CA830
:1021F0009DA8AEA8BFA8A5019401C701B6010E9481
:102200006318181664F088A899A8AAA8BBA8A50105
:102210009401C701B6010E94041787FF04C08CA275
:102220009DA2AEA2BFA2DF91CF91FF90EF90DF9071
:10223000CF90BF90AF909F908F9008951F93CF93B2
:10224000DF93EC0111E06130710509F010E098AD09
:1022500081E08927181303C0CE010E94D81018AF5F
:10226000DF91CF911F9108950F931F93CF93DF9329
:10227000EC018B0188AD882361F1888D998D8617DB
:10228000970739F12C853D854E855F8560E070E0CC
:10229000CB010E9497166C877D878E879F87288940
:1022A00039894A895B8960E070E0CB010E9497160A
:1022B000688B798B8A8B9B8B2C893D894E895F89B2
:1022C00060E070E0CB010E9497166C8B7D8B8E8B4B
:1022D0009F8B198F088FDF91CF911F910F910895D8
:1022E0004F925F926F927F928F929F92AF92BF9226
:1022F000CF92DF92EF92FF920F931F93CF93DF93D2
:1023000000D000D0CDB7DEB74C0127013801A9823B
:10231000BA82CB82DC82FC01558F448F738F628F2F
:10232000378F268F10AE10AA11AA12AA13AA80E026
:1023300090E0AFE7B3E484AB95ABA6ABB7AB84E674
:1023400090E0A0E0B0E084A795A7A6A7B7A76B8D03
:102350007C8DC4010E943411CF88D88CE98CFA8C12
:1023600009811A812B813C81B301A201C4010E9421
:102370009E0F0E94FC1CF40104A515A526A537A5F7
:10238000DC01CB01801B910BA20BB30B80A391A3AB
:10239000A2A3B3A30F900F900F900F90DF91CF9156
:1023A0001F910F91FF90EF90DF90CF90BF90AF9073
:1023B0009F908F907F906F905F904F900895CF92F5
:1023C000DF92EF92FF92CF93DF93EC010E94FC1C0F
:1023D0007E012CE8E20EF11CFE01B8966E019E0112
:1023E000245C3F4FD7011D927D0111921192D601BD
:1023F0006D937D938D939D936D01AF01425B5F4F14
:10240000DA011D921C92E217F30761F7C655DF4F00
:1024100019821882DF91CF91FF90EF90DF90CF90DB
:102420000895FC01E655FF4F208131812A303105A6
:102430006CF4E258F10920E030E081919191892B10
:1024400041F02F5F3F4F2A303105B9F78FEF9FEFF3
:102450000895C90108954F925F926F927F92AF9253
:10246000BF92CF92DF92EF92FF920F931F93CF9381
:10247000DF93EC012A013B0169010E9411127C01EA
:1024800097FD31C0C114D10471F15C01AA0CBB1CD1
:10249000AA0CBB1CAC0EBD1EF50144AE55AE66AE1B
:1024A00077AEF701EE0FFF1FEC0FFD1FD1A6C0A600
:1024B000EC59FF4F11830083FE01EE0DFF1DE45721
:1024C000FF4F81E080830E94FC1CF50160837183D3
:1024D00082839383C655DF4F8881998101969983C2
:1024E0008883C70102C08FEF9FEFDF91CF911F91CB
:1024F0000F91FF90EF90DF90CF90BF90AF907F90C3
:102500006F905F904F900895615F7F4F660F771FC8
:10251000660F771F860F971FFC012083318342834C
:10252000538308950F931F9300E010E00E942B1235
:102530001F910F910895CF93DF936A307105BCF519
:10254000EC01C655DF4F288139812115310579F11C
:10255000DB01AA0FBB1FA80FB91F98964D915C9184
:102560009997452B21F199961C921E929897FC0100
:10257000E60FF71FE457FF4F1082FD01EA56FF4FA9
:1025800011821082615F7F4F660F771F660F771F82
:10259000FC01E60FF71F1082118212821382A858E5
:1025A000BF4F1D921C922150310939832883DF913E
:1025B000CF9108952F923F924F925F926F927F92A8
:1025C0008F929F92AF92BF92CF92DF92EF92FF9243
:1025D0000F931F93CF93DF9300D000D000D0CDB7DF
:1025E000DEB79C838B830E94FC1C6B017C01EB811A
:1025F000FC81EC59FF4F0B811C81980124573F4F00
:10260000C80188589F4F9A8389831E830D83222493
:102610002394312C13AA12AACF01CC97DC018D91FF
:102620009C91892BF1F1AD81BE818D909D90AD90F3
:10263000BC901397DC964D915D916D917C91DF97E5
:1026400026013701481859086A087B0844165506C0
:102650006606770630F1480D591D6A1D7B1D4D93A6
:102660005D936D937C931397D9018C918823C9F066
:10267000408151814115510519F433AA22AA11C094
:10268000848995898417950764F433AA22AA019650
:10269000958B848B8417950724F082E090E093ABB0
:1026A00082AB3296AD81BE811496BE83AD832F5F1F
:1026B0003F4F89819A81E817F90709F0ABCFE12CE8
:1026C000F12CF801EA56FF4F80819181813091050C
:1026D00071F0029791F4D8019896ED91FC91999739
:1026E0000995B7018B819C810E949B1206C0D8017D
:1026F0009896ED91FC9199970995BFEFEB1AFB0A1B
:102700000E5F1F4F8AE0E816F104D9F626960FB641
:10271000F894DEBF0FBECDBFDF91CF911F910F9117
:10272000FF90EF90DF90CF90BF90AF909F908F90F1
:102730007F906F905F904F903F902F9008950F93F0
:102740001F93CF93DF936A30710574F4EB018C0112
:102750000E94FC1CCC0FDD1FCC0FDD1FC00FD11F52
:10276000688379838A839B83DF91CF911F910F9137
:1027700008956A3071053CF4680F791FFB01E45736
:10278000FF4F81E0808308956A30710534F4680F4B
:10279000791FFB01E457FF4F108208951092350313
:1027A00081E0809333031092320361E082E10E9462
:1027B000731E61E083E10E94731EE9EBF0E080810B
:1027C0008E7F808380818D7F808388E48093B800B2
:1027D00085E48093BC0008950F93413208F04AC00D
:1027E000909135039111FCCF32E030933503009383
:1027F00033033FEF3093C80210920D0340930C0354
:10280000562FAEE0B3E0FB013E2F351B341718F412
:1028100031913D93F9CF1092340330913403880FF6
:10282000832B8093340380913203813061F41092C2
:102830003203809134038093BB008091BC0083FD00
:10284000F8CF85EC01C085EE8093BC00222321F0F7
:10285000809135038230D1F38091C8028F3F79F0A7
:102860008091C802803241F08091C802803331F0FB
:1028700094E005C091E003C092E001C093E0892F8D
:102880000F9108954091EA02262F30E0240F311D68
:1028900021323105DCF4209135032430C9F4FC01E8
:1028A00080E090E0861758F43091EA022191DC0133
:1028B000A451BD4FA30FB11D2C930196F3CF80916E
:1028C000EA02680F6093EA0280E0089581E00895CB
:1028D00082E0089585ED8093BC008091BC0084FD6A
:1028E000FCCF10923503089585EC8093BC001092C4
:1028F000350308951F920F920FB60F9211242F9354
:102900003F934F935F936F937F938F939F93AF9377
:10291000BF93EF93FF938091B900887F803609F4CD
:102920009EC078F5883209F45DC090F4803109F4D6
:1029300056C038F4882309F4F5C0883009F44FC034
:10294000F5C0883109F44EC0803209F45FC0EEC092
:10295000803409F46AC058F4803309F457C08833CE
:1029600009F0E4C08093C8020E947414DFC080356F
:1029700009F44FC0883509F45DC0883409F0D6C029
:10298000D3C0883909F4C4C0A8F4883709F467C0F3
:1029900038F4883609F463C0803709F460C0C6C0D3
:1029A000883809F4B5C0803909F45FC0803809F06F
:1029B000BDC05BC0803B09F483C038F4803A09F4A1
:1029C00066C0883A09F47CC0B1C0803C09F4A4C058
:1029D000883C09F4A1C0883B09F487C0A7C0809156
:1029E000340310C090910D0380910C03981770F57B
:1029F000E0910D0381E08E0F80930D03F0E0E25F24
:102A0000FC4F80818093BB0085EC83C08093C8021B
:102A10008BC0E0910D0381E08E0F80930D038091B8
:102A2000BB00F0E0E25FFC4F808390910D0380914A
:102A30000C036BC0E0910D0381E08E0F80930D03BA
:102A40008091BB00F0E0E25FFC4F80838091330314
:102A500081116AC081E08093320384EA5EC083E022
:102A6000809335031092C902CFCF8091C902803282
:102A700008F04EC0E091C90281E08E0F8093C90238
:102A80008091BB00F0E0E653FD4F8083BDCF0E94F4
:102A900074148091C902803230F4E091C902F0E0F0
:102AA000E653FD4F10826091C90270E0E0912E0361
:102AB000F0912F038AEC92E009951092C90236C07A
:102AC00084E0809335031092EB021092EA02E091C9
:102AD0003003F091310309958091EA02811105C01C
:102AE00081E08093EA021092EC02E091EB0281E037
:102AF0008E0F8093EB02F0E0E451FD4F80818093D4
:102B0000BB009091EB028091EA02981708F47CCF09
:102B100085E88093BC000AC085EC8093BC001092CD
:102B2000350304C01092C8020E946A14FF91EF910D
:102B3000BF91AF919F918F917F916F915F914F91D5
:102B40003F912F910F900FBE0F901F90189580917D
:102B5000660390E020916703821B9109089590918C
:102B6000670380916603981750F4E92FF0E0E85965
:102B7000FC4F208130E09F5F9093670302C02FEFEE
:102B80003FEFC9010895E091670380916603E8175C
:102B900030F4F0E0E859FC4F808190E008958FEF29
:102BA0009FEF08950895CF92DF92EF92FF920F93D7
:102BB0001F93CF93DF937C01CB018A0120914203C5
:102BC000222389F0EB016B01C40ED51ECC15DD0567
:102BD00069F06991D701ED91FC910190F081E02DB0
:102BE000C7010995F3CF642F0E944214C801DF91F9
:102BF000CF911F910F91FF90EF90DF90CF900895AC
:102C0000CF93DF931F92CDB7DEB769832091420344
:102C10002223D1F020914303203240F021E030E024
:102C2000FC013383228380E090E015C0809144034F
:102C3000E82FF0E0EB5BFC4F998190838F5F8093EE
:102C400044038093430305C061E0CE0101960E94D6
:102C5000421481E090E00F90DF91CF910895FC0144
:102C60001382128288EE93E0A0E0B0E08483958323
:102C7000A683B7838BEF91E09183808308951092B0
:102C800067031092660310924403109243030C945E
:102C9000CE1381E080934203609365031092440356
:102CA0001092430308950F93062F21E040914303B0
:102CB00065E473E0809165030E94EC131092440375
:102CC00010924303109242030F91089561E00C9417
:102CD000531686E393E00C942F16DF92EF92FF9247
:102CE0000F931F93CF93DF938C01D62EE42EF22EF9
:102CF00083E090E00E94AE1AEC012D2D4E2D6F2D39
:102D00000E94EC0DF801D183C08364EF71E080E094
:102D100090E0DF91CF911F910F91FF90EF90DF90A6
:102D20000C942D1DFC01808191810C94400E505813
:102D3000BB27AA270E94AF160C9429180E941B18C3
:102D400038F00E94221820F039F49F3F19F426F43D
:102D50000C9418180EF4E095E7FB0C941218E92F68
:102D60000E943A1858F3BA17620773078407950749
:102D700020F079F4A6F50C945C180EF4E0950B2E77
:102D8000BA2FA02D0B01B90190010C01CA01A001BD
:102D90001124FF27591B99F0593F50F4503E68F118
:102DA0001A16F040A22F232F342F4427585FF3CF59
:102DB000469537952795A795F0405395C9F77EF42A
:102DC0001F16BA0B620B730B840BBAF09150A1F073
:102DD000FF0FBB1F661F771F881FC2F70EC0BA0FF9
:102DE000621F731F841F48F4879577956795B79581
:102DF000F7959E3F08F0B0CF9395880F08F099277C
:102E0000EE0F9795879508950E94EE1708F481E0DC
:102E100008950E941D170C9429180E94221858F03A
:102E20000E941B1840F029F45F3F29F00C941218FF
:102E300051110C945D180C9418180E943A1868F3FC
:102E40009923B1F3552391F3951B550BBB27AA2763
:102E500062177307840738F09F5F5F4F220F331F9D
:102E6000441FAA1FA9F335D00E2E3AF0E0E832D065
:102E700091505040E695001CCAF72BD0FE2F29D068
:102E8000660F771F881FBB1F261737074807AB073A
:102E9000B0E809F0BB0B802DBF01FF2793585F4FAF
:102EA0003AF09E3F510578F00C9412180C945D187E
:102EB0005F3FE4F3983ED4F3869577956795B79591
:102EC000F7959F5FC9F7880F911D9695879597F99C
:102ED0000895E1E0660F771F881FBB1F6217730715
:102EE0008407BA0720F0621B730B840BBA0BEE1F2A
:102EF00088F7E09508950E9482176894B1110C94A8
:102F00005D1808950E94421888F09F5798F0B92FD5
:102F10009927B751B0F0E1F0660F771F881F991F0E
:102F20001AF0BA95C9F714C0B13091F00E945C183C
:102F3000B1E008950C945C18672F782F8827B85F4C
:102F400039F0B93FCCF3869577956795B395D9F766
:102F50003EF490958095709561957F4F8F4F9F4F70
:102F60000895E89409C097FB3EF49095809570957C
:102F700061957F4F8F4F9F4F9923A9F0F92F96E9C5
:102F8000BB279395F695879577956795B795F1113A
:102F9000F8CFFAF4BB0F11F460FF1BC06F5F7F4FD7
:102FA0008F4F9F4F16C0882311F096E911C07723E9
:102FB00021F09EE8872F762F05C0662371F096E8F2
:102FC000862F70E060E02AF09A95660F771F881FC1
:102FD000DAF7880F9695879597F90895990F000865
:102FE000550FAA0BE0E8FEEF16161706E807F907DB
:102FF000C0F012161306E407F50798F0621B730B76
:10300000840B950B39F40A2661F0232B242B252BF6
:1030100021F408950A2609F4A140A6958FEF811D99
:10302000811D089597F99F6780E870E060E008953A
:103030009FEF80EC089500240A94161617061806D0
:103040000906089500240A941216130614060506AC
:103050000895092E0394000C11F4882352F0BB0F3D
:1030600040F4BF2B11F460FF04C06F5F7F4F8F4FA0
:103070009F4F089557FD9058440F551F59F05F3FDB
:1030800071F04795880F97FB991F61F09F3F79F08A
:1030900087950895121613061406551FF2CF46950C
:1030A000F1DF08C0161617061806991FF1CF86958E
:1030B0007105610508940895E894BB276627772772
:1030C000CB0197F908950E94EE1708F48FEF089549
:1030D0000E947B180C9429180E941B1838F00E943B
:1030E000221820F0952311F00C9412180C94181843
:1030F00011240C945D180E943A1870F3959FC1F347
:10310000950F50E0551F629FF001729FBB27F00D95
:10311000B11D639FAA27F00DB11DAA1F649F6627EA
:10312000B00DA11D661F829F2227B00DA11D621F39
:10313000739FB00DA11D621F839FA00D611D221FF3
:10314000749F3327A00D611D231F849F600D211DD7
:10315000822F762F6A2F11249F5750409AF0F1F05A
:1031600088234AF0EE0FFF1FBB1F661F771F881FC3
:1031700091505040A9F79E3F510580F00C941218D1
:103180000C945D185F3FE4F3983ED4F386957795F1
:103190006795B795F795E7959F5FC1F7FE2B880F69
:1031A000911D9695879597F90895FC01918D228D33
:1031B000892F90E0805C9F4F821B91098F73992724
:1031C0000895FC01918D828D981731F0828DE80F62
:1031D000F11D858D90E008958FEF9FEF0895FC011C
:1031E000918D828D981761F0828DDF01A80FB11D3E
:1031F0005D968C91928D9F5F9F73928F90E0089562
:103200008FEF9FEF0895FC01538D448D252F30E003
:10321000842F90E0821B930B541710F0CF960895E3
:103220000197089587E69AE1892B49F080E090E0C4
:10323000892B29F00E94671A81110C9400000895CF
:10324000FC01848DDF01A80FB11DA35ABF4F2C9143
:10325000848D90E001968F739927848FA689B78912
:103260002C93A089B1898C9180648C93938D848DEB
:10327000981306C00288F389E02D80818F7D8083BA
:103280000895EF92FF920F931F93CF93DF93EC017A
:1032900081E0888F9B8D8C8D981305C0E889F98912
:1032A000808185FD24C0F62E0B8D10E00F5F1F4F2F
:1032B0000F731127E02E8C8DE8120CC00FB607FC9F
:1032C000FACFE889F989808185FFF5CFCE010E9488
:1032D0002019F1CF8B8DFE01E80FF11DE35AFF4F4E
:1032E000F0820B8FEA89FB898081806207C0EE89BA
:1032F000FF896083E889F98980818064808381E027
:1033000090E0DF91CF911F910F91FF90EF90089582
:10331000CF93DF93EC01888D8823C9F0EA89FB897C
:10332000808185FD05C0A889B9898C9186FD0FC073
:103330000FB607FCF5CF808185FFF2CFA889B98948
:103340008C9185FFEDCFCE010E942019E7CFDF9150
:10335000CF910895CF92DF92EF92FF921F93CF9378
:10336000DF93EC016A017B01122FE889F98982E081
:1033700080834115514E61057105B1F060E079E03F
:103380008DE390E0A70196010E94821FDA01C90136
:103390000197A109B109B695A795979587959C01C5
:1033A000211580E13807A8F0E889F989108260E8E2
:1033B00074E88EE190E0A70196010E94821FDA0175
:1033C000C9010197A109B109B695A7959795879568
:1033D0009C01EC85FD853083EE85FF852083188E6A
:1033E000EC89FD891083EA89FB8980818061808373
:1033F000EA89FB89808188608083EA89FB898081F2
:1034000080688083EA89FB8980818F7D8083DF915A
:10341000CF911F91FF90EF90DF90CF9008951F9272
:103420000F920FB60F9211242F938F939F93EF93C8
:10343000FF93E0919803F09199038081E0919E03BE
:10344000F0919F0382FD12C090818091A1038F5F54
:103450008F732091A203821751F0E091A103F0E055
:10346000E857FC4F958F8093A10301C08081FF91A5
:10347000EF919F918F912F910F900FBE0F901F9002
:1034800018951F920F920FB60F9211242F933F930E
:103490004F935F936F937F938F939F93AF93BF935C
:1034A000EF93FF9388E893E00E942019FF91EF913A
:1034B000BF91AF919F918F917F916F915F914F914C
:1034C0003F912F910F900FBE0F901F90189588E895
:1034D00093E00E94D51821E0892B09F420E0822F87
:1034E0000895E8E8F3E01382128288EE93E0A0E00A
:1034F000B0E084839583A683B7838DE092E09183C7
:10350000808385EC90E09587848784EC90E09787B2
:10351000868780EC90E0918B808B81EC90E0938BA0
:10352000828B82EC90E0958B848B86EC90E0978B7D
:10353000868B118E128E138E148E089508950E941C
:10354000741D0E949E1A0E943609C2E1D9E10E94B0
:10355000D6062097E1F30E941219F9CF0C94C41FEC
:103560000C94C41F0C945C20CF92DF92EF92FF92D8
:103570000F931F93CF93DF936C017A018B01C0E00F
:10358000D0E0CE15DF0581F0D8016D918D01D60117
:10359000ED91FC910190F081E02DC6010995892BF8
:1035A00011F02196EECF7E01C701DF91CF911F91DF
:1035B0000F91FF90EF90DF90CF9008956115710506
:1035C00079F0FB0101900020E9F73197AF01461B2C
:1035D000570BDC01ED91FC910280F381E02D099401
:1035E00080E090E00895DB0114964D915C91159771
:1035F0006D917C91DC01ED91FC910280F381E02DD5
:1036000009940C94DE1ADC01ED91FC910190F0819B
:10361000E02D09948F929F92AF92BF92EF92FF920A
:103620000F931F93CF93DF93CDB7DEB7A1970FB65C
:10363000F894DEBF0FBECDBF7C01FA01CB0119A209
:10364000223008F42AE08E010F5D1F4F822E912C4C
:10365000A12CB12CBF01A50194010E94821FF90188
:10366000CA01015011096A3010F4605D01C0695C43
:10367000D8016C93232B242B252B61F7B801C701AC
:103680000E94DE1AA1960FB6F894DEBF0FBECDBF22
:10369000DF91CF911F910F91FF90EF90BF90AF906E
:1036A0009F908F9008952115310541F4DC01ED9133
:1036B000FC910190F081E02D642F09940C940A1B79
:1036C0009A01AB0160E070E00C94531B7F928F92E3
:1036D0009F92AF92BF92CF92DF92EF92FF920F93A1
:1036E0001F93CF93DF938C016A017B01722E9A01A5
:1036F000AB01C701B6010E947D1F882319F06EE15E
:1037000072E027C046015701E894B7F82FEF3FEF6A
:103710004FE75FE7C501B4010E947D1F81110DC015
:103720002FEF3FEF4FE75FE7C501B4010E94041799
:1037300018161CF462E272E00CC02FEF3FEF4FE767
:103740005FE4C701B6010E946318181694F466E29C
:1037500072E0C801DF91CF911F910F91FF90EF9020
:10376000DF90CF90BF90AF909F908F907F900C9400
:10377000DE1A2FEF3FEF4FE75FECC701B6010E9463
:10378000041787FDE4CF20E030E0A901C701B601AE
:103790000E94041787FF0AC06DE2C8010E94031B44
:1037A000EC01F7FAF094F7F8F09402C0C0E0D0E032
:1037B000B12C60E070E080E09FE37B1441F020E0FA
:1037C00030E040E251E40E940917B394F6CFA7011C
:1037D00096010E9498166B017C010E9482174B0192
:1037E0005C012AE0AB01BC01C8010E940A1BC80FA2
:1037F000D91F7720B9F1C501B4010E94B1179B010F
:10380000AC01C701B6010E9497166B017C016EE204
:10381000C8010E94031BC80FD91F20E030E040E21E
:1038200051E4C701B6010E9468184B015C010E9477
:1038300082176B017C014AE050E0C8010E94601BC6
:10384000C80FD91FB60180E090E00E94B1179B011C
:10385000AC01C501B4010E9497166B017C017A94FA
:103860007110DBCFCE01DF91CF911F910F91FF90AF
:10387000EF90DF90CF90BF90AF909F908F907F9010
:1038800008950C94661B08958230E8F4E82FF0E068
:10389000EE0FFF1FE45FFE4F71836083813041F0C4
:1038A000809169008C7F482B40936900E89A0895C5
:1038B00080916900837F440F551F440F551F482B8B
:1038C00040936900E99A08951F920F920FB60F92E4
:1038D00011242F933F934F935F936F937F938F9315
:1038E0009F93AF93BF93EF93FF93E0910C01F091FF
:1038F0000D010995FF91EF91BF91AF919F918F912C
:103900007F916F915F914F913F912F910F900FBEDB
:103910000F901F9018951F920F920FB60F921124BF
:103920002F933F934F935F936F937F938F939F93C7
:10393000AF93BF93EF93FF93E0910E01F0910F01CE
:103940000995FF91EF91BF91AF919F918F917F91D9
:103950006F915F914F913F912F910F900FBE0F90FC
:103960001F9018951F920F920FB60F9211242F934C
:103970003F938F939F93AF93BF9380912604909131
:103980002704A0912804B09129043091250423E054
:10399000230F2D3720F40196A11DB11D05C026E887
:1039A000230F0296A11DB11D2093250480932604A8
:1039B00090932704A0932804B093290480912A04AB
:1039C00090912B04A0912C04B0912D040196A11D7F
:1039D000B11D80932A0490932B04A0932C04B093E0
:1039E0002D04BF91AF919F918F913F912F910F9097
:1039F0000FBE0F901F9018952FB7F8946091260472
:103A00007091270480912804909129042FBF089574
:103A10003FB7F89480912A0490912B04A0912C0434
:103A2000B0912D0426B5A89B05C02F3F19F0019633
:103A3000A11DB11D3FBFBA2FA92F982F8827820F34
:103A4000911DA11DB11DBC01CD0142E0660F771F84
:103A5000881F991F4A95D1F708958F929F92AF9230
:103A6000BF92CF92DF92EF92FF926B017C010E9496
:103A7000081D4B015C01C114D104E104F10401F102
:103A80000E947C1F0E94081DDC01CB018819990946
:103A9000AA09BB09883E9340A105B10560F321E066
:103AA000C21AD108E108F10888EE880E83E0981E5A
:103AB000A11CB11CC114D104E104F10419F7DBCF3E
:103AC000FF90EF90DF90CF90BF90AF909F908F903E
:103AD00008958230910538F0880F991F880F991F3B
:103AE00005970197F1F70895789484B5826084BDB5
:103AF00084B5816084BD85B5826085BD85B58160F2
:103B000085BDEEE6F0E0808181608083E1E8F0E051
:103B10001082808182608083808181608083E0E880
:103B2000F0E0808181608083E1EBF0E0808184605F
:103B30008083E0EBF0E0808181608083EAE7F0E061
:103B400080818460808380818260808380818160C5
:103B500080838081806880831092C10008951F93C4
:103B6000CF93DF93182FEB0161E00E94371E20975F
:103B700011F460E004C0CF3FD10539F461E0812F3A
:103B8000DF91CF911F910C94731EE12FF0E0E85963
:103B9000FF4FE491E330F9F048F4E130B9F0E2305E
:103BA000A1F584B5806284BDC8BD34C0E730E9F0BA
:103BB000E83019F1E43049F580918000806280930B
:103BC0008000D0938B00C0938A0024C084B58068A5
:103BD00084BDC7BD1FC08091800080688093800035
:103BE000D0938900C093880015C08091B000806890
:103BF0008093B000C093B3000DC08091B00080628C
:103C00008093B000C093B40005C0C038D1050CF05B
:103C1000B5CFAFCFDF91CF911F910895833081F061
:103C200028F4813099F08230A1F008958730A9F00E
:103C30008830B9F08430D1F4809180008F7D03C04A
:103C4000809180008F7780938000089584B58F776E
:103C500002C084B58F7D84BD08958091B0008F77B8
:103C600003C08091B0008F7D8093B0000895CF9302
:103C7000DF9390E0FC01E458FF4F2491FC01E057F2
:103C8000FF4F8491882361F190E0880F991FFC0118
:103C9000E854FF4FC591D491FC01E255FF4FA59127
:103CA000B491611109C09FB7F8948881209582234F
:103CB0008883EC912E230BC0623061F49FB7F89497
:103CC0008881322F309583238883EC912E2B2C937F
:103CD0009FBF06C08FB7F894E8812E2B28838FBF33
:103CE000DF91CF9108951F93CF93DF93282F30E07A
:103CF000F901E859FF4F8491F901E458FF4FD4913D
:103D0000F901E057FF4FC491CC23C1F0162F811168
:103D10000E940E1EEC2FF0E0EE0FFF1FE255FF4F4A
:103D2000A591B4919FB7F894111104C08C91D095CE
:103D3000D82302C0EC91DE2BDC939FBFDF91CF91A3
:103D40001F910895CF93DF93282F30E0F901E859B0
:103D5000FF4F8491F901E458FF4FD491F901E057E6
:103D6000FF4FC491CC2391F081110E940E1EEC2FC5
:103D7000F0E0EE0FFF1FEC55FF4FA591B491EC91D1
:103D8000ED2381E090E021F480E002C080E090E04B
:103D9000DF91CF910895FC01808191810C945C208A
:103DA000CF93DF93EC0188819981009711F00E94F5
:103DB0005C20198218821D821C821B821A82DF916C
:103DC000CF9108950F931F93CF93DF93EC018B0155
:103DD0006F5F7F4F888199810E94E520009731F0C5
:103DE000998388831B830A8381E001C080E0DF918F
:103DF000CF911F910F910895CF93DF93EC018881AC
:103E00009981892B29F08A819B818617970760F415
:103E1000CE010E94E21E882341F08C819D81892B76
:103E200019F4E881F981108281E0DF91CF91089542
:103E3000EF92FF920F931F93CF93DF93EC017B01DF
:103E40008A01BA010E94FC1E811104C0CE010E94A9
:103E5000D01E07C01D830C83B701888199810E9401
:103E6000B421CE01DF91CF911F910F91FF90EF9080
:103E70000895CF93DF93EC016115710559F0FB01B3
:103E800001900020E9F73197AF01461B570B0E94C4
:103E9000181F02C00E94D01ECE01DF91CF9108955D
:103EA0000F931F93CF93DF93CDB7DEB762970FB613
:103EB000F894DEBF0FBECDBF8C01CB01F80111829B
:103EC0001082138212821582148250E0BE016F5F4D
:103ED0007F4F0E94BB21BE016F5F7F4FC8010E94D0
:103EE000391F62960FB6F894DEBF0FBECDBFDF91CB
:103EF000CF911F910F91089508950E94EE17880B9E
:103F0000990B0895A1E21A2EAA1BBB1BFD010DC03F
:103F1000AA1FBB1FEE1FFF1FA217B307E407F50779
:103F200020F0A21BB30BE40BF50B661F771F881F55
:103F3000991F1A9469F760957095809590959B01EB
:103F4000AC01BD01CF0108950E94B51FA59F900D42
:103F5000B49F900DA49F800D911D11240895EE0F24
:103F6000FF1F0590F491E02D0994A29FB001B39F2B
:103F7000C001A39F700D811D1124911DB29F700D72
:103F8000811D1124911D08950F931F93CF93DF93EB
:103F90008230910510F482E090E0E0913004F091DD
:103FA000310420E030E0A0E0B0E0309719F140812A
:103FB00051810281138148175907C8F0841795076A
:103FC00069F4109731F012960C93129713961C9384
:103FD00027C0009330041093310422C0211531050D
:103FE00019F04217530718F49A01BD01EF01DF01E0
:103FF000F801DBCF21153105F9F0281B390B2430EE
:10400000310580F48A819B816115710521F0FB01E6
:104010009383828304C09093310480933004FE0123
:10402000329644C0FE01E20FF31F81939193225018
:104030003109398328833AC020912E0430912F040E
:10404000232B41F4209102013091030130932F047E
:1040500020932E042091000130910101211531059A
:1040600041F42DB73EB74091040150910501241B46
:10407000350BE0912E04F0912F04E217F307A0F422
:104080002E1B3F0B2817390778F0AC014E5F5F4FAE
:104090002417350748F04E0F5F1F50932F044093AD
:1040A0002E048193919302C0E0E0F0E0CF01DF9114
:1040B000CF911F910F910895CF93DF93009709F44B
:1040C00081C0FC01329713821282A0913004B0911A
:1040D0003104109781F420813181820F931F209148
:1040E0002E0430912F042817390751F5F0932F042F
:1040F000E0932E0467C0ED0120E030E0CE17DF072B
:1041000040F44A815B819E0141155105F1F0EA01BD
:10411000F5CFD383C28340815181840F951FC81787
:10412000D90759F488819981840F951F029691834C
:1041300080838A819B81938382832115310529F4B1
:10414000F0933104E09330043DC0E901FB83EA833E
:1041500049915991C40FD51FEC17FD0761F4808177
:104160009181840F951F0296E9019983888382814A
:1041700093819B838A83E0E0F0E012968D919C917D
:104180001397009719F0FD01DC01F7CF8D919C91F9
:1041900011979D012E5F3F4F820F931F20912E0498
:1041A00030912F042817390769F4309729F41092B9
:1041B00031041092300402C013821282B0932F0493
:1041C000A0932E04DF91CF910895A0E0B0E0EBEE34
:1041D000F0E20C941522EC01009721F4CB010E942F
:1041E000C41FB4C0FC01E60FF71F9C012250310927
:1041F000E217F30708F4A8C0D9010D911C9111979B
:1042000006171707B0F00530110508F49BC0C80168
:1042100004978617970708F495C002501109061BEA
:10422000170B019311936D937C93CF010E945C2037
:1042300089C05B01A01AB10A4C01800E911EA091A9
:104240003004B0913104612C712CE12CF12C1097C9
:1042500009F446C08D919C911197A815B905B1F547
:104260006C0142E0C40ED11CCA14DB0478F14C018D
:104270008A189B08640142E0C40ED11C1296BC90BF
:1042800012971396AC91B5E0CB16D10440F0B282F0
:10429000A38391828082D9016D937C9309C00E5FC4
:1042A0001F4F800F911FF90191838083EB2DFA2F0F
:1042B000E114F10431F0D7011396FC93EE931297B9
:1042C00041C0F0933104E09330043CC06816790695
:1042D00008F43C017D0112960D90BC91A02DB7CF42
:1042E00080912E0490912F0488169906E1F46616A9
:1042F0007706C8F48091000190910101009741F484
:104300008DB79EB74091040150910501841B950B18
:10431000E817F907C8F4F0932F04E0932E04F9018D
:10432000718360830FC0CB010E94C41F7C01009782
:1043300059F0A801BE010E94AB21CE010E945C2071
:10434000C70104C0CE0102C080E090E0CDB7DEB767
:10435000EEE00C943122FB01DC0102C001900D92D1
:1043600041505040D8F70895FB01DC0101900D92B7
:104370000020E1F708954532510520F4423010F055
:104380000C94C621FB011082CB010895BB274A3053
:1043900031F4992322F4BDE2909581959F4F0C94BE
:1043A000D221BB27FB015527AA27880F991FAA1FD7
:1043B000A41710F0A41B83955051B9F7A05DAA3340
:1043C00008F0A95DA193009779F7B111B19311920B
:1043D000CB010C94EB21DC01FC01672F7191772359
:1043E000E1F7329704C07C916D9370836291AE17B0
:1043F000BF07C8F30895F999FECF92BD81BDF89A21
:10440000992780B50895262FF999FECF1FBA92BD3E
:1044100081BD20BD0FB6F894FA9AF99A0FBE0196A5
:1044200008952F923F924F925F926F927F928F9258
:104430009F92AF92BF92CF92DF92EF92FF920F9333
:104440001F93CF93DF93CDB7DEB7CA1BDB0B0FB63D
:10445000F894DEBF0FBECDBF09942A8839884888FA
:104460005F846E847D848C849B84AA84B984C88490
:10447000DF80EE80FD800C811B81AA81B981CE0F87
:10448000D11D0FB6F894DEBF0FBECDBFED0108956C
:04449000F894FFCFCE
:10449400000032042000010101010101431C431CFE
:1044A4000000400014005400553A00443A004320F0
:1044B40000202020004300250000000000DF02EF60
:1044C40002EE02EE02E002E802E402EE0254525569
:1044D400450046414C53450000000000FD021D0309
:1044E400FE020D0314031F0318031C030000000045
:1044F4005A03A8035B037D039F03AA03A303A70333
:1045040000000000E3033604E40301041E0438043D
:104514002E043204424F54544F4D204845415445D3
:10452400523A00534F554E442053455454494E4734
:104534003A005345542054454D502055500053459E
:10454400542054454D5020444F574E003C3C535446
:10455400415254003C3C53544F50003C3C45584954
:104564005400434C49434B20424545500054454D6B
:104574005020534554204245455000000000008D12
:104584000DB41ADE0CE10C000000000016D315DE99
:104594000CD215A715AF15C315000000004119B4BE
:1045A4001A03198819D518EF18E1180D0A006E615D
:0A45B4006E00696E66006F76660007
:00000001FF
