S0150000426F74746F6D5F6865617465722E73726563C2
S11300000C9464000C94D0170C94F7170C948C0087
S11300100C948C000C948C000C948C000C948C002C
S11300200C948C000C948C000C948C000C948C001C
S11300300C948C000C948C000C948C000C948C000C
S11300400C941E180C948C000C948C000C948C0052
S11300500C948C000C948C000C948C000C948C00EC
S11300600C9401120C948C000000000800020100A2
S1130070000304070000000000000000010204085F
S113008010204080010204081020010204081020FE
S1130090040404040404040402020202020203032A
S11300A003030303000000002300260029000000CE
S11300B00000250028002B00000000002400270079
S11300C02A00960EF013A20E11241FBECFEFD8E023
S11300D0DEBFCDBF11E0A0E0B1E0E6EAFBE302C081
S11300E005900D92AA39B107D9F722E0AAE9B1E047
S11300F001C01D92A53BB207E1F710E0C3E6D0E0D2
S113010004C02197FE010E947C1BC136D107C9F7A8
S11301100E94B0160C94C61D0C94000080919C01A2
S113012090919D01019690939D0180939C01E09193
S11301309E01F0919F01608171816817790734F401
S11301408091A2019091A3010E945401E0919E012B
S1130150F0919F016281738180919C0190919D0136
S1130160681779073CF48091A2019091A30102964B
S11301700C945401089510929D0110929C01609179
S11301809A0170919B018091A0019091A1010E941C
S11301904B1160E070E08091A2019091A3010E9454
S11301A054018091A2019091A30160E070E0029655
S11301B00E94540142E050E061EE70E080E00C9453
S11301C0B01710929D0110929C0160919A01709158
S11301D09B018091A0019091A1010E944011609126
S11301E09A0170919B018091A0019091A1010E94BC
S11301F0261143E050E06BEB70E080E00C94B01704
S1130200CF93DF93862F5093A3014093A2013093A1
S11302109F0120939E016093A4017093A50160E067
S11302200E94441942E050E061EE70E080E00E94D8
S1130230B0178CEA90E00E94BF16EC010E94740F84
S1130240D093A101C093A0012EE830E048E250E031
S113025060E070E0CE010E94191090939B0180939E
S11302609A01BC018091A0019091A101DF91CF91ED
S11302700C944B1170939F0160939E01089580919B
S1130280A0019091A1010C946110CF93DF93EC0134
S1130290862F6883798361E00E94441960E0888135
S11302A0DF91CF910C9480196095FC0180810C94AE
S11302B080190895FC01718360830895AF92BF9201
S11302C0CF92DF92EF92FF920F931F93CF93DF931E
S11302D0EC017B015A016901462F61E08881998113
S11302E00E944209E114F10419F067E171E002C0CF
S11302F064E171E0888199810E940E174E2D63E0BC
S1130300888199810E9442094AE050E0B5018881C0
S113031099810E94A8174E2D66E0888199810E94D8
S113032042096AE171E0888199810E940E174E2D7D
S113033068E0888199810E9442094AE050E0B60150
S1130340888199810E94A8174E2D6BE0888199813C
S11303500E9442096DE171E0888199810E940E1723
S11303604E2D6DE0888199810E9442094AE050E057
S1130370B801888199810E94A8174E2D6FE0888169
S113038099810E94420960E271E088819981DF913C
S1130390CF911F910F91FF90EF90DF90CF90BF907E
S11303A0AF900C940E170F931F93CF93DF93EC0130
S11303B08B0141E060E0888199810E9442094AE012
S11303C050E0B80188819981DF91CF911F910F91FD
S11303D00C94A8171F93CF93DF93EC01162F41E0E1
S11303E060E0888199810E944209111103C067E28B
S11303F071E002C062E271E088819981DF91CF915E
S11304001F910C940E17CF93DF93EC0140E060E052
S1130410888199810E94420966E871E08881998106
S1130420DF91CF910C940E17FC01808191810C9483
S113043034099093B0018093AF0108956091A601AF
S11304407091A7018091CA019091CB010E9426115D
S11304508091B1018823D1F0809106018823B1F005
S11304602091AA013091AB018091A8019091A9013A
S1130470821B930B0996439728F41092060181E09E
S11304808093AE013093A9012093A8010895CF93DE
S1130490DF9300D000D0CDB7DEB78091B1018823BF
S11304A009F455C08091D8019091D9010E94141487
S11304B06093C2017093C3018093C4019093C501FA
S11304C01092C6011092C7011092C8011092C9017E
S11304D08091AE018823A9F08091D4019091D50137
S11304E00E943D0740E050E060E87FE38091D40142
S11304F09091D5010E94E70690E09093AD0180931E
S1130500AC01809106018823A9F08091D2019091D9
S1130510D3010E943D0740E050E060E87FE3809112
S1130520D2019091D3010E94E70690E09093AB0131
S11305308093AA018091AC019091AD019A83898343
S11305408091AA019091AB019C838B8304C01A8291
S113055019821C821B82BE016F5F7F4F8091DA017A
S11305609091DB010E943A010F900F900F900F9031
S1130570DF91CF9108958F929F92AF92BF92CF92C5
S1130580DF92EF92FF920F931F93809107018111E5
S113059086C060E070E08091D6019091D7010E94FE
S11305A003026091AC017091AD01072E000C880B21
S11305B0990B0E94351520E030E04FE753E40E9488
S11305C08B1420E030E048EC52E40E9442160E9472
S11305D0FD144B015C016091C6017091C7018091CB
S11305E0C8019091C9010E94FD146B017C016091C6
S11305F0BE017091BF018091C0019091C1010E9420
S1130600FD1484019601AB0160E070E08091D60195
S11306109091D7010E945E0161E070E08091D60163
S11306209091D7010E9403026091AA017091AB01DD
S1130630072E000C880B990B0E94351520E030E042
S11306404FE753E40E948B1420E030E048EC52E47E
S11306500E9442160E94FD144B015C016091C2018C
S11306607091C3018091C4019091C5010E94FD1451
S11306706B017C016091BA017091BB018091BC0156
S11306809091BD010E94FD1484019601AB0161E0CB
S113069070E08091D6019091D7010E945E011F9174
S11306A00F91FF90EF90DF90CF90BF90AF909F900D
S11306B08F9008951F93CF93DF9380E090E00E9482
S11306C0791D182F81E090E00E94791DC82FD0E099
S11306D06091AC017091AD01812F90E0861797076E
S11306E021F080E090E00E94811D6091AA01709148
S11306F0AB01C617D70739F081E090E0DF91CF91C5
S11307001F910C94811DDF91CF911F9108958AE070
S11307100E94AF19892B69F480910701882331F075
S11307208091CC019091CD010C94040E81E08093D2
S113073007010895CF92DF92EF92FF92CF93DF9358
S1130740EC01072E000C880B990B0E9435152881AB
S113075039814A815B810E941A146B017C0120E07B
S113076030E041EE53E40E94861487FF0DC020E080
S113077030E0A901C701B6010E943D16181654F0D5
S1130780C12CD12C760106C0C12CD12C81EEE82ECF
S113079083E4F82EC882D982EA82FB82DF91CF916A
S11307A0FF90EF90DF90CF900895CF93DF938091E7
S11307B0D0019091D1010E94DF0EEC0180910701DC
S11307C0882309F463C08091AF019091B001813016
S11307D0910589F4209731F09091B10181E0892746
S11307E08093B1016091B1018091D6019091D701BC
S11307F00E94EA0136C08230910521F4BE0186ECE4
S113080091E006C083309105B1F4BE0182EC91E021
S11308100E949A036091C6017091C7018091C8013A
S11308209091C9010E94FD148091D6019091D70145
S11308300E94D30116C00497A1F41092B001109243
S1130840AF018091CC019091CD010E949E0D8091C9
S1130850D6019091D7010E941402109207010E94C0
S11308605A031C161D0644F48091CC019091CD01CD
S1130870DF91CF910C940E0DCD2B41F08091CC01E2
S11308809091CD01DF91CF910C94E10CDF91CF9148
S113089008958091CA019091CB010E9461108091CA
S11308A0DA019091DB010E943F010E9447020E94FD
S11308B0BB020E94D5030C948703EF92FF920F931F
S11308C01F93CF93DF93CDB7DEB7CA56D1090FB6C6
S11308D0F894DEBF0FBECDBF6DE271E0CE018B593F
S11308E09F4F0E94461A20E030E040E050E0BE01F5
S11308F06B597F4FCE0101967C010E94670ACE019D
S11309008B599F4F0E94D81966E371E0CE018B5931
S11309109F4F0E94461A2FEF3FEF41E050E0BE0187
S11309206B597F4FCE0145960E94670ACE018B59C1
S11309309F4F0E94D8196DE371E0CE018B599F4FF0
S11309400E94461A2FEF3FEF42E050E0BE016B5980
S11309507F4FCE0189960E94670ACE018B599F4F23
S11309600E94D8196CE471E0CE018B599F4F0E940C
S1130970461A2FEF3FEF43E050E0BE016B597F4F23
S1130980CE01CD960E94670ACE018B599F4F0E94DB
S1130990D8196DE571E0CE018B599F4F0E94461A1C
S11309A02FEF3FEF44E050E0BE016B597F4FCE0183
S11309B08F5A9F4F0E94670ACE018B599F4F0E9406
S11309C0D8198E010B591F4F04511109C8010E96F5
S11309D00E94D819C8010E94D819E016F106A1F79F
S11309E080E090E0C659DF4F0FB6F894DEBF0FBE2B
S11309F0CDBFDF91CF911F910F91FF90EF9008959C
S1130A002F923F924F925F926F927F928F929F921A
S1130A10AF92BF92CF92DF92EF92FF920F931F9308
S1130A20CF93DF93CDB7DEB72E970FB6F894DEBF22
S1130A300FBECDBF63E070E0CE010B960E9445016E
S1130A4064E070E0CE010D960E94450118861F8275
S1130A501A86198681E090E00E94BF164C019E011F
S1130A60295F3F4FAE01455F5F4F62E070E00E9437
S1130A7000019092DB018092DA0182E090E00E9412
S1130A80BF164C0127E030E046E050E065E070E03E
S1130A900E94F4139092D9018092D8018CE090E0E6
S1130AA00E94BF164C0100E022E040E167E20E9490
S1130AB0CD089092CF018092CE01C4010E947E099C
S1130AC08091CE019091CF010E94340982E090E0A0
S1130AD00E94BF164C016091CE017091CF010E941B
S1130AE05A019092D7018092D60186E190E00E944B
S1130AF0BF164C0188EEE82E83E0F82E06E010E0E5
S1130B0025E030E04CE050E06BE070E0C4010E946E
S1130B10AA0E9092D1018092D00160E08AE00E94F6
S1130B20441983E390E00E94BF164C011F921F9268
S1130B301F921F9299E3492E4F922DE9522E5F92F4
S1130B4039E4632E6F9242E5742E7F925DE3352E75
S1130B503F9265EF262E2F9282EC8F939FE89F930E
S1130B60A12CB12C7FE7C72E73E4D72EE12CF12CF6
S1130B70870126EB31E04EEB51E066EC71E0C401F5
S1130B800E9491069092D5018092D40140E050E0F9
S1130B9060E870E4C4010E94D70640EA5FE060E0C8
S1130BA070E08091D4019091D5010E94E10683E325
S1130BB090E00E94BF164C011F921F921F921F9239
S1130BC04F925F926F927F923F922F9282EC8F931B
S1130BD09FE89F9322EB31E04AEB51E062EC71E035
S1130BE0C4010E9491069092D3018092D20140E008
S1130BF050E060E870E4C4010E94D70640EA5FE078
S1130C0060E070E08091D2019091D3010E94E106EE
S1130C1080E090E00E94791D682F70E080E090E011
S1130C200E9433156093BE017093BF018093C0018D
S1130C309093C10181E090E00E94791D682F70E0DB
S1130C4080E090E00E9433156093BA017093BB0179
S1130C508093BC019093BD010E945D043C0165E654
S1130C6071E0CE0101960E94461A86E290E00E944D
S1130C70BF164C012091CE013091CF01CE010196D7
S1130C806C01E2E0EE2EF12C09E112E045E050E0C7
S1130C90B301C4010E94940A9092CD018092CC01C8
S1130CA0C6010E94D8198CEA90E00E94BF164C013C
S1130CB00E94740F9092CB018092CA012EE132E01F
S1130CC040EA56E861E070E0C4010E941910909374
S1130CD0A7018093A601CE010D960E945901CE0171
S1130CE00B960E9459010FB6F894DEBF0FBECDBF1C
S1130CF02E960FB6F894DEBF0FBECDBFDF91CF9115
S1130D001F910F91FF90EF90DF90CF90BF90AF9025
S1130D109F908F907F906F905F904F903F902F9017
S1130D200895AF92BF92CF92DF92EF92FF920F930A
S1130D301F93CF93DF93CDB7DEB7FC01758F648F1C
S1130D40578F468F31A320A3E2A2F3A204A315A3D5
S1130D50A6A2B7A2C0A6D1A68D859E85AF85B88967
S1130D6080839183A283B38389899A89AB89BC895F
S1130D7084839583A683B7838D899E89AF89B88D33
S1130D8080879187A287B38788EE93E0A0E0B0E0E4
S1130D9082A793A7A4A7B5A7DF91CF911F910F9125
S1130DA0FF90EF90DF90CF90BF90AF900895FC013B
S1130DB0448B558B668B778B408F518F628F738FEB
S1130DC00895FC0142A753A764A775A708958F92BD
S1130DD09F92AF92BF92CF92DF92EF92FF92CF9306
S1130DE0DF934A015B01DC015E96ED91FC915F9714
S1130DF05C960D90BC91A02D2D913D914D915C91EF
S1130E0060817181828193810E9419146B017C013C
S1130E1020E030E0A9010E943D16181624F0F7FAEC
S1130E20F094F7F8F094C1E0A5019401C701B6016C
S1130E300E94861418160CF4C0E08C2FDF91CF9119
S1130E40FF90EF90DF90CF90BF90AF909F908F90E6
S1130E500895CF93DF93EC010E9468186EA77FA7D3
S1130E6088AB99AB1C861D861E861F86188A198A34
S1130E701A8A1B8ADF91CF9108954F925F926F92E5
S1130E807F928F929F92AF92BF92CF92DF92EF9216
S1130E90FF920F931F93CF93DF93CDB7DEB72A97BB
S1130EA00FB6F894DEBF0FBECDBF8C01DC01D29625
S1130EB08C91D297882329F0D2961C92C8010E9463
S1130EC02907F801C488D588E688F78820E030E04F
S1130ED0A901C701B6010E948614882311F1D80123
S1130EE05E968D919C915F975C960D90BC91A02D20
S1130EF02D913D914D915C91FC01608171818281C4
S1130F0093810E9419149B01AC01C701B6010E9490
S1130F10861487FF06C0F80186A197A1A0A5B1A5F4
S1130F202FC0F801C08CD18CE28CF38C20E030E02F
S1130F30A901C701B6010E948614882391F1D80142
S1130F405C968D919C915D975E960D90BC91A02DC1
S1130F502D913D914D915C91FC0160817181828163
S1130F6093810E9419149B01AC01C701B6010E9430
S1130F70861487FF16C0F80182A193A1A4A1B5A18C
S1130F8020A131A1F90180839183A283B3830E94BC
S1130F906818D8019E966D937D938D939C93D197F9
S1130FA0E1C00E946818F801C6A4D7A4E0A8F1A87B
S1130FB04B015C018C189D08AE08BF0882A593A55F
S1130FC0A4A5B5A588169906AA06BB0608F4CAC046
S1130FD00E946818D8019E966D937D938D939C937F
S1130FE0D1975E968D919C915F975C960D90BC9184
S1130FF0A02D2D913D914D915C91FC0160817181F9
S1131000828193810E9419146B017C01D80150964E
S11310108D919D910D90BC91A02D89839A83AB8372
S1131020BC83C501B4010E9433152B013C01298105
S11310303A814B815C81C701B6010E941A1420E0F9
S113104030E040E05FE30E944216A30192010E9457
S1131050421620E030E04AE754E40E948B14F80181
S113106024853585468557850E941A144B015C01F9
S1131070D8011C966D937D938D939C931F97F801D3
S1131080C08AD18AE28AF38A2081318142815381E4
S1131090C701B6010E9442166D837E838F839887B1
S11310A0D80114962D913D914D915C911797C501EE
S11310B0B4010E9442169B01AC016D817E818F8137
S11310C098850E941A144B015C0129813A814B8155
S11310D05C81C701B6010E941914A30192010E9408
S11310E08B1420E030E04AE754E40E948B14F801AA
S11310F020853185428553850E9442169B01AC01AF
S1131100C501B4010E941A143B014C01D801909608
S1131110CD90DC9091979296AC9092979396BC90D8
S113112093979496EC9094979596FC909501A701CB
S11311300E94861487FD0FC0F801A6A0B7A0E0A402
S1131140F1A49501A701B301C4010E943D1618162C
S113115014F053017401C501D701F6018083918312
S1131160A283B3832A960FB6F894DEBF0FBECDBF19
S1131170DF91CF911F910F91FF90EF90DF90CF906F
S1131180BF90AF909F908F907F906F905F904F90A3
S1131190089580E090E0089508950F93FC01138270
S11311A012828BE691E09183808364834087218758
S11311B0028788E083870F9108951F93CF93DF936D
S11311C0EC01162F6C8186E592E00E94D0136B85AA
S11311D0612B86E592E00E94871386E592E0DF9119
S11311E0CF911F910C94ED130F931F93CF938C0108
S11311F0C62F64600E94DD0881E090E00E94D5184B
S11312006C2F6B7FC8010E94DD0882E390E0CF91D0
S11312101F910F910C94D5181F93CF93DF93EC017A
S1131220162F0E94DD08612FCE01DF91CF911F910F
S11312300C94F4080F931F93CF93DF938C01C62F64
S1131240D42F607F642B0E940C0980E1C89FB001F9
S113125011246D2BC801DF91CF911F910F910C9434
S11312600C0940E00C941A0961E00E94310980EDF8
S113127097E00C94D51862E00E94310980ED97E064
S11312800C94D518CF93DF93CDB7DEB728970FB65C
S1131290F894DEBF0FBECDBF9C0188E0ECE0F1E026
S11312A0DE01119601900D928A95E1F7F90181858D
S11312B0841710F44FEF480FFE013196E40FF11D2F
S11312C0E40FF11D9081690F6068C90128960FB67B
S11312D0F894DEBF0FBECDBFDF91CF910C943109DE
S11312E0FC016681262F246026836C600C943109EE
S11312F041E00E941A0981E090E00895CF93DF93C2
S1131300EC0186E592E00E94C6131D828985823035
S113131010F098E09D839A85992329F0813019F47F
S11313208D8184608D8362E370E080E090E00E94B0
S113133099186B85CE010E94DD0868EE73E080E0A9
S113134090E00E94991860E3CE010E940C0984E9A0
S113135091E10E94D51860E3CE010E940C0984E952
S113136091E10E94D51860E3CE010E940C0986E940
S113137090E00E94D51860E2CE010E940C096D81B4
S11313806062CE010E94310984E08E83CE010E9406
S11313907009CE010E94340982E08F8366E0CE0199
S11313A00E943109CE01DF91CF910C943B09CF9378
S11313B0DF93EC01842F68834A83298361E00E94D0
S11313C0441961E088810E94441960E089810E9487
S11313D0441961E08A81DF91CF910C948019CF92F6
S11313E0DF92EF92FF921F93CF93DF937C0110E083
S11313F0C7E0D0E0CC24C394D12C60E0F701808115
S11314000E9480198FE99FE00197F1F700C0000066
S1131410F70181810E94AF19892B39F0C6010C2E86
S113142001C0880F0A94EAF7182B61E0F701808164
S11314300E9480198FE99FE00197F1F700C0000036
S11314402197D8F6812FDF91CF911F91FF90EF90D4
S1131450DF90CF9008950F931F93CF93DF938C0168
S113146060E0FC0182810E9480198FE99FE001976E
S1131470F1F700C00000C8010E94EF09C82FD0E0B6
S1131480DC2FCC27C8010E94EF09C82B61E0F801CA
S113149082810E948019C2FD11C0BE0183E076954D
S11314A067958A95E1F780E090E00E94331520E08B
S11314B030E040E85EE30E94421604C060E070E061
S11314C080EC9FE7DF91CF911F910F910895CF9208
S11314D0DF92EF92FF920F931F93CF93DF93EC0170
S11314E06B017A01890167E871E00E94461A67E896
S11314F071E0CE010E960E94461A8FEF9FEF9B87F4
S11315008A879D878C87B601CE010E945B1AFF8271
S1131510EE8219870887DF91CF911F910F91FF9079
S1131520EF90DF90CF9008952F923F924F925F9269
S11315306F927F928F929F92AF92BF92CF92DF92DF
S1131540EF92FF920F931F93CF93DF93CDB7DEB744
S11315502E970FB6F894DEBF0FBECDBF5C014B01D2
S11315605E874D871901380126016C0184E1C80E9C
S1131570D11C67E871E0C6010E94461A67E871E071
S1131580C5014A960E94461A8501005E1F4F67E80E
S113159071E0C8010E94461AD50113969C928E925E
S11315A012971796FC92EE92169715963C922E92ED
S11315B01497ED85FE855196FC93EE935097119602
S11315C07C926E9281E090E019969C938E9318978A
S11315D01D961C921E921C978FEF9FEF1B969C9357
S11315E08E931A9753961C921E925297B201C6017B
S11315F00E945B1AD50112966D917C911397C801D4
S11316000E945B1A67E871E0CE0107960E94461AB1
S113161000E010E0E12CF12C77247A9466246A949B
S1131620CC24CA94DC2CF50180899189E816F9064A
S1131630CCF562817381600F711FDB0118968D9068
S11316409C90199797FC0BC01696CD90DC90179739
S1131650CE0107960E945B1A782C692C1DC0BE012E
S1131660695F7F4FCE0101960E94721AD5011296CE
S1131670ED91FC911397E00FF11FD386C286748617
S11316806586BE016F5F7F4FCF010E960E945B1A85
S1131690CE0101960E94D819BFEFEB1AFB0A0C5E2B
S11316A01F4FC1CFCE0107960E94D8192E960FB6B0
S11316B0F894DEBF0FBECDBFDF91CF911F910F9184
S11316C0FF90EF90DF90CF90BF90AF909F908F905E
S11316D07F906F905F904F903F902F9008950F935D
S11316E01F93CF93DF938C01EB010E94721A8E81BA
S11316F09F81F80197838683888599859187808760
S11317008A859B85938782878C859D859587848729
S1131710BE01625F7F4FC8010E96DF91CF911F918A
S11317200F910C94721ACF93DF93EC010E960E94E2
S1131730D819CE01DF91CF910C94D8192F923F92F2
S11317404F925F926F927F928F929F92AF92BF92CD
S1131750CF92DF92EF92FF920F931F93CF93DF9379
S1131760CDB7DEB7A6970FB6F894DEBF0FBECDBFD8
S11317708C01DC0116966D917C911797615071096B
S11317801C968D919C911D970E94321B072E000C74
S1131790880B990B0E9435150E9470150E94FD1448
S11317A01B01F801848195810E94340940E060E0C6
S11317B0D80114968D919C9115970E944209B80105
S11317C0665E7F4FCE0101960E94721A68E171E055
S11317D0CE0101960E94D31ABC01F801848195813F
S11317E00E940017CE0101960E94D819612C712C19
S11317F0E12CF12CCC24C394D12CAA24AA94BA2C85
S11318002801F4E14F0E511CD80150968D919C9102
S11318105197E816F9060CF0BBC012966D917C91B5
S11318201397660D771DCE0101960E946F0B2B85D1
S11318303C85F801808591852817390709F09DC0FA
S1131840FFEFAF16BF0609F45701D80116968D9124
S11318509C911797B701680F791F50964D915C9131
S113186051974617570724F1B4E1B69FA001B79FDB
S1131870500D1124D8011296ED91FC911397E40FA9
S1131880F51F7497428553852417350789F49C0105
S113189021503109229DA001239D500D329D500DF0
S11318A0112497012A193B09241735070CF465C044
S11318B0C816D9060CF061C04C2D60E0F801848193
S11318C095810E944209D8011A968D919C911B978B
S11318D0E816F906B9F4B201CE0145960E94721ACF
S11318E0BE016F5F7F4FCE0145960E94C01ABC01B6
S11318F0F801848195810E940017CE0145960E94CB
S1131900D81938C0D80158968D909C905997BFEF3C
S11319108B1A9B0A63E771E0CE0181960E94461AF6
S1131920940141E050E0BE016F5D7F4FCE014B96C4
S11319300E94EC1ABE01655E7F4FCE0145960E945F
S1131940721ABE016F5F7F4FCE0145960E94C01A86
S1131950BC01F801848195810E940017CE0145964F
S11319600E94D819CE014B960E94D819CE018196B7
S11319700E94D819FFEFCF1ADF0ACE0101960E9408
S1131980930B8FEFE81AF80AA4E16A0E711C3CCF9E
S1131990A6960FB6F894DEBF0FBECDBFDF91CF91F0
S11319A01F910F91FF90EF90DF90CF90BF90AF9079
S11319B09F908F907F906F905F904F903F902F906B
S11319C00895FC01828593850196938782872485F7
S11319D035852F5F3F4F3587248740895189841788
S11319E095079CF464E1689FA001699F500D112440
S11319F0A281B381A40FB51F1A966D917C911B9798
S1131A00408551856417750731F0821B930B9387CA
S1131A10828715861486CF010C949E0B0F931F9317
S1131A20CF93DF93FC0122853385C9010197938706
S1131A30828744855585415051095587448797FDD0
S1131A4013C064E1689FA001699F500D1124A28115
S1131A50B381A40FB51F1A966D917C911B97408595
S1131A6051856417750799F115861486C089D18943
S1131A7044E1429F8001439F100D112440E050E057
S1131A802C173D07D4F4A281B381A40FB51FA00F76
S1131A90B11F1A960D90BC91A02D60857185A61773
S1131AA0B70731F4648575856F5F7F4F75876487E9
S1131AB02F5F3F4F4C5E5F4FE3CF24853585820F08
S1131AC0931F938782872150310935872487CF015B
S1131AD0DF91CF911F910F910C949E0BCF93DF93C5
S1131AE0EC014889598980E090E020E030E0241737
S1131AF035070CF5EA81FB81E80FF91FA085B18554
S1131B002F5F3F4FB7FD15C0A681B781A617B70752
S1131B1081F4798768873B872A871D861C86BF01E5
S1131B20CE014A960E945B1ACE01DF91CF910C94AC
S1131B309E0B4496DCCFDF91CF910895DC011A9679
S1131B404D915C911B9764E1649F9001659F300DFA
S1131B5011241296ED91FC911397E20FF31F648503
S1131B6075850C946E0DAF92BF92CF92DF92EF9277
S1131B70FF920F931F93CF93DF93CDB7DEB7649794
S1131B800FB6F894DEBF0FBECDBF6C015B01E12C34
S1131B90F12C00E010E0F6018089918908171907FB
S1131BA004F5628173816E0D7F1DCE0101960E9442
S1131BB06F0BF4E1EF0EF11C2B853C85F50186815A
S1131BC097812817390731F4CE0101960E94930BAF
S1131BD0C80109C0CE0101960E94930B0F5F1F4FED
S1131BE0DACF8FEF9FEF64960FB6F894DEBF0FBE87
S1131BF0CDBFDF91CF911F910F91FF90EF90DF90B8
S1131C00CF90BF90AF900895DF92EF92FF920F9321
S1131C101F93CF93DF93CDB7DEB764970FB6F894D5
S1131C20DEBF0FBECDBF8C01FC01228533852F3F63
S1131C30FFEF3F0709F45AC084E1D82ED29EC001B9
S1131C40D39E900D1124F80162817381680F791F6E
S1131C50CE0101960E946F0BBE016F5F7F4FC801DA
S1131C600E94B30D7C01CE0101960E94930BF801F2
S1131C7062817381FFEFEF16FF06A1F4F80122855C
S1131C803385D29EC001D39E900D1124DB01A80F91
S1131C90B91F2081318116968D919C911797F90176
S1131CA0099536C0F801F386E286DE9CC001DF9C0C
S1131CB0900D1124680F791FCE0101960E946F0BBD
S1131CC0BE01615F7F4FC8014A960E945B1A8B85F3
S1131CD09C85F8019187808715861486C8010E9427
S1131CE09E0BCE0101960E94930B12C0BC01605E54
S1131CF07F4F4A960E945B1AF8011186108681E094
S1131D0090E09387828715861486C8010E949E0BF3
S1131D1064960FB6F894DEBF0FBECDBFDF91CF91AE
S1131D201F910F91FF90EF90DF90089567E871E0A5
S1131D3082EE91E00E94461A67E871E08CED91E032
S1131D400C94461A8CED91E00E94D81982EE91E031
S1131D500C94D819EF92FF920F931F93CF93DF93B4
S1131D60EC01798368835B834A833F872E87198BD1
S1131D70088BFD86EC861D821C821F821E821986BA
S1131D8018861B861A860E9474186A8B7B8B8C8B30
S1131D909D8B60E088810E94441960E08A810E94E2
S1131DA0441961E088810E94801961E08A81DF9191
S1131DB0CF911F910F91FF90EF900C948019CF92C7
S1131DC0DF92EF92FF920F931F93CF93DF93EC0177
S1131DD088810E94AF197C018A810E94AF192C81ED
S1131DE03D814E815F81E216F30621F48417950745
S1131DF009F46FC08217930719F4E416F50661F429
S1131E00E416F50661F451E040E08217930709F403
S1131E1050E0052F142F05C00FEF1FEF02C000E0A4
S1131E2010E0FD82EC829F838E830115110509F475
S1131E3045C08885998508171907C1F58A859B854A
S1131E4001969B878A870E947418CA88DB88EC886D
S1131E50FD88AB01BC014C195D096E097F098C85B5
S1131E609D85092E000CAA0BBB0B481759076A075E
S1131E707B0790F48A859B85688979890E94321B47
S1131E808E859F85689F7001699FF00C789FF00C88
S1131E9011241E141F041CF0EE24E394F12C0E9460
S1131EA074186A8B7B8B8C8B9D8B05C01B861A8662
S1131EB0EE24E394F12C1987088703C0EE24E394FD
S1131EC0F12CE09EC001E19E900DF09E900D112436
S1131ED002C080E090E0DF91CF911F910F91FF90BD
S1131EE0EF90DF90CF900895CF92DF92EF92FF9220
S1131EF0CF93DF93EC010E9468187E012CE8E20E78
S1131F00F11CFE01B8966E019E01245C3F4FD7017F
S1131F101D927D0111921192D6016D937D938D9343
S1131F209D936D01AF01425B5F4FDA011D921C92DC
S1131F30E217F30761F7C655DF4F19821882DF9164
S1131F40CF91FF90EF90DF90CF900895FC01E6557C
S1131F50FF4F208131812A3031056CF4E258F109B8
S1131F6020E030E081919191892B41F02F5F3F4F28
S1131F702A303105B9F78FEF9FEF0895C90108950D
S1131F804F925F926F927F92AF92BF92CF92DF9205
S1131F90EF92FF920F931F93CF93DF93EC012A01EB
S1131FA03B0169010E94A60F7C0197FD31C0C11459
S1131FB0D10471F15C01AA0CBB1CAA0CBB1CAC0EB5
S1131FC0BD1EF50144AE55AE66AE77AEF701EE0F19
S1131FD0FF1FEC0FFD1FD1A6C0A6EC59FF4F1183C4
S1131FE00083FE01EE0DFF1DE457FF4F81E0808367
S1131FF00E946818F5016083718382839383C655B8
S1132000DF4F88819981019699838883C70102C033
S11320108FEF9FEFDF91CF911F910F91FF90EF9082
S1132020DF90CF90BF90AF907F906F905F904F9074
S113203008950F931F9300E010E00E94C00F1F91BA
S11320400F910895CF93DF936A307105BCF5EC01CD
S1132050C655DF4F288139812115310579F1DB011E
S1132060AA0FBB1FA80FB91F98964D915C91999721
S1132070452B21F199961C921E929897FC01E60F2C
S1132080F71FE457FF4F1082FD01EA56FF4F1182FC
S11320901082615F7F4F660F771F660F771FFC0109
S11320A0E60FF71F1082118212821382A858BF4FC5
S11320B01D921C922150310939832883DF91CF91DD
S11320C008952F923F924F925F926F927F928F92D8
S11320D09F92AF92BF92CF92DF92EF92FF920F93B3
S11320E01F93CF93DF9300D000D000D0CDB7DEB7DD
S11320F09C838B830E9468186B017C01EB81FC81BB
S1132100EC59FF4F0B811C81980124573F4FC801A4
S113211088589F4F9A8389831E830D832224239496
S1132120312C13AA12AACF01CC97DC018D919C917A
S1132130892BF1F1AD81BE818D909D90AD90BC90C5
S11321401397DC964D915D916D917C91DF972601FB
S11321503701481859086A087B084416550666066C
S1132160770630F1480D591D6A1D7B1D4D935D9313
S11321706D937C931397D9018C918823C9F0408186
S113218051814115510519F433AA22AA11C0848939
S113219095898417950764F433AA22AA0196958B2E
S11321A0848B8417950724F082E090E093AB82AB94
S11321B03296AD81BE811496BE83AD832F5F3F4FAF
S11321C089819A81E817F90709F0ABCFE12CF12C4A
S11321D0F801EA56FF4F808191818130910571F0B9
S11321E0029791F4D8019896ED91FC9199970995ED
S11321F0B7018B819C810E94221006C0D801989659
S1132200ED91FC9199970995BFEFEB1AFB0A0E5FCC
S11322101F4F8AE0E816F104D9F626960FB6F89413
S1132220DEBF0FBECDBFDF91CF911F910F91FF9005
S1132230EF90DF90CF90BF90AF909F908F907F9062
S11322406F905F904F903F902F9008950F931F933E
S1132250CF93DF936A30710574F4EB018C010E9413
S11322606818CC0FDD1FCC0FDD1FC00FD11F688392
S113227079838A839B83DF91CF911F910F91089576
S11322806A3071053CF4680F791FFB01E457FF4F76
S113229081E0808308956A30710534F4680F791FF2
S11322A0FB01E457FF4F108208951092550281E01C
S11322B0809353021092520261E082E10E948019DD
S11322C061E083E10E948019E9EBF0E080818E7F78
S11322D0808380818D7F808388E48093B80085E447
S11322E08093BC0008950F93413208F04AC0909146
S11322F055029111FCCF32E0309355020093530202
S11323003FEF3093E80110922D0240932C02562F98
S1132310AEE2B2E0FB013E2F351B341718F43191C5
S11323203D93F9CF1092540230915402880F832BBD
S11323308093540280915202813061F410925202CF
S1132340809154028093BB008091BC0083FDF8CF40
S113235085EC01C085EE8093BC00222321F080919E
S113236055028230D1F38091E8018F3F79F080915A
S1132370E801803241F08091E801803331F094E04B
S113238005C091E003C092E001C093E0892F0F9152
S1132390089540910A02262F30E0240F311D213286
S11323A03105DCF4209155022430C9F4FC0180E0AD
S11323B090E0861758F430910A022191DC01A45F61
S11323C0BD4FA30FB11D2C930196F3CF80910A0248
S11323D0680F60930A0280E0089581E0089582E026
S11323E0089585ED8093BC008091BC0084FDFCCFF2
S11323F010925502089585EC8093BC00109255020A
S113240008951F920F920FB60F9211242F933F93AA
S11324104F935F936F937F938F939F93AF93BF93E8
S1132420EF93FF938091B900887F803609F49EC0B2
S113243078F5883209F45DC090F4803109F456C00F
S113244038F4882309F4F5C0883009F44FC0F5C086
S1132450883109F44EC0803209F45FC0EEC0803484
S113246009F46AC058F4803309F457C0883309F07A
S1132470E4C08093E8010E94FB11DFC0803509F4B9
S11324804FC0883509F45DC0883409F0D6C0D3C084
S1132490883909F4C4C0A8F4883709F467C038F44B
S11324A0883609F463C0803709F460C0C6C0883830
S11324B009F4B5C0803909F45FC0803809F0BDC0A3
S11324C05BC0803B09F483C038F4803A09F466C0E9
S11324D0883A09F47CC0B1C0803C09F4A4C0883CAB
S11324E009F4A1C0883B09F487C0A7C080915402B5
S11324F010C090912D0280912C02981770F5E091F4
S11325002D0281E08E0F80932D02F0E0E25DFD4FFD
S113251080818093BB0085EC83C08093E8018BC0ED
S1132520E0912D0281E08E0F80932D028091BB00FB
S1132530F0E0E25DFD4F808390912D0280912C02AA
S11325406BC0E0912D0281E08E0F80932D0280916B
S1132550BB00F0E0E25DFD4F808380915302811166
S11325606AC081E08093520284EA5EC083E0809373
S113257055021092E901CFCF8091E901803208F031
S11325804EC0E091E90181E08E0F8093E9018091D2
S1132590BB00F0E0E651FE4F8083BDCF0E94FB11EB
S11325A08091E901803230F4E091E901F0E0E651F4
S11325B0FE4F10826091E90170E0E0914E02F091CB
S11325C04F028AEE91E009951092E90136C084E049
S11325D08093550210920B0210920A02E09150026D
S11325E0F0915102099580910A02811105C081E0A0
S11325F080930A0210920C02E0910B0281E08E0F8C
S113260080930B02F0E0E45FFD4F80818093BB0078
S113261090910B0280910A02981708F47CCF85E808
S11326208093BC000AC085EC8093BC0010925502D4
S113263004C01092E8010E94F111FF91EF91BF9143
S1132640AF919F918F917F916F915F914F913F9146
S11326502F910F900FBE0F901F90189580918602B6
S113266090E020918702821B91090895909187023E
S113267080918602981750F4E92FF0E0E857FD4F57
S1132680208130E09F5F9093870202C02FEF3FEFDD
S1132690C9010895E091870280918602E81730F419
S11326A0F0E0E857FD4F808190E008958FEF9FEFB1
S11326B008950895CF92DF92EF92FF920F931F93A4
S11326C0CF93DF937C01CB018A0120916202222304
S11326D089F0EB016B01C40ED51ECC15DD0569F044
S11326E06991D701ED91FC910190F081E02DC70132
S11326F00995F3CF642F0E94C911C801DF91CF91CE
S11327001F910F91FF90EF90DF90CF900895CF939A
S1132710DF931F92CDB7DEB7698320916202222333
S1132720D1F020916302203240F021E030E0FC013E
S11327303383228380E090E015C080916402E82F07
S1132740F0E0EB59FD4F998190838F5F8093640291
S11327508093630205C061E0CE0101960E94C91115
S113276081E090E00F90DF91CF910895FC011382F6
S1132770128288EE93E0A0E0B0E084839583A68380
S1132780B7838CE891E09183808308951092870247
S11327901092860210926402109263020C945511F6
S11327A081E0809362026093850210926402109229
S11327B0630208950F93062F21E04091630265E6BA
S11327C072E0809185020E9473111092640210924B
S11327D06302109262020F91089561E00C94DA137F
S11327E086E592E00C94B613DF92EF92FF920F937A
S11327F01F93CF93DF938C01F62EE42ED22E83E029
S113280090E00E94BF16EC012D2D4E2D6F2D0E94DD
S1132810D709F801D183C083DF91CF911F910F9124
S1132820FF90EF90DF900895FC01808191810C94DA
S11328302B0A5058BB27AA270E9431140C94EB157D
S11328400E94DD1538F00E94E41520F039F49F3F12
S113285019F426F40C94DA150EF4E095E7FB0C94C5
S1132860AB15E92F0E94FC1558F3BA1762077307DA
S11328708407950720F079F4A6F50C9436160EF427
S1132880E0950B2EBA2FA02D0B01B90190010C017C
S1132890CA01A0011124FF27591B99F0593F50F494
S11328A0503E68F11A16F040A22F232F342F4427EC
S11328B0585FF3CF469537952795A795F0405395E4
S11328C0C9F77EF41F16BA0B620B730B840BBAF0B4
S11328D09150A1F0FF0FBB1F661F771F881FC2F71F
S11328E00EC0BA0F621F731F841F48F48795779533
S11328F06795B795F7959E3F08F0B0CF9395880FED
S113290008F09927EE0F9795879508950E948715EB
S113291008F481E008950E949F140C94EB150E9422
S1132920E41558F00E94DD1540F029F45F3F29F0CA
S11329300C94AB1551110C9437160C94DA150E94B3
S1132940FC1568F39923B1F3552391F3951B550BAB
S1132950BB27AA2762177307840738F09F5F5F4F6E
S1132960220F331F441FAA1FA9F335D00E2E3AF0AD
S1132970E0E832D091505040E695001CCAF72BD0C5
S1132980FE2F29D0660F771F881FBB1F2617370716
S11329904807AB07B0E809F0BB0B802DBF01FF2748
S11329A093585F4F3AF09E3F510578F00C94AB1565
S11329B00C9437165F3FE4F3983ED4F386957795ED
S11329C06795B795F7959F5FC9F7880F911D969501
S11329D0879597F90895E1E0660F771F881FBB1F5D
S11329E0621773078407BA0720F0621B730B840B0A
S11329F0BA0BEE1F88F7E09508950E9404156894B9
S1132A00B1110C94371608950E94041688F09F574C
S1132A1098F0B92F9927B751B0F0E1F0660F771FFE
S1132A20881F991F1AF0BA95C9F714C0B13091F0F4
S1132A300E943616B1E008950C943616672F782F4D
S1132A408827B85F39F0B93FCCF3869577956795B9
S1132A50B395D9F73EF490958095709561957F4F25
S1132A608F4F9F4F0895E89409C097FB3EF49095CB
S1132A708095709561957F4F8F4F9F4F9923A9F053
S1132A80F92F96E9BB279395F695879577956795E2
S1132A90B795F111F8CFFAF4BB0F11F460FF1BC026
S1132AA06F5F7F4F8F4F9F4F16C0882311F096E9B9
S1132AB011C0772321F09EE8872F762F05C0662367
S1132AC071F096E8862F70E060E02AF09A95660F20
S1132AD0771F881FDAF7880F9695879597F90895D9
S1132AE00E941E1690F09F3748F4911116F00C9432
S1132AF0371660E070E080E89FEB089526F41B161B
S1132B00611D711D811D0C94B1150C94CC15990F88
S1132B100008550FAA0BE0E8FEEF16161706E807A3
S1132B20F907C0F012161306E407F50798F0621BC4
S1132B30730B840B950B39F40A2661F0232B242B99
S1132B40252B21F408950A2609F4A140A6958FEFB8
S1132B50811D811D089597F99F6780E870E060E00A
S1132B600895882371F4772321F09850872B762FCA
S1132B7007C0662311F499270DC09051862B70E08D
S1132B8060E02AF09A95660F771F881FDAF7880F9E
S1132B909695879597F908959F3F31F0915020F4C9
S1132BA0879577956795B795880F911D9695879525
S1132BB097F908959FEF80EC089500240A9416165F
S1132BC0170618060906089500240A941216130617
S1132BD0140605060895092E0394000C11F48823A5
S1132BE052F0BB0F40F4BF2B11F460FF04C06F5FC1
S1132BF07F4F8F4F9F4F089557FD9058440F551F97
S1132C0059F05F3F71F04795880F97FB991F61F06A
S1132C109F3F79F087950895121613061406551FE1
S1132C20F2CF4695F1DF08C0161617061806991F4D
S1132C30F1CF869571056105089408950E940416E4
S1132C40A0F0BEE7B91788F4BB279F3860F41616C6
S1132C50B11D672F782F8827985FF7CF86957795D2
S1132C606795B11D93959639C8F30895E894BB27E9
S1132C7066277727CB0197F908950E94871508F4F2
S1132C808FEF08950E9455160C94EB150E94DD15E4
S1132C9038F00E94E41520F0952311F00C94AB1544
S1132CA00C94DA1511240C9437160E94FC1570F359
S1132CB0959FC1F3950F50E0551F629FF001729FDD
S1132CC0BB27F00DB11D639FAA27F00DB11DAA1FEC
S1132CD0649F6627B00DA11D661F829F2227B00D39
S1132CE0A11D621F739FB00DA11D621F839FA00DC4
S1132CF0611D221F749F3327A00D611D231F849F14
S1132D00600D211D822F762F6A2F11249F5750406A
S1132D109AF0F1F088234AF0EE0FFF1FBB1F661FE5
S1132D20771F881F91505040A9F79E3F510580F0AE
S1132D300C94AB150C9437165F3FE4F3983ED4F330
S1132D40869577956795B795F795E7959F5FC1F752
S1132D50FE2B880F911D9695879597F908950895F0
S1132D600E94E0180E94AF160E940005C0E0D0E067
S1132D700E9449042097E1F30E940000F9CF0C94CB
S1132D80821BCF92DF92EF92FF920F931F93CF9308
S1132D90DF936C017A018B01C0E0D0E0CE15DF0532
S1132DA081F0D8016D918D01D601ED91FC910190D6
S1132DB0F081E02DC6010995892B11F02196EECF03
S1132DC07E01C701DF91CF911F910F91FF90EF908A
S1132DD0DF90CF9008956115710579F0FB010190A2
S1132DE00020E9F73197AF01461B570BDC01ED9149
S1132DF0FC910280F381E02D099480E090E0089535
S1132E00DB0114964D915C9115976D917C91DC01D9
S1132E10ED91FC910280F381E02D09940C94EB1662
S1132E20DC01ED91FC910190F081E02D09948F92E9
S1132E309F92AF92BF92EF92FF920F931F93CF9303
S1132E40DF93CDB7DEB7A1970FB6F894DEBF0FBE00
S1132E50CDBF7C01FA01CB0119A2223008F42AE08B
S1132E608E010F5D1F4F822E912CA12CB12CBF011E
S1132E70A50194010E94461BF901CA0101501109E0
S1132E806A3010F4605D01C0695CD8016C93232B37
S1132E90242B252B61F7B801C7010E94EB16A196DC
S1132EA00FB6F894DEBF0FBECDBFDF91CF911F9157
S1132EB00F91FF90EF90BF90AF909F908F900895E7
S1132EC0CF92DF92EF92FF920F931F93CF93DF93F2
S1132ED02115310581F4DC01ED91FC910190F08123
S1132EE0E02D642FDF91CF911F910F91FF90EF9010
S1132EF0DF90CF9009942A30310501F577FF1DC08A
S1132F006A017B01EC016DE20E9410178C014427D9
S1132F105527BA014C195D096E097F092AE0CE01D3
S1132F200E941717800F911FDF91CF911F910F916E
S1132F30FF90EF90DF90CF9008952AE0DF91CF913A
S1132F401F910F91FF90EF90DF90CF900C94171783
S1132F509A01AB01770F660B770B0C9460170895F9
S1132F608230E8F4E82FF0E0EE0FFF1FE85FFE4F39
S1132F7071836083813041F0809169008C7F482B9C
S1132F8040936900E89A089580916900837F440F13
S1132F90551F440F551F482B40936900E99A089523
S1132FA01F920F920FB60F9211242F933F934F93BA
S1132FB05F936F937F938F939F93AF93BF93EF939D
S1132FC0FF93E0910801F09109010995FF91EF91B8
S1132FD0BF91AF919F918F917F916F915F914F912D
S1132FE03F912F910F900FBE0F901F9018951F9235
S1132FF00F920FB60F9211242F933F934F935F9329
S11330006F937F938F939F93AF93BF93EF93FF93AC
S1133010E0910A01F0910B010995FF91EF91BF91A5
S1133020AF919F918F917F916F915F914F913F915C
S11330302F910F900FBE0F901F9018951F920F9213
S11330400FB60F9211242F933F938F939F93AF93B7
S1133050BF938091A9029091AA02A091AB02B09172
S1133060AC023091A80223E0230F2D3720F40196FF
S1133070A11DB11D05C026E8230F0296A11DB11D97
S11330802093A8028093A9029093AA02A093AB0272
S1133090B093AC028091AD029091AE02A091AF02C8
S11330A0B091B0020196A11DB11D8093AD02909321
S11330B0AE02A093AF02B093B002BF91AF919F91C3
S11330C08F913F912F910F900FBE0F901F901895E5
S11330D02FB7F8946091A9027091AA028091AB0273
S11330E09091AC022FBF08953FB7F8948091AD0240
S11330F09091AE02A091AF02B091B00226B5A89B08
S113310005C02F3F19F00196A11DB11D3FBFBA2F75
S1133110A92F982F8827820F911DA11DB11DBC01D5
S1133120CD0142E0660F771F881F991F4A95D1F79A
S113313008958F929F92AF92BF92CF92DF92EF92B7
S1133140FF926B017C010E9474184B015C01C11455
S1133150D104E104F10401F10E94311B0E947418AE
S1133160DC01CB0188199909AA09BB09883E93405F
S1133170A105B10560F321E0C21AD108E108F10804
S113318088EE880E83E0981EA11CB11CC114D104E2
S1133190E104F10419F7DBCFFF90EF90DF90CF90BB
S11331A0BF90AF909F908F9008958230910538F032
S11331B0880F991F880F991F05970197F1F70895B4
S11331C0789484B5826084BD84B5816084BD85B5FE
S11331D0826085BD85B5816085BDEEE6F0E08081C5
S11331E081608083E1E8F0E01082808182608083E6
S11331F0808181608083E0E8F0E080818160808369
S1133200E1EBF0E0808184608083E0EBF0E080819A
S113321081608083EAE7F0E080818460808380813C
S113322082608083808181608083808180688083E4
S11332301092C1000895833081F028F4813099F010
S11332408230A1F008958730A9F08830B9F0843035
S1133250D1F4809180008F7D03C0809180008F77AE
S113326080938000089584B58F7702C084B58F7DE4
S113327084BD08958091B0008F7703C08091B00021
S11332808F7D8093B0000895CF93DF9390E0FC018D
S1133290E458FF4F2491FC01E057FF4F84918823A9
S11332A061F190E0880F991FFC01E854FF4FC5912C
S11332B0D491FC01E255FF4FA591B491611109C06D
S11332C09FB7F8948881209582238883EC912E23DC
S11332D00BC0623061F49FB7F8948881322F309527
S11332E083238883EC912E2B2C939FBF06C08FB72A
S11332F0F894E8812E2B28838FBFDF91CF91089516
S11333001F93CF93DF93282F30E0F901E859FF4F43
S11333108491F901E458FF4FD491F901E057FF4F2C
S1133320C491CC23C1F0162F81110E941B19EC2FDC
S1133330F0E0EE0FFF1FE255FF4FA591B4919FB748
S1133340F894111104C08C91D095D82302C0EC914B
S1133350DE2BDC939FBFDF91CF911F910895CF9314
S1133360DF93282F30E0F901E859FF4F8491F901E8
S1133370E458FF4FD491F901E057FF4FC491CC2397
S113338091F081110E941B19EC2FF0E0EE0FFF1F4A
S1133390EC55FF4FA591B491EC91ED2381E090E0C1
S11333A021F480E002C080E090E0DF91CF910895A5
S11333B0FC01808191810C941A1CCF93DF93EC0162
S11333C088819981009711F00E941A1C1982188231
S11333D01D821C821B821A82DF91CF9108950F9364
S11333E01F93CF93DF93EC018B016F5F7F4F888135
S11333F099810E94A31C009731F0998388831B83D1
S11334000A8381E001C080E0DF91CF911F910F9189
S11334100895CF93DF93EC0188819981892B29F05A
S11334208A819B818617970760F4CE010E94EF1969
S1133430882341F08C819D81892B19F4E881F981DD
S1133440108281E0DF91CF910895EF92FF920F9364
S11334501F93CF93DF93EC017B018A01BA010E9491
S1133460091A811104C0CE010E94DD1907C01D8311
S11334700C83B701888199810E94721DCE01DF916E
S1133480CF911F910F91FF90EF900895FC0111824D
S1133490108213821282158214826115710551F013
S11334A0FB0101900020E9F73197AF01461B570B50
S11334B00C94251A0895CF93DF93EC01FB01861732
S11334C0970761F0608171816115710529F044816C
S11334D055810E94251A02C00E94DD19CE01DF9198
S11334E0CF910895FC0111821082138212821582F9
S11334F014820C945B1ACF93DF93EC016115710570
S113350059F0FB0101900020E9F73197AF01461B08
S1133510570B0E94251A02C00E94DD19CE01DF91CB
S1133520CF910895EF92FF920F931F93CF93DF9360
S11335306115710511F480E01CC041155105C1F0FD
S11335407B01EC018C819D818A01080F191FB80150
S1133550CE010E94091A882371F3288139818C8154
S11335609D81B701820F931F0E94721D1D830C83DE
S113357081E0DF91CF911F910F91FF90EF9008951B
S1133580CF93DF93EC01FB0144815581608171810C
S11335900E94921A811103C0CE010E94DD19CE014E
S11335A0DF91CF910895CF93DF93EC0161157105FD
S11335B061F0FB0101900020E9F73197AF01461B50
S11335C0570B0E94921A811103C0CE010E94DD198B
S11335D0CE01DF91CF910895BF92CF92DF92EF9207
S11335E0FF920F931F93CF93DF937C016B018A01AA
S11335F0E9012417350720F4812F8901C42FD82F1E
S113360067E871E0C7010E94461AD60114968D91AD
S11336109C91159708171907C8F48C179D0708F48F
S1133620EC01D601ED91FC911197EC0FFD1FB080D8
S113363010826D917C91600F711FC7010E947B1AEB
S1133640D601ED91FC91EC0FFD1FB082C701DF9113
S1133650CF911F910F91FF90EF90DF90CF90BF908B
S11336600895089597FB072E16F4009407D077FD6C
S113367009D00E94681B07FC05D03EF49095819503
S11336809F4F0895709561957F4F0895A1E21A2E7A
S1133690AA1BBB1BFD010DC0AA1FBB1FEE1FFF1FF2
S11336A0A217B307E407F50720F0A21BB30BE40B42
S11336B0F50B661F771F881F991F1A9469F7609589
S11336C07095809590959B01AC01BD01CF01089543
S11336D0AA1BBB1B51E107C0AA1FBB1FA617B70734
S11336E010F0A61BB70B881F991F5A95A9F7809550
S11336F09095BC01CD010895EE0FFF1F0590F49144
S1133700E02D09940F931F93CF93DF93823091059B
S113371010F482E090E0E091B302F091B40220E072
S113372030E0A0E0B0E0309719F14081518102818E
S1133730138148175907C8F08417950769F410973F
S113374031F012960C93129713961C9327C0009392
S1133750B3021093B40222C02115310519F04217A7
S1133760530718F49A01BD01EF01DF01F801DBCF23
S113377021153105F9F0281B390B2430310580F46B
S11337808A819B816115710521F0FB0193838283FA
S113379004C09093B4028093B302FE01329644C0F5
S11337A0FE01E20FF31F8193919322503109398373
S11337B028833AC02091B1023091B202232B41F404
S11337C020910201309103013093B2022093B1029F
S11337D020910001309101012115310541F42DB7EB
S11337E03EB74091040150910501241B350BE09133
S11337F0B102F091B202E217F307A0F42E1B3F0BC3
S11338002817390778F0AC014E5F5F4F241735074E
S113381048F04E0F5F1F5093B2024093B102819360
S1133820919302C0E0E0F0E0CF01DF91CF911F91CE
S11338300F910895CF93DF93009709F481C0FC01A1
S1133840329713821282A091B302B091B4021097FE
S113385081F420813181820F931F2091B102309134
S1133860B2022817390751F5F093B202E093B1027E
S113387067C0ED0120E030E0CE17DF0740F44A8155
S11338805B819E0141155105F1F0EA01F5CFD38327
S1133890C28340815181840F951FC817D90759F4F9
S11338A088819981840F951F0296918380838A81F0
S11338B09B81938382832115310529F4F093B4020B
S11338C0E093B3023DC0E901FB83EA834991599136
S11338D0C40FD51FEC17FD0761F480819181840F1B
S11338E0951F0296E90199838883828193819B8342
S11338F08A83E0E0F0E012968D919C9113970097F3
S113390019F0FD01DC01F7CF8D919C9111979D0178
S11339102E5F3F4F820F931F2091B1023091B2026C
S11339202817390769F4309729F41092B4021092D9
S1133930B30202C013821282B093B202A093B10206
S1133940DF91CF910895A0E0B0E0E9EAFCE10C94A6
S1133950931DEC01009721F4CB010E94821BB4C09B
S1133960FC01E60FF71F9C0122503109E217F3070F
S113397008F4A8C0D9010D911C91119706171707D7
S1133980B0F00530110508F49BC0C80104978617F0
S1133990970708F495C002501109061B170B0193F1
S11339A011936D937C93CF010E941A1C89C05B0113
S11339B0A01AB10A4C01800E911EA091B302B091DD
S11339C0B402612C712CE12CF12C109709F446C03F
S11339D08D919C911197A815B905B1F56C0142E040
S11339E0C40ED11CCA14DB0478F14C018A189B085C
S11339F0640142E0C40ED11C1296BC901297139637
S1133A00AC91B5E0CB16D10440F0B282A38391828D
S1133A108082D9016D937C9309C00E5F1F4F800F84
S1133A20911FF90191838083EB2DFA2FE114F104A6
S1133A3031F0D7011396FC93EE93129741C0F093A3
S1133A40B402E093B3023CC06816790608F43C0162
S1133A507D0112960D90BC91A02DB7CF8091B1023B
S1133A609091B20288169906E1F466167706C8F4B6
S1133A708091000190910101009741F48DB79EB7A8
S1133A804091040150910501841B950BE817F90737
S1133A90C8F4F093B202E093B102F9017183608338
S1133AA00FC0CB010E94821B7C01009759F0A80132
S1133AB0BE010E94691DCE010E941A1CC70104C0E8
S1133AC0CE0102C080E090E0CDB7DEB7EEE00C940A
S1133AD0AF1DFB01DC0102C001900D92415050402A
S1133AE0D8F70895FB01DC0101900D920020E1F765
S1133AF00895F999FECF92BD81BDF89A992780B5B2
S1133B000895262FF999FECF1FBA92BD81BD20BD1D
S1133B100FB6F894FA9AF99A0FBE019608952F9267
S1133B203F924F925F926F927F928F929F92AF9249
S1133B30BF92CF92DF92EF92FF920F931F93CF9396
S1133B40DF93CDB7DEB7CA1BDB0B0FB6F894DEBF2D
S1133B500FBECDBF09942A88398848885F846E8453
S1133B607D848C849B84AA84B984C884DF80EE809D
S1133B70FD800C811B81AA81B981CE0FD11D0FB6A6
S1133B80F894DEBF0FBECDBFED01089510E0C3E68B
S1133B90D0E004C0FE010E947C1B2196C436D107EC
S1093BA0C9F7F894FFCF01
S1133BA60000B50220000101AF17AF170000400066
S1133BB614005400553A00443A00432D00432000B3
S1133BC62500545255450046414C5345005345542F
S1133BD654494E4753004F4E2F4F46460053657483
S1133BE62074656D7020696E2075700053657420AD
S1133BF674656D7020696E20646F776E00203C3C9E
S1133C0645786974003E00000000007809C116C9B1
S1133C1608CC08202020202020202020202020201E
S1133C2620202020202020000000000087135A13A3
S10D3C36C90859132E1336134A135C
S9030000FC
