S0150000426F74746F6D5F6865617465722E73726563C2
S11300000C9464000C94B6170C94DD170C948C00BB
S11300100C948C000C948C000C948C000C948C002C
S11300200C948C000C948C000C948C000C948C001C
S11300300C948C000C948C000C948C000C948C000C
S11300400C9404180C948C000C948C000C948C006C
S11300500C948C000C948C000C948C000C948C00EC
S11300600C94E7110C948C000000000800020100BD
S1130070000304070000000000000000010204085F
S113008010204080010204081020010204081020FE
S1130090040404040404040402020202020203032A
S11300A003030303000000002300260029000000CE
S11300B00000250028002B00000000002400270079
S11300C02A007C0ED613880E11241FBECFEFD8E071
S11300D0DEBFCDBF11E0A0E0B1E0E2E7FBE302C088
S11300E005900D92AA39B107D9F722E0AAE9B1E047
S11300F001C01D92A93AB207E1F710E0C3E6D0E0CF
S113010004C02197FE010E94621BC136D107C9F7C2
S11301100E9496160C94AC1D0C940000CF93DF93B0
S1130120EC0188859985019699878887EE81FF81FE
S1130130608171816817790724F48A819B810E9408
S11301403A01EE81FF816281738188859985681700
S113015079073CF48A819B810296DF91CF910C94BC
S11301603A01DF91CF910895CF93DF93EC01198683
S113017018866A857B858C819D810E94311160E09F
S113018070E08A819B810E943A018A819B8160E0B0
S113019070E002960E943A0142E050E065ED70E0A2
S11301A080E0DF91CF910C949617CF93DF93EC010D
S11301B0198618866A857B858C819D810E9426110B
S11301C06A857B858C819D810E940C1143E050E0FF
S11301D064EB70E080E0DF91CF910C9496170F935D
S11301E01F93CF93DF93EC01862F5B834A833F8376
S11301F02E836883798360E00E942A1942E050E0EC
S113020065ED70E080E00E9496178CEA90E00E9411
S1130210A5168C010E945A0F1D830C832EE830E032
S113022048E250E060E070E0C8010E94FF0F9B8745
S11302308A87BC018C819D81DF91CF911F910F91A1
S11302400C943111FC01778366830895FC01848149
S113025095810C944710CF93DF93EC01862F68832C
S1130260798361E00E942A1960E08881DF91CF914F
S11302700C9466196095FC0180810C9466190895AC
S1130280FC01718360830895AF92BF92CF92DF9295
S1130290EF92FF920F931F93CF93DF93EC017B01B7
S11302A05A016901462F61E0888199810E942809D9
S11302B0E114F10419F067E171E002C064E171E056
S11302C0888199810E94F4164E2D63E0888199817A
S11302D00E9428094AE050E0B501888199810E9472
S11302E08E174E2D66E0888199810E9428096AE163
S11302F071E0888199810E94F4164E2D68E088810E
S113030099810E9428094AE050E0B60188819981C8
S11303100E948E174E2D6BE0888199810E942809D6
S11303206DE171E0888199810E94F4164E2D6DE093
S1130330888199810E9428094AE050E0B8018881A7
S113034099810E948E174E2D6FE0888199810E94B9
S1130350280960E271E088819981DF91CF911F9132
S11303600F91FF90EF90DF90CF90BF90AF900C94DF
S1130370F4160F931F93CF93DF93EC018B0141E0AD
S113038060E0888199810E9428094AE050E0B80120
S113039088819981DF91CF911F910F910C948E17D1
S11303A01F93CF93DF93EC01162F41E060E0888127
S11303B099810E942809111103C067E271E002C00B
S11303C062E271E088819981DF91CF911F910C9451
S11303D0F416CF93DF93EC0140E060E088819981CB
S11303E00E94280966E871E088819981DF91CF91A4
S11303F00C94F416FC01808191810C941A09909359
S1130400A4018093A301089560919A0170919B01C6
S11304108091BE019091BF010E940C118091A501B1
S11304208823D1F0809106018823B1F020919E01A8
S113043030919F0180919C0190919D01821B930BAF
S11304400996439728F41092060181E08093A20153
S113045030939D0120939C010895CF93DF9300D0A6
S113046000D0CDB7DEB78091A501882309F455C02B
S11304708091CC019091CD010E94FA136093B60152
S11304807093B7018093B8019093B9011092BA01A7
S11304901092BB011092BC011092BD018091A20187
S11304A08823A9F08091C8019091C9010E94230773
S11304B040E050E060E87FE38091C8019091C90179
S11304C00E94CD0690E09093A1018093A0018091B9
S11304D006018823A9F08091C6019091C7010E946A
S11304E0230740E050E060E87FE38091C6019091EB
S11304F0C7010E94CD0690E090939F0180939E01D6
S11305008091A0019091A1019A83898380919E0199
S113051090919F019C838B8304C01A8219821C8250
S11305201B82BE016F5F7F4F8091CE019091CF01FE
S11305300E9422010F900F900F900F90DF91CF91A6
S113054008958F929F92AF92BF92CF92DF92EF92D3
S1130550FF920F931F9380910701811186C060E081
S113056070E08091CA019091CB010E94E9016091F1
S1130570A0017091A101072E000C880B990B0E9419
S11305801B1520E030E04FE753E40E94711420E093
S113059030E048EC52E40E9428160E94E3144B0118
S11305A05C016091BA017091BB018091BC01909192
S11305B0BD010E94E3146B017C016091B201709152
S11305C0B3018091B4019091B5010E94E3148401B8
S11305D09601AB0160E070E08091CA019091CB017B
S11305E00E94440161E070E08091CA019091CB01C6
S11305F00E94E90160919E0170919F01072E000CF9
S1130600880B990B0E941B1520E030E04FE753E460
S11306100E94711420E030E048EC52E40E94281655
S11306200E94E3144B015C016091B6017091B70123
S11306308091B8019091B9010E94E3146B017C018F
S11306406091AE017091AF018091B0019091B101C0
S11306500E94E31484019601AB0161E070E0809193
S1130660CA019091CB010E9444011F910F91FF9008
S1130670EF90DF90CF90BF90AF909F908F900895B0
S11306801F93CF93DF9380E090E00E945F1D182FAB
S113069081E090E00E945F1DC82FD0E06091A0012E
S11306A07091A101812F90E08617970721F080E0D7
S11306B090E00E94671D60919E0170919F01C61792
S11306C0D70739F081E090E0DF91CF911F910C942E
S11306D0671DDF91CF911F9108958AE00E949519BB
S11306E0892B69F480910701882331F08091C0013E
S11306F09091C1010C94EA0D81E080930701089563
S1130700CF92DF92EF92FF92CF93DF93EC01072E0B
S1130710000C880B990B0E941B15288139814A8192
S11307205B810E9400146B017C0120E030E041EE0B
S113073053E40E946C1487FF0DC020E030E0A9014F
S1130740C701B6010E942316181654F0C12CD12CEF
S1130750760106C0C12CD12C81EEE82E83E4F82E5C
S1130760C882D982EA82FB82DF91CF91FF90EF9019
S1130770DF90CF900895CF93DF938091C40190913F
S1130780C5010E94C50EEC0180910701882309F47C
S113079063C08091A3019091A4018130910589F4F3
S11307A0209731F09091A50181E089278093A501DC
S11307B06091A5018091CA019091CB010E94D00162
S11307C036C08230910521F4BE018AEB91E006C067
S11307D083309105B1F4BE0186EB91E00E94800361
S11307E06091BA017091BB018091BC019091BD01EF
S11307F00E94E3148091CA019091CB010E94B90137
S113080016C00497A1F41092A4011092A301809140
S1130810C0019091C1010E94840D8091CA01909100
S1130820CB010E94FA01109207010E9440031C169A
S11308301D0644F48091C0019091C101DF91CF91D4
S11308400C94F40CCD2B41F08091C0019091C10126
S1130850DF91CF910C94C70CDF91CF9108958091D3
S1130860BE019091BF010E9447108091CE019091EA
S1130870CF010E9426010E942D020E94A1020E9423
S1130880BB030C946D03EF92FF920F931F93CF93CE
S1130890DF93CDB7DEB7CA56D1090FB6F894DEBFE1
S11308A00FBECDBF6DE271E0CE018B599F4F0E9408
S11308B02C1A20E030E040E050E0BE016B597F4F3D
S11308C0CE0101967C010E944D0ACE018B599F4FA7
S11308D00E94BE1966E371E0CE018B599F4F0E94BE
S11308E02C1A2FEF3FEF41E050E0BE016B597F4FD0
S11308F0CE0145960E944D0ACE018B599F4F0E940E
S1130900BE196DE371E0CE018B599F4F0E942C1AE2
S11309102FEF3FEF42E050E0BE016B597F4FCE0115
S113092089960E944D0ACE018B599F4F0E94BE1991
S11309306CE471E0CE018B599F4F0E942C1A2FEF6B
S11309403FEF43E050E0BE016B597F4FCE01CD969F
S11309500E944D0ACE018B599F4F0E94BE196DE52E
S113096071E0CE018B599F4F0E942C1A2FEF3FEF5D
S113097044E050E0BE016B597F4FCE018F5A9F4F28
S11309800E944D0ACE018B599F4F0E94BE198E01C1
S11309900B591F4F04511109C8010E960E94BE192C
S11309A0C8010E94BE19E016F106A1F780E090E0AC
S11309B0C659DF4F0FB6F894DEBF0FBECDBFDF912F
S11309C0CF911F910F91FF90EF9008952F923F9236
S11309D04F925F926F927F928F929F92AF92BF924B
S11309E0CF92DF92EF92FF920F931F93CF93DF93F7
S11309F0CDB7DEB72E970FB6F894DEBF0FBECDBFCE
S1130A0063E070E0CE010B960E942B0164E070E07D
S1130A10CE010D960E942B0118861F821A86198614
S1130A208CE090E00E94A5164C019E01295F3F4F87
S1130A30AE01455F5F4F62E070E00E94EF0090926C
S1130A40CF018092CE0182E090E00E94A5164C0175
S1130A5027E030E046E050E065E070E00E94DA1301
S1130A609092CD018092CC018CE090E00E94A5167A
S1130A704C0100E022E040E167E20E94B30890925A
S1130A80C3018092C201C4010E9464098091C20121
S1130A909091C3010E941A0982E090E00E94A51679
S1130AA04C016091C2017091C3010E944001909277
S1130AB0CB018092CA0186E190E00E94A5164C0108
S1130AC088EEE82E83E0F82E06E010E025E030E022
S1130AD04CE050E06BE070E0C4010E94900E9092F4
S1130AE0C5018092C40160E08AE00E942A1983E370
S1130AF090E00E94A5164C011F921F921F921F9214
S1130B0099E3492E4F922DE9522E5F9239E4632ED8
S1130B106F9242E5742E7F925DE3352E3F9265EF2E
S1130B20262E2F9282EC8F939FE89F93A12CB12CB9
S1130B307FE7C72E73E4D72EE12CF12C87012AEA34
S1130B4031E042EB51E06AEB71E0C4010E947706A8
S1130B509092C9018092C80140E050E060E870E4DE
S1130B60C4010E94BD0640EA5FE060E070E080914D
S1130B70C8019091C9010E94C70683E390E00E94D6
S1130B80A5164C011F921F921F921F924F925F92C3
S1130B906F927F923F922F9282EC8F939FE89F9364
S1130BA026EA31E04EEA51E066EB71E0C4010E94AE
S1130BB077069092C7018092C60140E050E060E859
S1130BC070E4C4010E94BD0640EA5FE060E070E0AA
S1130BD08091C6019091C7010E94C70680E090E011
S1130BE00E945F1D682F70E080E090E00E9419155C
S1130BF06093B2017093B3018093B4019093B501F3
S1130C0081E090E00E945F1D682F70E080E090E03A
S1130C100E9419156093AE017093AF018093B001E7
S1130C209093B1010E9443043C0165E671E0CE015A
S1130C3001960E942C1A86E290E00E94A5164C01AF
S1130C402091C2013091C301CE0101966C01E2E012
S1130C50EE2EF12C0FEF11E045E050E0B301C4019A
S1130C600E947A0A9092C1018092C001C6010E943A
S1130C70BE198CEA90E00E94A5164C010E945A0FFE
S1130C809092BF018092BE0124E032E040EA56E82F
S1130C9061E070E0C4010E94FF0F90939B01809378
S1130CA09A01CE010D960E943F01CE010B960E943F
S1130CB03F010FB6F894DEBF0FBECDBF2E960FB620
S1130CC0F894DEBF0FBECDBFDF91CF911F910F917E
S1130CD0FF90EF90DF90CF90BF90AF909F908F9058
S1130CE07F906F905F904F903F902F900895AF92B8
S1130CF0BF92CF92DF92EF92FF920F931F93CF9305
S1130D00DF93CDB7DEB7FC01758F648F578F468FA5
S1130D1031A320A3E2A2F3A204A315A3A6A2B7A21F
S1130D20C0A6D1A68D859E85AF85B8898083918321
S1130D30A283B38389899A89AB89BC898483958387
S1130D40A683B7838D899E89AF89B88D8087918763
S1130D50A287B38788EE93E0A0E0B0E082A793A7D0
S1130D60A4A7B5A7DF91CF911F910F91FF90EF90AA
S1130D70DF90CF90BF90AF900895FC01448B558BCA
S1130D80668B778B408F518F628F738F0895FC0130
S1130D9042A753A764A775A708958F929F92AF9215
S1130DA0BF92CF92DF92EF92FF92CF93DF934A01EB
S1130DB05B01DC015E96ED91FC915F975C960D9072
S1130DC0BC91A02D2D913D914D915C9160817181DB
S1130DD0828193810E94FF136B017C0120E030E04B
S1130DE0A9010E942316181624F0F7FAF094F7F8D4
S1130DF0F094C1E0A5019401C701B6010E946C14EE
S1130E0018160CF4C0E08C2FDF91CF91FF90EF9077
S1130E10DF90CF90BF90AF909F908F900895CF9325
S1130E20DF93EC010E944E186EA77FA788AB99ABA5
S1130E301C861D861E861F86188A198A1A8A1B8A92
S1130E40DF91CF9108954F925F926F927F928F922C
S1130E509F92AF92BF92CF92DF92EF92FF920F9345
S1130E601F93CF93DF93CDB7DEB72A970FB6F894CD
S1130E70DEBF0FBECDBF8C01DC01D2968C91D29720
S1130E80882329F0D2961C92C8010E940F07F8010A
S1130E90C488D588E688F78820E030E0A901C70136
S1130EA0B6010E946C14882311F1D8015E968D91CD
S1130EB09C915F975C960D90BC91A02D2D913D91D6
S1130EC04D915C91FC0160817181828193810E94CA
S1130ED0FF139B01AC01C701B6010E946C1487FF8C
S1130EE006C0F80186A197A1A0A5B1A52FC0F8015D
S1130EF0C08CD18CE28CF38C20E030E0A901C701D6
S1130F00B6010E946C14882391F1D8015C968D91EE
S1130F109C915D975E960D90BC91A02D2D913D9175
S1130F204D915C91FC0160817181828193810E9469
S1130F30FF139B01AC01C701B6010E946C1487FF2B
S1130F4016C0F80182A193A1A4A1B5A120A131A149
S1130F50F90180839183A283B3830E944E18D80140
S1130F609E966D937D938D939C93D197E1C00E943F
S1130F704E18F801C6A4D7A4E0A8F1A84B015C015F
S1130F808C189D08AE08BF0882A593A5A4A5B5A595
S1130F9088169906AA06BB0608F4CAC00E944E1811
S1130FA0D8019E966D937D938D939C93D1975E9675
S1130FB08D919C915F975C960D90BC91A02D2D9185
S1130FC03D914D915C91FC0160817181828193819D
S1130FD00E94FF136B017C01D80150968D919D9165
S1130FE00D90BC91A02D89839A83AB83BC83C501EA
S1130FF0B4010E9419152B013C0129813A814B81CE
S11310005C81C701B6010E94001420E030E040E09A
S11310105FE30E942816A30192010E94281620E093
S113102030E04AE754E40E947114F80124853585C0
S1131030468557850E9400144B015C01D8011C961B
S11310406D937D938D939C931F97F801C08AD18AE9
S1131050E28AF38A2081318142815381C701B6013A
S11310600E9428166D837E838F839887D8011496F7
S11310702D913D914D915C911797C501B4010E944A
S113108028169B01AC016D817E818F8198850E9419
S113109000144B015C0129813A814B815C81C701B9
S11310A0B6010E94FF13A30192010E94711420E073
S11310B030E04AE754E40E947114F8012085318538
S11310C0428553850E9428169B01AC01C501B401D9
S11310D00E9400143B014C01D8019096CD90DC9005
S11310E091979296AC9092979396BC90939794967E
S11310F0EC9094979596FC909501A7010E946C142E
S113110087FD0FC0F801A6A0B7A0E0A4F1A4950143
S1131110A701B301C4010E942316181614F0530149
S11311207401C501D701F60180839183A283B3833F
S11311302A960FB6F894DEBF0FBECDBFDF91CF91D4
S11311401F910F91FF90EF90DF90CF90BF90AF90E1
S11311509F908F907F906F905F904F90089580E064
S113116090E0089508950F93FC01138212828BE698
S113117091E091838083648340872187028788E09C
S113118083870F9108951F93CF93DF93EC01162F5C
S11311906C818AE492E00E94B6136B85612B8AE429
S11311A092E00E946D138AE492E0DF91CF911F9147
S11311B00C94D3130F931F93CF938C01C62F6460A9
S11311C00E94C30881E090E00E94BB186C2F6B7FE3
S11311D0C8010E94C30882E390E0CF911F910F9150
S11311E00C94BB181F93CF93DF93EC01162F0E942E
S11311F0C308612FCE01DF91CF911F910C94DA08BF
S11312000F931F93CF93DF938C01C62FD42F607F4E
S1131210642B0E94F20880E1C89FB00111246D2B59
S1131220C801DF91CF911F910F910C94F20840E017
S11312300C94000961E00E94170980ED97E00C947A
S1131240BB1862E00E94170980ED97E00C94BB186C
S1131250CF93DF93CDB7DEB728970FB6F894DEBFF0
S11312600FBECDBF9C0188E0ECE0F1E0DE011196F9
S113127001900D928A95E1F7F9018185841710F4A4
S11312804FEF480FFE013196E40FF11DE40FF11DFD
S11312909081690F6068C90128960FB6F894DEBF83
S11312A00FBECDBFDF91CF910C941709FC0166816D
S11312B0262F246026836C600C94170941E00E9459
S11312C0000981E090E00895CF93DF93EC018AE474
S11312D092E00E94AC131D828985823010F098E060
S11312E09D839A85992329F0813019F48D81846036
S11312F08D8362E370E080E090E00E947F186B854C
S1131300CE010E94C30868EE73E080E090E00E9482
S11313107F1860E3CE010E94F20884E991E10E9403
S1131320BB1860E3CE010E94F20884E991E10E94B7
S1131330BB1860E3CE010E94F20886E990E00E94A7
S1131340BB1860E2CE010E94F2086D816062CE019A
S11313500E94170984E08E83CE010E945609CE01B3
S11313600E941A0982E08F8366E0CE010E94170969
S1131370CE01DF91CF910C942109CF93DF93EC013F
S1131380842F68834A83298361E00E942A1961E0DB
S113139088810E942A1960E089810E942A1961E0EB
S11313A08A81DF91CF910C946619CF92DF92EF92EC
S11313B0FF921F93CF93DF937C0110E0C7E0D0E04E
S11313C0CC24C394D12C60E0F70180810E9466197B
S11313D08FE99FE00197F1F700C00000F7018181D8
S11313E00E949519892B39F0C6010C2E01C0880F73
S11313F00A94EAF7182B61E0F70180810E946619CC
S11314008FE99FE00197F1F700C000002197D8F61B
S1131410812FDF91CF911F91FF90EF90DF90CF90BC
S113142008950F931F93CF93DF938C0160E0FC0129
S113143082810E9466198FE99FE00197F1F700C04D
S11314400000C8010E94D509C82FD0E0DC2FCC27AA
S1131450C8010E94D509C82B61E0F80182810E946D
S11314606619C2FD11C0BE0183E0769567958A9521
S1131470E1F780E090E00E94191520E030E040E8B8
S11314805EE30E94281604C060E070E080EC9FE7F1
S1131490DF91CF911F910F910895CF92DF92EF9238
S11314A0FF920F931F93CF93DF93EC016B017A01AB
S11314B0890167E871E00E942C1A67E871E0CE01A7
S11314C00E960E942C1A8FEF9FEF9B878A879D8729
S11314D08C87B601CE010E94411AFF82EE821987E1
S11314E00887DF91CF911F910F91FF90EF90DF90CC
S11314F0CF9008952F923F924F925F926F927F9276
S11315008F929F92AF92BF92CF92DF92EF92FF920F
S11315100F931F93CF93DF93CDB7DEB72E970FB6FC
S1131520F894DEBF0FBECDBF5C014B015E874D87D3
S11315301901380126016C0184E1C80ED11C67E849
S113154071E0C6010E942C1A67E871E0C5014A9651
S11315500E942C1A8501005E1F4F67E871E0C801E4
S11315600E942C1AD50113969C928E92129717966C
S1131570FC92EE92169715963C922E921497ED8556
S1131580FE855196FC93EE93509711967C926E9241
S113159081E090E019969C938E9318971D961C9267
S11315A01E921C978FEF9FEF1B969C938E931A9716
S11315B053961C921E925297B201C6010E94411A80
S11315C0D50112966D917C911397C8010E94411A1E
S11315D067E871E0CE0107960E942C1A00E010E043
S11315E0E12CF12C77247A9466246A94CC24CA944E
S11315F0DC2CF50180899189E816F906CCF5628125
S11316007381600F711FDB0118968D909C90199760
S113161097FC0BC01696CD90DC901797CE010796D9
S11316200E94411A782C692C1DC0BE01695F7F4F4E
S1131630CE0101960E94581AD5011296ED91FC91A3
S11316401397E00FF11FD386C28674866586BE01A8
S11316506F5F7F4FCF010E960E94411ACE01019613
S11316600E94BE19BFEFEB1AFB0A0C5E1F4FC1CFDD
S1131670CE0107960E94BE192E960FB6F894DEBFCF
S11316800FBECDBFDF91CF911F910F91FF90EF90CF
S1131690DF90CF90BF90AF909F908F907F906F908E
S11316A05F904F903F902F9008950F931F93CF9387
S11316B0DF938C01EB010E94581A8E819F81F801FF
S11316C09783868388859985918780878A859B857A
S11316D0938782878C859D8595878487BE01625F09
S11316E07F4FC8010E96DF91CF911F910F910C94FB
S11316F0581ACF93DF93EC010E960E94BE19CE01C7
S1131700DF91CF910C94BE192F923F924F925F922A
S11317106F927F928F929F92AF92BF92CF92DF92FD
S1131720EF92FF920F931F93CF93DF93CDB7DEB762
S1131730A6970FB6F894DEBF0FBECDBF8C01DC01B7
S113174016966D917C911797615071091C968D9135
S11317509C911D970E94181B072E000C880B990B57
S11317600E941B150E9456150E94E3141B01F801E8
S1131770848195810E941A0940E060E0D8011496A2
S11317808D919C9115970E942809B801665E7F4F40
S1131790CE0101960E94581A68E171E0CE010196CB
S11317A00E94B91ABC01F801848195810E94E61651
S11317B0CE0101960E94BE19612C712CE12CF12CF2
S11317C0CC24C394D12CAA24AA94BA2C2801F4E1E1
S11317D04F0E511CD80150968D919C915197E8164B
S11317E0F9060CF0BBC012966D917C911397660DAF
S11317F0771DCE0101960E94550B2B853C85F8017F
S1131800808591852817390709F09DC0FFEFAF1631
S1131810BF0609F45701D80116968D919C9117972C
S1131820B701680F791F50964D915C9151974617F7
S1131830570724F1B4E1B69FA001B79F500D1124BE
S1131840D8011296ED91FC911397E40FF51F74974C
S1131850428553852417350789F49C0121503109A9
S1131860229DA001239D500D329D500D11249701FE
S11318702A193B09241735070CF465C0C816D90684
S11318800CF061C04C2D60E0F801848195810E94C8
S11318902809D8011A968D919C911B97E816F90690
S11318A0B9F4B201CE0145960E94581ABE016F5F89
S11318B07F4FCE0145960E94A61ABC01F80184818F
S11318C095810E94E616CE0145960E94BE1938C045
S11318D0D80158968D909C905997BFEF8B1A9B0A0C
S11318E063E771E0CE0181960E942C1A940141E0D5
S11318F050E0BE016F5D7F4FCE014B960E94D21A1D
S1131900BE01655E7F4FCE0145960E94581ABE0106
S11319106F5F7F4FCE0145960E94A61ABC01F80165
S1131920848195810E94E616CE0145960E94BE19D7
S1131930CE014B960E94BE19CE0181960E94BE191B
S1131940FFEFCF1ADF0ACE0101960E94790B8FEFC9
S1131950E81AF80AA4E16A0E711C3CCFA6960FB6E9
S1131960F894DEBF0FBECDBFDF91CF911F910F91D1
S1131970FF90EF90DF90CF90BF90AF909F908F90AB
S11319807F906F905F904F903F902F900895FC014F
S113199082859385019693878287248535852F5F79
S11319A03F4F3587248740895189841795079CF4D4
S11319B064E1689FA001699F500D1124A281B38145
S11319C0A40FB51F1A966D917C911B974085518584
S11319D06417750731F0821B930B938782871586F2
S11319E01486CF010C94840B0F931F93CF93DF9332
S11319F0FC0122853385C901019793878287448539
S1131A005585415051095587448797FD13C064E1BA
S1131A10689FA001699F500D1124A281B381A40F76
S1131A20B51F1A966D917C911B974085518564175B
S1131A30750799F115861486C089D18944E1429FBE
S1131A408001439F100D112440E050E02C173D0706
S1131A50D4F4A281B381A40FB51FA00FB11F1A96AD
S1131A600D90BC91A02D60857185A617B70731F440
S1131A70648575856F5F7F4F758764872F5F3F4FE0
S1131A804C5E5F4FE3CF24853585820F931F938788
S1131A9082872150310935872487CF01DF91CF9187
S1131AA01F910F910C94840BCF93DF93EC01488921
S1131AB0598980E090E020E030E0241735070CF5E8
S1131AC0EA81FB81E80FF91FA085B1852F5F3F4FA5
S1131AD0B7FD15C0A681B781A617B70781F479872A
S1131AE068873B872A871D861C86BF01CE014A96DC
S1131AF00E94411ACE01DF91CF910C94840B44963D
S1131B00DCCFDF91CF910895DC011A964D915C9161
S1131B101B9764E1649F9001659F300D1124129618
S1131B20ED91FC911397E20FF31F648575850C9476
S1131B30540DAF92BF92CF92DF92EF92FF920F9328
S1131B401F93CF93DF93CDB7DEB764970FB6F894A6
S1131B50DEBF0FBECDBF6C015B01E12CF12C00E0B8
S1131B6010E0F601808991890817190704F562814C
S1131B7073816E0D7F1DCE0101960E94550BF4E119
S1131B80EF0EF11C2B853C85F50186819781281782
S1131B90390731F4CE0101960E94790BC80109C0BE
S1131BA0CE0101960E94790B0F5F1F4FDACF8FEFA2
S1131BB09FEF64960FB6F894DEBF0FBECDBFDF91E2
S1131BC0CF911F910F91FF90EF90DF90CF90BF9036
S1131BD0AF900895DF92EF92FF920F931F93CF93EC
S1131BE0DF93CDB7DEB764970FB6F894DEBF0FBEB0
S1131BF0CDBF8C01FC01228533852F3FFFEF3F07CA
S1131C0009F45AC084E1D82ED29EC001D39E900D0F
S1131C101124F80162817381680F791FCE01019646
S1131C200E94550BBE016F5F7F4FC8010E94990D42
S1131C307C01CE0101960E94790BF80162817381C7
S1131C40FFEFEF16FF06A1F4F80122853385D29E3B
S1131C50C001D39E900D1124DB01A80FB91F208170
S1131C60318116968D919C911797F901099536C08B
S1131C70F801F386E286DE9CC001DF9C900D1124FE
S1131C80680F791FCE0101960E94550BBE01615F5A
S1131C907F4FC8014A960E94411A8B859C85F801A2
S1131CA09187808715861486C8010E94840BCE0113
S1131CB001960E94790B12C0BC01605E7F4F4A9668
S1131CC00E94411AF8011186108681E090E0938702
S1131CD0828715861486C8010E94840B64960FB609
S1131CE0F894DEBF0FBECDBFDF91CF911F910F914E
S1131CF0FF90EF90DF90089567E871E086ED91E042
S1131D000E942C1A67E871E080ED91E00C942C1A83
S1131D1080ED91E00E94BE1986ED91E00C94BE190D
S1131D20EF92FF920F931F93CF93DF93EC0179838C
S1131D3068835B834A833F872E87198B088BFD86D4
S1131D40EC861D821C821F821E82198618861B86C1
S1131D501A860E945A186A8B7B8B8C8B9D8B60E051
S1131D6088810E942A1960E08A810E942A1961E010
S1131D7088810E94661961E08A81DF91CF911F9169
S1131D800F91FF90EF900C946619CF92DF92EF922F
S1131D90FF920F931F93CF93DF93EC0188810E94EE
S1131DA095197C018A810E9495192C813D814E816F
S1131DB05F81E216F30621F48417950709F46FC0D6
S1131DC08217930719F4E416F50661F4E416F50690
S1131DD061F451E040E08217930709F450E0052FC5
S1131DE0142F05C00FEF1FEF02C000E010E0FD82CA
S1131DF0EC829F838E830115110509F445C0888503
S1131E00998508171907C1F58A859B8501969B87D3
S1131E108A870E945A18CA88DB88EC88FD88AB013F
S1131E20BC014C195D096E097F098C859D85092EBD
S1131E30000CAA0BBB0B481759076A077B0790F4E1
S1131E408A859B85688979890E94181B8E859F8560
S1131E50689F7001699FF00C789FF00C11241E1488
S1131E601F041CF0EE24E394F12C0E945A186A8B90
S1131E707B8B8C8B9D8B05C01B861A86EE24E3948A
S1131E80F12C1987088703C0EE24E394F12CE09E1B
S1131E90C001E19E900DF09E900D112402C080E0DF
S1131EA090E0DF91CF911F910F91FF90EF90DF9021
S1131EB0CF900895CF92DF92EF92FF92CF93DF936A
S1131EC0EC010E944E187E012CE8E20EF11CFE018A
S1131ED0B8966E019E01245C3F4FD7011D927D018F
S1131EE011921192D6016D937D938D939D936D0103
S1131EF0AF01425B5F4FDA011D921C92E217F307B8
S1131F0061F7C655DF4F19821882DF91CF91FF9098
S1131F10EF90DF90CF900895FC01E655FF4F2081AC
S1131F2031812A3031056CF4E258F10920E030E0C7
S1131F3081919191892B41F02F5F3F4F2A303105D8
S1131F40B9F78FEF9FEF0895C90108954F925F92FB
S1131F506F927F92AF92BF92CF92DF92EF92FF92F5
S1131F600F931F93CF93DF93EC012A013B01690187
S1131F700E948C0F7C0197FD31C0C114D10471F112
S1131F805C01AA0CBB1CAA0CBB1CAC0EBD1EF5014B
S1131F9044AE55AE66AE77AEF701EE0FFF1FEC0F01
S1131FA0FD1FD1A6C0A6EC59FF4F11830083FE018B
S1131FB0EE0DFF1DE457FF4F81E080830E944E1811
S1131FC0F5016083718382839383C655DF4F8881D3
S1131FD09981019699838883C70102C08FEF9FEF8F
S1131FE0DF91CF911F910F91FF90EF90DF90CF90F1
S1131FF0BF90AF907F906F905F904F9008950F9334
S11320001F9300E010E00E94A60F1F910F91089506
S1132010CF93DF936A307105BCF5EC01C655DF4FF1
S1132020288139812115310579F1DB01AA0FBB1F04
S1132030A80FB91F98964D915C919997452B21F162
S113204099961C921E929897FC01E60FF71FE4578D
S1132050FF4F1082FD01EA56FF4F11821082615F2B
S11320607F4F660F771F660F771FFC01E60FF71F80
S11320701082118212821382A858BF4F1D921C92A3
S11320802150310939832883DF91CF9108952F920C
S11320903F924F925F926F927F928F929F92AF92F4
S11320A0BF92CF92DF92EF92FF920F931F93CF9341
S11320B0DF9300D000D000D0CDB7DEB79C838B83F4
S11320C00E944E186B017C01EB81FC81EC59FF4F9F
S11320D00B811C81980124573F4FC80188589F4F9A
S11320E09A8389831E830D8322242394312C13AA7B
S11320F012AACF01CC97DC018D919C91892BF1F12F
S1132100AD81BE818D909D90AD90BC901397DC966F
S11321104D915D916D917C91DF97260137014818AF
S113212059086A087B08441655066606770630F196
S1132130480D591D6A1D7B1D4D935D936D937C93D2
S11321401397D9018C918823C9F04081518141159D
S1132150510519F433AA22AA11C0848995898417D8
S1132160950764F433AA22AA0196958B848B84176D
S1132170950724F082E090E093AB82AB3296AD8178
S1132180BE811496BE83AD832F5F3F4F89819A81B0
S1132190E817F90709F0ABCFE12CF12CF801EA5666
S11321A0FF4F808191818130910571F0029791F404
S11321B0D8019896ED91FC9199970995B7018B8177
S11321C09C810E94081006C0D8019896ED91FC915C
S11321D099970995BFEFEB1AFB0A0E5F1F4F8AE030
S11321E0E816F104D9F626960FB6F894DEBF0FBEB2
S11321F0CDBFDF91CF911F910F91FF90EF90DF90B2
S1132200CF90BF90AF909F908F907F906F905F9092
S11322104F903F902F9008950F931F93CF93DF9388
S11322206A30710574F4EB018C010E944E18CC0FD6
S1132230DD1FCC0FDD1FC00FD11F688379838A8314
S11322409B83DF91CF911F910F9108956A3071059F
S11322503CF4680F791FFB01E457FF4F81E0808352
S113226008956A30710534F4680F791FFB01E4574F
S1132270FF4F108208951092490281E08093470233
S11322801092460261E082E10E94661961E083E1F6
S11322900E946619E9EBF0E080818E7F8083808163
S11322A08D7F808388E48093B80085E48093BC00AC
S11322B008950F93413208F04AC090914902911158
S11322C0FCCF32E030934902009347023FEF309352
S11322D0DC011092210240932002562FA2E2B2E0C8
S11322E0FB013E2F351B341718F431913D93F9CF80
S11322F01092480230914802880F832B8093480241
S113230080914602813061F4109246028091480225
S11323108093BB008091BC0083FDF8CF85EC01C0A5
S113232085EE8093BC00222321F080914902823003
S1132330D1F38091DC018F3F79F08091DC01803210
S113234041F08091DC01803331F094E005C091E0EC
S113235003C092E001C093E0892F0F91089540914A
S1132360FE01262F30E0240F311D21323105DCF42B
S1132370209149022430C9F4FC0180E090E08617E2
S113238058F43091FE012191DC01A050BE4FA30FFF
S1132390B11D2C930196F3CF8091FE01680F6093D9
S11323A0FE0180E0089581E0089582E0089585EDBE
S11323B08093BC008091BC0084FDFCCF1092490244
S11323C0089585EC8093BC001092490208951F92F1
S11323D00F920FB60F9211242F933F934F935F9355
S11323E06F937F938F939F93AF93BF93EF93FF93D9
S11323F08091B900887F803609F49EC078F58832D0
S113240009F45DC090F4803109F456C038F488238F
S113241009F4F5C0883009F44FC0F5C0883109F4D7
S11324204EC0803209F45FC0EEC0803409F46AC043
S113243058F4803309F457C0883309F0E4C080931A
S1132440DC010E94E111DFC0803509F44FC08835FA
S113245009F45DC0883409F0D6C0D3C0883909F4C2
S1132460C4C0A8F4883709F467C038F4883609F47E
S113247063C0803709F460C0C6C0883809F4B5C0A9
S1132480803909F45FC0803809F0BDC05BC0803B6F
S113249009F483C038F4803A09F466C0883A09F430
S11324A07CC0B1C0803C09F4A4C0883C09F4A1C03C
S11324B0883B09F487C0A7C08091480210C090915E
S11324C0210280912002981770F5E091210281E0A9
S11324D08E0F80932102F0E0EE5DFD4F80818093AA
S11324E0BB0085EC83C08093DC018BC0E0912102AA
S11324F081E08E0F809321028091BB00F0E0EE5DBD
S1132500FD4F808390912102809120026BC0E09165
S1132510210281E08E0F809321028091BB00F0E0C4
S1132520EE5DFD4F80838091470281116AC081E096
S11325308093460284EA5EC083E08093490210924D
S1132540DD01CFCF8091DD01803208F04EC0E091F3
S1132550DD0181E08E0F8093DD018091BB00F0E00E
S1132560E252FE4F8083BDCF0E94E1118091DD01D4
S1132570803230F4E091DD01F0E0E252FE4F10824F
S11325806091DD0170E0E0914202F09143028EED32
S113259091E009951092DD0136C084E080934902F0
S11325A01092FF011092FE01E0914402F091450265
S11325B009958091FE01811105C081E08093FE019F
S11325C010920002E091FF0181E08E0F8093FF01E1
S11325D0F0E0E050FE4F80818093BB009091FF01BA
S11325E08091FE01981708F47CCF85E88093BC00A5
S11325F00AC085EC8093BC001092490204C010927A
S1132600DC010E94D711FF91EF91BF91AF919F918F
S11326108F917F916F915F914F913F912F910F9087
S11326200FBE0F901F90189580917A0290E0209130
S11326307B02821B9109089590917B0280917A021A
S1132640981750F4E92FF0E0E458FD4F208130E072
S11326509F5F90937B0202C02FEF3FEFC901089563
S1132660E0917B0280917A02E81730F4F0E0E458BC
S1132670FD4F808190E008958FEF9FEF08950895B6
S1132680CF92DF92EF92FF920F931F93CF93DF933A
S11326907C01CB018A0120915602222389F0EB01AF
S11326A06B01C40ED51ECC15DD0569F06991D70107
S11326B0ED91FC910190F081E02DC7010995F3CFD4
S11326C0642F0E94AF11C801DF91CF911F910F9128
S11326D0FF90EF90DF90CF900895CF93DF931F92F8
S11326E0CDB7DEB76983209156022223D1F0209121
S11326F05702203240F021E030E0FC013383228392
S113270080E090E015C080915802E82FF0E0E75A8D
S1132710FD4F998190838F5F809358028093570275
S113272005C061E0CE0101960E94AF1181E090E006
S11327300F90DF91CF910895FC011382128288EEED
S113274093E0A0E0B0E084839583A683B7838CE80C
S113275091E091838083089510927B0210927A0213
S113276010925802109257020C943B1181E080930E
S113277056026093790210925802109257020895FB
S11327800F93062F21E04091570269E572E0809192
S113279079020E9459111092580210925702109215
S11327A056020F91089561E00C94C0138AE492E0FC
S11327B00C949C13DF92EF92FF920F931F93CF938D
S11327C0DF938C01F62EE42ED22E83E090E00E945B
S11327D0A516EC012D2D4E2D6F2D0E94BD09F8017B
S11327E0D183C083DF91CF911F910F91FF90EF9020
S11327F0DF900895FC01808191810C94110A505856
S1132800BB27AA270E9417140C94D1150E94C31544
S113281038F00E94CA1520F039F49F3F19F426F4C9
S11328200C94C0150EF4E095E7FB0C949115E92F78
S11328300E94E21558F3BA176207730784079507D5
S113284020F079F4A6F50C941C160EF4E0950B2EEA
S1132850BA2FA02D0B01B90190010C01CA01A001EE
S11328601124FF27591B99F0593F50F4503E68F149
S11328701A16F040A22F232F342F4427585FF3CF8A
S1132880469537952795A795F0405395C9F77EF45B
S11328901F16BA0B620B730B840BBAF09150A1F0A4
S11328A0FF0FBB1F661F771F881FC2F70EC0BA0F2A
S11328B0621F731F841F48F4879577956795B795B2
S11328C0F7959E3F08F0B0CF9395880F08F09927AD
S11328D0EE0F9795879508950E946D1508F481E091
S11328E008950E9485140C94D1150E94CA1558F0BD
S11328F00E94C31540F029F45F3F29F00C94911510
S113290051110C941D160C94C0150E94E21568F325
S11329109923B1F3552391F3951B550BBB27AA2794
S113292062177307840738F09F5F5F4F220F331FCE
S1132930441FAA1FA9F335D00E2E3AF0E0E832D096
S113294091505040E695001CCAF72BD0FE2F29D099
S1132950660F771F881FBB1F261737074807AB076B
S1132960B0E809F0BB0B802DBF01FF2793585F4FE0
S11329703AF09E3F510578F00C9491150C941D1675
S11329805F3FE4F3983ED4F3869577956795B795C2
S1132990F7959F5FC9F7880F911D9695879597F9CD
S11329A00895E1E0660F771F881FBB1F6217730746
S11329B08407BA0720F0621B730B840BBA0BEE1F5B
S11329C088F7E09508950E94EA146894B1110C9474
S11329D01D1608950E94EA1588F09F5798F0B92FA4
S11329E09927B751B0F0E1F0660F771F881F991F40
S11329F01AF0BA95C9F714C0B13091F00E941C16B0
S1132A00B1E008950C941C16672F782F8827B85FBF
S1132A1039F0B93FCCF3869577956795B395D9F797
S1132A203EF490958095709561957F4F8F4F9F4FA1
S1132A300895E89409C097FB3EF4909580957095AD
S1132A4061957F4F8F4F9F4F9923A9F0F92F96E9F6
S1132A50BB279395F695879577956795B795F1116B
S1132A60F8CFFAF4BB0F11F460FF1BC06F5F7F4F08
S1132A708F4F9F4F16C0882311F096E911C077231A
S1132A8021F09EE8872F762F05C0662371F096E823
S1132A90862F70E060E02AF09A95660F771F881FF2
S1132AA0DAF7880F9695879597F908950E9404168A
S1132AB090F09F3748F4911116F00C941D1660E0C5
S1132AC070E080E89FEB089526F41B16611D711DCC
S1132AD0811D0C9497150C94B215990F0008550F8D
S1132AE0AA0BE0E8FEEF16161706E807F907C0F090
S1132AF012161306E407F50798F0621B730B840B98
S1132B00950B39F40A2661F0232B242B252B21F471
S1132B1008950A2609F4A140A6958FEF811D811D11
S1132B20089597F99F6780E870E060E0089588232E
S1132B3071F4772321F09850872B762F07C06623F2
S1132B4011F499270DC09051862B70E060E02AF0B3
S1132B509A95660F771F881FDAF7880F96958795E1
S1132B6097F908959F3F31F0915020F48795779518
S1132B706795B795880F911D9695879597F9089550
S1132B809FEF80EC089500240A9416161706180681
S1132B900906089500240A9412161306140605065D
S1132BA00895092E0394000C11F4882352F0BB0FEE
S1132BB040F4BF2B11F460FF04C06F5F7F4F8F4F51
S1132BC09F4F089557FD9058440F551F59F05F3F8C
S1132BD071F04795880F97FB991F61F09F3F79F03B
S1132BE087950895121613061406551FF2CF4695BD
S1132BF0F1DF08C0161617061806991FF1CF86953F
S1132C0071056105089408950E94EA15A0F0BEE7D5
S1132C10B91788F4BB279F3860F41616B11D672FC7
S1132C20782F8827985FF7CF869577956795B11D9C
S1132C3093959639C8F30895E894BB2766277727B8
S1132C40CB0197F908950E946D1508F48FEF08954C
S1132C500E943B160C94D1150E94C31538F00E94B3
S1132C60CA1520F0952311F00C9491150C94C015FD
S1132C7011240C941D160E94E21570F3959FC1F364
S1132C80950F50E0551F629FF001729FBB27F00D16
S1132C90B11D639FAA27F00DB11DAA1F649F66276B
S1132CA0B00DA11D661F829F2227B00DA11D621FBA
S1132CB0739FB00DA11D621F839FA00D611D221F74
S1132CC0749F3327A00D611D231F849F600D211D58
S1132CD0822F762F6A2F11249F5750409AF0F1F0DB
S1132CE088234AF0EE0FFF1FBB1F661F771F881F44
S1132CF091505040A9F79E3F510580F00C949115D6
S1132D000C941D165F3FE4F3983ED4F386957795B3
S1132D106795B795F795E7959F5FC1F7FE2B880FE9
S1132D20911D9695879597F9089508950E94C61860
S1132D300E9495160E94E604C0E0D0E00E942F0491
S1132D402097E1F30E940000F9CF0C94681BCF9206
S1132D50DF92EF92FF920F931F93CF93DF936C0157
S1132D607A018B01C0E0D0E0CE15DF0581F0D801F7
S1132D706D918D01D601ED91FC910190F081E02DD2
S1132D80C6010995892B11F02196EECF7E01C7016A
S1132D90DF91CF911F910F91FF90EF90DF90CF9033
S1132DA008956115710579F0FB0101900020E9F7A0
S1132DB03197AF01461B570BDC01ED91FC9102806A
S1132DC0F381E02D099480E090E00895DB011496EE
S1132DD04D915C9115976D917C91DC01ED91FC9185
S1132DE00280F381E02D09940C94D116DC01ED915D
S1132DF0FC910190F081E02D09948F929F92AF9203
S1132E00BF92EF92FF920F931F93CF93DF93CDB7AF
S1132E10DEB7A1970FB6F894DEBF0FBECDBF7C011D
S1132E20FA01CB0119A2223008F42AE08E010F5DC9
S1132E301F4F822E912CA12CB12CBF01A50194010E
S1132E400E942C1BF901CA01015011096A3010F4C7
S1132E50605D01C0695CD8016C93232B242B252B66
S1132E6061F7B801C7010E94D116A1960FB6F89474
S1132E70DEBF0FBECDBFDF91CF911F910F91FF90A9
S1132E80EF90BF90AF909F908F900895CF92DF9274
S1132E90EF92FF920F931F93CF93DF932115310588
S1132EA081F4DC01ED91FC910190F081E02D642F1F
S1132EB0DF91CF911F910F91FF90EF90DF90CF9012
S1132EC009942A30310501F577FF1DC06A017B01A1
S1132ED0EC016DE20E94F6168C0144275527BA01D5
S1132EE04C195D096E097F092AE0CE010E94FD1686
S1132EF0800F911FDF91CF911F910F91FF90EF9061
S1132F00DF90CF9008952AE0DF91CF911F910F9128
S1132F10FF90EF90DF90CF900C94FD169A01AB01D7
S1132F20770F660B770B0C94461708958230E8F4FC
S1132F30E82FF0E0EE0FFF1FE85FFE4F7183608320
S1132F40813041F0809169008C7F482B4093690067
S1132F50E89A089580916900837F440F551F440FB8
S1132F60551F482B40936900E99A08951F920F92C8
S1132F700FB60F9211242F933F934F935F936F9348
S1132F807F938F939F93AF93BF93EF93FF93E091BE
S1132F900801F09109010995FF91EF91BF91AF915B
S1132FA09F918F917F916F915F914F913F912F915D
S1132FB00F900FBE0F901F9018951F920F920FB68F
S1132FC00F9211242F933F934F935F936F937F93AB
S1132FD08F939F93AF93BF93EF93FF93E0910A0175
S1132FE0F0910B010995FF91EF91BF91AF919F91E2
S1132FF08F917F916F915F914F913F912F910F909E
S11330000FBE0F901F9018951F920F920FB60F923C
S113301011242F933F938F939F93AF93BF938091EA
S11330209D0290919E02A0919F02B091A0023091C6
S11330309C0223E0230F2D3720F40196A11DB11D1E
S113304005C026E8230F0296A11DB11D20939C0202
S113305080939D0290939E02A0939F02B093A0023E
S11330608091A1029091A202A091A302B091A40226
S11330700196A11DB11D8093A1029093A202A09379
S1133080A302B093A402BF91AF919F918F913F91FE
S11330902F910F900FBE0F901F9018952FB7F89493
S11330A060919D0270919E0280919F029091A00276
S11330B02FBF08953FB7F8948091A1029091A20286
S11330C0A091A302B091A40226B5A89B05C02F3FEE
S11330D019F00196A11DB11D3FBFBA2FA92F982F3A
S11330E08827820F911DA11DB11DBC01CD0142E0B5
S11330F0660F771F881F991F4A95D1F708958F92FD
S11331009F92AF92BF92CF92DF92EF92FF926B01A8
S11331107C010E945A184B015C01C114D104E104E2
S1133120F10401F10E94171B0E945A18DC01CB0123
S113313088199909AA09BB09883E9340A105B105DC
S113314060F321E0C21AD108E108F10888EE880E84
S113315083E0981EA11CB11CC114D104E104F10444
S113316019F7DBCFFF90EF90DF90CF90BF90AF9037
S11331709F908F9008958230910538F0880F991FA1
S1133180880F991F05970197F1F70895789484B5EE
S1133190826084BD84B5816084BD85B5826085BD4F
S11331A085B5816085BDEEE6F0E080818160808335
S11331B0E1E8F0E010828081826080838081816018
S11331C08083E0E8F0E0808181608083E1EBF0E0DF
S11331D0808184608083E0EBF0E080818160808383
S11331E0EAE7F0E08081846080838081826080836C
S11331F08081816080838081806880831092C10097
S11332000895833081F028F4813099F08230A1F060
S113321008958730A9F08830B9F08430D1F48091D2
S113322080008F7D03C0809180008F778093800021
S1133230089584B58F7702C084B58F7D84BD0895C9
S11332408091B0008F7703C08091B0008F7D809310
S1133250B0000895CF93DF9390E0FC01E458FF4F52
S11332602491FC01E057FF4F8491882361F190E0A1
S1133270880F991FFC01E854FF4FC591D491FC01BC
S1133280E255FF4FA591B491611109C09FB7F8941D
S11332908881209582238883EC912E230BC0623091
S11332A061F49FB7F8948881322F30958323888303
S11332B0EC912E2B2C939FBF06C08FB7F894E88116
S11332C02E2B28838FBFDF91CF9108951F93CF9327
S11332D0DF93282F30E0F901E859FF4F8491F90179
S11332E0E458FF4FD491F901E057FF4FC491CC2328
S11332F0C1F0162F81110E940119EC2FF0E0EE0F9E
S1133300FF1FE255FF4FA591B4919FB7F894111197
S113331004C08C91D095D82302C0EC91DE2BDC93B1
S11333209FBFDF91CF911F910895CF93DF93282FF3
S113333030E0F901E859FF4F8491F901E458FF4F57
S1133340D491F901E057FF4FC491CC2391F081113E
S11333500E940119EC2FF0E0EE0FFF1FEC55FF4F18
S1133360A591B491EC91ED2381E090E021F480E00B
S113337002C080E090E0DF91CF910895FC0180814C
S113338091810C94001CCF93DF93EC018881998187
S1133390009711F00E94001C198218821D821C8261
S11333A01B821A82DF91CF9108950F931F93CF93BD
S11333B0DF93EC018B016F5F7F4F888199810E94BD
S11333C0891C009731F0998388831B830A8381E0E9
S11333D001C080E0DF91CF911F910F910895CF93A9
S11333E0DF93EC0188819981892B29F08A819B8163
S11333F08617970760F4CE010E94D519882341F0FF
S11334008C819D81892B19F4E881F981108281E0F6
S1133410DF91CF910895EF92FF920F931F93CF9373
S1133420DF93EC017B018A01BA010E94EF1981113B
S113343004C0CE010E94C31907C01D830C83B701C9
S1133440888199810E94581DCE01DF91CF911F91EF
S11334500F91FF90EF900895FC0111821082138266
S11334601282158214826115710551F0FB010190DD
S11334700020E9F73197AF01461B570B0C940B1A48
S11334800895CF93DF93EC01FB018617970761F052
S1133490608171816115710529F0448155810E9413
S11334A00B1A02C00E94C319CE01DF91CF91089577
S11334B0FC011182108213821282158214820C94F0
S11334C0411ACF93DF93EC016115710559F0FB01AB
S11334D001900020E9F73197AF01461B570B0E947A
S11334E00B1A02C00E94C319CE01DF91CF91089537
S11334F0EF92FF920F931F93CF93DF9361157105A2
S113350011F480E01CC041155105C1F07B01EC01B0
S11335108C819D818A01080F191FB801CE010E9478
S1133520EF19882371F3288139818C819D81B7013A
S1133530820F931F0E94581D1D830C8381E0DF912D
S1133540CF911F910F91FF90EF900895CF93DF9348
S1133550EC01FB0144815581608171810E94781ADC
S1133560811103C0CE010E94C319CE01DF91CF9116
S11335700895CF93DF93EC016115710561F0FB01B0
S113358001900020E9F73197AF01461B570B0E94C9
S1133590781A811103C0CE010E94C319CE01DF91B4
S11335A0CF910895BF92CF92DF92EF92FF920F9343
S11335B01F93CF93DF937C016B018A01E9012417E8
S11335C0350720F4812F8901C42FD82F67E871E0D3
S11335D0C7010E942C1AD60114968D919C911597BF
S11335E008171907C8F48C179D0708F4EC01D601D5
S11335F0ED91FC911197EC0FFD1FB08010826D913D
S11336007C91600F711FC7010E94611AD601ED9170
S1133610FC91EC0FFD1FB082C701DF91CF911F9188
S11336200F91FF90EF90DF90CF90BF900895089591
S113363097FB072E16F4009407D077FD09D00E945B
S11336404E1B07FC05D03EF4909581959F4F08953D
S1133650709561957F4F0895A1E21A2EAA1BBB1B9A
S1133660FD010DC0AA1FBB1FEE1FFF1FA217B3074A
S1133670E407F50720F0A21BB30BE40BF50B661F60
S1133680771F881F991F1A9469F760957095809524
S113369090959B01AC01BD01CF010895AA1BBB1BF2
S11336A051E107C0AA1FBB1FA617B70710F0A61B3E
S11336B0B70B881F991F5A95A9F780959095BC015F
S11336C0CD010895EE0FFF1F0590F491E02D0994AC
S11336D00F931F93CF93DF938230910510F482E010
S11336E090E0E091A702F091A80220E030E0A0E091
S11336F0B0E0309719F1408151810281138148175C
S11337005907C8F08417950769F4109731F0129699
S11337100C93129713961C9327C00093A70210933F
S1133720A80222C02115310519F04217530718F4D5
S11337309A01BD01EF01DF01F801DBCF211531054D
S1133740F9F0281B390B2430310580F48A819B81E0
S11337506115710521F0FB019383828304C090936A
S1133760A8028093A702FE01329644C0FE01E20F34
S1133770F31F8193919322503109398328833AC0EE
S11337802091A5023091A602232B41F4209102013D
S1133790309103013093A6022093A50220910001E9
S11337A0309101012115310541F42DB73EB7409107
S11337B0040150910501241B350BE091A502F09101
S11337C0A602E217F307A0F42E1B3F0B28173907B4
S11337D078F0AC014E5F5F4F2417350748F04E0F69
S11337E05F1F5093A6024093A5028193919302C058
S11337F0E0E0F0E0CF01DF91CF911F910F910895A8
S1133800CF93DF93009709F481C0FC0132971382B0
S11338101282A091A702B091A802109781F420818E
S11338203181820F931F2091A5023091A60228179F
S1133830390751F5F093A602E093A50267C0ED01A4
S113384020E030E0CE17DF0740F44A815B819E011F
S113385041155105F1F0EA01F5CFD383C2834081CC
S11338605181840F951FC817D90759F4888199810C
S1133870840F951F0296918380838A819B81938311
S113388082832115310529F4F093A802E093A7025D
S11338903DC0E901FB83EA8349915991C40FD51FC7
S11338A0EC17FD0761F480819181840F951F0296C6
S11338B0E90199838883828193819B838A83E0E0F1
S11338C0F0E012968D919C911397009719F0FD01E9
S11338D0DC01F7CF8D919C9111979D012E5F3F4F95
S11338E0820F931F2091A5023091A6022817390751
S11338F069F4309729F41092A8021092A70202C02A
S113390013821282B093A602A093A502DF91CF91F5
S11339100895A0E0B0E0EFE8FCE10C94791DEC011F
S1133920009721F4CB010E94681BB4C0FC01E60F90
S1133930F71F9C0122503109E217F30708F4A8C0CD
S1133940D9010D911C91119706171707B0F0053096
S1133950110508F49BC0C80104978617970708F45B
S113396095C002501109061B170B019311936D9317
S11339707C93CF010E94001C89C05B01A01AB10A8C
S11339804C01800E911EA091A702B091A802612C57
S1133990712CE12CF12C109709F446C08D919C9167
S11339A01197A815B905B1F56C0142E0C40ED11CFC
S11339B0CA14DB0478F14C018A189B08640142E0C4
S11339C0C40ED11C1296BC9012971396AC91B5E01C
S11339D0CB16D10440F0B282A38391828082D901B4
S11339E06D937C9309C00E5F1F4F800F911FF901E7
S11339F091838083EB2DFA2FE114F10431F0D70188
S1133A001396FC93EE93129741C0F093A802E093AF
S1133A10A7023CC06816790608F43C017D011296A1
S1133A200D90BC91A02DB7CF8091A5029091A602D4
S1133A3088169906E1F466167706C8F480910001A9
S1133A4090910101009741F48DB79EB74091040114
S1133A5050910501841B950BE817F907C8F4F093FE
S1133A60A602E093A502F901718360830FC0CB0124
S1133A700E94681B7C01009759F0A801BE010E94B6
S1133A804F1DCE010E94001CC70104C0CE0102C01C
S1133A9080E090E0CDB7DEB7EEE00C94951DFB011D
S1133AA0DC0102C001900D9241505040D8F70895B6
S1133AB0FB01DC0101900D920020E1F70895F999D2
S1133AC0FECF92BD81BDF89A992780B50895262F1F
S1133AD0F999FECF1FBA92BD81BD20BD0FB6F894EF
S1133AE0FA9AF99A0FBE019608952F923F924F9237
S1133AF05F926F927F928F929F92AF92BF92CF927A
S1133B00DF92EF92FF920F931F93CF93DF93CDB782
S1133B10DEB7CA1BDB0B0FB6F894DEBF0FBECDBFFA
S1133B2009942A88398848885F846E847D848C84CB
S1133B309B84AA84B984C884DF80EE80FD800C81D4
S1133B401B81AA81B981CE0FD11D0FB6F894DEBFB7
S1133B500FBECDBFED01089510E0C3E6D0E004C070
S1133B60FE010E94621B2196C436D107C9F7F8945E
S1053B70FFCF81
S1133B720000A902200001019517951700004000DA
S1133B8214005400553A00443A00432D00432000E7
S1133B922500545255450046414C53450053455463
S1133BA254494E4753004F4E2F4F464600536574B7
S1133BB22074656D7020696E2075700053657420E1
S1133BC274656D7020696E20646F776E00203C3CD2
S1133BD245786974003E00000000005E09A716AF34
S1133BE208B208202020202020202020202020206D
S1133BF22020202020202000000000006D1340130C
S10D3C02AF083F1314131C13301312
S9030000FC
