S0150000426F74746F6D5F6865617465722E73726563C2
S11300000C9463000C94A3170C94CA170C948B00E3
S11300100C948B000C948B000C948B000C94D709DB
S11300200C948B000C948B000C948B000C948B0020
S11300300C948B000C948B000C948B000C948B0010
S11300400C94F1170C948B000C948B000C948B0083
S11300500C948B000C948B000C948B000C948B00F0
S11300600C9482110C948B00000000080002010023
S1130070000304070000000000000000010204085F
S113008010204080010204081020010204081020FE
S1130090040404040404040402020202020203032A
S11300A003030303000000002300260029000000CE
S11300B00000250028002B00000000002400270079
S11300C02A00630A711311241FBECFEFD8E0DEBFEC
S11300D0CDBF11E0A0E0B1E0E2E1FBE302C0059096
S11300E00D92A63DB107D9F723E0A6EDB1E001C01A
S11300F01D92AD32B207E1F710E0C3E6D0E004C0D0
S11301002197FE010E94EE1AC136D107C9F70E9459
S1130110DE150C94871D0C9400006091D60170913B
S1130120D7018091D8019091D9010E94CC1060E050
S113013070E08091DA010C94EE181F93CF93DF9353
S1130140162F6093DA017093DB018CEA90E00E9431
S1130150ED15EC010E94E70ED093D901C093D801AC
S11301602DE830E040E050E0BA01CE010E949A0F41
S11301709093D7018093D601BC018091D8019091CE
S1130180D9010E94CC1061E0812FDF91CF911F91A2
S11301900C9476198091D8019091D9010C94E20FB6
S11301A0CF92DF92EF92FF926A017B016091D601B8
S11301B07091D7018091D8019091D9010E94C1100A
S11301C06091D6017091D701A70196018091D80161
S11301D09091D9010E948C0F6091D6017091D70142
S11301E08091D8019091D9010E94A7106FE770E027
S11301F08091DA01FF90EF90DF90CF900C94EE188D
S11302008091E4019091E50101969093E50180933A
S1130210E401E091DC01F091DD01608171816817F6
S1130220790734F48091DE019091DF010E94C501C9
S1130230E091DC01F091DD01628173818091E40140
S11302409091E501681779073CF48091DE01909163
S1130250DF0102960C94C50108951092E5011092F5
S1130260E4016091E2017091E3018091E0019091D9
S1130270E1010E94CC1060E070E08091DE01909179
S1130280DF010E94C5018091DE019091DF0160E0F1
S113029070E002960E94C50142E050E063E571E01F
S11302A080E00C9483171092E5011092E4016091B0
S11302B0E2017091E3018091E0019091E1010E94DB
S11302C0C1106091E2017091E3018091E00190918D
S11302D0E1010E94A71043E050E06DE271E080E08C
S11302E00C948317CF93DF93FC01862F5093DF0187
S11302F04093DE013093DD012093DC016083718340
S113030060E00E94761942E050E063E571E080E02D
S11303100E9483178CEA90E00E94ED15EC010E9484
S1130320E70ED093E101C093E00120E031E048E220
S113033050E060E070E0CE010E949A0F9093E301D8
S11303408093E201BC018091E0019091E101DF9191
S1130350CF910C94CC107093DD016093DC0108956F
S11303608091E0019091E1010C94E20FCF93DF932F
S1130370EC01862F6883798361E00E94761960E03E
S11303808881DF91CF910C94B2196095FC01808132
S11303900C94B2190895FC017183608308958F92BF
S11303A09F92AF92BF92CF92DF92EF92FF920F9300
S11303B01F93CF93DF93CDB7DEB762970FB6F89450
S11303C0DEBF0FBECDBF7C016B014A015901462F30
S11303D060E0FC01808191810E94DF0AC114D10494
S11303E019F06FE171E002C06CE171E0F701808106
S11303F091810E9440164AE0B401CE010D960E94FC
S11304008F1A898965E0681B4C2DF70180819181E1
S11304100E94DF0ABE01635F7F4FF70180819181F3
S11304200E9432164C2D65E0F701808191810E9473
S1130430DF0A62E271E0F701808191810E94401637
S11304404C2D67E0F701808191810E94DF0A65E20B
S113045071E0F701808191810E9440164AE0B50164
S1130460CE0107960E948F1A8B856AE0681B4C2D7B
S1130470F701808191810E94DF0ABE01695F7F4F8D
S1130480F701808191810E9432164C2D6AE0F701B8
S1130490808191810E94DF0A69E271E0F701808125
S11304A091810E9440164C2D6CE0F701808191816E
S11304B00E94DF0A65E271E0F701808191810E9468
S11304C040164AE0B801CE0101960E948F1A8D8130
S11304D06FE0681B4C2DF701808191810E94DF0A37
S11304E0BE016F5F7F4FF701808191810E943216B8
S11304F04C2D6FE0F701808191810E94DF0A6BE24D
S113050071E0F701808191810E944016CE0101962D
S11305100E940A1ACE0107960E940A1ACE010D966D
S11305200E940A1A62960FB6F894DEBF0FBECDBFC2
S1130530DF91CF911F910F91FF90EF90DF90CF90BB
S1130540BF90AF909F908F90089508951F93CF937D
S1130550DF93EB01CB010E943A1D182FCE010196C7
S11305600E943A1D982F812FDF91CF911F910895FA
S11305701F93CF93DF93EB01152F642FCE010E94BD
S1130580421D612FCE010196DF91CF911F910C94F2
S1130590421DFC01718360830895DC018D919C915F
S11305A0DC01ED91FC910480F581E02D0994DC01DE
S11305B08D919C91DC01ED91FC910680F781E02DF9
S11305C00994DC018D919C91DC01ED91FC910284F4
S11305D0F385E02D0994CF93DF93EC018881998111
S11305E0DC01ED91FC910084F185E02D099599835E
S11305F08883CE01DF91CF910C94E102DC018D91CF
S11306009C91DC01ED91FC910684F785E02D099421
S11306100895FC01848195810895FC018281938170
S11306200895DC011696ED91FC91179709940895AD
S11306300C94F115FC0181E391E091838083738331
S113064062835583448337832683089508950F93E3
S11306501F93CF93DF93EC010C811D8120E030E0E8
S113066040E85FE3F80160817181828193810E9497
S1130670A013F8016083718382839383E881F981F5
S11306800284F385E02DCE01DF91CF911F910F916C
S113069009940F931F93CF93DF93EC010C811D8179
S11306A020E030E040E85FE3F801608171818281FD
S11306B093810E949F13F8016083718382839383E3
S11306C0E881F9810284F385E02DCE01DF91CF9199
S11306D01F910F910994FC01868197810895FC0173
S11306E082819381089508950C94F115CF93DF933B
S11306F0EC01888599850E94D10A40E060E08885F4
S113070099850E94DF0A6A817B81888599850E9488
S1130710401641E060E0888599850E94DF0AEC81FB
S1130720FD81408151816281738122E030E08885BE
S11307309985DF91CF910C9480170F931F93FC013F
S113074085E491E09183808373836283558344833A
S113075037832683118700871F910F910895089589
S1130760DC0118968D919C911997019719969C9389
S11307708E93189797FF09C01A968D919C911B9799
S1130780019719969C938E931897ED91FC9111976C
S11307900284F385E02DCD010994DC0118968D9136
S11307A09C911997019619969C938E9318971A9673
S11307B02D913C911B978217930724F019961C9254
S11307C01E921897ED91FC9111970284F385E02D08
S11307D0CD010994DC011896ED91FC911997EE0F67
S11307E0FF1F14968D919C911597E80FF91F808136
S11307F091810895FC01828193810895FC01118601
S1130800108608950C94F115CF93DF93EC018E813B
S11308109F810E94D10A40E060E08E819F810E9406
S1130820DF0A6A817B818E819F810E94401641E0AC
S113083060E08E819F810E94DF0AE885F985EE0FD2
S1130840FF1F8C819D81E80FF91F80819181DC015C
S1130850ED91FC910484F585E02D0995BC018E8110
S11308609F81DF91CF910C9440160F931F93FC014D
S113087089E591E091838083738362835583448304
S11308801783068333872287118610861F910F9161
S11308900895CF92DF92EF92FF926091E9017091F7
S11308A0EA0180910302909104020E94A7108091B2
S11308B0EE01882309F490C080910601882309F48D
S11308C08BC02091F7013091F8014091F9015091CA
S11308D0FA01609108017091090180910A019091D7
S11308E00B010E949F136B017C0120E030E0A90101
S11308F00E946B1518165CF420E030E040E050E4F0
S1130900C701B6010E940C1487FF58C00BC020E039
S113091030E040E050ECC701B6010E946B15181698
S11309200CF04CC0C090EF01D090F001E090F101C8
S1130930F090F20120E030E0A901C701B6010E9465
S11309406B151816DCF520E030E04FE753E4C701DF
S1130950B6010E940C1487FF31C06091EB017091C5
S1130960EC01072E000C880B990B0E94BB14A70105
S113097096010E949F136B017C0120E030E0A901E5
S11309800E946B1518165CF420E030E040EA50E455
S1130990C701B6010E940C1487FF10C00AC020E0F2
S11309A030E040EA50ECC701B6010E946B151816FE
S11309B02CF41092060181E08093ED016091EF0127
S11309C07091F0018091F1019091F2010E948314E1
S11309D07093EC016093EB01FF90EF90DF90CF9068
S11309E00895CF93DF9300D000D0CDB7DEB78091C8
S11309F0EE01882369F18091ED01882331F0809123
S1130A000D0290910E020E94040C8091060188232D
S1130A1031F080910B0290910C020E94040C6091C1
S1130A20F3017091F4018091F5019091F6010E9417
S1130A3083147A8369836091EF017091F00180914E
S1130A40F1019091F2010E9483147C836B8304C0B2
S1130A501A8219821C821B82BE016F5F7F4F8091B4
S1130A601302909114020E94AB010F900F900F900B
S1130A700F90DF91CF9108958F929F92AF92BF9282
S1130A80CF92DF92EF92FF920F931F938091070111
S1130A90811172C020E030E04FE753E46091F3012C
S1130AA07091F4018091F5019091F6010E94111466
S1130AB020E030E048EC52E40E9470150E94831458
S1130AC04B015C016091FB017091FC018091FD017F
S1130AD09091FE010E9483146B017C0160910C01D2
S1130AE070910D0180910E0190910F010E94831469
S1130AF084019601AB0160E070E080910F02909157
S1130B0010020E94CF0120E030E04FE753E46091EF
S1130B10EF017091F0018091F1019091F2010E9436
S1130B20111420E030E048EC52E40E9470150E9459
S1130B3083144B015C016091F7017091F80180917D
S1130B40F9019091FA010E9483146B017C01609178
S1130B5008017091090180910A0190910B010E9492
S1130B60831484019601AB0161E070E080910F026F
S1130B70909110020E94CF011F910F91FF90EF906E
S1130B80DF90CF90BF90AF909F908F900895609129
S1130B90E7017091E80180910302909104020E94A0
S1130BA0A71080911102909112020E949A136093EF
S1130BB0F7017093F8018093F9019093FA01109270
S1130BC0FB011092FC011092FD011092FE010C94A5
S1130BD03C058091090290910A020E943B09909180
S1130BE007019923A9F0082E000C990B8F3F2FEFD2
S1130BF0920731F480910502909106020C94CD0283
S1130C00019731F480910502909106020C94D70269
S1130C100895CF92DF92EF92FF920F931F93CF9399
S1130C20DF9360E070E080910102909102020E94E3
S1130C30A6028C0162E070E08091010290910202B0
S1130C400E94A602EC01C0900C01D0900D01E0902E
S1130C500E01F0900F01B801110F880B990B0E943F
S1130C60BB14A70196010E940C14882369F0C701E4
S1130C70B6010E948314AB0160E070E08091010230
S1130C80909102020E94B802C0900801D09009011C
S1130C90E0900A01F0900B01BE01DD0F880B990B67
S1130CA00E94BB14A70196010E940C148823A9F08A
S1130CB0C701B6010E948314AB0162E070E0809129
S1130CC0010290910202DF91CF911F910F91FF9049
S1130CD0EF90DF90CF900C94B802DF91CF911F91E9
S1130CE00F91FF90EF90DF90CF900895109207013D
S1130CF080910502909106020E94EB028091050208
S1130D00909106020E94FE028091070290910802CF
S1130D100E94D10A0C9409061092EE011092ED0182
S1130D20109206011092F3011092F4011092F50151
S1130D301092F6011092EF011092F0011092F1015D
S1130D401092F2010C94760681E08093EE011092E9
S1130D50ED01809306011092F3011092F4011092B8
S1130D60F5011092F6011092EF011092F001109229
S1130D70F1011092F2010C94760687E00E94E119C9
S1130D80892B21F481E08093E60108958091E601A6
S1130D908823E1F0209107018091050290910602D9
S1130DA0222319F00E94EB0205C021E020930701E1
S1130DB00E94E1021092E60142E350E060E070E03C
S1130DC08091FF01909100020C94D00008958091CD
S1130DD00302909104020E94E20F80911302909109
S1130DE014020E94B0018091FF01909100020E94C0
S1130DF0CA000E94F1040E94E9050C94BD06CF923A
S1130E00DF92EF92FF920F931F93CF93DF938AE0C9
S1130E1090E00E94EF157C018CE090E00E94ED15BB
S1130E20EC01009107021091080225E030E0A701CF
S1130E3069E671E00E9435048AE090E00E94ED15B5
S1130E406C0100910702109108029E014CE051E0F0
S1130E5068E771E00E949D03F701D182C0828AE0B5
S1130E6090E00E94ED156C010091070210910802B8
S1130E709E0148E051E064E871E00E949D03F7019F
S1130E80D382C28288E090E00E94ED158C0124EAAE
S1130E9036E0AE0162E971E00E941A03F70115839E
S1130EA0048388E090E00E94ED158C012CE836E084
S1130EB0AE016AE971E00E941A03F7011783068301
S1130EC088E090E00E94ED158C0126E736E0AE0143
S1130ED061EA71E00E941A03F7011187008782E03A
S1130EE090E00E94ED157C01BE010E94C902F092BF
S1130EF00602E0920502C701DF91CF911F910F9185
S1130F00FF90EF90DF90CF900C94E1026F927F926C
S1130F108F929F92AF92BF92CF92DF92EF92FF9205
S1130F200F931F93CF93DF93CDB7DEB728970FB6F8
S1130F30F894DEBF0FBECDBF63E070E0CE0105962E
S1130F400E94B60164E070E0CE0107960E94B601EB
S1130F501A8219821C821B8282E090E00E94ED15A5
S1130F608C019E012F5F3F4FAE014B5F5F4F62E0EC
S1130F7070E00E947201109314020093130282E045
S1130F8090E00E94ED158C012CE030E04BE050E045
S1130F906AE070E00E94751310931202009311022C
S1130FA08CE090E00E94ED154C0100E022E040E16D
S1130FB067E20E946A0A9092080280920702C401C2
S1130FC00E941B0B80910702909108020E94D10A93
S1130FD082E090E00E94ED158C016091070270910F
S1130FE008020E94CB011093100200930F0281E0CB
S1130FF090E00E94ED158C0146E065E00E94DF0858
S113100010930A0200930902C8010E94B60960E025
S113101087E00E94761989E390E00E94ED154C0167
S11310201F921F928FE3682E6F9290E8792E7F9221
S11310301F921F92A12CB12C20EAC22E20E4D22EA2
S1131040E12CF12C00E010E42CE031E043EF51E01E
S11310506BEF71E0C4010E94780E90920E028092B0
S11310600D0261E070E0C4010E94260E89E390E065
S11310700E94ED154C011F921F926F927F921F9256
S11310801F9228E031E04FEE51E067EF71E00E94DB
S1131090780E90920C0280920B0261E070E0C40121
S11310A00E94260E81E090E00E94ED158C010E94C2
S11310B0A502109302020093010260E070E0C801EF
S11310C00E94A602BC01990F880B990B0E94BB14C5
S11310D060930C0170930D0180930E0190930F01A6
S11310E062E070E080910102909102020E94A602E7
S11310F0BC01990F880B990B0E94BB1460930801E3
S11311007093090180930A0190930B010E94FF06DA
S11311108CEA90E00E94ED158C010E94E70E10937A
S113112004020093030229E434E040EA56E861E053
S113113070E0C8010E949A0F9093EA018093E9013C
S113114027EC35E048EE53E060E070E08091030264
S1131150909104020E949A0F9093E8018093E70112
S113116081E090E00E94ED158C0169E070E00E943E
S11311709D00109300020093FF01CE0107960E9488
S1131180CA01CE0105960E94CA010FB6F894DEBFCB
S11311900FBECDBF28960FB6F894DEBF0FBECDBFED
S11311A0DF91CF911F910F91FF90EF90DF90CF903F
S11311B0BF90AF909F908F907F906F900895CF9342
S11311C0DF93DC011C9280911502883008F050C036
S11311D0809115028C93809115028F5F8093150284
S11311E0CC91D0E0CB5EDD4F6983CC91D0E0CB5E77
S11311F0DD4F49878C9190E070E0FB01E057FF4F91
S1131200E491F0E0EE0FFF1FEC55FF4F2591349170
S1131210880F991FFC01EB5EFD4F328B218B8C9163
S113122090E050E0FA01E057FF4FE491F0E0EE0F58
S1131230FF1FEC55FF4F25913491880F991FFC0136
S1131240EB5EFD4F32A321A38C9190E0FB01E458A7
S1131250FF4F6491FC01EB5EFD4F61AB8C9190E01C
S1131260FA01E458FF4F4491FC01EB5EFD4F41AF9E
S1131270DF91CF910895DC01809115028830D0F47C
S1131280EC91F0E0EA5AFD4F8081EC91F0E0EA5AEB
S1131290FD4F873821F483E080838FEF08958081A8
S11312A08B3449F4EC91F0E0EA5AFD4F83E08083FB
S11312B081E00895089580E00895CF934A3185EF41
S11312C058076105710508F5443A8EE15807610530
S11312D07105F8F4493A87E0580761057105E8F4A7
S11312E0453D83E0580761057105D8F44B3E81E024
S11312F0580761057105C8F4463F5105610571053C
S1131300C0F487E0A0E0B4E017C081E0A1E0B0E061
S113131013C082E0A8E0B0E00FC083E0A0E2B0E038
S11313200BC084E0A0E4B0E007C085E0A0E8B0E032
S113133003C086E0A0E0B1E0C2E0C093B0008093B7
S1131340B1009A01AB010E94E31A9B01AC0160E079
S113135074E284EF90E00E94C11A21502093B300FC
S1131360C093700080E88FBFCF910895CF93DF932F
S1131370209115022830C0F4EC01E881F0E0EB5E26
S1131380FD4F818160E00E947619E881F0E0EB5E18
S1131390FD4F818560E00E94761940EA5FE060E0DD
S11313A070E0CE010E945D09DF91CF9108951F92F4
S11313B00F920FB60F9211242F933F938F939F9305
S11313C0EF93FF938091150280935E0280915E02F9
S11313D09FEF980F90935E02882309F469C01092DE
S11313E05F02E0915E02EE0FFF0BEB5EFD4F0188A2
S11313F0F289E02D2081E0915E020E2E000CFF0B9D
S1131400EB5EFD4F91A980915F02922321E009F4E4
S113141020E0822B80935F0280915F02880F990BFA
S113142080935F02E0915E02EE0FFF0BEB5EFD4FD7
S113143001A0F2A1E02D2081E0915E020E2E000CAD
S1131440FF0BEB5EFD4F91AD80915F02922321E093
S113145009F420E0822B80935F02E0915E020E2E5D
S1131460000CFF0BEA5AFD4F808120915F028370CC
S113147090E0022E000C330B8217930709F4A6CFD9
S1131480E0915E020E2E000CFF0BEA5AFD4F8081A4
S1131490880F880F808380915F02E0915E020E2E98
S11314A0000CFF0BEA5AFD4F9081892B80838ECF6D
S11314B0FF91EF919F918F913F912F910F900FBECC
S11314C00F901F90189510921502089580E090E0F7
S11314D0089508950F93FC01138212828CEA91E01F
S11314E091838083648340872187028788E0838790
S11314F00F9108951F93CF93DF93EC01162F6C8106
S11315008EEC92E00E9451136B85612B8EEC92E07D
S11315100E9408138EEC92E0DF91CF911F910C94FE
S11315206E130F931F93CF938C01C62F64600E9498
S11315307A0A81E090E00E94A8186C2F6B7FC801A2
S11315400E947A0A82E390E0CF911F910F910C944C
S1131550A8181F93CF93DF93EC01162F0E947A0AE9
S1131560612FCE01DF91CF911F910C94910A0F93BB
S11315701F93CF93DF938C01C62FD42F607F642BEE
S11315800E94A90A80E1C89FB00111246D2BC801F3
S1131590DF91CF911F910F910C94A90A40E00C9414
S11315A0B70A61E00E94CE0A80ED97E00C94A81877
S11315B062E00E94CE0A80ED97E00C94A818CF93C5
S11315C0DF93CDB7DEB728970FB6F894DEBF0FBE12
S11315D0CDBF9C0188E0E4E1F1E0DE0111960190C9
S11315E00D928A95E1F7F9018185841710F44FEF84
S11315F0480FFE013196E40FF11DE40FF11D9081B7
S1131600690F6068C90128960FB6F894DEBF0FBE53
S1131610CDBFDF91CF910C94CE0AFC016681262FB9
S1131620246026836C600C94CE0A41E00E94B70AC1
S113163081E090E00895CF93DF93EC018EEC92E08B
S11316400E9447131D828985823010F098E09D83A3
S11316509A85992329F0813019F48D8184608D83D2
S113166062E370E080E090E00E946C186B85CE012C
S11316700E947A0A68EE73E080E090E00E946C18A1
S113168060E3CE010E94A90A84E991E10E94A818AE
S113169060E3CE010E94A90A84E991E10E94A8189E
S11316A060E3CE010E94A90A86E990E00E94A8188E
S11316B060E2CE010E94A90A6D816062CE010E949F
S11316C0CE0A84E08E83CE010E940D0BCE010E94CF
S11316D0D10A82E08F8366E0CE010E94CE0ACE0159
S11316E0DF91CF910C94D80ACF93DF93EC01842F30
S11316F068834A83298361E00E94761961E08881C6
S11317000E94761960E089810E94761961E08A81DD
S1131710DF91CF910C94B219CF92DF92EF92FF92A6
S11317201F93CF93DF937C0110E0C7E0D0E0CC247B
S1131730C394D12C60E0F70180810E94B2198FE933
S11317409FE00197F1F700C00000F70181810E943A
S1131750E119892B39F0C6010C2E01C0880F0A94B7
S1131760EAF7182B61E0F70180810E94B2198FE932
S11317709FE00197F1F700C000002197D8F6812F70
S1131780DF91CF911F91FF90EF90DF90CF9008955C
S11317900F931F93CF93DF938C0160E0FC01828150
S11317A00E94B2198FE99FE00197F1F700C0000091
S11317B0C8010E948C0BC82FD0E0DC2FCC27C801B5
S11317C00E948C0BC82B61E0F80182810E94B2193F
S11317D0C2FD11C0BE0183E0769567958A95E1F755
S11317E080E090E00E94B91420E030E040E85EE33D
S11317F00E94701504C060E070E080EC9FE7DF9108
S1131800CF911F910F9108952F923F924F925F9223
S11318106F927F928F929F92AF92BF92CF92DF92FC
S1131820EF92FF920F931F93CF93DF93CDB7DEB761
S11318302B970FB6F894DEBF0FBECDBFDC01D89650
S1131840BC91B983B11102C01982E6C09B878A8713
S11318500E943B186A837B838C839D83EA85FB8586
S113186080A191A1A2A1B3A14A815B816C817D81F8
S1131870481B590B6A0B7B0B84A595A5A6A5B7A598
S1131880481759076A077B07F8F2028CF38DE02D9D
S113189080809180A280B380AA85BB855E96ED91FD
S11318A0FC915F97A501940160817181828193818C
S11318B00E949F132B013C01EA85FB852089318915
S11318C0428953890E947015AA85BB8594962D91EF
S11318D03D914D915C9197970E94A0136B017C01FF
S11318E0EA85FB8564A375A386A397A324A835A8DA
S11318F006A917A99101A8010E946B1518161CF4DA
S1131900C101D80118C0AA85BB85D0968D919D913F
S11319100D90BC91A02D8E839F83A887B9879C01CD
S1131920AD01C701B6010E940C1487FF0AC08E8165
S11319309F81A885B985EA85FB8584A395A3A6A381
S1131940B7A3AA85BB851C962D913D914D915C91C1
S11319501F97C301B2010E947015EA85FB8524A17B
S113196035A146A157A10E94A0136B017C01AA8551
S1131970BB8598962D913D914D915C919B97C501A6
S1131980B4010E949F13EA85FB8524893589468921
S113199057890E9470159B01AC01C701B6010E94D2
S11319A09F136B017C019B01AC01B101C8010E9432
S11319B00C1487FD17C0AA85BB85D0962C90D097B0
S11319C0D1963C90D197D2960C91D297D3961C91F4
S11319D09101A801B601C7010E940C1487FD02C041
S11319E016018701AA85BB855C96ED91FC915D97F4
S11319F0C101D80180839183A283B383EA85FB85E7
S1131A0080A691A6A2A6B3A68A819B81AC81BD8142
S1131A1080A391A3A2A3B3A389812B960FB6F894B4
S1131A20DEBF0FBECDBFDF91CF911F910F91FF900D
S1131A30EF90DF90CF90BF90AF909F908F907F906A
S1131A406F905F904F903F902F9008954F925F92C8
S1131A506F927F928F929F92AF92BF92CF92DF92BA
S1131A60EF92FF920F931F93CF93DF9300D000D098
S1131A7000D0CDB7DEB79E838D832A013B01480198
S1131A80590120E030E0A901C301B2010E940C1405
S1131A9087FD7FC020E030E0A901C501B4010E94A8
S1131AA00C1487FD76C020E030E0A901C701B6011F
S1131AB00E940C1487FD6DC0ED81FE81408251822D
S1131AC06282738284829582A682B782C086D1861E
S1131AD0E286F38664A575A586A597A50E94B91428
S1131AE020E030E04AE754E40E94111469837A83C9
S1131AF08B839C83ED81FE8144865586668677863A
S1131B009B01AC01C501B4010E9470154B015C013D
S1131B10ED81FE81608B718B828B938B29813A815D
S1131B204B815C81C701B6010E9411146B017C01D9
S1131B30ED81FE81648B758B868B978B808D918D67
S1131B40019739F5A301920160E070E0CB010E9496
S1131B509F13ED81FE816487758786879787A5012A
S1131B60940160E070E0CB010E949F13ED81FE813F
S1131B70608B718B828B938BA701960160E070E080
S1131B80CB010E949F13ED81FE81648B758B868B44
S1131B90978B26960FB6F894DEBF0FBECDBFDF91AC
S1131BA0CF911F910F91FF90EF90DF90CF90BF9056
S1131BB0AF909F908F907F906F905F904F9008951B
S1131BC08F929F92AF92BF92CF92DF92EF92FF9249
S1131BD0CF93DF93EC01EC8DFD8DC080D180E2804A
S1131BE0F380CCA2DDA2EEA2FFA2EA8DFB8D808160
S1131BF09181A281B38188A799A7AAA7BBA78CA822
S1131C009DA8AEA8BFA8A5019401C701B6010E9472
S1131C106B15181664F088A899A8AAA8BBA8A501F2
S1131C209401C701B6010E940C1487FF04C08CA262
S1131C309DA2AEA2BFA2DF91CF91FF90EF90DF9063
S1131C40CF90BF90AF909F908F9008951F93CF93A4
S1131C50DF93EC0111E06130710509F010E098ADFB
S1131C6081E08927181303C0CE010E94E00D18AF4C
S1131C70DF91CF911F9108950F931F93CF93DF931B
S1131C80EC018B0188AD882361F1888D998D8617CD
S1131C90970739F12C853D854E855F8560E070E0BE
S1131CA0CB010E949F136C877D878E879F8728892D
S1131CB039894A895B8960E070E0CB010E949F13F7
S1131CC0688B798B8A8B9B8B2C893D894E895F89A4
S1131CD060E070E0CB010E949F136C8B7D8B8E8B38
S1131CE09F8B198F088FDF91CF911F910F910895CA
S1131CF04F925F926F927F928F929F92AF92BF9218
S1131D00CF92DF92EF92FF920F931F93CF93DF93C3
S1131D1000D000D0CDB7DEB74C0127013801A9822D
S1131D20BA82CB82DC82FC01558F448F738F628F21
S1131D30378F268F10AE10AA11AA12AA13AA80E018
S1131D4090E0AFE7B3E484AB95ABA6ABB7AB84E666
S1131D5090E0A0E0B0E084A795A7A6A7B7A76B8DF5
S1131D607C8DC4010E943C0ECF88D88CE98CFA8CFF
S1131D7009811A812B813C81B301A201C4010E9413
S1131D80260D0E943B18F40104A515A526A537A528
S1131D90DC01CB01801B910BA20BB30B80A391A39D
S1131DA0A2A3B3A30F900F900F900F90DF91CF9148
S1131DB01F910F91FF90EF90DF90CF90BF90AF9065
S1131DC09F908F907F906F905F904F900895CF92E7
S1131DD0DF92EF92FF92CF93DF93EC010E943B18C6
S1131DE07E012CE8E20EF11CFE01B8966E019E0104
S1131DF0245C3F4FD7011D927D0111921192D601AF
S1131E006D937D938D939D936D01AF01425B5F4F05
S1131E10DA011D921C92E217F30761F7C655DF4FF2
S1131E2019821882DF91CF91FF90EF90DF90CF90CD
S1131E300895FC01E655FF4F208131812A30310598
S1131E406CF4E258F10920E030E081919191892B02
S1131E5041F02F5F3F4F2A303105B9F78FEF9FEFE5
S1131E600895C90108954F925F926F927F92AF9245
S1131E70BF92CF92DF92EF92FF920F931F93CF9373
S1131E80DF93EC012A013B0169010E94190F7C01D7
S1131E9097FD31C0C114D10471F15C01AA0CBB1CC3
S1131EA0AA0CBB1CAC0EBD1EF50144AE55AE66AE0D
S1131EB077AEF701EE0FFF1FEC0FFD1FD1A6C0A6F2
S1131EC0EC59FF4F11830083FE01EE0DFF1DE45713
S1131ED0FF4F81E080830E943B18F501608371838A
S1131EE082839383C655DF4F8881998101969983B4
S1131EF08883C70102C08FEF9FEFDF91CF911F91BD
S1131F000F91FF90EF90DF90CF90BF90AF907F90B4
S1131F106F905F904F900895615F7F4F660F771FBA
S1131F20660F771F860F971FFC012083318342833E
S1131F30538308950F931F9300E010E00E94330F22
S1131F401F910F910895CF93DF936A307105BCF50B
S1131F50EC01C655DF4F288139812115310579F10E
S1131F60DB01AA0FBB1FA80FB91F98964D915C9176
S1131F709997452B21F199961C921E929897FC01F2
S1131F80E60FF71FE457FF4F1082FD01EA56FF4F9B
S1131F9011821082615F7F4F660F771F660F771F74
S1131FA0FC01E60FF71F1082118212821382A858D7
S1131FB0BF4F1D921C922150310939832883DF9130
S1131FC0CF9108952F923F924F925F926F927F929A
S1131FD08F929F92AF92BF92CF92DF92EF92FF9235
S1131FE00F931F93CF93DF9300D000D000D0CDB7D1
S1131FF0DEB79C838B830E943B186B017C01EB81D1
S1132000FC81EC59FF4F0B811C81980124573F4FF1
S1132010C80188589F4F9A8389831E830D83222485
S11320202394312C13AA12AACF01CC97DC018D91F1
S11320309C91892BF1F1AD81BE818D909D90AD90E5
S1132040BC901397DC964D915D916D917C91DF97D7
S113205026013701481859086A087B0844165506B2
S11320606606770630F1480D591D6A1D7B1D4D9398
S11320705D936D937C931397D9018C918823C9F058
S1132080408151814115510519F433AA22AA11C086
S1132090848995898417950764F433AA22AA019642
S11320A0958B848B8417950724F082E090E093ABA2
S11320B082AB3296AD81BE811496BE83AD832F5F11
S11320C03F4F89819A81E817F90709F0ABCFE12CDA
S11320D0F12CF801EA56FF4F8081918181309105FE
S11320E071F0029791F4D8019896ED91FC9199972B
S11320F00995B7018B819C810E94A30F06C0D8016A
S11321009896ED91FC9199970995BFEFEB1AFB0A0C
S11321100E5F1F4F8AE0E816F104D9F626960FB633
S1132120F894DEBF0FBECDBFDF91CF911F910F9109
S1132130FF90EF90DF90CF90BF90AF909F908F90E3
S11321407F906F905F904F903F902F9008950F93E2
S11321501F93CF93DF936A30710574F4EB018C0104
S11321600E943B18CC0FDD1FCC0FDD1FC00FD11F09
S1132170688379838A839B83DF91CF911F910F9129
S113218008956A3071053CF4680F791FFB01E45728
S1132190FF4F81E0808308956A30710534F4680F3D
S11321A0791FFB01E457FF4F108208951092CD026E
S11321B081E08093CB021092CA0261E082E10E9426
S11321C0B21961E083E10E94B219E9EBF0E0808189
S11321D08E7F808380818D7F808388E48093B800A4
S11321E085E48093BC0008950F93413208F04AC0FF
S11321F09091CD029111FCCF32E03093CD02009347
S1132200CB023FEF309360021092A5024093A402E8
S1132210562FA6EAB2E0FB013E2F351B341718F403
S113222031913D93F9CF1092CC023091CC02880FBA
S1132230832B8093CC028091CA02813061F4109286
S1132240CA028091CC028093BB008091BC0083FDC4
S1132250F8CF85EC01C085EE8093BC00222321F0E9
S11322608091CD028230D1F3809160028F3F79F06A
S113227080916002803241F080916002803331F0BD
S113228094E005C091E003C092E001C093E0892F7F
S11322900F91089540918202262F30E0240F311DC2
S11322A021323105DCF42091CD022430C9F4FC0143
S11322B080E090E0861758F4309182022191DC018D
S11322C0AC57BD4FA30FB11D2C930196F3CF809152
S11322D08202680F6093820280E0089581E008958D
S11322E082E0089585ED8093BC008091BC0084FD5C
S11322F0FCCF1092CD02089585EC8093BC0010921F
S1132300CD0208951F920F920FB60F9211242F93AE
S11323103F934F935F936F937F938F939F93AF9369
S1132320BF93EF93FF938091B900887F803609F4BF
S11323309EC078F5883209F45DC090F4803109F4C8
S113234056C038F4882309F4F5C0883009F44FC026
S1132350F5C0883109F44EC0803209F45FC0EEC084
S1132360803409F46AC058F4803309F457C08833C0
S113237009F0E4C0809360020E947C11DFC08035C4
S113238009F44FC0883509F45DC0883409F0D6C01B
S1132390D3C0883909F4C4C0A8F4883709F467C0E5
S11323A038F4883609F463C0803709F460C0C6C0C5
S11323B0883809F4B5C0803909F45FC0803809F061
S11323C0BDC05BC0803B09F483C038F4803A09F493
S11323D066C0883A09F47CC0B1C0803C09F4A4C04A
S11323E0883C09F4A1C0883B09F487C0A7C0809148
S11323F0CC0210C09091A5028091A402981770F5A8
S1132400E091A50281E08E0F8093A502F0E0EA55E9
S1132410FD4F80818093BB0085EC83C08093600274
S11324208BC0E091A50281E08E0F8093A50280917C
S1132430BB00F0E0EA55FD4F80839091A5028091A6
S1132440A4026BC0E091A50281E08E0F8093A502E7
S11324508091BB00F0E0EA55FD4F80838091CB0270
S113246081116AC081E08093CA0284EA5EC083E07D
S11324708093CD0210926102CFCF809161028032AD
S113248008F04EC0E091610281E08E0F80936102FA
S11324908091BB00F0E0EE59FD4F8083BDCF0E94D8
S11324A07C1180916102803230F4E0916102F0E0AD
S11324B0EE59FD4F10826091610270E0E091C60216
S11324C0F091C70282E692E009951092610236C04B
S11324D084E08093CD021092830210928202E091F4
S11324E0C802F091C902099580918202811105C048
S11324F081E08093820210928402E091830281E061
S11325008E0F80938302F0E0EC57FD4F808180931F
S1132510BB009091830280918202981708F47CCFCB
S113252085E88093BC000AC085EC8093BC001092BF
S1132530CD0204C0109260020E947211FF91EF91CB
S1132540BF91AF919F918F917F916F915F914F91C7
S11325503F912F910F900FBE0F901F90189580916F
S1132560FE0290E02091FF02821B91090895909150
S1132570FF028091FE02981750F4E92FF0E0E0503A
S1132580FD4F208130E09F5F9093FF0202C02FEF48
S11325903FEFC9010895E091FF028091FE02E81720
S11325A030F4F0E0E050FD4F808190E008958FEF2B
S11325B09FEF08950895CF92DF92EF92FF920F93C9
S11325C01F93CF93DF937C01CB018A012091DA0220
S11325D0222389F0EB016B01C40ED51ECC15DD0559
S11325E069F06991D701ED91FC910190F081E02DA2
S11325F0C7010995F3CF642F0E944A11C801DF91E6
S1132600CF911F910F91FF90EF90DF90CF9008959D
S1132610CF93DF931F92CDB7DEB769832091DA029F
S11326202223D1F02091DB02203240F021E030E07F
S1132630FC013383228380E090E015C08091DC02AA
S1132640E82FF0E0E352FD4F998190838F5F8093F0
S1132650DC028093DB0205C061E0CE0101960E949A
S11326604A1181E090E00F90DF91CF910895FC0131
S11326701382128288EE93E0A0E0B0E08483958315
S1132680A683B78388EB91E09183808308951092A9
S1132690FF021092FE021092DC021092DB020C94F4
S11326A0D61081E08093DA026093FD021092DC027E
S11326B01092DB0208950F93062F21E04091DB0274
S11326C06DED72E08091FD020E94F4101092DC0224
S11326D01092DB021092DA020F91089561E00C94DB
S11326E05B138EEC92E00C943713DF92EF92FF921F
S11326F00F931F93CF93DF938C01D62EE42EF22EEB
S113270083E090E00E94ED15EC012D2D4E2D6F2DF0
S11327100E94740BF801D183C08364EF71E080E000
S113272090E0DF91CF911F910F91FF90EF90DF9098
S11327300C946C18FC01808191810C94C80B505846
S1132740BB27AA270E94B7130C9431150E942315A6
S113275038F00E942A1520F039F49F3F19F426F42A
S11327600C9420150EF4E095E7FB0C941A15E92F50
S11327700E94421558F3BA17620773078407950736
S113278020F079F4A6F50C9464150EF4E0950B2E64
S1132790BA2FA02D0B01B90190010C01CA01A001AF
S11327A01124FF27591B99F0593F50F4503E68F10A
S11327B01A16F040A22F232F342F4427585FF3CF4B
S11327C0469537952795A795F0405395C9F77EF41C
S11327D01F16BA0B620B730B840BBAF09150A1F065
S11327E0FF0FBB1F661F771F881FC2F70EC0BA0FEB
S11327F0621F731F841F48F4879577956795B79573
S1132800F7959E3F08F0B0CF9395880F08F099276D
S1132810EE0F9795879508950E94F61408F481E0C9
S113282008950E9425140C9431150E942A1558F01D
S11328300E94231540F029F45F3F29F00C941A15E7
S113284051110C9465150C9420150E94421568F3DF
S11328509923B1F3552391F3951B550BBB27AA2755
S113286062177307840738F09F5F5F4F220F331F8F
S1132870441FAA1FA9F335D00E2E3AF0E0E832D057
S113288091505040E695001CCAF72BD0FE2F29D05A
S1132890660F771F881FBB1F261737074807AB072C
S11328A0B0E809F0BB0B802DBF01FF2793585F4FA1
S11328B03AF09E3F510578F00C941A150C94651566
S11328C05F3FE4F3983ED4F3869577956795B79583
S11328D0F7959F5FC9F7880F911D9695879597F98E
S11328E00895E1E0660F771F881FBB1F6217730707
S11328F08407BA0720F0621B730B840BBA0BEE1F1C
S113290088F7E09508950E948A146894B1110C9494
S1132910651508950E944A1588F09F5798F0B92FBD
S11329209927B751B0F0E1F0660F771F881F991F00
S11329301AF0BA95C9F714C0B13091F00E94641529
S1132940B1E008950C946415672F782F8827B85F39
S113295039F0B93FCCF3869577956795B395D9F758
S11329603EF490958095709561957F4F8F4F9F4F62
S11329700895E89409C097FB3EF49095809570956E
S113298061957F4F8F4F9F4F9923A9F0F92F96E9B7
S1132990BB279395F695879577956795B795F1112C
S11329A0F8CFFAF4BB0F11F460FF1BC06F5F7F4FC9
S11329B08F4F9F4F16C0882311F096E911C07723DB
S11329C021F09EE8872F762F05C0662371F096E8E4
S11329D0862F70E060E02AF09A95660F771F881FB3
S11329E0DAF7880F9695879597F90895990F000857
S11329F0550FAA0BE0E8FEEF16161706E807F907CD
S1132A00C0F012161306E407F50798F0621B730B67
S1132A10840B950B39F40A2661F0232B242B252BE8
S1132A2021F408950A2609F4A140A6958FEF811D8B
S1132A30811D089597F99F6780E870E060E008952C
S1132A409FEF80EC089500240A94161617061806C2
S1132A500906089500240A9412161306140605069E
S1132A600895092E0394000C11F4882352F0BB0F2F
S1132A7040F4BF2B11F460FF04C06F5F7F4F8F4F92
S1132A809F4F089557FD9058440F551F59F05F3FCD
S1132A9071F04795880F97FB991F61F09F3F79F07C
S1132AA087950895121613061406551FF2CF4695FE
S1132AB0F1DF08C0161617061806991FF1CF869580
S1132AC07105610508940895E894BB276627772764
S1132AD0CB0197F908950E94F61408F48FEF089536
S1132AE00E9483150C9431150E94231538F00E941E
S1132AF02A1520F0952311F00C941A150C94201526
S1132B0011240C9465150E94421570F3959FC1F32E
S1132B10950F50E0551F629FF001729FBB27F00D87
S1132B20B11D639FAA27F00DB11DAA1F649F6627DC
S1132B30B00DA11D661F829F2227B00DA11D621F2B
S1132B40739FB00DA11D621F839FA00D611D221FE5
S1132B50749F3327A00D611D231F849F600D211DC9
S1132B60822F762F6A2F11249F5750409AF0F1F04C
S1132B7088234AF0EE0FFF1FBB1F661F771F881FB5
S1132B8091505040A9F79E3F510580F00C941A15BE
S1132B900C9465155F3FE4F3983ED4F386957795DE
S1132BA06795B795F795E7959F5FC1F7FE2B880F5B
S1132BB0911D9695879597F9089508950E94B318E5
S1132BC00E94DD150E948607C0E0D0E00E94E7065F
S1132BD02097E1F30E940000F9CF0C94031B0C949E
S1132BE0031B0C949B1BCF92DF92EF92FF920F93E7
S1132BF01F93CF93DF936C017A018B01C0E0D0E087
S1132C00CE15DF0581F0D8016D918D01D601ED91CE
S1132C10FC910190F081E02DC6010995892B11F0FA
S1132C202196EECF7E01C701DF91CF911F910F91C5
S1132C30FF90EF90DF90CF9008956115710579F0C2
S1132C40FB0101900020E9F73197AF01461B570BB8
S1132C50DC01ED91FC910280F381E02D099480E088
S1132C6090E00895DB0114964D915C9115976D9158
S1132C707C91DC01ED91FC910280F381E02D0994BB
S1132C800C941D16DC01ED91FC910190F081E02D76
S1132C9009948F929F92AF92BF92EF92FF920F93FB
S1132CA01F93CF93DF93CDB7DEB7A1970FB6F894F8
S1132CB0DEBF0FBECDBF7C01FA01CB0119A22230C9
S1132CC008F42AE08E010F5D1F4F822E912CA12C57
S1132CD0B12CBF01A50194010E94C11AF901CA01D6
S1132CE0015011096A3010F4605D01C0695CD801BB
S1132CF06C93232B242B252B61F7B801C7010E9469
S1132D001D16A1960FB6F894DEBF0FBECDBFDF919E
S1132D10CF911F910F91FF90EF90BF90AF909F9034
S1132D208F9008952115310541F4DC01ED91FC915A
S1132D300190F081E02D642F09940C9449169A01B6
S1132D40AB0160E070E00C9492167F928F929F9298
S1132D50AF92BF92CF92DF92EF92FF920F931F93A5
S1132D60CF93DF938C016A017B01722E9A01AB0130
S1132D70C701B6010E94BC1A882319F069EC71E0FE
S1132D8027C046015701E894B7F82FEF3FEF4FE70C
S1132D905FE7C501B4010E94BC1A81110DC02FEF79
S1132DA03FEF4FE75FE7C501B4010E940C1418160A
S1132DB01CF46DEC71E00CC02FEF3FEF4FE75FE4C4
S1132DC0C701B6010E946B15181694F461ED71E009
S1132DD0C801DF91CF911F910F91FF90EF90DF9089
S1132DE0CF90BF90AF909F908F907F900C941D16C2
S1132DF02FEF3FEF4FE75FECC701B6010E940C14C1
S1132E0087FDE4CF20E030E0A901C701B6010E94AC
S1132E100C1487FF0AC06DE2C8010E944216EC013F
S1132E20F7FAF094F7F8F09402C0C0E0D0E0B12CC7
S1132E3060E070E080E09FE37B1441F020E030E04C
S1132E4040E251E40E941114B394F6CFA701960115
S1132E500E94A0136B017C010E948A144B015C0147
S1132E602AE0AB01BC01C8010E944916C80FD91F52
S1132E707720B9F1C501B4010E94B9149B01AC01DA
S1132E80C701B6010E949F136B017C016EE2C80169
S1132E900E944216C80FD91F20E030E040E251E4FE
S1132EA0C701B6010E9470154B015C010E948A148F
S1132EB06B017C014AE050E0C8010E949F16C80FD4
S1132EC0D91FB60180E090E00E94B9149B01AC01C7
S1132ED0C501B4010E949F136B017C017A947110A7
S1132EE0DBCFCE01DF91CF911F910F91FF90EF9037
S1132EF0DF90CF90BF90AF909F908F907F90089578
S1132F000C94A51608958230E8F4E82FF0E0EE0F53
S1132F10FF1FE05FFE4F71836083813041F0809139
S1132F2069008C7F482B40936900E89A089580914A
S1132F306900837F440F551F440F551F482B40934E
S1132F406900E99A08951F920F920FB60F92112407
S1132F502F933F934F935F936F937F938F939F939D
S1132F60AF93BF93EF93FF93E0911001F0911101A0
S1132F700995FF91EF91BF91AF919F918F917F91AF
S1132F806F915F914F913F912F910F900FBE0F90D2
S1132F901F9018951F920F920FB60F9211242F9322
S1132FA03F934F935F936F937F938F939F93AF93CD
S1132FB0BF93EF93FF93E0911201F09113010995F0
S1132FC0FF91EF91BF91AF919F918F917F916F91FD
S1132FD05F914F913F912F910F900FBE0F901F90D3
S1132FE018951F920F920FB60F9211242F933F93AF
S1132FF08F939F93AF93BF9380912103909122036A
S1133000A0912303B09124033091200323E0230FE4
S11330102D3720F40196A11DB11D05C026E8230F0C
S11330200296A11DB11D2093200380932103909348
S11330302203A0932303B09324038091250390914A
S11330402603A0912703B09128030196A11DB11D69
S11330508093250390932603A0932703B09328031A
S1133060BF91AF919F918F913F912F910F900FBE80
S11330700F901F9018952FB7F894609121037091C9
S1133080220380912303909124032FBF08953FB717
S1133090F8948091250390912603A0912703B09181
S11330A0280326B5A89B05C02F3F19F00196A11D42
S11330B0B11D3FBFBA2FA92F982F8827820F911DCA
S11330C0A11DB11DBC01CD0142E0660F771F881F11
S11330D0991F4A95D1F708958F929F92AF92BF920C
S11330E0CF92DF92EF92FF926B017C010E9447180E
S11330F04B015C01C114D104E104F10401F10E940B
S1133100BB1A0E944718DC01CB0188199909AA0946
S1133110BB09883E9340A105B10560F321E0C21AC2
S1133120D108E108F10888EE880E83E0981EA11CFE
S1133130B11CC114D104E104F10419F7DBCFFF90F1
S1133140EF90DF90CF90BF90AF909F908F900895B5
S11331508230910538F0880F991F880F991F0597C1
S11331600197F1F70895789484B5826084BD84B59D
S1133170816084BD85B5826085BD85B5816085BD6E
S1133180EEE6F0E0808181608083E1E8F0E0108287
S1133190808182608083808181608083E0E8F0E0C8
S11331A0808181608083E1EBF0E0808184608083B2
S11331B0E0EBF0E0808181608083EAE7F0E08081E9
S11331C08460808380818260808380818160808349
S11331D08081806880831092C10008951F93CF93EB
S11331E0DF93182FEB0161E00E947619209711F408
S11331F060E004C0CF3FD10539F461E0812FDF9155
S1133200CF911F910C94B219E12FF0E0E859FF4FD0
S1133210E491E330F9F048F4E130B9F0E230A1F59B
S113322084B5806284BDC8BD34C0E730E9F0E830BD
S113323019F1E43049F58091800080628093800028
S1133240D0938B00C0938A0024C084B5806884BD69
S1133250C7BD1FC080918000806880938000D09398
S11332608900C093880015C08091B0008068809365
S1133270B000C093B3000DC08091B0008062809311
S1133280B000C093B40005C0C038D1050CF0B5CF70
S1133290AFCFDF91CF911F910895833081F028F44F
S11332A0813099F08230A1F008958730A9F08830F8
S11332B0B9F08430D1F4809180008F7D03C0809177
S11332C080008F7780938000089584B58F7702C043
S11332D084B58F7D84BD08958091B0008F7703C03D
S11332E08091B0008F7D8093B0000895CF93DF93D9
S11332F090E0FC01E458FF4F2491FC01E057FF4F9C
S11333008491882361F190E0880F991FFC01E854AF
S1133310FF4FC591D491FC01E255FF4FA591B491A3
S1133320611109C09FB7F89488812095822388830E
S1133330EC912E230BC0623061F49FB7F89488811E
S1133340322F309583238883EC912E2B2C939FBFAF
S113335006C08FB7F894E8812E2B28838FBFDF91A6
S1133360CF9108951F93CF93DF93282F30E0F90175
S1133370E859FF4F8491F901E458FF4FD491F901C2
S1133380E057FF4FC491CC23C1F0162F81110E9446
S11333904D19EC2FF0E0EE0FFF1FE255FF4FA59102
S11333A0B4919FB7F894111104C08C91D095D8238F
S11333B002C0EC91DE2BDC939FBFDF91CF911F9174
S11333C00895CF93DF93282F30E0F901E859FF4F98
S11333D08491F901E458FF4FD491F901E057FF4F6C
S11333E0C491CC2391F081110E944D19EC2FF0E08F
S11333F0EE0FFF1FEC55FF4FA591B491EC91ED2317
S113340081E090E021F480E002C080E090E0DF9170
S1133410CF910895FC01808191810C949B1BCF93E3
S1133420DF93EC0188819981009711F00E949B1B26
S1133430198218821D821C821B821A82DF91CF910D
S113344008950F931F93CF93DF93EC018B016F5F6C
S11334507F4F888199810E94241C009731F09983C1
S113346088831B830A8381E001C080E0DF91CF91D0
S11334701F910F910895CF93DF93EC018881998177
S1133480892B29F08A819B818617970760F4CE01E6
S11334900E94211A882341F08C819D81892B19F483
S11334A0E881F981108281E0DF91CF910895EF9254
S11334B0FF920F931F93CF93DF93EC017B018A015B
S11334C0BA010E943B1A811104C0CE010E940F1A56
S11334D007C01D830C83B701888199810E94F31C66
S11334E0CE01DF91CF911F910F91FF90EF9008953E
S11334F0CF93DF93EC016115710559F0FB01019045
S11335000020E9F73197AF01461B570B0E94571A69
S113351002C00E940F1ACE01DF91CF9108950F933C
S11335201F93CF93DF93CDB7DEB762970FB6F894AE
S1133530DEBF0FBECDBF8C01CB01F801118210821A
S1133540138212821582148250E0BE016F5F7F4F96
S11335500E94FA1CBE016F5F7F4FC8010E94781A57
S113356062960FB6F894DEBF0FBECDBFDF91CF9148
S11335701F910F91089508950E94F614880B990BDA
S11335800895A1E21A2EAA1BBB1BFD010DC0AA1FA0
S1133590BB1FEE1FFF1FA217B307E407F50720F0B8
S11335A0A21BB30BE40BF50B661F771F881F991F33
S11335B01A9469F760957095809590959B01AC017C
S11335C0BD01CF0108950E94F41AA59F900DB49FE8
S11335D0900DA49F800D911D11240895EE0FFF1FDF
S11335E00590F491E02D0994A29FB001B39FC0010E
S11335F0A39F700D811D1124911DB29F700D811D1B
S11336001124911D08950F931F93CF93DF9382305C
S1133610910510F482E090E0E0912B03F0912C03EB
S113362020E030E0A0E0B0E0309719F14081518112
S11336300281138148175907C8F08417950769F464
S1133640109731F012960C93129713961C9327C07F
S113365000932B0310932C0322C02115310519F07C
S11336604217530718F49A01BD01EF01DF01F80175
S1133670DBCF21153105F9F0281B390B2430310536
S113368080F48A819B816115710521F0FB0193838C
S1133690828304C090932C0380932B03FE01329603
S11336A044C0FE01E20FF31F81939193225031092C
S11336B0398328833AC02091290330912A03232B8C
S11336C041F4209102013091030130932A032093A5
S11336D0290320910001309101012115310541F4A4
S11336E02DB73EB74091040150910501241B350BC1
S11336F0E0912903F0912A03E217F307A0F42E1BAB
S11337003F0B2817390778F0AC014E5F5F4F241741
S1133710350748F04E0F5F1F50932A034093290347
S11337208193919302C0E0E0F0E0CF01DF91CF916B
S11337301F910F910895CF93DF93009709F481C0EF
S1133740FC01329713821282A0912B03B0912C03B7
S1133750109781F420813181820F931F20912903D6
S113376030912A032817390751F5F0932A03E0937F
S1133770290367C0ED0120E030E0CE17DF0740F4F5
S11337804A815B819E0141155105F1F0EA01F5CFB3
S1133790D383C28340815181840F951FC817D907F1
S11337A059F488819981840F951F029691838083AF
S11337B08A819B81938382832115310529F4F093B7
S11337C02C03E0932B033DC0E901FB83EA83499179
S11337D05991C40FD51FEC17FD0761F480819181C5
S11337E0840F951F0296E9019983888382819381CE
S11337F09B838A83E0E0F0E012968D919C9113976D
S1133800009719F0FD01DC01F7CF8D919C91119780
S11338109D012E5F3F4F820F931F2091290330910A
S11338202A032817390769F4309729F410922C03D6
S113383010922B0302C013821282B0932A03A09326
S11338402903DF91CF910895A0E0B0E0EAE2FCE122
S11338500C94541DEC01009721F4CB010E94031B2E
S1133860B4C0FC01E60FF71F9C0122503109E21796
S1133870F30708F4A8C0D9010D911C9111970617FC
S11338801707B0F00530110508F49BC0C801049770
S11338908617970708F495C002501109061B170BE9
S11338A0019311936D937C93CF010E949B1B89C05C
S11338B05B01A01AB10A4C01800E911EA0912B034A
S11338C0B0912C03612C712CE12CF12C109709F48C
S11338D046C08D919C911197A815B905B1F56C015D
S11338E042E0C40ED11CCA14DB0478F14C018A18DE
S11338F09B08640142E0C40ED11C1296BC9012973E
S11339001396AC91B5E0CB16D10440F0B282A383F8
S113391091828082D9016D937C9309C00E5F1F4F01
S1133920800F911FF90191838083EB2DFA2FE1140D
S1133930F10431F0D7011396FC93EE93129741C032
S1133940F0932C03E0932B033CC06816790608F42B
S11339503C017D0112960D90BC91A02DB7CF8091B2
S1133960290390912A0388169906E1F466167706CE
S1133970C8F48091000190910101009741F48DB742
S11339809EB74091040150910501841B950BE817E3
S1133990F907C8F4F0932A03E0932903F90171832A
S11339A060830FC0CB010E94031B7C01009759F078
S11339B0A801BE010E94EA1CCE010E949B1BC70104
S11339C004C0CE0102C080E090E0CDB7DEB7EEE0E7
S11339D00C94701DFB01DC0102C001900D9241505A
S11339E05040D8F70895FB01DC0101900D920020AE
S11339F0E1F708954532510520F4423010F00C945B
S1133A00051DFB011082CB010895BB274A3031F418
S1133A10992322F4BDE2909581959F4F0C94111D3A
S1133A20BB27FB015527AA27880F991FAA1FA41794
S1133A3010F0A41B83955051B9F7A05DAA3308F088
S1133A40A95DA193009779F7B111B1931192CB01BC
S1133A500C942A1DDC01FC01672F71917723E1F797
S1133A60329704C07C916D9370836291AE17BF0747
S1133A70C8F30895F999FECF92BD81BDF89A9927AC
S1133A8080B50895262FF999FECF1FBA92BD81BD46
S1133A9020BD0FB6F894FA9AF99A0FBE01960895CC
S1133AA02F923F924F925F926F927F928F929F924A
S1133AB0AF92BF92CF92DF92EF92FF920F931F9338
S1133AC0CF93DF93CDB7DEB7CA1BDB0B0FB6F894E9
S1133AD0DEBF0FBECDBF09942A88398848885F8429
S1133AE06E847D848C849B84AA84B984C884DF809A
S1133AF0EE80FD800C811B81AA81B981CE0FD11D7E
S1133B000FB6F894DEBF0FBECDBFED010895F89453
S1053B10FFCFE1
S1133B1200002D03200001010000C84100001643EB
S1133B22821782170000400014005400553A0044E2
S1133B323A0043200020202000430025000000001A
S1133B42000803180317031703090311030D0317CE
S1133B52030000000026037403270349036B037662
S1133B62036F03730300000000AF030204B003CD2C
S1133B7203EA030404FA03FE03424F54544F4D2054
S1133B824845415445523A005345542054454D50FA
S1133B92205550005345542054454D5020444F570E
S1133BA24E003C3C5354415254003C3C53544F50FD
S1133BB2003C3C455849540000000000150BF31525
S1133BC2660A690A000000000813DB12660ADA12A8
S1133BD2AF12B712CB120D0A006E616E00696E66E7
S1093BE2006F766600008E
S9030000FC
